S0160000626564706F6476372D666F6375732E73726563A6
S3150800000000000520BD600108AD020108EF020108E5
S31508000010F1020108F3020108F502010800000000D8
S31508000020000000000000000000000000F7020108C0
S31508000030F902010800000000FB020108FD020108A0
S31508000040596101085D61010861610108656101087E
S31508000050696101086D6101081B0301082503010890
S315080000602F030108390301084303010871610108D8
S3150800007075610108796101087D61010881610108DE
S3150800008085610108896101088D610108916101088E
S3150800009095610108996101089D6101084D030108F0
S315080000A0A1610108A5610108A9610108AD610108FE
S315080000B0B1610108B5610108B9610108BD610108AE
S315080000C0C1610108C5610108C9610108CD6101085E
S315080000D0D1610108D561010811030108D961010838
S315080000E07303010813030108DD610108E1610108D2
S315080000F0E5610108E9610108ED610108F16101089E
S31508000100F5610108F9610108FD610108016201084C
S3150800011005620108096201080D62010811620108F9
S31508000120B903010815620108196201081D62010870
S315080001302162010825620108296201082D62010869
S3150800014031620108050301083562010839620108B0
S315080001503D620108416201084562010849620108D9
S315080001604D62010851620108556201085962010889
S315080001705D6201086162010865620108000000000D
S31508000180696201086D6201087162010875620108F9
S3150800019079620108A70301087D62010881620108E6
S315080001A085620108896201088D6201083EB503F07F
S315080001B05CFB0500DFF8DC0A0078022804D0DFF8CB
S315080001C0D80A406B804701E001F0A1F8DFF8CC0AB5
S315080001D0007801283BD1DFF8C80A0168DFF8C40AAD
S315080001E003F030FBDFF8BC0A03F008FADFF8A40ACC
S315080001F0007802280AD0DFF8B00A0168DFF8AC0AEE
S3150800020003F020FBDFF8A40A03F0F8F9DFF8840A04
S315080002100078022804D0DFF8980A0078012833D13C
S3150800022012208DF800006946DFF8880A007803F086
S3150800023050FB0400DFF8700A01686118DFF8780AD5
S3150800024003F000FBDFF8700A03F0D8F91CE0002081
S31508000250DFF8681A48700420DFF8641A4870DFF877
S31508000260640A0078002807D1DFF8580A007850F0A9
S315080002700100DFF8501A0870DFF8480A007850F0D5
S315080002801000DFF8401A0870DFF8380A0078C0F363
S31508000290C000C0B2002809D0DFF8240A0078002878
S315080002A004D10120DFF8201A087003E00020DFF8E7
S315080002B0181A0870DFF8140A0078DFF8141A08709C
S315080002C0DFF8080A00788DF80400DFF8080A0078D5
S315080002D08DF80500029501A9DFF8D809007803F022
S315080002E009FBDFF8F4090560DFF8C409007800287F
S315080002F00AD10020DFF8C4194870DFF8E009007851
S31508000300401CDFF8D819087037BD80B5DFF8D0096A
S31508000310006850F04000DFF8C8190860DFF8900957
S315080003200078002801D001F043F8DFF89809007832
S3150800033050F00200DFF88C190870DFF88809007899
S3150800034050F01000DFF87C1908700121DFF89409D5
S3150800035003F078FADFF88C0903F050F901BD2DE9AE
S31508000360FC4F8FB006000F0000208DF80F00002507
S31508000370002007905FF00008FF208DF8110000208C
S315080003808DF80E00002006905FF000090020ADF8F9
S3150800039028000020ADF816000020ADF814005FF024
S315080003A0000A0024DFF840090990DFF840090B909D
S315080003B000208DF80D0000208DF810000020DFF8D1
S315080003C0FC180871BDF83C00DFF82419C8819DF8AF
S315080003D04000DFF81C190874DFF818090078DFF800
S315080003E0101948740020DFF80819C8700020DFF8D3
S315080003F0001988700020DFF8F81848710020DFF827
S31508000400F01888600020DFF8E81808730020DFF885
S31508000410E01848730020DFF8D81888740020DFF841
S31508000420D01848610020DFF8C8180870DFF8680897
S31508000430406B8047DFF8740803F09EF92800C0B2C5
S31508000440305C8DF812006D1C9DF81200C0B2400990
S31508000450C0B2012809D0032800F0FB80052800F067
S31508000460F880072800F0578371E3DFF868080078FA
S31508000470012806D10120DFF878184870FFF745FFF4
S3150800048077E3DFF87438DFF874080268791E89B2F2
S31508000490701C03F078FC9DF81200DFF864180870E9
S315080004A006ABDFF858080268391F89B2DFF850082A
S315080004B003F041FCDFF84808390089B2084410F80F
S315080004C0040C50EA0909DFF83808390089B20844EB
S315080004D010F8030C59EA0029DFF82408390089B214
S315080004E0084410F8020C59EA0049DFF814083900E4
S315080004F089B2084410F8010C59EA00690698814542
S3150800050040F0A280DFF8E4070090DFF8DC37DFF878
S31508000510F4070288DFF8E017DFF8E007006803F061
S3150800052052FCDFF8DC070079DFF8DC170860DFF833
S31508000530D8070068DFF8C817497950EA0120DFF8BC
S31508000540C8170860DFF8C0070068DFF8B4178979AC
S3150800055050EA0140DFF8B0170860DFF8A407C07951
S31508000560DFF8A8170860DFF8A4070068DFF8901717
S31508000570097A50EA0120DFF894170860DFF88C073B
S315080005800068DFF87C17497A50EA0140DFF87C17E3
S315080005900860DFF878070068DFF86417897A50EA98
S315080005A00160DFF868170860DFF85407C07AC0F3FF
S315080005B00210DFF85C1781F82100DFF84407C07ADB
S315080005C010F00F00DFF8481781F82800DFF8300729
S315080005D0007B10F00F00DFF838170861DFF83007E6
S315080005E00069002803D10120DFF824170861DFF825
S315080005F0200701694FF47A704143DFF81407016157
S31508000600DFF80C07006910F57A70DFF804174861FF
S31508000610DFF800070D9017F1EF008DF838000DA9E7
S31508000620DFF89006007803F08EF90020DFF89016C0
S3150800063048700120DFF89C160870DFF8DC06407861
S31508000640DFF8CC16487003E00720DFF87416487008
S3150800065082E2DFF8BC0690F82D008DF82200DFF85C
S31508000660900690F904008DF8210009208DF82000E5
S31508000670DFF8540B0078012802D10A208DF82000F3
S3150800068008A9DFF83006007803F023F90C90B7F1D3
S315080006900D0000B2002801D5002002E0B7F10D00D8
S315080006A000B20C99814206D20120DFF84416487040
S315080006B0FFF72BFE5DE22800C0B2305C6D1C2900F6
S315080006C0C9B2715C50EA01206D1C2900C9B2715C7F
S315080006D050EA01406D1C2900C9B2715C50EA0160FC
S315080006E007906D1C0798DFF824160968884221D000
S315080006F0DFF8D80A00680400002C10D00798216893
S3150800070088420AD101208DF80D00201D099014F1A8
S3150800071014000B90606A824601E0A46AECE79DF833
S315080007200D00002813D10B20DFF8C4154870FFF719
S31508000730ECFD1EE200208DF80D00DFF8AC050990EF
S31508000740DFF8A8050B90DFF8280B0068824628001A
S31508000750C0B2305C8DF80C006D1C2800C0B2305C4D
S315080007606D1C2900C9B2715C50EA0120ADF8280059
S315080007706D1C9DF80C0010F00F00083080463800FC
S3150800078080B2304410F8040C50EA0909380080B2E7
S31508000790304410F8030C59EA0029380080B2304476
S315080007A010F8020C59EA0049380080B2304410F8B3
S315080007B0010C59EA00695046ADF81600BDF8281034
S315080007C0BDF81600091AADF81410BDF81400B0F5F6
S315080007D0004F17DABDF814001AFA80FA06A8029034
S315080007E0CDF804A001200090079B099A391F89B209
S315080007F0300003F0ABF9069881451DD101208DF82C
S31508000800100019E0BDF814000AFA80FB1BF5803BBE
S3150800081006A80290CDF804B001200090079B099A1B
S31508000820391F89B2300003F091F90698814503D142
S3150800083001208DF81000DA4611208DF8200008A94D
S31508000840DFF87004007803F044F88346BDF8140016
S3150800085058450AD30A20DFF898144870DFF8900440
S31508000860C0F814A0FFF751FD83E19DF81000002899
S3150800087000F04B810020DFF8781448709DF80D00D1
S31508000880DFF86C1488709DF80C00C0F30010DFF8D0
S31508000890601448710020DFF8581488600020DFF8DB
S315080008A050140873DFF84804C0F814A00020DFF8D5
S315080008B00C1448700020DFF8EC1A08600020DFF8F6
S315080008C0E81A08709DF80D00012817D10220DFF8F4
S315080008D020140870606A50450DD1606A00280AD055
S315080008E00820DFF80C144870DFF80404C0F814A0D8
S315080008F0FFF70BFD3DE1C4F824A03CE09DF812008B
S31508000900C0B24009052815D10120DFF8A01A0870E1
S315080009100120DFF8DC130870DFF854090068504539
S3150800092025D1DFF84C090068002820D001208DF871
S315080009300F001CE00020DFF8741A08700020DFF8AA
S31508000940B0130870DFF82809006850450FD1DFF8A2
S315080009502009006800280AD00820DFF89413487098
S31508000960DFF88C03C0F814A0FFF7CFFC01E1DFF82D
S315080009700009C0F800A0DFF84403007801280BD16D
S315080009809DF80C00C0F34010C0B2002808D0002023
S31508000990DFF8881A087003E00020DFF8801A08706C
S315080009A0390089B2091F4046C0B2091A012969DB14
S315080009B04046C0B2305C8DF8110018F1010817F1F5
S315080009C0FC00B0EB08008DF80E009DF81100DFF86A
S315080009D02013C8709DF81100002824D19DF80C003A
S315080009E010F00F0F1BD1DFF818030290CDF804A002
S315080009F001200090079B099A9DF80E1089B240467F
S31508000A00C0B2304403F083F99DF840000300DBB21E
S31508000A109DF80E200021BA4800F0EFFE41E00120C3
S31508000A208DF80F003DE09DF80C0010F00F0F0AD06E
S31508000A309DF840000300DBB2B8F10102D2B20821EA
S31508000A40300000F0DAFEAE480290CDF804A001208E
S31508000A500090079B0B9A9DF80E1089B24046C0B2CB
S31508000A60304403F054F99DF80F00002819D1A44822
S31508000A709F4988609DF80E009D49087301209C498E
S31508000A8048730EE09DF80C0010F00F0F09D09DF882
S31508000A9040000300DBB24246D2B20821300000F023
S31508000AA0ACFE9DF80F0000281ED19DF80C00C0F37F
S31508000AB04010C0B2002809D00120804908710120E1
S31508000AC08B4988747C4802F057FE0DE000207B496C
S31508000AD00871DFF8BC090078DFF8B8190978884288
S31508000AE002D2754802F048FE7648007850F00200B7
S31508000AF0744908707348007810F0FB009DF80F10D1
S31508000B0050EA81006F49087026E00C207849487041
S31508000B10FFF7FBFB2DE03A0092B22800C0B206EBC5
S31508000B200001774803F0CAF90320714908700020CC
S31508000B306F49487072486E498860781B6C4908731B
S31508000B406048007850F002005E49087004E0012011
S31508000B5067494870FFF7D9FB5A48007850F01000EB
S31508000B605849087001215F4802F06CFE5D4802F0A2
S31508000B7045FD11B0BDE8F08F80B5464800780228DB
S31508000B8003D04548406B804701E000F0C0FB0220D7
S31508000B904A49487002204A4948704A48007850F045
S31508000BA010004849087001BD80B53A480078022807
S31508000BB003D03948406B804701E000F0A8FB4D4858
S31508000BC00078002818D13A480078012802D1052073
S31508000BD03A49487005203A4948703F48006802F08B
S31508000BE04CFE31490968884216D33648007850F0D9
S31508000BF01000344908700FE02D480078012802D10A
S31508000C0006202E49487006202D4948702D48007840
S31508000C1050F010002B49087001BD80B51D480078BA
S31508000C20022803D01C48406B804701E000F06FFBA8
S31508000C3030480078002818D11D480078012802D1CC
S31508000C4003201E49487003201D4948702248006841
S31508000C5002F013FE1449096888421AD31948007825
S31508000C6050F010001749087013E011480078012861
S31508000C7002D10420114948700420114948700548DA
S31508000C800078022805D00F48007850F010000D496A
S31508000C90087001BD7C100320EC5D0108CC0103201F
S31508000CA020100320B00E032024100320C40E0320B6
S31508000CB0831003207B100320000F0320140F03204A
S31508000CC0CC0F0320921003208D1003208B100320D5
S31508000CD08C1003208110032008100320881003209D
S31508000CE014100320880E0320740F0320840F03209A
S31508000CF0440E032091100320C1050320EC0F0320A6
S31508000D00C00503206E100320F00F0320F40F032004
S31508000D10B00C0320CD050320E80C032038B50025C8
S31508000D20DFF8140A02F028FDDFF8100A0078C0F38D
S31508000D300010C0B2002800F0C581DFF8040A007868
S31508000D4040060FD5DFF8F809006830F04000DFF8F4
S31508000D50F0190860DFF8E809006840084000DFF885
S31508000D60E0190860DFF8D409007810F0090F25D0DB
S31508000D70DFF8D0094078022804D0DFF8CC0940789B
S31508000D8002281BD1DFF8B809006840084000DFF8E0
S31508000D90B01908600020DFF884160870DFF8F4063A
S31508000DA00078DFF8A01948710020DFF89819087153
S31508000DB00020DFF89019886001200500DFF88C090B
S31508000DC00078002840F098802800C0B2002840F03B
S31508000DD09380DFF86809007810F0090F00F08C801E
S31508000DE0DFF858090078C0F3C000C0B200283CD02C
S31508000DF0DFF854090078002837D1DFF8540900785D
S31508000E00DFF844198872DFF840094078002810D1C5
S31508000E100020DFF8401908600020DFF83C19087048
S31508000E20DFF81C09006840084000DFF8141908605C
S31508000E3062E0DFF81C090078DFF820190978884293
S31508000E4008D3DFF8FC08006840084000DFF8F0180F
S31508000E50086051E0DFF8E408007810F0EF00DFF8EA
S31508000E60DC18087000F0B4F946E0DFF8EC08007802
S31508000E70DFF8EC1891F82010884207D2DFF8BC0892
S31508000E800078C0F34000C0B200282BD0DFF8AC08C9
S31508000E900078C0F34000C0B200280AD10020DFF86D
S31508000EA07C150870DFF8FC040068401CDFF8F414B1
S31508000EB008600020DFF8A0180870DFF8A808007896
S31508000EC0002806D1DFF88C080068401CDFF8841873
S31508000ED00860DFF86C08006840084000DFF8601812
S31508000EE0086009E0DFF85408007810F0EF00DFF832
S31508000EF04C18087000F06CF9DFF840080078C0F369
S31508000F004000C0B200282ED0DFF838080079012842
S31508000F1007D0DFF87C050078DFF87815097888426D
S31508000F2021D20020DFF8401808700020DFF81C18CE
S31508000F300870DFF830080078002806D1DFF81408B2
S31508000F400068401CDFF80C180860DFF848050078D0
S31508000F50DFF8F0174871DFF8E80700684008400036
S31508000F60DFF8DC170860DFF800080078012840F091
S31508000F70A980DFF8CC070078C00600F1A38000201E
S31508000F80DFF8E4170870DFF80C050078DFF80015BD
S31508000F90097888426BD2DFF8FC040078092866DAFB
S31508000FA0DFF8F0040078401CDFF8E8140870DFF872
S31508000FB0E4040078022190FBF1F201FB12000128FB
S31508000FC017D120208DF80000DFF8940790F82C0040
S31508000FD08DF80200DFF8880740788DF80100694629
S31508000FE0DFF8B00C007802F074FC0400DFF8700734
S31508000FF0447000F05BFE002808D1DFF8400700784F
S3150800100010F0EF00DFF8341708705BE00920DFF80E
S31508001010341748700020DFF804140870DFF820073A
S31508001020006840084000DFF8181708600020DFF85D
S315080010301C1708700020DFF80C170871DFF8540435
S315080010400078DFF800174871DFF814074078DFF8F2
S31508001050F4168870DFF80C070078002832D1DFF81C
S31508001060F4060068401CDFF8EC1608602AE0012147
S31508001070DFF8200C007802F049FCDFF8C4060068A7
S3150800108040084000DFF8B81608600020E3490870F9
S315080010900020DFF8B81608700020DFF8A8160871D7
S315080010A0DFF8F0030078DFF89C164871DFF8B4061D
S315080010B00078002806D1DFF89C060068401CDFF897
S315080010C094160860DFF878060078800707D5DFF8F9
S315080010D07006006830F00200DFF864160860DFF872
S315080010E060060068002835D1DFF85006007810F051
S315080010F0010000280ED0DFF84C06DFF89C1B0968B3
S3150800110009688847DFF83406007810F0FE00DFF833
S315080011102C160870DFF824060078C0F3C000C0B2A9
S3150800112000280ED0DFF82006DFF86C1B09688968EE
S315080011308847DFF80806007810F0F700DFF8FC1596
S315080011400870DFF8F805007810F0EF00DFF8EC1506
S31508001150087009E04FF47A71DFF8DC0502F072FBDB
S31508001160DFF8D40502F04AFADFF8D0050078C0F3B4
S315080011704000C0B2002825D0DFF8200B00780228EE
S3150800118001D100F0C4F8DFF8B4050078C0F3800098
S31508001190C0B2002806D1DFF8080BDFF8FC1A096888
S315080011A049688847DFF89405007810F0FB00DFF8F7
S315080011B08C150870DFF88405007810F0FD00DFF85C
S315080011C07C15087031BD00007E100320F80F03203F
S315080011D0E0B5DFF8D00A02F0CFFADFF86405006858
S315080011E030F01000DFF858150860DFF85005007871
S315080011F0C0F3C000C0B2002836D0DFF84C0500782E
S31508001200002831D100F05CFEDFF844050078401C68
S31508001210ADF806000DF10601DFF8780A007802F04D
S3150800122044FCDFF83C15487000208DF805009DF851
S31508001230050010F01F008DF8050000208DF8040049
S315080012409DF8040010F07F00DFF8581C097850EA72
S31508001250C1108DF80400002000900023002201A987
S315080012600DF1050000F0C6FE00F020FD07BD0000E8
S315080012700010032080B5DFF8B00B02F07DFA0020DD
S31508001280DFF8A81B0870DFF8A80B0078DFF8401D08
S315080012900870DFF8CC0490F92100DFF8341DC87017
S315080012A0DFF8BC0490F82D00DFF8241D0874DFF879
S315080012B0840B0078DFF8181D48740020DFF8101D2D
S315080012C08874DFF8680B0078002801D0012000E058
S315080012D00020DFF8FC1CC874DFF8C0090078022873
S315080012E003D1DFF8F00C806B8047DFF8BC2BDFF802
S315080012F0E01CDFF8A009007802F06BFBDFF8600459
S31508001300C168DFF8CC0C807C00F074F801BD80B5AC
S31508001310DFF8980B02F030FADFF8140B0078DFF8E4
S31508001320901B0870DFF83804406ADFF8841B4860B1
S31508001330DFF82C0490F82D00DFF8741B0874DFF82A
S31508001340F40A0078DFF8681B48740120DFF8601B90
S31508001350C874DFF848090078022804D00020DFF8AE
S31508001360501B887403E00120DFF8441B8874DFF8FB
S31508001370382BDFF83C1BDFF81C09007802F029FB44
S3150800138001280DD1DFF8D803C168DFF8240B807C6B
S3150800139000F030F8DFF8180BC07CDFF8901A0870F8
S315080013A001BD0000041003208710032084100320C9
S315080013B080B5DFF8000B02F0DFF9DFF8900300785C
S315080013C0012809D10120DFF8A0130870DC4800685D
S315080013D030F00400DA490860DFF8DC0A00780228F1
S315080013E007D1DFF8C408007850F01000DFF8B81805
S315080013F0087001BD38B504000D002000C0B20028F1
S3150800140005D12800DFF8CC1BC96B884704E000200B
S31508001410DFF8C01BC96B884731BD00008610032062
S315080014202DE9FC4104000D00160000275FF00008B6
S31508001430CB4890F82C008DF802008DF80150092051
S315080014408DF80000DFF8EC090078012802D10A209F
S315080014508DF800006946DFF83C08007802F039FA92
S3150800146001000A003000C0B250FA84F310009C460E
S3150800147080B21FFA8CFC604506D3180080B2B0F51E
S31508001480807F01DA012000E00020BDE8F681000037
S31508001490CD010320CE01032070B403000124DFF838
S315080014A0380B0578D5F180051800C0B2022813D08C
S315080014B0C0F0338104284BD025D3062800F0848059
S315080014C05DD3082800F0D780C0F0B0800A2800F065
S315080014D00081C0F0E78020E1DFF8000B00782E00DD
S315080014E0F6B2B0420ED2DFF8F80ADFF8F06A3678BC
S315080014F08355DFF8E80A0078401CDFF8E06A3070A8
S31508001500002004000BE1DFF8D40A00782E00F6B2BA
S31508001510761EB0421BDADFF8C80ADFF8C06A3678EA
S315080015208355DFF8B80A0078401CDFF8B06A3070D7
S31508001530DFF8AC0ADFF8A46A36788155DFF89C0A2A
S315080015400078401CDFF8946A307000200400E6E05A
S31508001550DFF8880A00782E00F6B2B0420ED2DFF81D
S31508001560800ADFF8786A36788355DFF8700A0078DB
S31508001570401CDFF8686A307000200400CFE0DFF80E
S315080015805C0A00782E00F6B2761EB0421BDADFF847
S31508001590500ADFF8486A36788355DFF8400A00783B
S315080015A0401CDFF8386A3070DFF8340ADFF82C6A36
S315080015B036788155DFF8240A0078401CDFF81C6A63
S315080015C0307000200400AAE0DFF8100A00782E0028
S315080015D0F6B2B61EB04228DADFF8040ADFF8FC696C
S315080015E036788355DFF8F4090078401CDFF8EC6993
S315080015F03070DFF8EC09DFF8E46936788155DFF8F2
S31508001600DC090078401CDFF8D4693070DFF8D009AF
S31508001610DFF8C86936788255DFF8C0090078401CBB
S31508001620DFF8B86930700020040078E0DFF8AC090C
S3150800163000782E00F6B2761EB0421BDADFF8A00953
S31508001640DFF8986936788355DFF890090078401CEA
S31508001650DFF888693070DFF88809DFF8806936783E
S315080016608155DFF878090078401CDFF8706930701A
S315080016700020040053E0DFF8640900782E00F6B273
S31508001680B0420ED2DFF85809DFF85069367883552C
S31508001690DFF848090078401CDFF840693070002000
S315080016A004003CE0DFF8340900782E00F6B2B042B8
S315080016B00ED2DFF82C09DFF8246936788355DFF86F
S315080016C01C090078401CDFF81469307000200400FB
S315080016D025E0DFF8080900782E00F6B2B0421BD2E2
S315080016E0DFF8FC08DFF8F46836788355DFF8EC088D
S315080016F00078401CDFF8E4683070DFF8E408DFF8AB
S31508001700DC6836788155DFF8D4080078401CDFF8A5
S31508001710CC6830700020040001E0022009E02000B7
S31508001720C0B2002803D10120DFF8B8683070200065
S31508001730C0B270BC70470000880E032092100320C8
S3150800174014100320140F0320CC0F0320831003204A
S315080017508F100320FC0F032088100320901003200D
S31508001760B00C0320801003208E10032070B40300F1
S3150800177000260025002B01D0002A01D100203AE0DE
S31508001780002420000E00C0B2F6B2B04231D22000CA
S31508001790C0B2185C022829D029D3042826D023D31E
S315080017A006281FD006D3082814D01DD30A2801D02E
S315080017B01CD31CE02000C0B2185C2E00F6B290556F
S315080017C0641C6D1C2000C0B2185C2E00F6B2905541
S315080017D06D1C0CE02000C0B2185C2E00F6B29055C5
S315080017E06D1C04E0A41C02E0641C00E0FFE7641C16
S315080017F0C7E72800C0B270BC70472DE9F0438FB028
S3150800180005000C0016001F005FF0000820003100DC
S31508001810C0B2C9B2884280F0E7812000441CC0B239
S31508001820285C022815D0C0F0DE81042800F09380D9
S3150800183022D3062800F0F580C0F0A380082800F01F
S315080018404481C0F009810A2800F09F81C0F05D81BB
S31508001850C9E10020DFF8901748702000C0B2285C64
S31508001860DFF884170872641C2000C0B2285CDFF811
S3150800187078174872641CC9E700208DF80B00002011
S315080018808DF80A0000208DF8090000208DF8080060
S315080018902000C0B22844401E0A90301B401C8DF818
S315080018A02C00DFF8000600788DF82E00DFF8880592
S315080018B090F82C008DF82D00DFF87C0540788DF81F
S315080018C02F00DFF8740500788DF83000DFF868051A
S315080018D090F820008DF8310002A801900DF109005A
S315080018E000900DF10A030DF10B020AA9DFF8CC05E9
S315080018F0007802F08EF880464046C0B210F0070025
S3150800190007280FD19DF80B00DFF82C1548709DF8B5
S315080019100A00DFF8241508709DF80900DFF8181585
S3150800192081F820005FF000099DF80800052190FB6A
S31508001930F1F04946C9B2814208DA00224146C9B2E5
S315080019400320FFF7A9FD19F10109EDE79DF8080045
S315080019500419641E5AE72000C0B2285CDFF88C160A
S315080019600870641C0121DFF8840690F900008140A4
S31508001970DFF87C060180002200210420FFF78CFD99
S3150800198044E75FF007092000C0B2285CC0F30210E4
S315080019908DF80D002000C0B2285C10F00F008DF8FD
S315080019A00C00641C20000100C9B2695C0491401C4B
S315080019B004990200D2B2AA5C51EA02210491401CA1
S315080019C004990200D2B2AA5C51EA024104910400C9
S315080019D0641C049964204143049103A9DFF8DC04DC
S315080019E0007802F02EF880464046C0B210F0070094
S315080019F007280FD19DF80C00DFF83C1481F8280061
S31508001A000498DFF8341448629DF80D00DFF82814AE
S31508001A1081F8210000224146C9B20520FFF73CFDA6
S31508001A20F4E64FF0FF09DFF8FC0A006800280BD03F
S31508001A30DFF8F00A00680068002805D0DFF8E40A35
S31508001A4000680068804781463A00D2B24946C9B262
S31508001A500620FFF721FDD9E65FF003092000C0B292
S31508001A6028568DF83800641C07A80D902000C0B2CF
S31508001A70285C0790641C07982100C9B2695C50EA83
S31508001A8001200790641C07982100C9B2695C50EAD6
S31508001A9001400790641C0799642041430791002080
S31508001AA008902000C0B228568DF82400641C0DA9A1
S31508001AB0DFF80804007801F0D1FF8046002241468D
S31508001AC0C9B20720FFF7E8FCA0E62000C0B215F867
S31508001AD0009019F00F09641C4846C0B2002801D1CD
S31508001AE019F101094946C9B24FF47A704143D248FF
S31508001AF00161D148006910F57A70CF494861002222
S31508001B0000210820FFF7C8FC80E62000C0B215F8BF
S31508001B100090641C00208DF8000000208DF801005C
S31508001B205FEA896002D501208DF801005FEAC96085
S31508001B3002D501208DF8000019F00F008DF802007B
S31508001B406946DFF87803007801F095FF10F1010F78
S31508001B501AD09DF80000B84981F82C009DF80100BC
S31508001B60B54981F82D00DFF8080B9DF80210405C96
S31508001B7000EE100AB8EE400AAF4880ED0C0A0022C3
S31508001B8000210920FFF788FC40E65FF003092000E2
S31508001B90C0B2285C8DF81400641C2000C0B2285C12
S31508001BA00690641C06982100C9B2695C50EA0120B7
S31508001BB00690641C06982100C9B2695C50EA014087
S31508001BC00690641C069964204143069105A9BB4802
S31508001BD0007801F05DFF804600224146C9B20A201E
S31508001BE0FFF75AFC12E6FFE70FB0BDE8F0832DE9D0
S31508001BF0FE4304000D0016001F005FF003080020D6
S31508001C008DF804009DF8040010F0F0008DF804002B
S31508001C109DF8040010F0EF008DF804009DF804000C
S31508001C2010F0DF008DF804009DF8040010F0BF00E6
S31508001C308DF804009DF8040010F07F009949097892
S31508001C4050EAC1108DF80400380080B200903300C5
S31508001C502A00D2B201A9200000F0CCF981464846F4
S31508001C60C0B2002802D04846C0B210E00020DFF813
S31508001C70481A48710020DFF8401A0871DFF83C0A54
S31508001C800068DFF8341AC86000F010F8C0B2BDE882
S31508001C90FE8300007B100320181003207C1003200D
S31508001CA0440E03209C0E03209210032000B585B035
S31508001CB000200190CD480078FF2801D10920B0E026
S31508001CC0CA480078002803D10020DFF88C1D086078
S31508001CD0DFF8EC09007800F0B1F8DFF87C0D006851
S31508001CE00290554840788DF81000DFF8D80900783A
S31508001CF08DF81200DFF8D00900788DF81100DFF8AA
S31508001D00CC0900680390DFF8500D009001AB484AF3
S31508001D1002A96A48007801F0E1FE002809D1DFF837
S31508001D20B009407844494870434840788DF8100017
S31508001D30E9E7414890F9210003005BB23E4890F973
S31508001D4001203D4890F82D105C48007801F0E8FE27
S31508001D509F49009138494B6837490A7A010049B2C8
S31508001D605648007801F01EFE5148009032484368F4
S31508001D703148027A304890F92800010049B24F48A4
S31508001D80007801F00FFEDFF840090078002810D12E
S31508001D90294881698E48C0684118DFF8380901600A
S31508001DA02548C1694248C0684118DFF82C09016016
S31508001DB01DE08A480278204890F90110DFF81C09CE
S31508001DC00078FFF72DFB002801D1082029E01A48E2
S31508001DD001697F48C0684118DFF8F80801601648AD
S31508001DE041693348C0684118DFF8EC08016001987A
S31508001DF0002804D10E48007800F096FB11E0DFF8C1
S31508001E00800D006850F01000DFF8741D0860019915
S31508001E10DFF8700D01F016FDDFF8680D01F0EEFB36
S31508001E20002005B000BD0000B00E0320911003206D
S31508001E308B1003207E100320B00C03201FB504006E
S31508001E40DFF8840800788DF80000DFF87808007855
S31508001E508DF802008DF80340DFF88408006801F069
S31508001E600CFD0190DFF8F40B00680290DFF87408A7
S31508001E7000788DF8010069461048007801F022FEC6
S31508001E80DFF8D40B0168DFF8D40B026858480088DD
S31508001E9000FB0211DFF8C40B0068091ADFF8B80B5B
S31508001EA001601FBD82100320480E0320C40E0320C4
S31508001EB0EC0E0320000F03207C1003207B10032068
S31508001EC00020DFF8041808700020DFF8F017086013
S31508001ED00020DFF8141808600020DFF810180860E2
S31508001EE00020DFF80C1808700120DFF808180870C1
S31508001EF00120DFF8041808700020DFF800180870C1
S31508001F0000203A49087001203949088000203349E1
S31508001F1008700020304908700120DFF8441B08705B
S31508001F20DFF8AC070078DFF83C1B0870DFF8A0077D
S31508001F304078DFF8301B4870DFF8940790F82100E6
S31508001F40DFF8201B81F82100DFF81C0BD0E90023FD
S31508001F50DFF8180BC0E90023DFF8740790F82C00A7
S31508001F60DFF8001B81F82C00DFF8640790F82D00D5
S31508001F70DFF8F01A81F82D00DFF8E80ADFF85017C5
S31508001F80096B0163DFF8DC0ADFF84417496B416324
S31508001F900020DFF8DC1A08700020DFF8D81A08706D
S31508001FA0002010490870DFF8D00A0068002803D01E
S31508001FB000214162806AF9E70021DFF8C02A117022
S31508001FC0DFF8B81A0978DFF8F826117070470000AC
S31508001FD0D80E0320EC5D0108871003208610032025
S31508001FE07409032085100320CC0F032089100320D1
S31508001FF0721003202DE9F84F88B0070088469146ED
S315080020001C00129E5FF0000B0020049025008DF83E
S315080020100C900020DFF8841D08800020DFF8501A95
S315080020200870002C01D100200600DFF8B006067003
S315080020303878DFF8541B5A46D2B288541BF1010B84
S315080020403878C0B24009C0B2002809D0022800F08A
S31508002050A880042800F0A180072800F044825BE2EB
S315080020605846C0B2DFF8341D08800822DFF81C0B7A
S315080020700168DFF8140BDFF8243D1B88184401F0CB
S3150800208028FFDFF8180D00880830DFF8101D0880D3
S315080020900822DFF8FC0A0168DFF8EC0ADFF8FC3CE6
S315080020A01B88184401F015FFDFF8F00C008808308B
S315080020B0DFF8E81C0880DFF8DC0AC0698047DFF82B
S315080020C0D81A0880DFF8D00A0088DFF8BC1ADFF8CB
S315080020D0CC2C12888854DFF8C40C0088401CDFF822
S315080020E0BC1C0880DFF8B00A008880B2000ADFF856
S315080020F0981ADFF8A82C12888854DFF8A00C0088F4
S31508002100401CDFF8981C088004ABDFF8900A0268C8
S31508002110DFF8880C017801F0FF01DFF86C0A01F09E
S315080021200AFE0498DFF8601ADFF8702C12888854C3
S31508002130DFF8680C0088401CDFF8601C08800498EB
S31508002140000ADFF8441ADFF8542C12888854DFF89E
S315080021504C0C0088401CDFF8441C08800498000CCE
S31508002160DFF8241ADFF8342C12888854DFF82C0C90
S315080021700088401CDFF8241C08800498000EDFF84D
S31508002180081ADFF8182C12888854DFF8100C008813
S31508002190401CDFF8081C0880C0E10120DFF8D018D1
S315080021A00870DFF824050078002801D10720B6E179
S315080021B001208DF8140098F80000C0B2C0098DF807
S315080021C01500DFF8280500680690DFF898084078BB
S315080021D08DF81C00DFF88C0800788DF81D00DFF8F4
S315080021E0840890F82C008DF81E00DFF80005009092
S315080021F0DFF87038DFF8A82905A9DFF8A8090078FC
S3150800220001F0BAFB41460A7812F0BF0252EA801280
S315080022100A70DFF860080078012808D10020DFF886
S31508002220541808704046017851F020010170DFF813
S3150800223078090068DFF850195A46D2B288541BF15B
S31508002240010BDFF864090068000ADFF83C195A46F2
S31508002250D2B288541BF1010BDFF84C090068000C58
S31508002260DFF824195A46D2B288541BF1010BDFF85D
S3150800227038090068000EDFF810195A46D2B2885499
S315080022801BF1010B98F80000DFF8FC185A46D2B289
S3150800229088541BF1010BDFF824040068DFF8E818FE
S315080022A05A46D2B288541BF1010BDFF810040068B5
S315080022B0000ADFF8D4185A46D2B288541BF1010B2B
S315080022C0DFF8DC0A027892B2DFF8D81ADFF8D80A03
S315080022D0DFF8D83A1B78184401F0F0FDDFF8CC0A8D
S315080022E00178DFF8BC0A00784118DFF8C00A0170E7
S315080022F0002D42D0DFF8E403007800283DD0DFF84F
S315080023008007007801284DD1DFF8A00A0078102848
S3150800231027DA41460A78DFF8940A0078821808789E
S3150800232062F30300087098F80000DFF85C1848713B
S31508002330002082465046DFF8741A097880B289B2BE
S3150800234088422FD2DFF8600A514689B2405CDFF82E
S3150800235038185A46D2B288541BF1010B1AF1010AF1
S31508002360E8E7DFF8480A0078DC490870DFF8380A39
S31508002370050000208DF80C0014E0DFF8300A00781C
S3150800238000280FD0DFF8F806007801280AD1DFF810
S315080023901C0A0078D1490870DFF80C0A05000020ED
S315080023A08DF80C000020DFF8D8160870DFF8F4293D
S315080023B0DFF8F8090178DFF8F009FFF7D7F9DFF851
S315080023C0E0190870DFF8D8090078002803D0012042
S315080023D0DFF8AC160870002D41D0C04800780028F8
S315080023E03DD09DF80C00DFF8A0175A46D2B28854A3
S315080023F01BF1010B9DF80C0000281AD10020DFF80C
S31508002400AC190870DFF880075946C9B2084402902B
S31508002410AA480068019000200090DFF88C0703683E
S31508002420DFF88C29AD48017889B2280001F0E5FB70
S3150800243015E0DFF854075946C9B2084402909F4888
S315080024400068019000200090DFF85C070368DFF859
S315080024506429A248017889B2280001F0CEFB9F487A
S31508002460007850FA8BF0DFF83419088004A8029037
S3150800247092480068019000200090DFF82C07036856
S31508002480DFF82C29DFF814090188DFF8FC0601F0CB
S315080024905DFB0498DFF8F016DFF8002912888854E7
S315080024A00498000ADFF8E016DFF8F02812881144CD
S315080024B048700498000CDFF8D016DFF8E028128878
S315080024C0114488700498000EDFF8BC16DFF8CC2893
S315080024D012881144C870DFF8C4080088001DDFF8A8
S315080024E0BC1808801AE0002C15D07C480078002813
S315080024F011D07A48027892B22100DFF88C065B4642
S31508002500DBB2184401F0DAFC7448007850FA8BF014
S31508002510DFF88818088001E0022000E0002009B0F2
S31508002520BDE8F08F1C10032018B585B00400002004
S315080025308DF800008DF80440DFF8280540788DF8FE
S315080025400500DFF8200500788DF80600DFF8140589
S31508002550006B0290DFF80C05406B0390DFF83C082F
S315080025600088ADF81000DFF8F4346A4601A9DFF8F0
S315080025703406007801F03CFA0120DFF83C18487070
S3150800258001204D494870DFF8DC0440784A498870D4
S315080025909DF800004849C870DFF8C004006846493D
S315080025A08860DFF8B8040068DFF80C1848604FF454
S315080025B07A71DFF8080801F045F9DFF8000801F03C
S315080025C01DF841480078002806D1DFF8F40700789E
S315080025D0401CDFF8EC170870DFF8C0070188C9B29D
S315080025E0DFF8A405DFF8AC25126B9047DFF89005F5
S315080025F0006850F00100DFF888150860002006B072
S3150800260010BD1FB50400DFF8740400788DF80000CB
S31508002610DFF8500440788DF80100DFF848040078A8
S315080026208DF80200DFF83C04006B0190DFF83404F3
S31508002630406B0290ADF80C406946DFF868050078F3
S3150800264001F062FA4FF47A71DFF8700701F0FAF8D0
S31508002650DFF8680700F0D2FFDFF88C0B006850F04F
S315080026600100DFF8841B0860002004B010BD0000DC
S315080026709C60010870B504000D001600220092B295
S31508002680310049B22800DFF80C355B6C98474FF4E7
S315080026907A71DFF8280701F0D5F8DFF8200700F08F
S315080026A0ADFFDFF8440B006850F00100DFF8381B77
S315080026B00860002070BD0000140F0320FC0F0320E3
S315080026C08C1003208A100320811003200810032091
S315080026D0E80C032020100320241003207F10032079
S315080026E0101003208D10032000100320041003206F
S315080026F088100320CD010320CE0103208E1003206D
S315080027002DE9F24F82B004001500002C01D10320F8
S31508002710A0E12068002805D06068002802D0A068DB
S31508002720002801D1032095E12800C0B201F0C8F8BD
S31508002730002801D10A208DE1DFF8A40A0460029876
S31508002740DFF8A01A0860DFF85C0405700020DFF8DF
S315080027509C1A08700020DFF8981A08700020DFF825
S31508002760201408600020DFF8581608700120DFF8EA
S31508002770841A08700020DFF8801A08700020DFF835
S315080027807C1A08600020B44908600B208DF8000008
S315080027906946DFF81004007801F09BF8019001986B
S315080027A0002804D00120DFF8581A087003E000203A
S315080027B0DFF84C1A087008208DF800006946DFF823
S315080027C0E403007801F085F801900198DFF8341ADF
S315080027D0087005208DF800006946DFF8C803007800
S315080027E001F077F801900198DFF8181A48700C2064
S315080027F08DF800006946DFF8AC03007801F069F847
S3150800280001900198DFF8FC19C8600D208DF80000CA
S315080028106946E448007801F05CF801900198DFF811
S31508002820E41908610E208DF800006946DD48007835
S3150800283001F04FF801900198DFF8C81948610F2098
S315080028408DF800006946D748007801F042F80190F3
S315080028500198DFF8B019886110208DF800006946E4
S31508002860D048007801F035F80600DFF89809C66107
S3150800287013208DF800006946CA48007801F029F847
S315080028800700DFF8800980F8217014208DF8000011
S315080028906946C448007801F01CF88046DFF86409E8
S315080028A0C0F8248015208DF800006946BD480078D8
S315080028B001F00FF88146DFF84C0980F828901A20B5
S315080028C08DF800006946B748007801F002F882469C
S315080028D0DFF8300980F82CA01B208DF80000694627
S315080028E0B048007800F0F5FF8346DFF8180980F84D
S315080028F02DB01C208DF800006946AA48007800F023
S31508002900E8FF0190DFF8FC08019901631D208DF8A6
S3150800291000006946A348007800F0DBFF0190DFF865
S31508002920E4080199416300219E48007800F0EEFF13
S315080029300120DFF8D01881F820000A20DFF8C41833
S3150800294048600620DFF8BC180872DFF8B808406847
S3150800295044494860DFF8AC08007A42490872DFF853
S31508002960A408C0683F49C860DFF8980800693D496F
S315080029700861DFF8900840693A494861DFF8840839
S31508002980806938498861DFF87C08C0693549C861BB
S31508002990DFF8700890F82000324981F82000FFF728
S315080029A08FFADFF86418DFF8140400F01DFE4FF400
S315080029B07A71DFF8080400F045FFDFF8501871480F
S315080029C000F012FEDFF84818DFF8480800F00CFEA1
S315080029D0DFF84418DFF8440800F006FEDFF8401870
S315080029E0DFF8400800F000FE00F03FFFDFF8381877
S315080029F00860DFF83808DFF838180860DFF83408A8
S31508002A00DFF82C188860DFF83008DFF8241808612A
S31508002A10DFF82808DFF818184860DFF8AC09DFF88F
S31508002A201018C860DFF808085A498968884759485D
S31508002A30C069804701F02CFA0120DFF89019087068
S31508002A40DFF8880900785349096E88475148406B72
S31508002A5080470020BDE8FE8F0C10032028100320B5
S31508002A60CC010320B00C03200C0D0320D40C03204A
S31508002A708310032084100320F80F03208B100320F3
S31508002A8085100320F8B586B005000C00DFF874073A
S31508002A9090F901008DF80400DFF8680790F9000046
S31508002AA08DF80500C1480678BD4800788619002CBF
S31508002AB001D1032062E000208DF80C00DFF8100930
S31508002AC000788DF80D00DFF80C0900680490DFF82F
S31508002AD0080940788DF81400DFF8FC0800788DF8AE
S31508002AE01500DFF8F40890F82C008DF81600DFF8CA
S31508002AF0E40800900DF1050301AA03A92948007806
S31508002B0000F03AFFDFF8D00890F82C008DF80A009C
S31508002B109DF804008DF8090009208DF80800DFF8F3
S31508002B20D8060078012802D10A208DF8080002A9E3
S31508002B301C48007800F0CDFE070067706078310009
S31508002B40C9B2884203D36078801B207009E0607898
S31508002B502070002006000020944908700020904943
S31508002B6008703200D2B29DF904102800C0B2FEF7F0
S31508002B7057FC002801D1082000E0002007B0F0BD6E
S31508002B80141003209C0E0320C0040320E80F032022
S31508002B90E40F0320EC5D01086E100320EC0F032000
S31508002BA0B10C03207B100320F40F03207CB504002E
S31508002BB00026002C01D10320EFE0207800283CD025
S31508002BC0022844D03ED304284BD045D3062850D0FB
S31508002BD04CD3082855D04FD30A2863D056D30C288F
S31508002BE07AD066D30E2800F0838069D3102800F0C7
S31508002BF08A80C0F08380122800F08F80C0F0888019
S31508002C00142800F09480C0F08D80162800F09E806D
S31508002C10C0F09280182800F09E80C0F092801A2892
S31508002C2000F0A380C0F09C801C2800F0A880C0F0AB
S31508002C30A1801D2800F0A880ABE0DFF8B405007875
S31508002C402071A8E0DFF8240900782071A3E0DFF8F6
S31508002C508007007820719EE0DFF81409006860603C
S31508002C6099E0DFF810090068606094E050486060F9
S31508002C7091E0504860608EE0DFF8500700782071D8
S31508002C8089E0DFF874050078207184E019208DF852
S31508002C9000006946DFF8E008007800F01AFE050033
S31508002CA0656078E0DFF8D408D0E90023C4E9012399
S31508002CB071E0DFF8CC08D0E90023C4E901236AE013
S31508002CC017208DF800006946DFF8AC08007800F098
S31508002CD000FE050065605EE016208DF80000694676
S31508002CE0DFF89408007800F0F4FD0500656052E00E
S31508002CF0DFF8900890F8200020714CE0DFF884088F
S31508002D00C068606047E0DFF87C080069606042E000
S31508002D10DFF87008406960603DE0DFF868088069A0
S31508002D20606038E0DFF85C08C069606033E0DFF8AF
S31508002D30D404407820712EE0DFF8480840782071E6
S31508002D4029E0DFF8C0040078207124E0DFF83408B1
S31508002D50007820711FE0DFF83008006860601AE02C
S31508002D60DFF828080068606015E0DFF824080068C6
S31508002D70606010E0DFF80C08406860600BE0DFF880
S31508002D800408007A207106E0DFF8F807406B6060F7
S31508002D9001E0022006003000C0B276BD70100320A4
S31508002DA087100320F40903207409032086100320E2
S31508002DB0740F0320840F0320CC0F0320880E0320F2
S31508002DC08F10032038B584B004000025002C01D1EB
S31508002DD0032003E2DFF810040078C00701D50120BC
S31508002DE0FCE1207800284BD0012863D0022866D061
S31508002DF0032869D004286CD005286FD006287AD015
S31508002E00072800F08580082800F08E800A2800F040
S31508002E108F800B2800F002810C2800F02C810D28E9
S31508002E2000F019810E2800F036810F2800F0428143
S31508002E30102800F04481112800F04681122800F07D
S31508002E404881132800F04A81142800F04C8115287F
S31508002E5000F05E81162800F08681172800F06E8142
S31508002E60182800F09681192800F098811B2800F090
S31508002E709A811C2800F0A0811D2800F0A681A9E1EE
S31508002E802079DFF86C130870DFF8640300780028EF
S31508002E9003D0022807D005D30BE0DFF8F806406B0D
S31508002EA0804706E005E00020DFF8EC160870FEF71C
S31508002EB02EFA91E12079DFF8B41608708CE12079B2
S31508002EC0DFF80C15087087E16068DFF8A41608605B
S31508002ED082E16068DFF89C1608607DE1606800287A
S31508002EE006D010226168DFF8B40600F0E7FF01E0BB
S31508002EF00320050070E16068002806D0102261688A
S31508002F00DFF89C0600F0DAFF01E00320050063E124
S31508002F102079DFF8B8140870DFF8B0040078DFF815
S31508002F207416096E884757E12079B349087053E14A
S31508002F3094F908008DF80400DFF8480690F82D008B
S31508002F408DF80500062201A9DFF82C06007800F0A6
S31508002F50EAFC01285FD1D4E90101DFF82026C2E99D
S31508002F600001A3480078022857D1DFF80006007848
S31508002F70012852D1DFF82C060090DFF808064368CE
S31508002F80DFF80006027ADFF8FC0590F92800010050
S31508002F9049B2DFF8E405007800F004FDDFF808061A
S31508002FA00078DFF800160870DFF8D805406ADFF801
S31508002FB0F4154860DFF8CC0590F82D00DFF8E41525
S31508002FC008748D480078DFF8DC1548740120DFF8AE
S31508002FD0D415C8740120DFF8CC158874DFF8CC2521
S31508002FE0DFF8C015DFF89005007800F0F2FC01283C
S31508002FF00ED1DFF89005C168DFF8A805807CFEF7DA
S31508003000F9F9DFF8A005C07CDFF8A415087004E01C
S315080030100320050001E003200500DDE094F908001F
S315080030208DF80400DFF85C0590F82D008DF8050092
S31508003030062201A9DFF84005007800F074FC012893
S3150800304006D1D4E90101DFF83825C2E9000101E01B
S3150800305003200500C0E06068029001208DF80C008E
S3150800306002A9DFF81405007800F079FC002801D1E0
S3150800307003200500B0E06068029000208DF80C007F
S3150800308002A9DFF8F404007800F069FC002801D1F1
S3150800309003200500A0E02079002808D02079102810
S315080030A005DA2079DFF8DC1481F8200001E0032036
S315080030B0050091E06068DFF8CC14C8608CE06068B1
S315080030C0DFF8C014086187E06068DFF8B814486163
S315080030D082E06068DFF8AC1488617DE06068DFF83C
S315080030E0A414C86178E094F904008DF80400052258
S315080030F001A9DFF88404007800F015FC012804D142
S315080031009DF804003F49487001E00320050063E08C
S3150800311094F904008DF80400042201A9DFF8580484
S31508003120007800F000FC012805D19DF80400DFF8BE
S315080031305414487001E0032005004DE094F904009A
S315080031408DF80400082201A9DFF82C04007800F0A5
S31508003150EAFB012804D19DF804002A49087001E019
S315080031600320050038E094F904008DF804000722CE
S3150800317001A9DFF80404007800F0D5FB012805D181
S315080031809DF80400DFF8FC13087001E00320050031
S3150800319022E06068DFF8F01308601DE06068DFF879
S315080031A0EC13086018E060681649486015484068DE
S315080031B0DFF8D01348600FE02079124908721148E9
S315080031C0007ADFF8C013087206E0DFF8B803616812
S315080031D0416301E0022005002800C0B205B030BDF9
S315080031E0181003201C10032014100320921003202B
S315080031F07C100320901003207E1003200810032063
S315080032008A100320E80C03201D0D0008D1110008C0
S3150800321075120008B00E03200F130008C40E032011
S31508003220B1130008000F032010100320AD01000899
S31508003230100E03205F030008A90B0008790B00088D
S315080032407FB504000226002C01D10320B9E0DFF87F
S3150800325064030078C00701D50120B2E00C220021E2
S31508003260DFF8540300F044FE0120DFF84C134870E1
S315080032702078002806D0022876D065D3032800F0E7
S3150800328081808FE0DFF82C030078C00601D5012085
S3150800329097E06068002808D0A068002805D0E06894
S315080032A0002802D0207C002801D1032089E0207C58
S315080032B08DF808001E2202A9AF48007800F033FBFB
S315080032C0002809D11F208DF8040001A9AA48007812
S315080032D000F0FFFA05002574B848007850F0080099
S315080032E0B64908702078B44908706068B44908601F
S315080032F0A068B4490860E068B3490860207CB3490F
S3150800330008700020B249087000208DF800009DF86A
S31508003310000010F01F008DF80000FEF7D1FDAC4844
S315080033200078401CADF802000DF1020192480078C1
S3150800333000F0BBFB2849487000230022002168469C
S31508003340FEF755FC06002DE09C48007850F0080072
S315080033509A490870207898490870002200210220AE
S31508003360FEF79AF806001DE02078934908709348FE
S31508003370007850F0080091490870A088FFF741F9D5
S3150800338006000FE020788C4908708C48007850F0C9
S3150800339008008A490870227BA168A088FFF76AF9A5
S315080033A00600FFE73000C0B2002808D000207A499E
S315080033B008708248007810F0F700804908703000DD
S315080033C0C0B204B070BD00001B0C00087D100320BD
S315080033D08210032004100320B00C03202DE9FE4FB1
S315080033E0040002275FF000085FF00009002C01D1F5
S315080033F00320AAE06F48007810F0110F01D00120D1
S31508003400A3E000208DF8000014220021714800F086
S315080034106FFD01206F49487001206F4908702078B8
S31508003420002804D0012819D003282ED040E0012016
S3150800343081460120694908709DF8000010F01F00B8
S3150800344050F040008DF8000020798046A0680500FD
S31508003450A089060094F90E00834629E001208146DA
S31508003460E07B5E4908709DF8000010F01F0050F0E0
S3150800347080008DF8000020798046A0680500A089A4
S31508003480060094F90E00834612E0012081460120C9
S31508003490524908709DF8000050F0E0008DF80000D1
S315080034A0606805002089060094F90A008346FFE74C
S315080034B001208DF80800334890F82C008DF80A0092
S315080034C002A92D48007800F004FA8246584640B210
S315080034D0824500D3D3464846C0B2002833D0404878
S315080034E00078002815D18DF804B0264890F82C00ED
S315080034F08DF80600042201A91F48007800F013FA87
S31508003500012804D19DF804001E49487001E00320F3
S315080035101BE033009BB22A004146C9B26846FEF753
S3150800352066FB07003800C0B2002809D1207829496F
S3150800353008702248007850F001002049087002E01F
S315080035400020154908703800C0B2BDE8FE8F1CB5CA
S3150800355004008DF800400B2269460748007800F001
S31508003560E2F9012801D11F48047013BD8110032018
S31508003570F00F0320F40F03207B100320D40C032044
S315080035800C0D0320B00C0320FC0F032000100320B1
S31508003590F80F0320EC5D010883100320740F032045
S315080035A0840F0320EC0E03208B100320480E032003
S315080035B09110032014100320CC0F0320921003202F
S315080035C0E40F0320E80F0320EC0F032090100320DC
S315080035D08F100320140F0320CE010320CD010320F2
S315080035E0821003208A100320002202600022426013
S315080035F000220272C16000220261704770B50400A1
S315080036000025EFF3108672B6002C04D0200000F0D7
S315080036100AF9012802D186F3108822E06068206042
S315080036200020207286480068002805D100F063FD56
S31508003630200000F02FF812E000F0FFFC05002068DB
S315080036402818206020687E4909680968884203D2DC
S31508003650200000F01FF802E0200000F003F886F3CF
S31508003660108870BD10B476490A68754909680B69EF
S315080036701169002909D019680468A14202D21A0002
S315080036801B69F5E71061036102E010610021016121
S3150800369010BC704738B5050069480468002C01D08D
S315080036A0002020722C61664805606548006800F0B5
S315080036B0F1F831BD2DE9F04100F02BFD050000F0D1
S315080036C01AFD0600771B5E480068002815D05C487E
S315080036D000688046D8F8100000280ED0D8F81000E8
S315080036E004002068874203D22068C01B206001E0DE
S315080036F000202060D8F81080ECE7514800680028C0
S315080037000FD04F48006880464D48006800694C490C
S315080037100860D8F80C00002800D1FEE7D8F80C009D
S31508003720804747480068002817D000F086FC4449BF
S3150800373009680968814210D24148006880464048B5
S31508003740006800693E490860D8F80C00002800D1D6
S31508003750FEE7D8F80C008047E3E7394800680028F8
S3150800376008D037480068007A002803D13448006832
S3150800377000F090F8BDE8F081F8B50500EFF3108683
S3150800378072B62F4807682E4804682D480068002836
S3150800379001D0002D02D186F3108843E0284800683E
S315080037A0A8422CD126480068007A012818D1244856
S315080037B00068006900280DD00020214909680872B0
S315080037C01F48006800691E4908601D48006800F027
S315080037D061F825E000F045FC0020194908601FE063
S315080037E0174800680069002805D015480068006970
S315080037F01349086014E000201149086010E0002C05
S315080038000ED0AC4209D12069002802D024693C6157
S3150800381002E0002004003C6102E027002469EEE78C
S3150800382086F31088F1BD020005480168002905D015
S31508003830914201D1012002E00969F7E700207047AB
S3150800384060100320F8B504000D000026280000F0DB
S31508003850C0FB07002000FFF78FFF00F0B8FB874288
S3150800386000D2070027606760F1BD10B500F0F1FBD4
S315080038700400200000F0B7FB10BD70B5040000F08E
S31508003880E8FB0500200000F0A4FB0600A81B00F0DA
S31508003890AAFB70BD38B5040000F099FB05000120AD
S315080038A0207200F0CAFB21682818814203D200F072
S315080038B0C4FB28182060206800F09DFB31BD00007D
S315080038C001000800C0B2052801D1012000E000204F
S315080038D0704770B504000D00054806682000C0B2A0
S315080038E0052803D1280000F055FE00E0300070BD21
S315080038F05061010838B504000D002000C0B2052843
S3150800390003D1280000F0F5FEFFE731BD38B5040005
S315080039100D002000C0B2052804D12800C0B200F06E
S31508003920FBFEFFE731BD70B504000D001600200050
S31508003930C0B2052805D13100C9B2280000F025FF1C
S3150800394000E0002070BD38B504000D002000C0B2AC
S31508003950052803D1280000F06BFFFFE731BD38B515
S3150800396004000D002000C0B2052803D1280000F08D
S31508003970ACFF00E0002032BD2DE9F04104000D0047
S3150800398016001F00DDF818802000C0B2052806D1F1
S3150800399043463A003100280000F0B1FF00E000205D
S315080039A0BDE8F0812DE9F04104000D0016001F0066
S315080039B0DDF818802000C0B2052808D143463A0031
S315080039C03100C9B2280040B200F0EEFFFFE7BDE8BB
S315080039D0F08170B504000D0016002000C0B205285D
S315080039E004D13100280001F031F800E0002070BD54
S315080039F0F8B504000D0016001F002000C0B2052807
S31508003A0005D13A003100280001F0CEF800E0002088
S31508003A10F2BD2DE9FC4104000D0016001F00DDF87B
S31508003A2020802000C0B2052808D109980090434696
S31508003A303A003100280001F056F900E00020BDE800
S31508003A40F68138B504000D002000C0B2052803D160
S31508003A50280001F019FA00E0002032BD38B504004C
S31508003A600D002000C0B2052803D1280001F032FA63
S31508003A7000E0002032BD38B504000D002000C0B2B9
S31508003A80052803D1280001F057FA00E0002032BDCE
S31508003A9038B504000D002000C0B2052803D128005F
S31508003AA001F04EFA00E0002032BD38B504000D00E2
S31508003AB02000C0B2052803D1280001F07DFA00E0F5
S31508003AC0002032BD38B504000D002000C0B205281C
S31508003AD003D1280001F0A9FAFFE731BD2DE9F0412D
S31508003AE004000D0016001F00DDF818802000C0B283
S31508003AF0052806D143463A003100280001F0B6FAF7
S31508003B0000E00020BDE8F08138B504000D00200073
S31508003B10C0B2052803D1280001F0EAFBFFE731BD52
S31508003B20F8B504000D0016001F002000C0B20528D5
S31508003B3008D13A0052B2310049B22800C0B201F0A9
S31508003B401FFC01E03000C0B2F2BD00002DE9F047CD
S31508003B5005000E0017009846089CDDF82490DDF84D
S31508003B6028A0BD484471BC4880F806804046000A33
S31508003B70B949C8714046000CB74908724046000E5C
S31508003B80B5494872B44880F80A904846000AB249CE
S31508003B90C8724846000CB04908734846000EAE493C
S31508003BA04873AD48C673AD4801F0F6FB3900AB481B
S31508003BB001F003FC1022A849A84801F007FC3200CE
S31508003BC092B202F0FF022900A44801F0FFFBA349C4
S31508003BD0A34801F071FCA248C078A1498978090474
S31508003BE051EA00619E48407851EA00219C480078D5
S31508003BF00143CAF80010BDE8F0872DE9F44F040028
S31508003C000D001E000B9FDDF830805FF0000A5FF0A4
S31508003C10010BF0220021934800F06AF9914A10211D
S31508003C20009801F08FFF9DF828008F4948718E484B
S31508003C3086713000000A8C49C8713000000C8A4928
S31508003C4008723000000E8849487287488772380023
S31508003C50000A8549C8723800000C83490873380081
S31508003C60000E81494873280080B2102826DB7E485A
S31508003C7080F80FB01BF1010B7A4A7C497A4802F0AA
S31508003C8035F800208146484680B2102812DA4846A0
S31508003C9080B250FA8AF0215C74484A4692B2805C37
S31508003CA04140484680B250FA8AF008F8001019F1E7
S31508003CB00109E8E7103D1AF1100AD4E7280080B296
S31508003CC0002822D0684880F80FB0664A67496648D7
S31508003CD002F00CF8002081464846290080B289B2D5
S31508003CE0884212D2484680B250FA8AF0215C5F4870
S31508003CF04A4692B2805C4140484680B250FA8AF001
S31508003D0008F8001019F10109E6E7BDE8F18FFEB5DC
S31508003D1004000D0016001F000A98029009980190E9
S31508003D209DF8200000903B003200290089B220004F
S31508003D30FFF763FFF7BDF8B504000D0016001F0076
S31508003D40464801F029FB3100444801F036FB2A00B9
S31508003D5092B202F0FF022100404801F037FB3F49CA
S31508003D603F4801F0A9FB3E48C0783D4989780904D7
S31508003D7051EA00613A48407851EA0021384800780B
S31508003D8001433960F1BDF8B504000D0016001F00A7
S31508003D90F0220021334800F0ABF8324A10213000F7
S31508003DA001F0D0FE2F4A3900200001F09FFF2800BD
S31508003DB080B2102806DB2B4A17F1100114F1100007
S31508003DC001F094FFF1BD2DE9F64184B004000D0021
S31508003DD01E000C9F0DF11408F0220021214800F066
S31508003DE087F8204A1021200001F0ACFE102200219D
S31508003DF0684600F07DF801208DF8000006222900AB
S31508003E000DF1010000F05AF8022241460DF10700B3
S31508003E1000F054F8134A3100684601F067FF102293
S31508003E200021684600F064F802208DF8000006229A
S31508003E3029000DF1010000F041F8022241460DF17A
S31508003E40070000F03BF8074A3900684601F04EFFC4
S31508003E5006B0BDE8F0810000E0000320A8030320B7
S31508003E60940F0320C0070320F0000320A40F0320AB
S31508003E7009480068094A43F2390102FB001006495D
S31508003E8008607FF00041B0FBF1F201FB12007047B9
S31508003E900149086070470000A80103206D4EC6411D
S31508003EA038B504000D00FFF7E3FF2D1B6D1C90FBD2
S31508003EB0F5F105FB11056419200032BD13005A1EE1
S31508003EC09BB2002B04D00B780370491C401CF5E705
S31508003ED0704713009BB21844401E13005A1E9BB22B
S31508003EE0002B04D00B780370491C401EF5E7704779
S31508003EF013005A1E9BB2002B02D00170401CF7E734
S31508003F007047000080B5DFF85C040078002809D106
S31508003F1000F009F800F001F900F0EDF80120DFF8EB
S31508003F204414087001BD80B586B0DFF83C04DFF89C
S31508003F303C1408600020DFF8341448607920DFF864
S31508003F402C14886041F6FF70DFF82014C860002042
S31508003F50DFF8181408610020DFF8101488610020C3
S31508003F60DFF80814C861DFF8040401F0F3FE002046
S31508003F708DF8030001208DF8010001208DF802005C
S31508003F8001208DF8000000226946DFF8E00302F000
S31508003F9019F800208DF8040000208DF8050000208F
S31508003FA08DF8060000208DF80700002002900020FA
S31508003FB0059000200490002201A9DFF8B00301F063
S31508003FC037FFDFF8A80302F08DFA07B000BD03201B
S31508003FD0704700B54FF48061A1FB00017D220023E4
S31508003FE002F0A4FA00BD7D21A1FB0001800A40EA87
S31508003FF08150890A704710B5040000F01EF8DFF8F2
S315080040007413B1F90010C91C201A814204D2002188
S31508004010042002F0A3FB03E00121042002F09EFB2A
S3150800402002F0BAFB012804D1DFF84803B0F9000012
S31508004030241A200000F078F810BD80B586B001A9D2
S31508004040684600F03CF9DFF830130968401A07B0F3
S3150800405000BD80B586B001A9684600F030F907B002
S3150800406000BD80B5DFF804030068C06810F0800062
S3150800407070F4C070DFF8F4120968C8604FF48071F4
S31508004080DFF8E80202F066F901BD10B5DFF8DC4298
S315080040900021042002F062FB20688068C00413D562
S315080040A02068C068C0050FD52068C06810F0800079
S315080040B070F4C0702168C8605FF48020DFF8BC1215
S315080040C00860200002F02CFC10BD2DE9F041040028
S315080040D0002500272000FFF77CFF0600FFF7B9FF41
S315080040E08046FFF7B6FFB0EB0800B04201D200BF2A
S315080040F0F7E7BDE8F08180B5DFF88412DFF88402BF
S3150800410000F0DDF8DFF870120860DFF86C0200686E
S3150800411002BDDFF864020068704780B54FF480710D
S31508004120924802F017F901BD2DE9F84F86B0040050
S315080041305FF000085FF0000A002600275FF0000B1A
S3150800414001A88F49142202F02FFC8B488069009041
S31508004150FFF787FF41F6FF70029D451B2000C0044C
S31508004160C00C4519640B9DF802908848844204D314
S315080041708748041919F10109F7E79DF80480B4F591
S31508004180616F04D3B4F5616418F10108F7E79DF887
S3150800419005703C2C02D33C3C7F1CFAE79DF80600D0
S315080041A0210051FA80F6280080B2B0F5005F03DBE3
S315080041B0B5F50055761CF6E7300080B23C2802D3E8
S315080041C03C3E7F1CF8E7380080B23C2803D33C3FCE
S315080041D018F10108F7E7404680B2182804D3B8F169
S315080041E0180819F10109F6E79DF80300042190FB68
S315080041F0F1F201FB1200002818D166489DF801105B
S31508004200084410F8010C494680B289B2884225D282
S315080042101FFA89F948465F499DF80120114411F8AB
S31508004220011C90FBF1F901FB190917E056489DF8A6
S315080042300110084410F8010C494680B289B2884238
S315080042400CD21FFA89F948464F499DF801201144B6
S3150800425011F8011C90FBF1F901FB190941F6FF71F0
S31508004260280080B2091A424841605FF05060404910
S3150800427088613F4886703E4847703D4880F8008010
S315080042803B4880F820909DF807003949C8700020FF
S315080042903749C8610020364948614FF4807034496F
S315080042A0486200203249C86000203149086100226E
S315080042B02F492E4801F03EFF07B0BDE8F08FF8B54C
S315080042C005000E00002700223100284801F046FEAE
S315080042D07068040000222900244801F001FF00222A
S315080042E03100224801F03AFE70688442F0D1EA783B
S315080042F040F2B5504243D21C9208E878042190FB5C
S31508004300F1F301FB1300002801D1234900E02349FA
S315080043106B783D2043433C3B022093FBF0F0821828
S315080043206878401EC0B240000B00C34013F0030378
S31508004330D21AA878401E821814484243B078131837
S3150800434072783C2000FB023332784FF4616000FB40
S31508004350023241F6FF7313EB42337068181AF2BD46
S31508004360000000007810032000280040B00D03204C
S31508004370880D03206C100320F40D0320140401405B
S31508004380F80D03200C0E0320E4600108805101009B
S3150800439080AEFEFFF060010850554400A0AA9900BF
S315080043A010B40200002310000C0040B264B2A04210
S315080043B002D10800C0B200E0501E40B210BC7047DF
S315080043C00100DFF8080B50F82100DFF8042B9042B3
S315080043D005D0DFF8BC2B904203D0002002E0012074
S315080043E000E00220704770B4040020000D0026008B
S315080043F06DB276B2B54201DA200000E0080040B29C
S3150800440070BC704738B504000D002000DFF8841B27
S31508004410896A8847002801D1002044E0DFF8780B34
S31508004420844206D3DFF8740B844202D20220287035
S3150800443038E0DFF8680B844206D3DFF8640B844261
S3150800444002D2002028702DE0DFF8540B844206D3F0
S31508004450DFF8500B844202D20120287022E0DFF8F0
S31508004460480B844206D3DFF8440B844202D202206A
S31508004470287017E0DFF8380B844206D3DFF8340BD0
S31508004480844202D2032028700CE0DFF8D80B84425D
S3150800449006D3DFF8D40B844202D20420287001E048
S315080044A0002000E0012032BD2DE9F74F1C00DDF8A1
S315080044B030B00D9D002600275FF000085FF0000968
S315080044C04046C0B210285FDA5FF0000A5046C0B214
S315080044D0102854DA02984946C9B230F81100012169
S315080044E011FA0AF1084247D05046C0B250FA88F18C
S315080044F00C204143605800283ED09DF80000002853
S3150800450004D1072050FA0AF0C00735D55046C0B284
S3150800451050FA88F10C20414304EB0100007A40F37D
S31508004520031252B25046C0B250FA88F10C204143E9
S3150800453004EB010090F9080040F3030149B29DF825
S31508004540040040B202F0F9FA002815D05046C0B26D
S3150800455050FA88F10C20414304EB0100407A00012F
S315080045605844C068002801D07F1C05E01AEB0800F3
S315080045703100C9B26854761C1AF1010AA6E718F187
S31508004580100819F101099BE70E9807703000C0B2B0
S31508004590BDE8FE8F1CB50400DFF8B00B006800907C
S315080045A02078002836D0012837D0052838D00828A2
S315080045B040D0092841D00A2846D00B284BD00C28D1
S315080045C04CD00D284ED00E2850D00F2852D0102887
S315080045D054D0112856D0122858D0132860D0142841
S315080045E061D0152863D0162864D0172866D01828F5
S315080045F068D0192869D01A286BD01B2869D01C28BE
S315080046006AD01D286CD01E286ED01F286CD0202892
S3150800461009D06CE00020009069E00020009066E078
S315080046200020009063E0002194F90100FFF7B8FE2E
S3150800463000905CE00020009059E0DFF8140B94F934
S315080046400110405C009052E0DFF8080B94F9011065
S31508004650405C00904BE00120009048E040F6B830FE
S31508004660009044E04FF47A70009040E04FF4FA600E
S3150800467000903CE041F28830009038E041F27070DA
S31508004680009034E04FF48040009030E04FF47A71A7
S31508004690DFF80C0CFFF704FC10F5FA60009026E032
S315080046A00020009023E0DFF8FC0B00901FE00020BC
S315080046B000901CE0DFF8F00B009018E0DFF8240CFF
S315080046C0009014E01020009011E0DFF81C0C009018
S315080046D00DE0002000900AE05FF08340009006E0BD
S315080046E0DFF86C0C009002E030200090FFE700989D
S315080046F016BD38B504006268DFF8F01BDFF8543CD5
S3150800470025780C20454303EB0500407A0001014457
S31508004710607802F08DFA31BD38B504002000C0B2C9
S31508004720002802D0012824D02EE0DFF8BC0BDFF8E1
S31508004730281C91E82C0080E82C00DFF8200CDFF814
S31508004740201C91E82C0080E82C00DFF8180CDFF814
S31508004750181C91E82C0080E82C000720DFF8841B41
S3150800476008800122DFF87C1BDFF8000C02F048FA0B
S315080047700AE0DFF8F80B0188DFF8680B00880143C8
S31508004780DFF8E80B0180FFE731BD38B504000D00FE
S315080047902800C0B204280CD0052817D0062822D035
S315080047A007282DD008282BD00B2836D01E2836D01F
S315080047B03CE00722002194F9000002F0BEF9002827
S315080047C001D0012000E00020C0B230E0052200211F
S315080047D094F9000002F0B1F9002801D0012000E0A8
S315080047E00020C0B223E00722002194F9000002F05D
S315080047F0A4F9002801D0012000E00020C0B216E08C
S315080048000722002194F9000002F097F9002801D048
S31508004810012000E00020C0B209E0012007E020786E
S31508004820302801DA002002E0012000E0002032BD35
S3150800483070B586B0040050208DF80C002079102839
S3150800484041D1002503263000C0B210283BDA3000DB
S31508004850C0B208281DDA20682900C9B2405C019058
S31508004860019821682A00D2B21144497850EA0120F9
S315080048700190019821682A00D2B21144897850EA39
S315080048800140019001996420414301910020029062
S3150800489006E00020019000208DF80C000020029010
S315080048A00198002807D001A804908DF8146004A880
S315080048B000F052FC04E08DF80060684600F0F6FC53
S315080048C0ED1C761CBFE706B070BD10B50400207954
S315080048D0002802D0012807D00DE001222168DFF860
S315080048E0C80902F08DF908E001222168DFF8F40909
S315080048F002F086F901E0002000E0012010BD2DE954
S31508004900F84F05000E00170098465FF0000995F964
S3150800491008A095F909B06868C8F800006878012801
S315080049203AD1504640B2002805D10020C8F8000008
S315080049300020814630E06868402804D3012081467B
S315080049400020834601E0002081466868602823D35A
S31508004950287910F01F0001281ED120208DF80000AC
S315080049608DF801A0A87A8DF802006846FFF712FEB6
S31508004970040020008246504640B200280CD1002090
S3150800498081462878012807D1DFF8E009008850F029
S315080049900700DFF8D819088086F800A087F800B065
S315080049A04846C0B2BDE8F28F2DE9F0412DED048BE3
S315080049B082B004000D0016001F009FED798B2000C1
S315080049C040B2072801DA200000E00720787097F93E
S315080049D00100FFF7F5FCB87097F9010007280BD11D
S315080049E0DFF88C0997F90110405C02F082FAB0EE04
S315080049F0409AF0EE609A10E0DFF8D00497F90110BB
S31508004A0050F82110DFF8680997F90120805C02F058
S31508004A1057FAB0EE409AF0EE609ADFF87805406EE5
S31508004A208047804617F10C00009017F108034246AC
S31508004A3031002800C0B2B0EE490AF0EE690A02F069
S31508004A4065FA02B0BDEC048BBDE8F0812DE9F84F9C
S31508004A508AB004000D0094F9016000275FF0000A8F
S31508004A60D4F80480DFF82C05C0688047002801D0F8
S31508004A70002091E0E07C002819D1DFF86C18227834
S31508004A800C20424388588046DFF85C1822780C20B0
S31508004A90424301EB02004068002808D0DFF84818B6
S31508004AA022780C20424301EB020040688046DFF87A
S31508004AB0C008310049B210F901904046DFF8D41415
S31508004AC049698847300040B2072828D15FF0000AB4
S31508004AD0A07C0990002008900020079000200690EE
S31508004AE0012005900020049000200390A06880B261
S31508004AF0029005200190DFF87C08009000234846C4
S31508004B0040B24FF47A7110FB01F24CF25031504624
S31508004B10C0B2DFF880C4DCF820C0E04721E05FF0CF
S31508004B20010AA07C09900120089000200790002027
S31508004B300690002005900020049000200390A068AD
S31508004B4080B20290082001900020009001234A4676
S31508004B5052B2A1785046C0B2DFF838C4DCF820C09B
S31508004B60E047607C012806D1DFF8E805310049B244
S31508004B7010F801B005E0DFF8D805310049B210F8A1
S31508004B8001B01BF10D01C9B25046C0B2DFF80424CA
S31508004B90D26D90472E7001200BB0BDE8F08F000053
S31508004BA000000000000000002DE9F04F89B0040065
S31508004BB00D001600DFF8B80794F901104756DFF81C
S31508004BC0E83694F90120DFF82417DFF81CC794F8B3
S31508004BD000E00C2000FB0EFE0CEB0E00407A0001F4
S31508004BE0084490F9021094F90200FFF7FCFB80468E
S31508004BF094F90100FFF7E4FB81465FF0000AD4ED63
S31508004C00020A94ED010A404640B202F00FFA8346C2
S31508004C10DFF8D41622780C2042438858DFF874133C
S31508004C204969884794F90100072826D15FF0000AE8
S31508004C3040F6B83008900020079000200690002023
S31508004C400590012004900020039005200290002082
S31508004C500190380040B24FF47A7110FB01F00090D1
S31508004C604B4646F2A812594649B25046C0B2DFF83A
S31508004C7024C3DCF824C0E04720E05FF0010A40F6D0
S31508004C80B830089000200790002006900020059074
S31508004C900120049000200390082002900120019032
S31508004CA0380040B200904B460022594649B2504659
S31508004CB0C0B2DFF8E0C2DCF824C0E047A189C9B277
S31508004CC05046C0B2B34AD26D9047A189C9B2504680
S31508004CD0C0B2B04AD26A9047306085F80080012099
S31508004CE009B0BDE8F08F2DE9FF4F8BB0040007250A
S31508004CF0002600270020ADF8000038002179C0B250
S31508004D00884259D201A920683A00D2B2104402F06A
S31508004D104CF806003000C0B200284DD0F71907201D
S31508004D200500BDF80800ADF800009DF8070000284A
S31508004D3006D1BDF80000002802D115F0FE05DCE713
S31508004D409DF80700002803D09DF80700062803DB16
S31508004D509DF80700072802DB15F0FE05CDE70021C0
S31508004D600800C0B21028C8DA9DF80700062810D136
S31508004D70DFF874250B00DBB20C204343D05800281B
S31508004D8018D0BDF8000001228A401043ADF8000093
S31508004D9010E0BDF8000001228A4010420AD0DFF870
S31508004DA048250B00DBB20C204343D058002801D11C
S31508004DB015F0FE05491CD3E701208DF80C00607933
S31508004DC08DF80E0003A8FFF7E5FB80468DF8105016
S31508004DD0A0798DF811009DF805008DF812009DF850
S31508004DE006008DF813009DF804008DF81400E0798C
S31508004DF08DF81500207A8DF8160094F909008DF8BB
S31508004E00170010208DF818006846079040468DF860
S31508004E10200007208DF82100DFF8CC040990072030
S31508004E208DF8280000208DF8290001AB0DF1060247
S31508004E300DF1050104A801F0DFFF81464846C0B21E
S31508004E4007280ED102255FF0000ADFF820B5524682
S31508004E502900584602F066F9BDF80000DFF80C157F
S31508004E6008809DF805000C9908709DF806000D99B4
S31508004E7008709DF804000E9908701898077048463F
S31508004E80C0B20FB0BDE8F08F38B5040007256068DA
S31508004E904049896A8847002801D115F0FE0507228E
S31508004EA0002194F9000001F048FE002801D115F010
S31508004EB0FD050522002194F9010001F03EFE0028B7
S31508004EC001D115F0FB052800C0B232BDD45F010838
S31508004ED090D003003EB5040003252068006800282A
S31508004EE00AD120798DF80000684600F0DFF900281D
S31508004EF01FD115F0FC051CE02068019020798DF87B
S31508004F00080001A800F028F9002806D0042805D0D2
S31508004F10052806D0062807D009E00AE015F0FE05A0
S31508004F2007E015F0FD0504E015F0FC0501E015F0B5
S31508004F30FC052800C0B23EBD01005FF0FF30704797
S31508004F4038B50400032500208DF80000694660681E
S31508004F50FFF758FA002801D115F0FE05DFF8F4131B
S31508004F6022780C2042438858002801D115F0FD0507
S31508004F702800C0B2032808D16168DFF8D82323784F
S31508004F800C20434302EB030041602800C0B232BD47
S31508004F9020A10700EC5D0108C055703340DA8E3356
S31508004FA001A1BC33C1C8C533604FC73381F0CE33C6
S31508004FB0C0FDD13351CED53310B401000022088884
S31508004FC0302390FBF3F403FB1400002801D10020E2
S31508004FD028E00888202390FBF3F403FB140000283C
S31508004FE001D101201EE00888182390FBF3F403FB87
S31508004FF01400002801D1022014E00888102390FB31
S31508005000F3F403FB1400002801D103200AE0088802
S31508005010082390FBF3F403FB1400002801D10420B5
S3150800502000E0052040B210BC704718B585B00400F2
S31508005030AD480090D048019060788DF80800207837
S315080050408DF80900A0788DF80A00E0788DF80B0035
S3150800505060680390A0680490684602F00BF806B0F2
S3150800506010BD0000A091D6338125DB332DE9F0472A
S3150800507088B005000E00170098465FF0000900206A
S315080050808DF80C001021002204AC200002F04AF82A
S315080050905FF0000A01220021B44801F090FD0028C3
S315080050A005D1B248008850F00700B0490880686802
S315080050B0FEF7E3FB2968884219D30020C8F80000E8
S315080050C005238A4AA97A687A01F0BBFD040003A879
S315080050D0029004A8019085480090834BA34A287A39
S315080050E00100C9B2687AFFF7DFF981460AE09DF840
S315080050F00C00401C8DF80C006868FEF7BEFB29689A
S3150800510004000C1B4846C0B200280CD04946C9B258
S31508005110491E0020FEF7C4FE04A9085C3070002072
S31508005120386001200FE09DF80C00002802D03C6092
S31508005130012008E08D48008850F007008B49088058
S3150800514000203860002008B0BDE8F08754610108E7
S3150800515030610108386101082DE9FC470400002088
S315080051608DF800000025002627793800C0B21028DF
S3150800517001DB032092E007220021206890F908004D
S3150800518040F3030040B201F0D8FC002801D1012009
S315080051900500072200212068007A40F3031040B278
S315080051A001F0CBFC002801D1012005002068007A17
S315080051B040F30310216891F908100907091740B24E
S315080051C049B2884201DA012005003800C0B2032836
S315080051D023DA206890F908000007001740B200B2E9
S315080051E0012801DB01200500072205212068007A35
S315080051F040F3031040B201F0A0FC002801D10120C1
S31508005200050020680168384A3B00DBB20C2043439E
S31508005210D058814201D0012006003000C0B20028D3
S3150800522008D1694620680068FFF7ECF8002801D124
S31508005230012006002800C0B2304201D006202DE029
S315080052402800C0B2002801D0052027E03000C0B2EF
S31508005250002801D0042021E05FF00C08D4F8009063
S3150800526021493A00D2B20C20424301EB020A4246D7
S315080052704946504601F088FB9DF800101A4A3B0043
S31508005280DBB20C20434302EB030041723748008827
S315080052900121B9400843354908800020BDE8F68752
S315080052A018FCFFFF08E6D3337410032038B5040052
S315080052B025782800C0B2032801DA002011E00A493F
S315080052C02A00D2B20C20424301EB02000021002240
S315080052D0002380E80E0010222900C9B2234801F0F5
S315080052E03FFC32BD76100320B408032000000320DB
S315080052F02DE9F04104001D4B94F901201E49154D76
S3150800530026780C20464305EB0600407A000108443F
S3150800531090F9021094F90200FFF765F805000026D7
S315080053200C4922780C20424351F80280D4ED020A37
S3150800533094ED010A280040B201F078FE0700A28920
S31508005340390049B240460D4B5B6C9847BDE8F08181
S315080053509A990940B4080320FC600108C008032094
S3150800536008610108CC0803201461010874100320A1
S31508005370286101088545010000000320EC5D01084D
S3150800538010B40300881A040064B2002C01D5002466
S315080053902000C0B210BC704710B5040010220021CE
S315080053A014F1F100FEF7A4FD0020C4F81401F02260
S315080053B000212000FEF79CFD10BD38B504000D0045
S315080053C022001021280000F0BDFB31BDF8B584B0DD
S315080053D004000E001700D4F8140100283CD0D4F8B5
S315080053E01401D0F11000B84204D2D4F81451D5F102
S315080053F0100500E03D002A0092B23100D4F81401ED
S31508005400204400F20110FEF759FDD4F814012818BB
S31508005410C4F81401D4F81401102801D3AF4200D1FE
S3150800542048E0002110290EDA04EB010090F8F1207B
S3150800543004EB010090F80101424004EB010080F8FA
S31508005440F120491CEEE7220014F1F10114F1F100F4
S3150800545000F04CFC2E447F1B112F22D3002110296B
S315080054600BDA04EB010090F8F120705C424004EB83
S31508005470010080F8F120491CF1E7102214F1F1012E
S315080054806846FEF71BFD22006946684600F02EFCBA
S315080054901022694614F1F100FEF710FD1036103F90
S315080054A0DAE73A0092B2310004F20110FEF706FD7F
S315080054B0C4F8147105B0F0BD38B588B004000D0005
S315080054C0102200216846FEF713FD2A006946684641
S315080054D000F00CFC9DF8000000061BD500200F28E4
S315080054E00CDA6946095C6A4602445278D2B2D20995
S315080054F052EA410269460A54401CF0E79DF80F102B
