S00F00006D617274696E692E7372656321
S3150800000000000520357D0108A91A0108C11A010852
S31508000010D11A0108E11A0108F11A010800000000C6
S315080000200000000000000000000000000B87030825
S315080000300D870308000000000F87030811870308CF
S315080000404BA303084BA303084BA303084BA30308BE
S315080000504BA303084BA30308218703082B87030830
S31508000060358703083F870308498703084BA3030816
S315080000704BA303084BA303084BA303084BA303088E
S315080000804BA303084BA303084BA303084BA303087E
S315080000904BA303084BA303084BA303085387030882
S315080000A04BA303084BA303084BA303084BA303085E
S315080000B04BA303084BA303084BA303084BA303084E
S315080000C04BA303084BA303084BA303084BA303083E
S315080000D04BA303084BA303084BA303084BA303082E
S315080000E079870308198703084BA303084BA303085A
S315080000F04BA303084BA303084BA303084BA303080E
S315080001004BA303084BA303084BA303084BA30308FD
S315080001104BA303084BA303084BA303084BA30308ED
S31508000120D58703084BA303084BA303084BA303086F
S315080001304BA303084BA303084BA303084BA30308CD
S315080001404BA30308AD8703084BA303084BA3030877
S315080001504BA303084BA303084BA303084BA30308AD
S315080001604BA303084BA303084BA303084BA303089D
S315080001704BA303084BA303084BA303080000000086
S315080001804BA303084BA303084BA303084BA303087D
S315080001904BA30308BD8703084BA303084BA3030817
S311080001A04BA303084BA303080000000053
S315080001B001F0FF01102A2BDB10F0070F08D010F80A
S315080001C0013B013A8B422DD010F0070F42B3F6D10E
S315080001D0F0B441EA012141EA014122F007047FF027
S315080001E000070023F0E80256083C85EA010586EA7E
S315080001F0010685FA47F5A3FA87F586FA47F6A5FABA
S3150800020087F68EB9EED1F0BC01F0FF0102F00702C5
S3150800021032B110F8013B013A83EA010313B1F8D170
S315080002200020704701387047002D06BF3546033851
S31508000230073815F0010F07D1013015F4807F02BF8A
S31508000240013015F4C03F0130F0BC0138704700BFDB
S3150800025010B5054C237833B9044B13B10448AFF3F2
S3150800026000800123237010BDC80300200000000091
S315080002703C76040808B5034B1BB103490348AFF3A2
S31508000280008008BD00000000CC0300203C7604086E
S3150800029081F0004102E000BF83F0004330B54FEA29
S315080002A041044FEA430594EA050F08BF90EA020F96
S315080002B01FBF54EA000C55EA020C7FEA645C7FEA29
S315080002C0655C00F0E2804FEA5454D4EB5555B8BF4C
S315080002D06D420CDD2C4480EA020281EA030382EABD
S315080002E0000083EA010180EA020281EA0303362D4F
S315080002F088BF30BD11F0004F4FEA01314FF4801C22
S315080003004CEA113102D0404261EB410113F0004F33
S315080003104FEA03334CEA133302D0524263EB4303EA
S3150800032094EA050F00F0A780A4F10104D5F1200E88
S315080003300DDB02FA0EFC22FA05F2801841F10001E3
S3150800034003FA0EF2801843FA05F359410EE0A5F1B7
S3150800035020050EF1200E012A03FA0EFC28BF4CF0E8
S31508000360020C43FA05F3C01851EBE37101F000459E
S3150800037007D54FF0000EDCF1000C7EEB00006EEBAB
S315080003800101B1F5801F1BD3B1F5001F0CD3490835
S315080003905FEA30004FEA3C0C04F101044FEA44528C
S315080003A012F5800F80F09A80BCF1004F08BF5FEA13
S315080003B0500C50F1000041EB045141EA050130BDF3
S315080003C05FEA4C0C404141EB0101013C28BFB1F505
S315080003D0801FE9D291F0000F04BF01460020B1FA50
S315080003E081F308BF2033A3F10B03B3F120020CDA23
S315080003F00C3208DD02F1140CC2F10C0201FA0CF001
S3150800040021FA02F10CE002F11402D8BFC2F1200C65
S3150800041001FA02F120FA0CFCDCBF41EA0C0190401B
S31508000420E41AA2BF01EB0451294330BD6FEA040464
S315080004301F3C1CDA0C340EDC04F11404C4F120024F
S3150800044020FA04F001FA02F340EA030021FA04F361
S3150800045045EA030130BDC4F10C04C4F1200220FAB8
S3150800046002F001FA04F340EA0300294630BD21FAF6
S3150800047004F0294630BD94F0000F83F4801306BFBC
S3150800048081F480110134013D4EE77FEA645C18BFB0
S315080004907FEA655C29D094EA050F08BF90EA020F47
S315080004A005D054EA000C04BF1946104630BD91EA3F
S315080004B0030F1EBF0021002030BD5FEA545C05D142
S315080004C04000494128BF41F0004130BD14F5800481
S315080004D03CBF01F5801130BD01F0004545F0FE41F5
S315080004E041F470014FF0000030BD7FEA645C1ABF2A
S315080004F0194610467FEA655C1CBF0B46024650EA61
S31508000500013406BF52EA033591EA030F41F400218C
S3150800051030BD00BF90F0000F04BF0021704730B512
S315080005204FF4806404F132044FF000054FF00001E7
S3150800053050E700BF90F0000F04BF0021704730B5A8
S315080005404FF4806404F1320410F0004548BF40427D
S315080005504FF000013EE700BF42004FEAE2014FEAD2
S3150800056031014FEA02701FBF12F07F4393F07F4FAD
S3150800057081F06051704732F07F4208BF704793F0B0
S315080005807F4F04BF41F40021704730B54FF46074C3
S3150800059001F0004521F000411CE700BF50EA0102C6
S315080005A008BF704730B54FF000050AE050EA01026F
S315080005B008BF704730B511F0004502D5404261EBDF
S315080005C041014FF4806404F132045FEA915C3FF420
S315080005D0D8AE4FF003025FEADC0C18BF03325FEABD
S315080005E0DC0C18BF033202EBDC02C2F1200300FA6E
S315080005F003FC20FA02F001FA03FE40EA0E0021FA93
S3150800060002F11444BDE600BF70B54FF0FF0C4CF480
S31508000610E06C1CEA11541DBF1CEA135594EA0C0F32
S3150800062095EA0C0F00F0DEF82C4481EA030621EA6D
S315080006304C5123EA4C5350EA013518BF52EA0335A8
S3150800064041F4801143F4801338D0A0FB02CE4FF05A
S315080006500005E1FB02E506F00042E0FB03E54FF08A
S315080006600006E1FB03569CF0000F18BF4EF0010E82
S31508000670A4F1FF04B6F5007F64F5407404D25FEA7E
S315080006804E0E6D4146EB060642EAC62141EA555131
S315080006904FEAC52040EA5E504FEACE2EB4F1FD0C73
S315080006A088BFBCF5E06F1ED8BEF1004F08BF5FEAF1
S315080006B0500E50F1000041EB045170BD06F00046A3
S315080006C046EA010140EA020081EA0301B4EB5C0450
S315080006D0C2BFD4EB0C0541EA045170BD41F4801148
S315080006E04FF0000E013C00F3AB8014F1360FDEBF6D
S315080006F0002001F0004170BDC4F10004203C35DA49
S315080007000C341BDC04F11404C4F1200500FA05F3CB
S3150800071020FA04F001FA05F240EA020001F000426C
S3150800072021F0004110EBD37021FA04F642EB0601E2
S315080007305EEA430E08BF20EAD37070BDC4F10C040C
S31508000740C4F1200500FA04F320FA05F001FA04F2D0
S3150800075040EA020001F0004110EBD37041F10001BC
S315080007605EEA430E08BF20EAD37070BDC4F12005C7
S3150800077000FA05F24EEA020E20FA04F301FA05F22F
S3150800078043EA020321FA04F001F0004121FA04F2D7
S3150800079020EA020000EBD3705EEA430E08BF20EAA7
S315080007A0D37070BD94F0000F0FD101F000464000E1
S315080007B041EB010111F4801F08BF013CF7D041EA63
S315080007C0060195F0000F18BF704703F00046520067
S315080007D043EB030313F4801F08BF013DF7D043EA38
S315080007E00603704794EA0C0F0CEA135518BF95EAEE
S315080007F00C0F0CD050EA410618BF52EA4306D1D175
S3150800080081EA030101F000414FF0000070BD50EA93
S31508000810410606BF1046194652EA430619D094EA1D
S315080008200C0F02D150EA013613D195EA0C0F05D107
S3150800083052EA03361CBF104619460AD181EA03015B
S3150800084001F0004141F0FE4141F470014FF0000013
S3150800085070BD41F0FE4141F4780170BD70B54FF0AE
S31508000860FF0C4CF4E06C1CEA11541DBF1CEA13552E
S3150800087094EA0C0F95EA0C0F00F0A7F8A4EB050410
S3150800088081EA030E52EA03354FEA013100F0888007
S315080008904FEA03334FF0805545EA131343EA1263D0
S315080008A04FEA022245EA111545EA10654FEA002685
S315080008B00EF000419D4208BF964244F1FD0404F53E
S315080008C0407402D25B084FEA3202B61A65EB03059A
S315080008D05B084FEA32024FF480104FF4002CB6EB57
S315080008E0020E75EB030E22BFB61A754640EA0C00D7
S315080008F05B084FEA3202B6EB020E75EB030E22BF17
S31508000900B61A754640EA5C005B084FEA3202B6EB57
S31508000910020E75EB030E22BFB61A754640EA9C0016
S315080009205B084FEA3202B6EB020E75EB030E22BFE6
S31508000930B61A754640EADC0055EA060E18D04FEAA4
S31508000940051545EA16754FEA06164FEAC30343EA44
S3150800095052734FEAC2025FEA1C1CC0D111F4801F11
S315080009600BD141EA00014FF000004FF0004CB6E70A
S3150800097011F4801F04BF01430020B4F1FD0C88BFA9
S31508000980BCF5E06F3FF6AFAEB5EB030C04BFB6EBB4
S31508000990020C5FEA500C50F1000041EB045170BDA7
S315080009A00EF0004E4EEA113114EB5C04C2BFD4EBD4
S315080009B00C0541EA045170BD41F480114FF0000E58
S315080009C0013C90E645EA060E8DE60CEA135594EAD4
S315080009D00C0F08BF95EA0C0F3FF43BAF94EA0C0FD7
S315080009E00AD150EA01347FF434AF95EA0C0F7FF44C
S315080009F025AF104619462CE795EA0C0F06D152EAA0
S31508000A0003353FF4FDAE1046194622E750EA410683
S31508000A1018BF52EA43067FF4C5AE50EA41047FF494
S31508000A200DAF52EA43057FF4EBAE12E74FF0FF3CF9
S31508000A3006E000BF4FF0010C02E000BF4FF0010CCA
S31508000A404DF804CD4FEA410C7FEA6C5C4FEA430C43
S31508000A5018BF7FEA6C5C1BD001B050EA410C0CBF92
S31508000A6052EA430C91EA030F02BF90EA020F0020F4
S31508000A70704710F1000F91EA030F58BF994208BF5B
S31508000A8090422CBFD8176FEAE37040F00100704718
S31508000A904FEA410C7FEA6C5C02D150EA013C07D16F
S31508000AA04FEA430C7FEA6C5CD6D152EA033CD3D0BA
S31508000AB05DF8040B704700BF8446104662468C46B4
S31508000AC01946634600E000BF01B5FFF7B7FF0028E7
S31508000AD048BF10F1000F01BD4DF808EDFFF7F4FF10
S31508000AE00CBF012000205DF808FB00BF4DF808ED9B
S31508000AF0FFF7EAFF34BF012000205DF808FB00BFBE
S31508000B004DF808EDFFF7E0FF94BF012000205DF8DF
S31508000B1008FB00BF4DF808EDFFF7CEFF94BF012094
S31508000B2000205DF808FB00BF4DF808EDFFF7C4FF8D
S31508000B3034BF012000205DF808FB00BF4FEA410CD6
S31508000B407FEA6C5C02D150EA013C0AD14FEA430CB9
S31508000B507FEA6C5C02D152EA033C02D14FF00000F6
S31508000B6070474FF0010070474FEA410212F5001234
S31508000B7015D211D56FF47873B3EB625212D94FEAD6
S31508000B80C12343F0004343EA505311F0004F23FAC0
S31508000B9002F018BF404270474FF00000704750EA15
S31508000BA0013005D111F0004008BF6FF000407047D2
S31508000BB04FF00000704700BF4A0011D212F500122C
S31508000BC011D20DD56FF47873B3EB62520ED44FEA97
S31508000BD0C12343F0004343EA505323FA02F0704717
S31508000BE04FF00000704750EA013002D14FF0FF3055
S31508000BF070474FF0000070474FEA4102B2F1E043F8
S31508000C0024BFB3F5001CDCF1FE5C0DD901F0004CE5
S31508000C104FEAC0024CEA5070B2F1004F40EB830035
S31508000C2008BF20F00100704711F0804F21D113F161
S31508000C303872BCBF01F00040704741F480114FEA9A
S31508000C405252C2F11802C2F1200C10FA0CF320FA23
S31508000C5002F018BF40F001004FEAC1234FEAD32340
S31508000C6003FA0CFC40EA0C0023FA02F34FEA4303AA
S31508000C70CCE77FEA625307D150EA01331EBF4FF033
S31508000C80FE4040F44000704701F0004040F0FE404E
S31508000C9040F40000704700BF7BB972B90029BEBF97
S31508000CA000204FF0004106E008BF00281CBF6FF087
S31508000CB000414FF0FF3000F015BAADF1080C6DE9B0
S31508000CC004CE002909DB002B1ADB00F0A3F8DDF8B7
S31508000CD004E0DDE9022304B07047404261EB4101BC
S31508000CE0002B1BDB00F096F8DDF804E0DDE90223B3
S31508000CF004B0404261EB4101524263EB4303704743
S31508000D00524263EB430300F085F8DDF804E0DDE9C1
S31508000D10022304B0404261EB41017047524263EB43
S31508000D20430300F077F8DDF804E0DDE9022304B0B8
S31508000D30524263EB4303704753B94AB9002908BFC7
S31508000D4000281CBF4FF0FF314FF0FF3000F0CAB942
S31508000D50ADF1080C6DE904CE00F05CF8DDF804E0AE
S31508000D60DDE9022304B0704738B5002200230446A3
S31508000D700D46FFF7BBFE28B920462946BDE8384090
S31508000D8000F02AB8204605F1004100F025F8404257
S31508000D9061EB410138BD00BFD0B5FFF7DDFB0C4B59
S31508000DA0002206460F46FFF72FFCFFF705FF04460D
S31508000DB0FFF7B0FB074B0022FFF726FC02460B465F
S31508000DC030463946FFF768FAFFF7F6FE2146D0BDEA
S31508000DD00000F03D0000F041D0B50C4B002206465D
S31508000DE00F46FFF711FCFFF7E7FE0446FFF792FBF5
S31508000DF0074B0022FFF708FC02460B4630463946E9
S31508000E00FFF74AFAFFF7D8FE2146D0BD0000F03DAD
S31508000E100000F0412DE9F047089D04468E46002B58
S31508000E204DD18A42944669D9B2FA82F252B101FA90
S31508000E3002F3C2F1200120FA01F10CFA02FC41EAA0
S31508000E40030E94404FEA1C48210CBEFBF8F61FFA25
S31508000E508CF708FB16E341EA034306FB07F19942C0
S31508000E600AD91CEB030306F1FF3080F01F81994273
S31508000E7040F21C81023E63445B1AA4B2B3FBF8F04D
S31508000E8008FB103344EA034400FB07F7A7420AD9D4
S31508000E901CEB040400F1FF3380F00A81A74240F2FC
S31508000EA007816444023840EA0640E41B00261DB167
S31508000EB0D4400023C5E900433146BDE8F0878B429C
S31508000EC009D9002D00F0EF800026C5E9000130465B
S31508000ED03146BDE8F087B3FA83F6002E4AD18B4235
S31508000EE002D3824200F2F980841A61EB03030120DF
S31508000EF09E46002DE0D0C5E9004EDDE702B9FFDECB
S31508000F00B2FA82F2002A40F09280A1EB0C014FEA75
S31508000F101C471FFA8CFE0126200CB1FBF7F307FBD2
S31508000F20131140EA01410EFB03F0884208D91CEB75
S31508000F30010103F1FF3802D2884200F2CB80434612
S31508000F40091AA4B2B1FBF7F007FB101144EA0144F1
S31508000F500EFB00FEA64508D91CEB040400F1FF3180
S31508000F6002D2A64500F2BB800846A4EB0E0440EA6E
S31508000F7003409CE7C6F12007B34022FA07FC4CEA77
S31508000F80030C20FA07F401FA06F31C43F9404FEA6A
S31508000F901C4900FA06F3B1FBF9F8200C1FFA8CFE7F
S31508000FA009FB181140EA014108FB0EF0884202FAD3
S31508000FB006F20BD91CEB010108F1FF3A80F0888094
S31508000FC0884240F28580A8F102086144091AA4B251
S31508000FD0B1FBF9F009FB101144EA014100FB0EFED2
S31508000FE08E4508D91CEB010100F1FF346CD28E4501
S31508000FF06AD90238614440EA0840A0FB0294A1EB92
S315080010000E01A142C846A64656D353D05DB1B3EBEE
S31508001010080261EB0E0101FA07F722FA06F3F1401E
S315080010201F43C5E9007100263146BDE8F087C2F1C5
S315080010302003D8400CFA02FC21FA03F3914001433D
S315080010404FEA1C471FFA8CFEB3FBF7F007FB103676
S315080010500B0C43EA064300FB0EF69E4204FA02F422
S3150800106008D91CEB030300F1FF382FD29E422DD975
S31508001070023863449B1B89B2B3FBF7F607FB1633AA
S3150800108041EA034106FB0EF38B4208D91CEB01012A
S3150800109006F1FF3816D28B4214D9023E6144C91AAA
S315080010A046EA004638E72E46284605E70646E3E6BA
S315080010B01846F8E64B45A9D2B9EB020864EB0C0EC4
S315080010C00138A3E74646EAE7204694E74046D1E7D3
S315080010D0D0467BE7023B614432E7304609E7644481
S315080010E0023842E7704700BF10F8012B11F8013BA0
S315080010F0012A28BF9A42F7D0D01A7047034613F838
S31508001100012B002AFBD1181A01387047000000008D
S315080011102DE9F04F2DED028BCBB0044657EC106B42
S3150800112015460022002310EE100A3946FFF7D4FCB4
S31508001130002851D10022002330463946FFF7D6FC55
S31508001140002840F0858047EC106B01F0C9FC01F0DF
S315080011509BF951EC100BFFF707FDA0EB050A0AF106
S3150800116001094846FFF7E6F99FED9D8B41EC110B07
S31508001170B0EE480AF0EE680A01F0F6FC53EC102BC4
S3150800118030463946FFF76AFB41EC100B2CF0DCFAC7
S3150800119051EC100BFFF7E8FC8046FFF7CBF9CDE9D9
S315080011A002012846FFF7C6F941EC110BB0EE480AD2
S315080011B0F0EE680A01F0D8FC53EC102BDDE90201C9
S315080011C0FFF7A8FC002857D14FEAD876B8F1000FE8
S315080011D06FDB43460125B9E016AB14933022294646
S315080011E014A832F087FA159BC3F1FF4303F5FF03F2
S315080011F003F5FF437F33032B1ED904227A4914A82B
S3150800120032F044FB04F108012160034653F8082B29
S315080012109A4214D022608268A260426862600360C3
S31508001220002343600372149816AB98421ED0169991
S3150800123001313AF0F5F819E06C483FF0E3FC8768AD
S315080012405E689D68DA68A760E66025616261E4E722
S31508001250D621674810F054FC04F108032360654959
S315080012604FF000030A46204605F03CFA20464BB0EC
S31508001270BDEC028BBDE8F08F0AF102094846FFF77C
S3150800128059F941EC110BB0EE480AF0EE680A01F084
S315080012906BFC53EC102B30463946FFF7DFFA41EC6E
S315080012A0100B2CF051FA51EC100BFFF75DFC804641
S315080012B08AE7C8F100088CE7013510AB0E932D229A
S315080012C071190EA832F016FA0F9B9E424BD8424669
S315080012D029460E98304405F0B5F90AAB0893002361
S315080012E009938DF82830B9F1630F43DC19F1630FC0
S315080012F05FDBB9F1090F65DC19F1090FC0F2158139
S31508001300B9F1000FC0F239824FEAD976C0F2A68148
S315080013104B460125092B40F2B281632B40F2AE8180
S31508001320B3F57A7FC0F0008242F20F72934240F220
S31508001330FD81314AA2FB03235B0B0435EAE702353C
S31508001340BBE72D4AA2FB03235B0B0435092BB4D953
S31508001350632BB1D9B3F57A7FF1D342F20F72934278
S31508001360EFD80335A9E7254B254A40F21B41254806
S3150800137005F012F904230093234B0022114608A80E
S3150800138005F00AFA08AA0EA9204632F0A8FA089823
S315080013900AAB984203D00A9901313AF041F80E98FF
S315080013A010AB98423FF462AF109901313AF038F821
S315080013B05CE7042300930C4B099A002108A805F062
S315080013C0EBF9DFE74FEAD976B9F1000F02DB4B46B6
S315080013D0012578E0C9F10009F9E700BFAFF30080FD
S315080013E00000000000002440447B0408107B040829
S315080013F04C7B0408EC7D04085917B7D17C7B04089C
S315080014008C7B0408387D0408947D0408013522ABDA
S3150800141020932D22711920A832F06CF9219B9E4247
S315080014205ED84A4629462098304405F00BF9219A99
S3150800143002B10022022300938A4B002120A805F05E
S31508001440ABF905461CAB1A93064656F8083BB34259
S315080014504DD01A9383681C936B681B932E600023E8
S315080014606B602B7208981A991CAB994246D00AAB46
S31508001470984255D0DDF828B008911B9B09931C9B10
S315080014800A9300284ED01A90CDF870B000231B930B
S315080014901A9A13701A981CAB984203D01C990131FA
S315080014A039F0BEFF209822AB98423FF46BAF2299E1
S315080014B0013139F0B5FF65E70235A8E76A4AA2FBAC
S315080014C003235B0B0435092BA1D9632B9ED9B3F5EE
S315080014D07A7FF1D342F20F729342EFD8033596E73B
S315080014E0624B634A40F21B41624805F055F81CAF4F
S315080014F080687168B268F3680FC7ADE71B9A2AB9A6
S315080015001B9B0993089A0021D154BFE7012A04D0EE
S31508001510002AF5D045F031F8F2E70B780370EFE7CB
S315080015200020A9E71CAB1A93B0E7B9F1000FB8BFC2
S31508001530C9F100094FEAD9764B4601255CE0013529
S315080015402EAB2C932D2271192CA832F0D3F82D9B93
S315080015509E425ED84A4629462C98304405F072F8D1
S315080015602D9A02B1002202230093434B00212CA896
S3150800157005F012F9054628AB2693064656F8083BA9
S31508001580B3424DD02693836828936B6827932E60C1
S3150800159000236B602B720898269928AB994246D08F
S315080015A00AAB984255D00A9B06930891279B099344
S315080015B0289B0A9300284ED02690069B2893002342
S315080015C02793269A1370269828AB984203D0289911
S315080015D0013139F025FF2C982EAB98423FF4D2AE54
S315080015E02E99013139F01CFFCCE60235A8E71E4AD0
S315080015F0A2FB03235B0B0435092BA1D9632B9ED9C8
S31508001600B3F57A7FF1D342F20F729342EFD80335DE
S3150800161096E7164B164A40F21B41164804F0BCFFE3
S3150800162028AF80687168B268F3680FC7ADE7279A74
S315080016302AB9279B0993089A0021D154BFE7012AA2
S3150800164004D0002AF5D044F098FFF2E70B7803702F
S31508001650EFE70020A9E728AB2693B0E7C9F1000910
S3150800166056E600BF9C7D04085917B7D17C7B040851
S315080016708C7B0408387D0408A07D040801353AAB44
S3150800168038932D22711938A832F034F8399B9E42C6
S315080016904ED84A4629463898304404F0D3FF399A3A
S315080016A002B1002203230093804B002138A805F0DD
S315080016B073F8054634AB3293064656F8083BB342F0
S315080016C03DD03293836834936B6833932E6000233E
S315080016D06B602B720898329934AB994236D00AABB4
S315080016E0984245D00A9B05930891339B0993349BEE
S315080016F00A9300283ED03290059B349300233393F7
S31508001700329A1370329834AB984203D03499013127
S3150800171039F086FE38983AAB98423FF433AE3A9998
S31508001720013139F07DFE2DE60235A8E70335A6E737
S315080017305F4B604A40F21B415F4804F02DFF34AF0F
S3150800174080687168B268F3680FC7BDE7339A2AB92B
S31508001750339B0993089A0021D154CFE7012A04D074
S31508001760002AF5D044F009FFF2E70B780370EFE79B
S315080017700020B9E734AB3293C0E7B9F1000FB8BF20
S31508001780C9F100094FEAD9764B4601255CE00135D7
S3150800179046AB44932D22711944A831F0ABFF459B03
S315080017A09E425ED84A4629464498304404F04AFF89
S315080017B0459A02B1002203230093404B002144A816
S315080017C004F0EAFF054640AB3E93064656F8083B4A
S315080017D0B3424DD03E93836840936B683F932E6027
S315080017E000236B602B7208983E9940AB994246D00D
S315080017F00AAB984255D00A9B079308913F9B0993D9
S31508001800409B0A9300284ED03E90079B40930023A6
S315080018103F933E9A13703E9840AB984203D0409946
S31508001820013139F0FDFD449846AB98423FF4AAAD24
S315080018304699013139F0F4FDA4E50235A8E7204AB6
S31508001840A2FB03235B0B0435092BA1D9632B9ED975
S31508001850B3F57A7FF1D342F20F729342EFD803358C
S3150800186096E7134B134A40F21B41134804F094FEC3
S3150800187040AF80687168B268F3680FC7ADE73F9AF2
S315080018802AB93F9B0993089A0021D154BFE7012A38
S3150800189004D0002AF5D044F070FEF2E70B78037006
S315080018A0EFE70020A9E740AB3E93B0E7A47D040824
S315080018B07C7B04088C7B0408387D0408A87D040812
S315080018C05917B7D1000000002DE9F0412DED028B24
S315080018D0804600239FED2A8AF0EE486A0EE008EB60
S315080018E0830292ED007A38EE078A07EE903AF8EE10
S315080018F0677A67EE877A76EEA76A0133FF2BEED909
S31508001900C6EE888A0024002529E007EE904AF8EEFC
S31508001910677A77EEE87A17EE900AFEF71DFE9FEDD6
S31508001920161B41EC100B01F01FF957EC106B08EB76
S3150800193084031868FEF710FE02460B463046394601
S31508001940FEF762FE06460F462846FEF705FE3246B5
S315080019503B46FEF7A3FCFFF74FF905460134FF2C7B
S31508001960D3D907EE905A87EE880ABDEC028BBDE8FC
S31508001970F08100BFAFF300800000000000000040C7
S315080019800000000000000000F8B52DED028B0446AB
S3150800199008EE101AD0ED4E8A70EE688AB8EE488ABC
S315080019A018EE100AFEF7D8FD06460F46D4F83C0195
S315080019B0FEF7D2FD12A3D3E90023FEF725FE024661
S315080019C00B4630463946FEF71FFE04460D4668EEBE
S315080019D0A87A17EE900AFEF7BFFD02460B46204688
S315080019E02946FEF711FEFFF707F907EE900A38EECB
S315080019F0278AFCEEC87A17EE900ABDEC028BF8BD72
S31508001A008DEDB5A0F7C6B03E2DE9F0470C4620B1DE
S31508001A1001285BD00020BDE8F087874D2E8C272053
S31508001A2039F05AFB20F0F80001303044FEF782FD09
S31508001A3095F82230002B40D000220023FEF72EFC1A
S31508001A4006460F46302039F047FB30F0F90337D009
S31508001A5000227A4B30463946FEF720FC06460F46EA
S31508001A602046FEF767FD32463B46FEF717FC724BEB
S31508001A7093F824303BB300224FF08043FEF70EFC68
S31508001A8000226F4BFEF7C0FD04460D466A4BD86927
S31508001A90FEF740FD02460B4620462946FEF7DEFEC7
S31508001AA00022684BFEF7B0FD41EC100B2BF04CFE04
S31508001AB051EC100BFFF780F8ADE700225F4BBDE74E
S31508001AC000220023C6E700220023D7E75A4B5B6CA7
S31508001AD0082B00F09180092B00F09280072B00F06C
S31508001AE0878000260027544DD5F848A0012000FA23
S31508001AF00AF0FEF71FFD02460B4630463946FEF74A
S31508001B00ADFE02460B4600204C49FEF7A7FE0646E8
S31508001B100F46B5F84E00FEF70DFD00224A4BFEF7BC
S31508001B20BDFB32463B46FEF76FFD804689464FEAC7
S31508001B308A00C0EBC40095F8524000EB041095F8F3
S31508001B405030002B60D01424001B1C30FEF7E2FC3A
S31508001B5004460D46384B93F84C30002B56D00220DD
S31508001B60AAEB00008000FEF7D5FC02460B4620468D
S31508001B702946FEF773FE41EC100B00F005FC55EC08
S31508001B80104B2D4B93F84D000430FEF7D3FC02465C
S31508001B900B4620462946FEF737FD04460D46002229
S31508001BA00023FEF7C1FF98B30022254B204629469D
S31508001BB0FEF774FB02460B4630463946FEF724FD0F
S31508001BC002460B4640464946FEF768FB00221D4B77
S31508001BD0FEF71AFD10A3D3E90023FEF75FFB41ECDD
S31508001BE0100B00F051FC51EC100BFEF7E5FF12E765
S31508001BF00BA7D7E9006776E70BA7D7E9006772E76F
S31508001C000BA7D7E900676EE700249DE70020A7E742
S31508001C1000240025C8E700BF2B8716D9CEF7EF3F6B
S31508001C20000000008084FE400000000080840E4111
S31508001C300000000080841E41BC1500200000F03F13
S31508001C400000204000408F400000114000000000C6
S31508001C502DE9F04F85B00446009115460293BDF86C
S31508001C603C80BDF8403001939DF844709DF848903B
S31508001C709DF84C609DF858B09DF85CA01DF0ACF935
S31508001C802CB1012C00F0848005B0BDE8F08FAE4C75
S31508001C90009B6361E5610E9AA26184F8227084F85C
S31508001CA0239084F8246084F825B084F826A0A4F844
S31508001CB020802846FEF72EFC82468B4602460B46B7
S31508001CC00020A249FEF7CAFD0022A14BFEF79CFCA4
S31508001CD0CDE902010198FEF72DFCDDE90223FEF7A6
S31508001CE093FC00229B4BFEF78FFCFEF765FFE06234
S31508001CF052465B4692A1D1E90001FEF7AFFDFEF719
S31508001D005BFF84B2C0F30721022039F0B8F9E1B2CB
S31508001D10032039F0B4F900981CF046FE014612205B
S31508001D2039F0ADF90E981CF03FFE0146132039F044
S31508001D30A6F94FEA1821252039F0A1F95FFA88F1AA
S31508001D40262039F09CF9DFB14946322039F097F957
S31508001D50302039F0C1F900F06F01B7B100231943FB
S31508001D6041EA0611C9B2302039F089F9312039F033
S31508001D70B3F940F04001C9B2312039F080F983E760
S31508001D80FF21322039F07BF9E2E76FF07F03E6E7BF
S31508001D90009B022B00D9FEE7009C07346A4B5C6463
S31508001DA09D64029A83F84D20A3F84E8083F85070FC
S31508001DB083F8519083F852609DF8502083F8532099
S31508001DC09DF8542083F8542083F855B083F856A01C
S31508001DD00C2D03D8052D02D8062500E00C25072C66
S31508001DE063D0082C6AD0584B002283F84C201D205B
S31508001DF039F072F92301DAB2029B5B00DBB21343B6
S31508001E0043EA07011D2039F03AF91E2039F064F932
S31508001E1000F008032A01D2B21A43B300DBB2134317
S31508001E20019EC6F3012119431E2039F028F9262000
S31508001E3039F052F941B221F00801434B93F84C307E
S31508001E4041EAC301C9B2262039F019F9F1B21F20B7
S31508001E5039F015F94FEA1821202039F010F95FFA00
S31508001E6088F1212039F00BF95FBB374B93F85330D3
S31508001E7063BB092C3AD0092C46D00321362039F009
S31508001E80FEF8062D49D0312039F026F941B221F065
S31508001E90070141F0030101F0FB01312039F0EFF8A9
S31508001EA00A21372039F0EBF8EEE6A5F10B03012BF2
S31508001EB097D8254B012283F84C2098E70C2D92D110
S31508001EC0F7E74946222039F0DAF8CEE7442039F018
S31508001ED003F960F07F01C9B2442039F0D0F81A4BF3
S31508001EE093F85410242039F0CAF8C2E7164B9A68BA
S31508001EF0194B9A42BFD90221362039F0C0F864211D
S31508001F003A2039F0BCF8BCE70221362039F0B7F898
S31508001F107F213A2039F0B3F8B3E7312039F0DCF8FD
S31508001F2041B221F0070141F0050101F0FD01312020
S31508001F3039F0A5F80C21372039F0A1F8A4E600BF3E
S31508001F400000000080847E41BC1500200000F03FA0
S31508001F500000204000408F4040DD4A1F000000007E
S31508001F602DE9F04F83B004460D46019200939DF883
S31508001F703490BDF838709DF83C809DF840609DF817
S31508001F8044B09DF84CA01DF027F88F4B1B68DB6802
S31508001F902846984724B1012C61D003B0BDE8F08FDC
S31508001FA08A4B1D7301981861009A5A610C9ADA6176
S31508001FB01F8483F8228083F8246083F825A0149A66
S31508001FC09A62FEF7A7FA7CA3D3E90023FEF746FC3C
S31508001FD0FEF7F2FD84B2C0F30721042039F04FF86A
S31508001FE0E1B2052039F04BF80C98FEF793FA024651
S31508001FF00B4673A1D1E90001FEF730FCFEF7DCFDC4
S3150800200084B2C0F30721022039F039F8E1B203207F
S3150800201039F035F8390A252039F031F8F9B2262091
S3150800202039F02DF8302039F057F800F06F01B8F183
S31508002030000F11D00023194341EA0611C9B2302016
S3150800204039F01DF8312039F047F840F04001C9B29F
S31508002050312039F014F8A0E76FF07F03EBE75B4B0C
S3150800206083F84050009B022B00D9FEE7009C0734FA
S31508002070564B5C640C9A9A6483F84D90A3F84E709C
S3150800208083F8508083F853B09DF8482083F854208D
S3150800209083F8526083F855A0149A9A650C9B0C2B0A
S315080020A004D8052B04D806230C9301E00C230C93C3
S315080020B0072C51D0082C58D0444B002283F84C20CA
S315080020C0BBF1000F55D11D2039F006F82301DAB20D
S315080020D04FEA4903DBB2134343EA08011D2038F0EF
S315080020E0CEFF1E2038F0F8FF00F00B010C9B1B01F9
S315080020F0DBB21943B300DBB219431E2038F0BFFF29
S31508002100262038F0E9FF41B221F008012F4B93F859
S315080021104C3041EAC301C9B2262038F0B0FF390A6B
S31508002120202038F0ACFFF9B2212038F0A8FF0C9B2C
S31508002130062B2ED0312038F0CFFF41B221F007010F
S3150800214041F0030101F0FB01312038F098FF0A2124
S31508002150372038F094FF20E70C9B0B3B012BA9D8BE
S315080021601A4B012283F84C20AAE70C9B0C2BA3D10F
S31508002170F6E7442038F0B0FF60F07F01C9B244208A
S3150800218038F07DFF114B93F85410242038F077FF70
S3150800219099E7312038F0A0FF41B221F0070141F05C
S315080021A0050101F0FD01312038F069FF0C213720C7
S315080021B038F065FFF1E600BF0000000080844E405D
S315080021C00000000080847E4184140020BC15002095
S315080021D010B504460160426061B1A2B102FB01F18B
S315080021E0B1F1805F03D2C80039F02FF903E04FF050
S315080021F0FF30F9E70020A0602268616801FB02F25F
S3150800220000EBC20205E00020F5E79FED057BA0EC98
S31508002210027B8242F9D1204610BD00BFAFF3008091
S31508002220000000000000000070B590B009AD0E4631
S3150800223006A981E80C0004461799002328460F933F
S315080022401FF0C2FD9DF858300393159B02939DF825
S3150800225050300193079BB26800939FED070B069BCE
S3150800226004954FF0000120463DF0E3F928463AF080
S315080022702FF8204610B070BD0000000000000000D6
S3150800228070B590B009AD0E4606A981E80C00044663
S315080022901799002328460F931FF008FE169B0393F1
S315080022A0159B02939DF850300193079BB2680093E3
S315080022B09FED070B069B04954FF0000120463DF065
S315080022C0E0FA28463AF004F8204610B070BD00BF80
S315080022D0000000000000000070B590B009AD0E4681
S315080022E006A981E80C0004461799002328460F938F
S315080022F021F0FEFE9DF858300393159B02939DF836
S3150800230050300193079BB26800939FED070B069B1D
S3150800231004954FF0000120463AF0E1FA284639F0D4
S31508002320D7FF204610B070BD000000000000000076
S3150800233070B590B009AD0E4606A981E80C000446B2
S315080023401799002328460F9321F018FF169B03932D
S31508002350159B02939DF850300193079BB268009332
S315080023609FED070B069B04954FF0000120463AF0B7
S315080023708FFB284639F0ACFF204610B070BD00BF71
S31508002380000000000000000051EC100BF8B5C1F386
S315080023900A53A3F2FF35132D10EE106A0C4632DCF1
S315080023A0002D1EDB364F2F4101EA070303432FD0CA
S315080023B031A3D3E90023FDF771FF00220023FEF7BE
S315080023C0B3FB48B1002C04DD4FF4801343FA05F53E
S315080023D02C4424EA070400262346324643EC102BF5
S315080023E0F8BD25A3D3E90023FDF758FF00220023F3
S315080023F0FEF79AFB0028EFD0002C39DB264333D0B2
S31508002400204C0026E8E7332D05DDB5F5806F23D08F
S3150800241041EC100BF8BDA3F213434FF0FF37DF4032
S315080024200742F5D014A3D3E90023FDF737FF0022AE
S315080024300023FEF779FB0028CED0002C09DD142DE9
S3150800244014D00123C5F1340503FA05F5AE1928BFE2
S31508002450E41826EA0706BFE710EE102A0B46FDF732
S315080024601DFF41EC100BF8BD3446B5E70134F0E723
S3150800247000264FF00044AFE79C7500883CE4377EA1
S31508002480FFFF0F000000F03F51EC100BF8B5C1F349
S315080024900A53A3F2FF35132D10EE106A0C4630DCF2
S315080024A0002D1EDB384F2F4101EA070303432DD0C9
S315080024B033A3D3E90023FDF7F1FE00220023FEF73C
S315080024C033FB48B1002C04DA4FF4801343FA05F5C0
S315080024D02C4424EA070400262346324643EC102BF4
S315080024E0F8BD27A3D3E90023FDF7D8FE0022002371
S315080024F0FEF71AFB0028EFD0002C29DB002634460D
S31508002500EAE7332D05DDB5F5806F19D041EC100BE0
S31508002510F8BDA3F213434FF0FF37DF400742F5D06B
S3150800252017A3D3E90023FDF7B9FE00220023FEF71F
S31508002530FBFA0028D0D0002C13DB26EA0706CBE7E7
S3150800254010EE102A0B46FDF7A9FE41EC100BF8BD5C
S3150800255024F000430D4A1E43002E18BF14460026D9
S31508002560BAE7142D08D00123C5F1340503FA05F599
S31508002570AE1928BFE418E0E70134DEE7AFF30080C0
S315080025809C7500883CE4377EFFFF0F000000F0BF13
S315080025902DE9F04FDA4B2DED028B5BEC10AB9B452A
S315080025A083B06DDDD74B9B455C465ADCD64B9B45C5
S315080025B040F3BE819FEDBE7B8DED007B251510EEA9
S315080025C0106AA5F2FF35D14BC4F313049C4244F0BC
S315080025D07F5700F3618147F4401730463946CC4BA4
S315080025E00022FDF759FECB4B06460F460022FEF7A2
S315080025F00BF832463B46FEF707F88046894649EC13
S31508002600188BB246BB46002C69D1002200233046FF
S315080026103946FEF761FA002800F0A981002D00F07E
S31508002620C3812846FDF786FFA3A3D3E90023064600
S315080026300F46FDF7E9FFDDE90023FDF72FFEA0A30E
S31508002640D3E9002304460D4630463946FDF7DCFF3C
S3150800265002460B4620462946FDF720FE41EC100BA4
S3150800266009E010EE102A10EE100A5B462146FDF727
S3150800267015FE41EC100B03B0BDEC028BBDE8F08FE4
S31508002680A54B2BF000449C425A4611DDA34B10EE95
S31508002690100A00225946FEF71FFA002800F0928019
S315080026A0012003B0BDEC028BBDE8F04F2BF04EBB0A
S315080026B09B4B9C4240F38F809A4B1A449A4240F2B5
S315080026C03781944B10EE100A00225946FDF79CFFFD
S315080026D052465B46FDF798FF41EC180B0025002291
S315080026E04FF0804350465946FDF7D8FD02460B4643
S315080026F050465946FEF7B2F802460B4680468946CA
S31508002700FDF782FF70A3D3E9002306460F46FDF7BF
S315080027107BFF6FA3D3E90023FDF7C0FD32463B4696
S31508002720FDF772FF6CA3D3E90023FDF7B7FD324628
S315080027303B46FDF769FF6AA3D3E90023FDF7AEFD23
S3150800274032463B46FDF760FF67A3D3E90023FDF752
S31508002750A5FD32463B46FDF757FF65A3D3E900239F
S31508002760FDF79CFD32463B46FDF74EFF62A3D3E9D3
S315080027700023FDF793FD32463B46FDF745FF064627
S315080027800F46002D44D155EC184B18EE102A2B464F
S31508002790FDF784FD42464B46FDF736FF02460B46DB
S315080027A018EE100A2946FDF777FD02460B465046F5
S315080027B05946FDF771FD41EC100B03B0BDEC028BD9
S315080027C0BDE8F08F4BEC10AB03B0BDEC028BBDE857
S315080027D0F04F2BF0D7BA544B002210EE100A594688
S315080027E0FDF75CFD00220023FEF79EF928B14F4B4A
S315080027F09C4202DC4BEC10AB3DE752465B4650462A
S315080028005946FDF701FF434B0022FDF7FDFECCE7D5
S315080028102846FDF78FFE2AA3D3E9002304460D4672
S31508002820FDF7F2FE02460B463046394616461F4667
S3150800283053EC182BFDF732FD42464B46FDF7E4FEF6
S3150800284002460B462046294614461D461AA3D3E9D6
S315080028500023FDF7D9FEDDE90023FDF71FFD02463B
S315080028600B4620462946FDF719FD02460B4651EC54
S31508002870180BFDF711FD52465B46FDF70DFD0246A6
S315080028800B4630463946FDF707FD41EC100B03B001
S31508002890BDEC028BBDE8F08F47F40017C4F5801431
S315080028A0304639460135A41099E600BFAFF30080DB
S315080028B00000000000000000763C7935EF39EA3D5B
S315080028C00000E0FE422EE63F44523EDF12F1C23FD0
S315080028D09FC678D0099AC33FDE03CB966446C73FA6
S315080028E0AF788E1DC571CC3F599322942449D23FA7
S315080028F004FA97999999D93F935555555555E53FF2
S315080029007982DA3FFFFFEF7FFFFF3F439DA0060076
S315080029100000F03F0000E03FFFFFEF3F0000F0BF80
S31508002920FFFF1F3E3C412D4000005043FFFF8F3CF8
S31508002930414B002250465946FDF7B0FC0D15A5F24D
S31508002940FF35002D06460F460C465ADD52465B46B5
S31508002950FDF7A2FC02460B4600203749FDF79CFC12
S3150800296032463B46FDF77AFFCDE900012BE62AA35E
S31508002970D3E9002330463946FDF746FE02460B46A4
S3150800298000202D49FDF788FC42464B46FDF73CFEE4
S31508002990804689465DB902460B4630463946FDF7FC
S315080029A07BFC41EC100B66E69FED1D0B63E62846A3
S315080029B0FDF7C0FD1CA3D3E9002382468B46FDF72D
S315080029C023FE1BA3D3E9002304460D465046594669
S315080029D0FDF71AFEDDE90023FDF760FC02460B460B
S315080029E040464946FDF758FC32463B46FDF754FC3F
S315080029F002460B4620462946FDF74EFC41EC100BD5
S31508002A0039E60D4B0022FDF747FC02460B465046B9
S31508002A105946FDF741FCA3E7555555555555E53F2C
S31508002A2000000000000000000000E0FE422EE63F25
S31508002A30763C7935EF39EA3D0000F03F00000000AA
S31508002A4008B52DED048BB0EE408AF0EE608A00F0F2
S31508002A5003F9B0EE409AF0EE609AB0EE480AF0EE4E
S31508002A60680A2BF0C1F978B119A3D3E9002351EC10
S31508002A70180BFEF759F870B917A3D3E9002351ECE0
S31508002A80180BFEF733F898B9B0EE490AF0EE690A62
S31508002A90BDEC048B08BD9FED0A9B2BF00FFAB0EE38
S31508002AA0490AF0EE690ABDEC048B2223036008BDCF
S31508002AB02BF004FA22239FED049B0360E4E700BF92
S31508002AC0000000000000F07F000000000000000089
S31508002AD0EF39FAFE422E864051302DD5104987C06F
S31508002AE038B52DED028B55EC104B00F0A5FA2246B1
S31508002AF02B4620462946B0EE408AF0EE608AFEF75D
S31508002B001DF898B90022002320462946FDF7F8FF4C
S31508002B1060B10022002320462946FDF7DDFF60B19B
S31508002B202BF0CCF99FED0C8B22230360B0EE480AFC
S31508002B30F0EE680ABDEC028B38BD2BF0BFF9BDEC90
S31508002B40028B034621221A600548BDE8384001F089
S31508002B50C7B800BFAFF30080000000000000F0FF18
S31508002B60EC7D040800000000F8B52DED028B55EC4D
S31508002B70114B57EC106B00F0F7FA22462B4620460D
S31508002B802946B0EE408AF0EE608AFDF7D7FF78B99D
S31508002B900022002330463946FDF79EFFF0B1002299
S31508002BA0002320462946FDF797FF40B19FED288B65
S31508002BB0B0EE480AF0EE680ABDEC028BF8BD45ECAB
S31508002BC0104B2BF011F90028F2D020462946002296
S31508002BD00023FDF78BFF0028EAD02EE0B0EE480A66
S31508002BE0F0EE680A2BF000F9A0B151EC180B0022A0
S31508002BF00023FDF771FF0028DAD047EC106B2BF0A5
S31508002C00F3F80028D4D045EC104B2BF0EDF800284B
S31508002C10CED012E047EC106B2BF0E6F80028E4D093
S31508002C2045EC104B2BF0E0F80028DED053EC182BBF
S31508002C3051EC180BFDF782FF20B92BF03FF9222340
S31508002C400360B5E72BF03AF921230360B0E700BF2C
S31508002C50000000000000F03F2DE9F04F55EC104B46
S31508002C602DED028BDC4925F000428A4283B04FEAFB
S31508002C70D5760ED9D9498A4274D9C5F313032343A5
S31508002C8010EE102A40F06281002E66D09FEDBA0B36
S31508002C9063E0D34B9A4200F22281D24B9A4240F229
S31508002CA03D8122462B4620462946FDF7ADFCB4A3B6
S31508002CB0D3E9002306460F46FDF7A6FCB2A3D3E9DF
S31508002CC00023FDF7E9FA32463B46FDF79DFCB0A323
S31508002CD0D3E90023FDF7E2FA32463B46FDF794FCBA
S31508002CE0ADA3D3E90023FDF7D7FA32463B46FDF7F5
S31508002CF08BFCABA3D3E90023FDF7D0FA32463B465B
S31508002D00FDF782FC02460B4620462946FDF7C4FA23
S31508002D100A460146914688460A464B4620462946B3
S31508002D20FDF772FC002206460F464FF080434046E8
S31508002D304946FDF7B1FA02460B4630463946FDF7D5
S31508002D408DFD22462B46FDF7A7FA02460B460020C4
S31508002D50A549FDF7A1FA41EC100B03B0BDEC028BB7
S31508002D60BDE8F08F90A3D3E9002310EE100A294698
S31508002D70FDF7DAFE0746002840F0F4808CA3D3E975
S31508002D80002320462946FDF7B1FE002840F0498178
S31508002D90964B204603EBC606294687A3D3E90023AC
S31508002DA0FDF732FCD6E90023FDF778FAFDF7DCFEDD
S31508002DB00190FDF7BFFB82A3D3E9002306460F4621
S31508002DC0FDF722FC02460B4620462946FDF764FA23
S31508002DD07DA3D3E900238046894630463946FDF768
S31508002DE013FC41EC180B53EC182B40464946FDF7EB
S31508002DF053FA02460B4682468B46FDF705FC60A34E
S31508002E00D3E9002304460D46FDF7FEFB5EA3D3E98E
S31508002E100023FDF741FA22462B46FDF7F5FB5CA396
S31508002E20D3E90023FDF73AFA22462B46FDF7ECFBD9
S31508002E3059A3D3E90023FDF72FFA22462B46FDF7BF
S31508002E40E3FB57A3D3E90023FDF728FA22462B46CE
S31508002E50FDF7DAFB02460B4650465946FDF71CFAC3
S31508002E60019B0F46064654465D4601463A46002BE8
S31508002E703FF450AF32463B4650465946FDF7C4FB31
S31508002E80324604463B460D4600204FF08041FDF78A
S31508002E9003FA02460B4620462946FDF7DFFC0246A2
S31508002EA00B4651EC180BFDF7F7F942464B46FDF772
S31508002EB0F3F902460B4600204B49FDF7EDF9019C54
S31508002EC06FF47F739C420246C0F2988001EB04536C
S31508002ED043EC102B03B0BDEC028BBDE8F08F444BDE
S31508002EE09A423FF655AF434B03EBC603D3E900239B
S31508002EF010EE100A2946FDF7CFF93F4BF40023449C
S31508002F0093ED007BC6F1010AAAEB060380468946C3
S31508002F100193B0EE478AF0EE678A64E72CA3D3E9FB
S31508002F20002310EE100A2946FDF7B8F92E4B0022A9
S31508002F30FDF7FAFD00283FF4B4AE2B4B00222046DD
S31508002F402946FDF7ABF941EC100B06E72B46204660
S31508002F502946FDF7A3F941EC100B03B0BDEC028B33
S31508002F60BDE8F08F002003B0BDEC028BBDE8F04F42
S31508002F702AF0E2BEAFF30080000000000000000067
S31508002F80D0A4BE726937663EF16BD2C541BDBB3E61
S31508002F902CDE25AF6A56113F93BDBE166CC1663F3F
S31508002FA03E5555555555C53FEF39FAFE422E8640D2
S31508002FB051302DD5104987C0FE822B654715F73F3E
S31508002FC00000E0FE422EE63F763C7935EF39EA3DD1
S31508002FD09C7500883CE4377E412E8640FFFFEF7FD4
S31508002FE0422ED63FFFFFEF3D0000F03F6079040810
S31508002FF0B1A2F03F7079040880790408019800F5B9
S315080030007A7A01EB0A531046194600224FF0B87334
S31508003010FDF7FAFA41EC100B03B0BDEC028BBDE8E4
S31508003020F08F384603B0BDEC028BBDE8F04F2AF0AE
S3150800303079BE00BF000000002DE9F84355EC104B9F
S31508003040B5F5801F2B461EDA25F00042224360D0D4
S31508003050002D68DB404B2946002210EE100AFDF7CA
S31508003060D3FA3E4A0D462B46934204466FF0350185
S315080030700EDD22462B4620462946FDF70FF941EC80
S31508003080100BBDE8F883354A93424FF00001F0DC97
S315080030901815A0F2FF300844C70F00EBD070C3F331
S315080030A01306FDF747FAC7F57F73033346EA035558
S315080030B045EC104B06460F4600F0AEFE20A3D3E9BA
S315080030C000233046394659EC108BFDF79DFA1EA3AE
S315080030D0D3E9002304460D4640464946FDF794FACF
S315080030E002460B4620462946FDF7D8F818A3D3E929
S315080030F0002304460D4630463946FDF785FA024652
S315080031000B4620462946FDF7C9F841EC100BBDE8E9
S31508003110F8830022002312490020FDF79FFB41ECAB
S31508003120100BBDE8F88310EE102A20462946FDF755
S31508003130B3F800220023FDF791FB41EC100BA0E742
S31508003140362BF111F3FE593D0EE526157BCBDB3FF9
S3150800315000609F501344D33F00005043FFFFEF7FAA
S31508003160000050C3000000002DE9F04F55EC114B4C
S315080031702DED0C8B25F0004A5AEA040157EC106B2A
S3150800318087B015D1B3197E4887F400225241994277
S3150800319070EB020324D222462B4630463946FDF709
S315080031A07DF841EC100B07B0BDEC0C8BBDE8F08F39
S315080031B0744927F00049894510EE102AB84616DDED
S315080031C008F1404808F5801858EA0208E3D123199F
S315080031D06B4985F400225241984571EB0203DAD314
S315080031E09FED650B07B0BDEC0C8BBDE8F08F11EEBB
S315080031F0103AAB4642D063498A45E1DC00F0948038
S31508003200B8F1000F73DB002100917BB95D4B9A453D
S3150800321000F08E805C4B9A4500F0A280BBF1804F8F
S3150800322000F0C284594B9B4500F0D78347EC106BDE
S3150800323002922AF0CFFD029A62B3009A4FEAD87337
S31508003240013B0493134300F09280514B9A4540F397
S31508003250A58003F104739A454E4B40F33F84994584
S3150800326040F3B484BBF1000F40F3B484002007B0E8
S31508003270BDEC0C8BBDE8F04F2AF05EBD002E8AD15E
S31508003280B9E747EC106B00922AF0A4FD009A002AD1
S315080032906DD10092B9F1000F04D03B4B28F04042A3
S315080032A09A42CAD1BBF1000F07DA53EC102B364904
S315080032B00020FDF7D3FA41EC100BB8F1000FBFF66A
S315080032C072AF009B09F1404909F5801959EA0303D1
S315080032D040F0908453EC102B10461946FCF7DCFF9F
S315080032E002460B46FDF7BAFA41EC100B5BE72A4992
S315080032F08A452FDCA1F154718A450FDD4FEA2A5120
S31508003300A1F2FF31142940F36784C1F1340123FA8D
S3150800331001F000FA01F1994200F0A584002100911C
S31508003320002B3FF477AF81E7002B3FF469AF47E7FF
S3150800333009F1404303F5801313433FF451AF154B8E
S31508003340994540F38483BBF1000FC0F2618445ECD4
S31508003350104B28E702210091002B3FF457AF65E791
S31508003360BBF1000FC0F2168447EC106B1BE7324620
S315080033703B46B1E7AFF30080000000000000F03FD5
S315080033800000F0FF0000F07F0000F03F0000E03F83
S315080033900000E041FFFFEF3FFFFF3F43E44B08EA31
S315080033A00303002253B951EC100BE24BFDF72CF93D
S315080033B041EC100B10EE909A6FF034024FEA295345
S315080033C0A3F2FF339A18DC4B0592C9F3130949F0A7
S315080033D07F56994546F4401607DDD84B994540F384
S315080033E01B8401320592A6F580169FEDB96B9FEDF9
S315080033F0BA7B53EC162BB0EE47CAF0EE67CA002725
S31508003400B0EE47DAF0EE67DA5BEC10ABB34650463F
S31508003410594643EC1A2BFCF73FFF53EC1A2B804610
S31508003420894650465946FCF739FF02460B460020A6
S31508003430C349FDF713FA41EC1B0B404653EC1B2B13
S315080034404946FDF7E1F841EC180B0A460146CDE975
S3150800345002120021029176104BEC19AB46F0005689
S31508003460DDE902AB06F500230020D91906460F460A
S3150800347002460B4650465946FDF7C6F802460B4625
S3150800348040464946FCF708FF53EC1A2B8046894606
S3150800349030463946FCF700FF02460B4651EC190B3D
S315080034A0FCF7FAFE52465B46FDF7AEF802460B46B7
S315080034B040464946FCF7F0FE53EC1B2BFDF7A4F8F3
S315080034C053EC182B41EC1B0B51EC180BFDF79CF831
S315080034D083A3D3E9002306460F46FDF795F882A392
S315080034E0D3E90023FCF7DAFE32463B46FDF78CF8B3
S315080034F07FA3D3E90023FCF7D1FE32463B46FDF70E
S3150800350083F87DA3D3E90023FCF7C8FE32463B4681
S31508003510FDF77AF87AA3D3E90023FCF7BFFE324613
S315080035203B46FDF771F878A3D3E90023FCF7B6FE0E
S315080035303246804689463B4630463946FDF764F8AA
S3150800354002460B4640464946FDF75EF85246064691
S315080035500F465B4651EC180BFCF7A0FE53EC1B2BF1
S31508003560FDF752F832463B46FCF798FE524641ECC8
S315080035701A0B5B4650465946FDF746F8714B002232
S3150800358080468946FCF78AFE53EC1A2BFCF786FE22
S3150800359050460F465946DDE902AB3B465246FDF713
S315080035A033F8684B41EC190B002250463946FCF7B4
S315080035B073FE42464B46FCF76FFE02460B4651EC3D
S315080035C01A0BFCF769FE53EC182BFDF71DF852464B
S315080035D03B4606460F4651EC1B0BFDF715F802460F
S315080035E00B4630463946FCF759FE80468946424620
S315080035F04B4651EC190BFCF751FE45A3D3E90023C2
S3150800360050460F46FDF700F853EC192B41EC190B01
S3150800361050463946FCF740FE02460B4640464946A8
S31508003620FCF73AFE3CA3D3E90023FCF7EDFF02467C
S315080036300B461646504639461F4639A3D3E900239A
S31508003640FCF7E2FF02460B4630463946FCF726FEF3
S3150800365053EC1D2BFCF722FE804605988946FCF79D
S3150800366069FF424682468B464B4651EC190BFCF7DE
S3150800367015FE53EC1C2BFCF711FE52465B46FCF775
S315080036800DFE52465B46002006460F46FCF704FE32
S3150800369053EC1C2BFCF700FE53EC192BFCF7FCFD36
S315080036A002460B4640464946FCF7F6FD009B049A3F
S315080036B0013B134382468B4640F0C2819FED1A7B3D
S315080036C0B0EE478AF0EE678A3EE000BFAFF30080AF
S315080036D0000000000000F03F0000000000000000AD
S315080036E0EF4E454A287ECA3F65DBC9934A86CD3FD9
S315080036F001411DA96074D13F4D268F515555D53FBF
S31508003700FFAB6FDBB66DDB3F033333333333E33F56
S31508003710000000E009C7EE3FFD033ADC09C7EE3FAB
S31508003720F5015B14E02F3EBE000000000000F0BF6C
S315080037300000F07F000040438E98030079B60B0026
S315080037400000F03F000008400023CDE90045009343
S31508003750DDE90089204642464B462946FCF79CFD92
S3150800376032463B46FCF750FF22462B4604460D469A
S3150800377050465946FCF748FF02460B46204629465E
S31508003780FCF78CFD424604460D464B463046394604
S31508003790FCF73AFF26462F4604460D462B4630468A
S315080037A039462246FCF77AFDC74B99428046894638
S315080037B08A4640F31F8101F13F4303F5E0030343C3
S315080037C040F03E82AAA3D3E9002330463946FCF7E7
S315080037D065FD02460B4640464946904699462246AE
S315080037E02B46FCF759FD02460B4640464946FDF76F
S315080037F09BF9002840F02482CAF30A534FF480123A
S31508003800A3F2FE3342FA03F35344B049C3F30A5210
S31508003810A2F2FF3241FA02FCC3F3130141F480110C
S31508003820C2F1140241FA02F2002023EA0C01BAF1AD
S31508003830000F00920B46024602DA009949420091AF
S3150800384020462946FCF728FD009B1B0502930246E5
S315080038500B4604460D4630463946FCF71FFD894699
S315080038604FF0000884A3D3E9002340464946FCF7F5
S31508003870CBFE22462B4682468B4640464946FCF7F7
S315080038800BFD02460B4630463946FCF705FD7CA380
S31508003890D3E90023FCF7B8FE7BA3D3E9002304464B
S315080038A00D4640464946FCF7AFFE02460B46204603
S315080038B02946FCF7F3FC06460F4632463B46504679
S315080038C05946FCF7EBFC52465B4604460D46FCF7A8
S315080038D0E3FC02460B4630463946FCF7DDFC224639
S315080038E0804689462B4620462946FCF78DFE68A366
S315080038F0D3E9002306460F46FCF786FE66A3D3E9FE
S315080039000023FCF7C9FC32463B46FCF77DFE64A360
S31508003910D3E90023FCF7C2FC32463B46FCF774FEAB
S3150800392061A3D3E90023FCF7B7FC32463B46FCF714
S315080039306BFE5FA3D3E90023FCF7B0FC32463B4697
S31508003940FCF762FE02460B4620462946FCF7A4FC15
S3150800395006460F4632463B4620462946FCF754FEA5
S3150800396002460B463046394616461F4600224FF099
S315080039708043FCF791FC02460B4630463946FCF775
S315080039806DFF424606460F464B4620462946FCF73B
S315080039903BFE42464B46FCF781FC02460B46304648
S315080039A03946FCF779FC22462B46FCF775FC02469D
S315080039B00B4600204649FCF76FFC029A0B46134457
S315080039C0B3F5801FC0F24781194653EC182BFCF754
S315080039D01BFE41EC100BFFF7E6BBB8F1000FFFF634
S315080039E025AC47EC106B07B0BDEC0C8BBDE8F04F6F
S315080039F029F0A6BFDFF8E0C021F00043634540F395
S31508003A00DD80344B0B4403430AD122462B46FCF790
S31508003A1043FC32463B46FDF77DF800283FF4ECAE02
S31508003A2051EC180B00220023FDF760F8003818BF88
S31508003A30012007B0BDEC0C8BBDE8F04F2AF072B937
S31508003A409FED1D7BB0EE478AF0EE678A7CE6BBF1F8
S31508003A50000F9FED1B0BBFF6A6AB05F1004300EE6A
S31508003A60104A00EE903AFFF79EBB00BFAFF3008006
S31508003A70FE822B654715973C00000000432EE63F63
S31508003A80EF39FAFE422EE63F396CA80C615C20BE7F
S31508003A90D0A4BE726937663EF16BD2C541BDBB3E46
S31508003AA02CDE25AF6A56113F93BDBE166CC1663F24
S31508003AB03E5555555555C53F000000000000F03FDE
S31508003AC00000000000000000FFFF8F40FFFF0F000E
S31508003AD00000F03F00346F3FFFCB9040994575DBFF
S31508003AE07B4B99453FF7BEAB51EC100B784B002248
S31508003AF0FCF7D2FB66A3D3E9002306460F46FCF77C
S31508003B0083FD65A3D3E9002382468B4630463946B2
S31508003B10FCF77AFD6F4B41EC180B0022304639460C
S31508003B20FCF772FD02460B465DA1D1E90001FCF7E0
S31508003B30B3FB32463B46FCF767FD02460B460020C0
S31508003B406549FCF7A9FB3246804689463B4630461E
S31508003B503946FCF759FD02460B4640464946FCF7EE
S31508003B6053FD51A3D3E90023FCF74EFD02460B464D
S31508003B7051EC180BFCF790FB8046894642464B46AB
S31508003B8050465946FCF78AFB002052465B460646D5
S31508003B900F4683E54E49002032463B46FCF75EFE5B
S31508003BA041EC100BFFF7FFBA32463B463046394622
S31508003BB0FCF72AFD41EC100BFFF7F5BA464A93428B
S31508003BC062DCDDE900120291009149E6BBF1000FC3
S31508003BD0FFF64CAB00202CE7002B7FF452ABC1F16B
S31508003BE014014AFA01F000FA01F1514545D0009353
S31508003BF0FFF710BB009B012B7FF4D5AA10EE901A95
S31508003C0010EE102A01F1004343EC102BFFF7CBBA54
S31508003C109FED270BFFF7C7BA9FED277BB0EE47CA84
S31508003C20F0EE67CA9FED267BB0EE47DAF0EE67DA6C
S31508003C309FED257B4FF4802753EC172BFFF7E4BB4A
S31508003C4051EC180B00220023FCF750FF003818BF70
S31508003C500120FFF70CBB41EC100B009800F048F868
S31508003C6051EC100BB1E600F00100C0F10201009121
S31508003C70002B3FF4CFAAFFF7D9BA00F00100C0F134
S31508003C8002030093FFF7C6BA1B15B7E5AFF300802A
S31508003C90000000604715F73F44DF5DF80BAE543E61
S31508003CA0555555555555D53FFE822B654715F73F52
S31508003CB000000000000000000000004003B8E23FDA
S31508003CC006D0CF43EBFD4C3E000000000000F83F55
S31508003CD00000F03F0000D03F0000E03F0000000079
S31508003CE09FED010B704700BF000000000000F87F41
S31508003CF038B553EC102BC3F30A5104469C4689BBCE
S31508003D0010EE101A23F0004C5CEA010129D019467E
S31508003D1000223D4B3D4D10EE100AFCF775FCAC42F7
S31508003D2002460B4616DB8C46C1F30A513639214446
S31508003D3040F2FE70814221DC002947DC11F1350F83
S31508003D4034DA4CF250318C4218DC002B26A1D1E92A
S31508003D50000144DB24A3D3E90023FCF755FC41EC1E
S31508003D60100B38BD40F2FF708142E0D110EE100A08
S31508003D701946FCF793FA41EC100B38BD002B1CA131
S31508003D80D1E9000107DB1AA3D3E90023FCF73CFCC1
S31508003D9041EC100B38BD18A1D1E9000114A3D3E9F1
S31508003DA00023FCF731FC41EC100BF3E72CF0FF4C39
S31508003DB02CF4E00C36314CEA015310461946002221
S31508003DC0134BFCF721FC41EC100B38BD2CF0FF4CD3
S31508003DD02CF4E00C4CEA015343EC102B38BD08A137
S31508003DE0D1E90001B6E700BF59F3F8C21F6EA50175
S31508003DF09C7500883CE4377E9C7500883CE437FE59
S31508003E0059F3F8C21F6EA58100005043B03CFFFF6E
S31508003E100000903C000000002DE9F04F51EC100B1B
S31508003E202DED028BB1F5801F85B00F4658DA21F0CB
S31508003E300043034310EE102A00F0FC800029C0F26C
S31508003E403C81E14B0022FCF7DFFBE04B0F469F422B
S31508003E506FF0350249DC3E15C7F3130707F515233E
S31508003E60A6F2FF3603F66473164403F4801306EBD2
S31508003E70135683F07F5383F4401343EA0701002265
S31508003E80D34BFCF709FABB1CC3F31303022B824678
S31508003E908B4635DC00220023FCF71EFE002800F0C6
S31508003EA0D680002E00F060813046FCF743FBB0A3B5
S31508003EB0D3E9002306460F46FCF7A6FBAEA3D3E9D3
S31508003EC0002304460D4630463946FCF79DFB02465C
S31508003ED00B4620462946FCF7E1F941EC100B0AE0AF
S31508003EE0BA4B9F424FF00002B5DD02460B46FCF77F
S31508003EF0D5F941EC100B05B0BDEC028BBDE8F08F8F
S31508003F00A7F5C223A3F27A43019300224FF0804318
S31508003F10FCF7C4F902460B4650465946FCF79EFC88
S31508003F2041EC180B3046FCF705FB53EC182BCDE992
S31508003F30020151EC180BFCF767FB02460B4680465C
S31508003F408946FCF761FB8EA3D3E9002304460D4698
S31508003F50FCF75AFB8CA3D3E90023FCF79FF922460A
S31508003F602B46FCF751FB8AA3D3E90023FCF796F905
S31508003F7022462B46FCF748FB87A3D3E90023FCF728
S31508003F808DF942464B46FCF73FFB85A3D3E9002350
S31508003F908046894620462946FCF736FB82A3D3E9A4
S31508003FA00023FCF77BF922462B46FCF72DFB80A362
S31508003FB0D3E90023FCF772F922462B46FCF724FBCB
S31508003FC00B46024649464046FCF768F9C7F5D72727
S31508003FD0019B51371F43002F804689465FDD7D4B85
S31508003FE0002250465946FCF70FFB52465B46FCF743
S31508003FF00BFB04460D46002E69D122462B46404649
S315080040004946FCF74BF953EC182BFCF7FDFA024628
S315080040100B4620462946FCF73FF902460B46504612
S315080040205946FCF739F941EC100B05B0BDEC028B8B
S31508004030BDE8F08F0022002367490020FCF70EFC3C
S3150800404041EC100B05B0BDEC028BBDE8F08F5AA30E
S31508004050D3E9002350465946FCF7D6FA02460B46E2
S3150800406000205C49FCF718F9524604460D465B46A3
S3150800407050465946FCF7C8FA02460B4620462946DA
S31508004080FCF7C2FA04460D46002E59D102460B46E5
S3150800409050465946FCF700F941EC100B2BE7002E69
S315080040A040F09C8002460B4650465946FCF7F4F809
S315080040B053EC182BFCF7A8FAAFE70B46FCF7ECF81D
S315080040C000220023FCF7CAFB41EC100B13E728A3D8
S315080040D0D3E90023DDE90201FCF796FA22462B46CE
S315080040E006460F4640464946FCF7D8F853EC182BC7
S315080040F0FCF78AFA20A3D3E9002380468946DDE93E
S315080041000201FCF781FA02460B4640464946FCF78F
S31508004110C5F802460B4620462946FCF7BDF8524626
S315080041205B46FCF7B9F802460B4630463946FCF7BB
S31508004130B3F841EC100B05B0BDEC028BBDE8F08F6F
S315080041403046FCF7F7F90AA3D3E9002380468946E7
S31508004150FCF75AFA08A3D3E9002306460F46404659
S315080041604946FCF751FAD4E79FED150BC3E600BFA5
S315080041700000E0FE422EE63F763C7935EF39EA3D0F
S3150800418044523EDF12F1C23FDE03CB966446C73F78
S31508004190599322942449D23F935555555555E53F91
S315080041A09FC678D0099AC33FAF788E1DC571CC3F9C
S315080041B004FA97999999D93F555555555555D53F67
S315080041C0000000000000000000005043FFFFEF7FE2
S315080041D00000F03F0000E03F000050C318A3D3E9F9
S315080041E00023DDE90201FCF70FFA42464B46044676
S315080041F00D4650465946FCF74FF853EC182BFCF77A
S3150800420003FA11A3D3E9002306460F46DDE90201A6
S31508004210FCF7FAF902460B4630463946FCF73CF8F5
S3150800422052465B46FCF738F802460B4620462946B6
S31508004230FCF732F841EC100B5DE600BFAFF30080E7
S315080042400000E0FE422EE63F763C7935EF39EA3D3E
S315080042502DE9F04F2DED028B9DB01F4600231893D4
S31508004260A24B13921B680593044618468846FCF72A
S3150800427045FF4FF0000A05464FF0000BCDF85C806D
S31508004280179B1A782B2A4ED03BD80D2A34D8082AE1
S3150800429034D8002A3ED000230A93179E3378302B51
S315080042A040F0B080737803F0DF03582B68D10A9B7F
S315080042B0019318AB029700938D4A19AB17A92046AC
S315080042C02DF034FC10F00707054605D0062F2CD133
S315080042D00136002317960A93139B002B40F090850E
S315080042E00A9BEBB152460BF1004343EC102B1DB071
S315080042F0BDEC028BBDE8F08F202ACCD10133179391
S31508004300BEE72D2AC7D101220A925A1C17925B785A
S31508004310002BC2D1139BCDF85C80002B40F06E8534
S3150800432052465B46E1E70022EEE7189A3AB1352194
S315080043301AA842F02AFE189920462DF01BFF013FC5
S31508004340042F06D8DFE807F00A0314170A00DDE988
S315080043501AAB2807C0D54BF0004BBDE7DDE91AA319
S31508004360199A23F4801302F2334243EA025BF0E718
S31508004370DFF880B1EDE76FF0004B4FF0FF3AE8E762
S31508004380179B5A1C17925B78302BF9D0002BA3D0B9
S3150800439001234FF000090493179B0893CDF81C904E
S315080043A04F460A2217980678A6F13003D9B209298A
S315080043B02AD905992A4642F0FCFF98B300203246CE
S315080043C03D4605900346652A01D0452A18D11DB9F0
S315080043D0049A02439ED00025DDF85C8008F10102AC
S315080043E0179298F801202B2A75D02D2A7BD04FF0EA
S315080043F0000CA2F13001092940F28280CDF85C80D8
S3150800440000269DE00023C4E7082FD8BF079900F1CE
S315080044100100DABF02FB0133079302FB09390137B2
S315080044201790BFE7179B5A1917925A5D002F37D076
S3150800443005903D46A2F13003092B12D90123C2E7A4
S31508004440179B5A1C17925A780130302AF8D0A2F1D5
S315080044503103082B00F2D984179B05900020089396
S315080044600546303A00F1010314D00599194405911F
S315080044702B4600EB050E0A21734513D12B18082B82
S3150800448005F1010505441CDC07990A2303FB0123F2
S3150800449007930023179A511C179152781846C9E7B3
S315080044A03846D2E7082B04DC079E4E4307960133AD
S315080044B0E2E703F1010CBCF1100FD8BF01FB09F9C3
S315080044C0F5E7102DDCBF0A2303FB0929E1E70023E2
S315080044D0059301237CE74FF0000C08F102021792BE
S315080044E098F8022085E74FF0010CF6E798D40408FF
S315080044F018D204080000F07F179A511C17915278B9
S31508004500302AF9D0A2F1310108293FF679AFA2F194
S31508004510300E179A0692179A511C17915278A2F1E3
S315080045203006092E37D9069E891B082944F61F66C8
S3150800453002DC7645A8BF7646BCF1000F00D076426D
S31508004540002D4DD1049901437FF4C6AE002B7FF4AC
S31508004550E1AE692A27D024DC492A24D04E2A7FF4E2
S31508004560D9AE9F4917A842F09DFB00283FF4D2AE6A
S31508004570179B1B78282B2DD19A491AAA17A842F0FF
S31508004580A5FB052826D11B9BDDF868A043F0FF4B49
S315080045904BF4E00BA0E60A2101FB0E2EAEF1300E1D
S315080045A0B9E76E2ADBE7904917A842F07BFB00289B
S315080045B03FF4B0AE179B8D49013B17A8179342F0FD
S315080045C071FB10B9179B01331793DFF830B24FF020
S315080045D0000A81E68648FFF783FB5BEC10AB7BE6B7
S315080045E0059B0798F31A002F08BF2F46102D069330
S315080045F0A846A8BF4FF01008FBF78CFF092D824686
S315080046008B4613DD7B4B03EBC80353E91223FBF7F9
S31508004610FBFF824648468B46FBF77CFF02460B4665
S3150800462050465946FBF73AFE82468B460F2D38DC34
S31508004630069B002B3FF450AE24DD162B0BDC6D4990
S3150800464001EBC301D1E9000152465B46FBF7DCFFEB
S3150800465082468B4640E6069AC5F12503934220DB3F
S31508004660644CC5F10F0504EBC50152465B46D1E91A
S315080046700001FBF7C9FF069B5D1B04EBC504D4E9E3
S315080046800023E3E7069B16330BDB059B9E1B594B62
S3150800469003EBC606D6E9002350465946FCF7DEF872
S315080046A0D6E7069BA5EB08089844B8F1000F74DD19
S315080046B018F00F030AD04F4901EBC30152465B4677
S315080046C0D1E90001FBF7A0FF82468B4638F00F08B8
S315080046D04FD0B8F59A7F22DD00252E460795059519
S315080046E02223DFF818B123604FF0000A079B002B3E
S315080046F03FF4F2AD189920462DF03CFD0599204669
S315080047002DF038FD314620462DF034FD0799204618
S315080047102DF030FD294620462DF02CFDDCE5364BE4
S31508004720049300234FEA2818504659469946B8F18B
S31508004730010F21DC0BB182468B462F4BABF1547B24
S3150800474003EBC90952465B46D9E90001FBF75CFF52
S315080047502A4B0A460B402A498B428246BCD8A1F509
S3150800476080118B4286BFDFF89CB04FF0FF3A02F10A
S31508004770547B0023049384E018F0010F05D0049BB2
S31508004780D3E90023FBF740FF0123049A083209F115
S3150800479001094FEA68080492C9E7EAD0C8F1000897
S315080047A018F00F020AD0134B03EBC20350465946C2
S315080047B0D3E90023FCF752F882468B465FEA2818AD
S315080047C0D7D0B8F11F0F1FDD00252E460795059592
S315080047D022234FF0000A4FF0000B236086E700BF44
S315080047E0BBEC04082CD2040866F60408F4F804089E
S315080047F09DF70408E0790408B87904080000F07FFA
S315080048000000A07CFFFFEF7F18F0100318BF6A2393
S31508004810DFF8AC93049350465946002318F0010F6D
S3150800482004D0D9E90023FBF7EFFE01235FEA680805
S3150800483009F10809F2D10BB182468B46049BC3B134
S31508004840CBF30A52C2F16B03002B594611DD1F2B1D
S3150800485040F32481342BDEBFC2F14B024FF0FF3305
S3150800486003FA02F24FF0000ACCBF4FF05C7B02EA73
S31508004870010B0022002350465946FCF72DF9002863
S31508004880A2D1079B009308992B463A4620462DF05D
S31508004890D9FC079000283FF41FAF059B9E1B069B7B
S315080048A0002BB4BF334600230C93069B002523EA4E
S315080048B0E37312932E46079B204659682DF01AFC7F
S315080048C0059000283FF40CAF079B1A69023203F1E2
S315080048D00C0192000C3041F050FE4BEC10AB1AAABA
S315080048E019A920462DF088FF4BEC18AB1890002824
S315080048F03FF4F6AE012120462DF0EEFC06460028D0
S315080049003FF4EEAE199B0499002BABBF0C9A129A92
S31508004910129FDDF83090ACBF03EB0209D71A1A9A3A
S31508004920A3EB01089044A14B08F1FF389845C2F162
S31508004930360280F2C780A3EB08031F2BA2EB030203
S315080049404FF0010100F3B18001FA03F30D93002340
S31508004950089309EB0208049BC14517441F444B46BC
S31508004960A8BF4346BB42A8BF3B46002BC2BFA8EB25
S315080049700308FF1AA9EB03090C9B002B17DD314628
S315080049801A4620462DF068FD064600283FF4A8AED4
S315080049900146189A20462DF0B5FC0B9000283FF4E6
S315080049A09FAE189920462DF0E5FB0B9B1893B8F19E
S315080049B0000F00F38C80069B002B08DD129A0599E0
S315080049C020462DF049FD059000283FF489AE002FBA
S315080049D008DD05993A4620462DF098FD05900028F1
S315080049E03FF47EAEB9F1000F08DD31464A4620464F
S315080049F02DF08CFD064600283FF472AE059A1899EC
S31508004A0020462DF0F3FD054600283FF469AEC3683D
S31508004A100B930023C360314642F068FA002860DA37
S31508004A200B9B53EA0A0340F08280CBF31303002B57
S31508004A307DD12BF000431B0D1B05B3F1D66F76D93C
S31508004A406B6913B92B69012B71DD294601222046B2
S31508004A502DF05CFD3146054642F048FA002866DD31
S31508004A600499534A5B46002900F0818002EA0B014B
S31508004A70B1F1D66F7BDCB1F15C7F7FF7A9AE4D4B08
S31508004A80504659460022FBF7BFFD0B46034308BFB5
S31508004A90222382468B4608BF23602BE64FF0FF325F
S31508004AA002FA03F303EA0A0AE3E6C8F17F4808F5BF
S31508004AB07F0808F57B4808F1E20801FA08F308932D
S31508004AC00D9146E70023089301230D9341E71899B2
S31508004AD0424620462DF01AFD189000287FF46BAF49
S31508004AE0FEE55F466ED10B9ACBF3130342B3324A07
S31508004AF0934228D1049B5146EBB12D4B3B40B3F171
S31508004B00D46F4FF0FF3219D81B0DC3F16B0302FAAD
S31508004B1003F3994217D1294B9F4202D101313FF441
S31508004B20DFAD234B3B4003F5801B4FF0000A049B87
S31508004B30002BA4D1DEE54FF0FF33EAE71346E8E79A
S31508004B4053EA0A038CD0089BDBB13B42EFD00B9BA0
S31508004B50049A50465946C3B141F0BDFD02460B467C
S31508004B6051EC180BFBF79AFB82468B46DFE713409E
S31508004B70A3F580136FEA135B6FEA0B5B4FF0FF3AFE
S31508004B80D5E70D9B13EA0A0FE0E741F0A4FD0246BC
S31508004B900B4651EC180BFBF77FFB002200238246DD
S31508004BA08B46FBF799FF0028C1D011E602FCFFFFF0
S31508004BB00000F07F00005039FFFF0F00FFFFEF7F76
S31508004BC0907904083146284642F0ACF959EC108B26
S31508004BD010EE100A00224FF080434946FBF790FF7B
S31508004BE000287AD00B9B002B4AD0954B0022CDE9A2
S31508004BF00823DFF84C924FF00008924B3B400D9388
S31508004C000D9A914B9A4240F0B080DDE90801A7F170
S31508004C10547B4BEC10ABCDE908012DF071FDDDE9B5
S31508004C20080153EC102BFBF7EFFC52465B46FBF7EB
S31508004C3035FB0B468349854A19409142824660D91D
S31508004C4018EE903A02F15472934204D118EE103AD3
S31508004C5001333FF445ADDFF800B24FF0FF3A18993B
S31508004C6020462DF087FA059920462DF083FA31461D
S31508004C7020462DF07FFA294620462DF07BFA1AE6C3
S31508004C80BAF1000F1BD1CBF31303F3B96C4B002217
S31508004C9040464946FBF72AFFD0B9404649466C4B81
S31508004CA00022FBF7B1FC8046894609F10043CDF89E
S31508004CB050801593DDE91423CDE908239DE7BAF161
S31508004CC0010F02D1002F3FF483AD624B00228EE71D
S31508004CD0DFF87C914FF00008E7E75D4B4046494610
S31508004CE00022FBF791FC0B9B8046894633B901F1FC
S31508004CF000430E900F93DDE90E23DDE7CDE90E891B
S31508004D00F9E703F1547B049B002BA8D12BF0004351
S31508004D100D9A1B0D1B059A42A1D140464946FCF740
S31508004D2023F8FBF743FC02460B4640464946FBF789
S31508004D30B3FA0B9ACBF3130343EA0A0313438046E9
S31508004D40894655D036A3D3E90023FBF7CFFE0028C2
S31508004D507FF4D0AC34A3D3E9002340464946FBF799
S31508004D60E3FE00283FF47BAFC4E4049B33B30D9BFA
S31508004D70B3F1D46F22D82EA3D3E90023404649467F
S31508004D80FBF7BEFEA0B149464046FBF715FF0128D2
S31508004D9038BF0120FBF7BEFB0B9B8046894623BB29
S31508004DA001F1004310901193DDE91023CDE90823A2
S31508004DB0099B0D9A03F1D6639B1A0993DDE908014D
S31508004DC0B0EE480AF0EE680ACDE908012DF098FC25
S31508004DD0DDE9080153EC102BFBF716FC53EC182BF6
S31508004DE0FBF75CFA82468B468DE7CDE91089DBE74F
S31508004DF011A3D3E90023FBF779FEB2E700230A9350
S31508004E00139A179B1360FFF76BBA652A3FF45FABDB
S31508004E10452A3FF45CAB0123FFF794BBAFF3008050
S31508004E209535A094FFFFDF3F35E5AF350000E03F3D
S31508004E300000C0FFFFFFDF419535A094FFFFCF3F7D
S31508004E400000F03F0000F07F0000E07FFFFF9F7C3E
S31508004E500000E03F0000F0BFFFFFEF7F000000000A
S31508004E602DE9F04F2DED048BD3B01D46002389465E
S31508004E70199383460B922EF08DFB03681B781693C5
S31508004E80B9F80C301E061AD5D9F81030BBB940212E
S31508004E9058462AF0C7F8C9F80000C9F8100058B9EA
S31508004EA00C23CBF800304FF0FF330D930D9853B019
S31508004EB0BDEC048BBDE8F08F4023C9F814309FED94
S31508004EC08E7B00230F9311930D93B0EE478AF0EE75
S31508004ED0678A0B9B1C4653F8042B0AB1252AF9D17D
S31508004EE00B9BA3420DD0E61A0B9A33464946584601
S31508004EF042F0D4F8013000F0E9800D9B03EBA603DD
S31508004F000D932368002B00F0E1800021221D1591E6
S31508004F100E464FF0FF340C910F460A20134653F8FD
S31508004F20042B09920B93099B392B4CD81F2B4FD96D
S31508004F30099B203B192B4AD8DFE803F06B494970D7
S31508004F40494949494949736C497A7D49989B9B9BCC
S31508004F509B9B9B9B9B9B332B39D8DFE813F0E50083
S31508004F603800E50038003800380038009C00380062
S31508004F703800380038003800380038003800380063
S31508004F80380038001E03380038003800380038006A
S31508004F9038003800380038003800A500D300E5008E
S31508004FA0E500E5009F00D30038003800A20038006D
S31508004FB084029502B302A2003800C2023800120326
S31508004FC0380038004200099B453B332BC3D911B141
S31508004FD0099B002B7AD0099B2A93002015900A95E5
S31508004FE081E001B11596464B0F932A46F80652F80A
S31508004FF0043B0A9202D4790648BF9BB2FA0706D543
S315080050002BB130221A92099A1B9247F00207022204
S3150800501042E20EB9099E01210B9A7FE747F0010784
S31508005020FAE755F8043B0C93002BF5DA5B420C9330
S3150800503047F00407F0E70B9A52F8043B09932A2B2A
S3150800504012D155F8044B0B9244EAE474E4E700FBEA
S31508005050043452F8043B0993099B303B092BF6D9D3
S3150800506044EAE4740B925EE70024F5E747F080070C
S31508005070D2E700230C930C9A099B00FB0233303BC2
S315080050800C930B9B53F8042B0B93A2F13003092BBB
S315080050900992F0D947E747F00807BDE747F0400708
S315080050A0BAE747F01007B7E701B115962B46FD0694
S315080050B053F8040B0A9312D428F0A8FE441C0ED108
S315080050C0B9F80C3043F04003A9F80C30B9F80C30A5
S315080050D013F0400F0D9B18BF4FF0FF33E5E62A90FB
S315080050E000202B90159080460124064605460DF1B2
S315080050F0A80A04E1AFF300800000000000000000E9
S3150800510094D5040801B115962A46F90652F8043BC7
S315080051100A9202D47A0648BF1BB2002B02DA2D2265
S315080051205B4215920122B9E101B11596073525F0C2
S315080051300703B3EC027B0A93B0EE478AF0EE678A60
S3150800514018EE903A23F0004309EE903AB0EE479AEB
S31508005150A64B51EC190B4FF0FF32FBF7EFFCF0B9F9
S31508005160A24B51EC190B4FF0FF32FBF7C9FCB0B953
S3150800517051EC180B00220023FBF7B8FC08B12D23CD
S3150800518015939B4B9B48099A27F08007472A94BF9B
S315080051909A4682464FF0000803244646D4E353EC69
S315080051A0182B51EC180BFBF7C9FC40B118EE903AD6
S315080051B0002BBCBF2D2315938F48904BE3E7631C48
S315080051C000F00F81099B23F02003472B02D1002C06
S315080051D008BF012447F480730E932823079319AB5D
S315080051E00593099B04930E9B0DF1A80818AE17ADFD
S315080051F0CDE90043CDF8188053EC182B0396029599
S31508005200584642F020F94045824640F0EC8019990C
S31508005210282940F3E8808900584629F003FF80468C
S3150800522000283FF44DAF199B0295CDE9060319AB4B
S315080052300593099BCDE903630E9B5846CDE90043C8
S3150800524053EC182B42F0FFF88246099B189D23F071
S315080052502003472B40F0D680EE1C199B02DBAC429C
S3150800526080F2EC80099B023B09936B1E002B099A7E
S315080052701893B8BFC5F101031C92B4BF2D222B2287
S31508005280092B1D9240F3D1802AA80A25024693FBD2
S31508005290F5F405FB1431303142F8041C194663292C
S315080052A0A0F104002346F1DC303340F8043CA2F1B7
S315080052B008011EA82AAB9942C0F0B2800DF1B304CA
S315080052C0A41A24F003040B3A934238BF00241EABF9
S315080052D01C441CA8241AA3101193199B012B03EB39
S315080052E0A40402DC17F0010501D001340025179E3D
S315080052F0002E00F07E812D230E9F15930026A642D0
S315080053003346B8BF23460E93159B13B10E9B013344
S315080053100E9317F0020312931EBF0E9B02330E93D1
S3150800532017F08403139300F06681159B43B1042399
S3150800533015AA4946584641F0B1FE013000F06E8183
S31508005340129B43B108231AAA4946584641F0A6FEBD
S31508005350013000F06381139B802B13D10C9B0E9AAE
S315080053609B1A002B10930DDD109B254A102B00F37A
S315080053706A81234A9B004946584641F08FFE013010
S3150800538000F04C81361B002E0CDD102E1C4A00F353
S3150800539065811B4AB3004946584641F07FFE0130F5
S315080053A000F03C81F90500F16281A30052464946A6
S315080053B0584641F073FE013000F030817A0700F15B
S315080053C08182DDE90C230E998A42ACBF9B185B18D3
S315080053D00D93B8F1000F55D04146584629F0B6FD51
S315080053E050E00624F6E64FF000082EE7FFFFEF7FB1
S315080053F010D5040820D5040840D5040830D504087B
S3150800540020D60408099B662B7FF42FAF07F001030B
S31508005410002D43EA04030EDDFBB101342C4466E794
S3150800542051F8044B40F8044B45E7302213441E92CA
S315080054301F9320AC4DE793B1023458E7AB4205DC25
S31508005440FC070ED56C1C6723099350E7002DD4BFC3
S31508005450C5F1020401241C44F5E72C4647E701245C
S3150800546045E72C46EFE701B115962B1DF8060A937A
S3150800547003D52B680D9A1A6004E07906F9D52B68CE
S315080054800D9A1A800A9D24E52A4617F0100152F84B
S31508005490043B0A9211D0002200211591661C00F0E7
S315080054A02E8227F08001002B40F02D82002C00F080
S315080054B09880012A40F02A8275E017F04002EBD066
S315080054C09BB2E8E72A46782152F8043B0A92302232
S315080054D0CDE91A219E4A0F9247F002070222099146
S315080054E0DAE72B46002653F804AB0A9317F01005A3
S315080054F015962DD1621C14D02246294650462646BA
S31508005500FAF756FE08B1A0EB0A06272E0ED9711C2B
