S01A0000626564706F647631316373702D666F6375732E7372656331
S31508000000C8F70420FDAF0108C1870108D387010896
S31508000010E1870108E5870108E98701080000000073
S31508000020000000000000000000000000ED87010845
S31508000030EF87010800000000F1870108F38701082F
S315080000409DB00108A1B00108A5B00108A9B0010832
S31508000050ADB00108B1B00108FB87010801880108A5
S31508000060078801080D88010813880108B5B001083A
S31508000070B9B00108BDB00108C1B00108C5B0010892
S31508000080C9B00108CDB00108D1B00108D5B0010842
S31508000090D9B00108DDB00108E1B0010819880108E6
S315080000A0E5B00108E9B00108EDB00108F1B00108B2
S315080000B0F5B00108F9B00108FDB0010801B1010861
S315080000C005B1010809B101080DB1010811B101080E
S315080000D015B1010819B101081DB1010821B10108BE
S315080000E041880108F787010825B1010829B10108E7
S315080000F02DB1010831B1010835B1010839B101083E
S315080001003DB1010841B1010845B1010849B10108ED
S315080001104DB1010851B1010855B1010859B101089D
S31508000120A38801085DB1010861B1010865B101083C
S3150800013069B101086DB1010871B1010875B101080D
S3150800014079B10108778801087DB1010881B10108F4
S3150800015085B1010889B101088DB1010891B101087D
S3150800016095B1010899B101089DB10108A1B101082D
S31508000170A5B10108A9B10108ADB101080000000048
S31508000180B1B10108B5B10108B9B10108BDB101089D
S31508000190C1B1010889880108C5B10108C9B10108BA
S315080001A0CDB10108D1B10108D5B101083EB5DFF8D6
S315080001B08C4C02F0F6FCE064684602F087FDDFF836
S315080001C0800CDDE9002300F54E71C1E9002325689E
S315080001D045F010052560D0F8480300281CBFC06804
S315080001E0002802D0BDE83E40004737BD2DE9F04162
S315080001F004460D4616469846DFF8407C02F0D1FCC8
S315080002007860BC60BD81FE8187F810803868DFF8A9
S31508000210301C40F008003860D1F8480300281CBF9D
S31508000220C068002802D0BDE8F0410047BDE8F0816B
S31508000230DFF8080C016841F004010160DFF8000CE2
S31508000240D0F8480318B1C068002818BF004770479F
S31508000250DFF8E80B016841F002010160DFF8E00B06
S31508000260D0F8480318B1C068002818BF004770477F
S31508000270DFF8C80B016841F001010160DFF8C00B27
S31508000280D0F8480318B1C068002818BF004770475F
S31508000290DFF8B00B416891F8F020022A14BF062156
S315080002A002210170704710B5DFF8944BD4F840036B
S315080002B094F8141440F08000C4F84003012904BFE0
S315080002C0002000F0FDFC94F8810440F0220084F838
S315080002D08104BDE81040DBE72DE9F041DFF8608BCB
S315080002E008F59067044678680D4690F8F0100026E1
S315080002F0022901D000F082FC02F031FD012806D166
S31508000300022002F022FD002002F024FD0126786872
S3150800031090F8F010012915D102F023FD012806D125
S31508000320002002F013FD002002F015FD012602F060
S315080003301AFD012806D1002002F009FD002002F06E
S315080003400BFD1BE0D6B998F81414387838B901298A
S3150800035008BF88F83D44204602F0A0FD0EE00129BA
S3150800036008BF88F83D54284602F098FD786802F0E0
S315080003709EF903D0787840F020007870BDE8F04107
S3150800038086E7DFF8BC1AD1F84003002804BF91F8C5
S315080003908204012801D1002070470120704700001F
S315080003A02DE9F84F9EB0EFF3108072B6DFF88C1A7D
S315080003B0D1F8008000220A6080F31088B8F1000F97
S315080003C0DFF87C9A09F5826609F5507709F58F6496
S315080003D009F5876500F0BB82C8F3001000284AD0EB
S315080003E002F064F901D000F009FC09F5607A396F6A
S315080003F0504602F0C5FB504602F029FB796F09F515
S31508000400667002F0BDFB09F5667002F020FB02F08B
S315080004104DF91CBF317901290DD1162201F0DBFDFA
S315080004200146786F09F57E7A0918504602F0A8FB4E
S31508000430504602F00CFBE168707981F83E0170794C
S315080004408DF80800E06890F8D42102B101228DF8F1
S315080004500920DFF8E819CA6C039202A9007802F0AD
S3150800046084FDDFF8D809E268C16CC2F8C411307996
S3150800047008B900216971C8F3C00000283DD0DFF82B
S31508000480BC09B0F90E10D0F808B0B0F80CA0ADF859
S315080004900010002290F910108DF804100392E068FD
S315080004A0C16C07918DF8072004218DF806102A7271
S315080004B0BDF800009DF8041070833177207A7077B4
S315080004C0F281727472613283B27732623273726207
S315080004D02A70DFF87429506B804709F5667002F0B8
S315080004E024FB5146584602F038FC012806D1BDF8CF
S315080004F00000E8879DF80410217003E2E06890F890
S31508000500F010012917D102F02CFC012807D1002090
S3150800051002F01CFC002002F01EFC04200AE002F097
S3150800052022FC012807D1002002F011FC002002F06D
S3150800053013FC052070779BF800108DF80010480909
S31508000540012800F05E8103281AD0052816D007284E
S3150800055040F0C081AAF1010292B20BF1010109F53E
S315080005600E7002F0CEFD032000213073717309F579
S315080005700E70AAF10101706131763DE101203073F8
S31508000580E26896F9103002F22D1108788DF80A0003
S315080005908DF809300D208DF80800887C012804BFE5
S315080005A00E218DF80810107802A902F0D5FCAAF1E0
S315080005B00D02002112B29142B8BF114600B288421C
S315080005C0C0F28381FF2009F50E728DF8480011925A
S315080005D0CDF820B08DF824A008A802F005FE002862
S315080005E007D10A9870620DF1050108A801F0FCFA16
S315080005F0002840F06A810390E26828214143531895
S3150800060003F15401DDF828E0D1F800C0F44504BF31
S3150800061013F851CFBCF1010F03D0401C0428ECDBC2
S315080006200FE08DF807C05B788DF806308869036897
S3150800063003930968079192F8F000022804BF032182
S31508000640717715208DF8080002A9107802F084FC4D
S31508000650E16801F5E87213689DF806209DF8051013
S315080006600493042A47D8DFE802F00C0906030F00B2
S315080006704FF0070A16E04FF0060A13E04FF0050A96
S3150800068010E04FF0040A0DE09DF81220012A07D168
S315080006900A0016BF03294FF0020A4FF0010A01E0CB
S315080006A04FF0030ABDF82E2081B203AB504602F084
S315080006B055FF9DF8001049098DF810100DF1480BEB
S315080006C0F0B1072813D108207073E16801F5E071CD
S315080006D0887C002804BF9DF81000052802BF886999
S315080006E0DBF80420904208D10120087005E00828AC
S315080006F008BF0A2000D00120707303983062E6E034
S3150800070008A80090039B07999DF80600524603F037
S31508000710B9F820B1022814BF0C200B20D6E070735C
S3150800072000229DF807109DF82C00B1733276C0F3AD
S315080007300011717440090021716100F001000399EC
S315080007403162B077002169712872707F002812BF64
S315080007500128E268C2F8F4109DF8071009B10221D1
S3150800076011E09DF81030E168052B01F5E07208D11B
S3150800077001231370917C11B9DBF8041091610121F2
S3150800078001E0002111703173030029799DF82C20AE
S3150800079018BF012806D1012906BFC2F34010002858
S315080007A003F0FCF99DF8050003281FD8DFE800F0E0
S315080007B0120D0214707F9DF904309DF848200090B0
S315080007C00021119800F042FB01E000F006FA9DF8BE
S315080007D0400010E000F001FA11999DF8400071619F
S315080007E001229DF848103176727604E00120707374
S315080007F0FFF759FDF07BF073607A40F002006072F3
S315080008006CE0CDF850B08DF854A0E16891F8D401A9
S3150800081000285AD103F0CDFB014614AAFF2002F0A6
S3150800082028FF002848D1E1689DF8590088649DF89A
S315080008305A2040EA022088649DF85B2040EA02407C
S3150800084088641798C8649DF86000C0F3021081F8A0
S31508000850190100F0CDF981F8200100F0C9F981F8F5
S315080008602801E1689DF8610001F58472106008B9F5
S31508000870012313604FF47A701368434313600DF134
S31508000880620003F57A735360002281F8D22105903D
S31508000890AAF111018DF8181005A9E268107802F07E
S315080008A080FBE168022081F8D40100F039FF0128B5
S315080008B014D10021002005E000F032FF01280DD1F7
S315080008C00021072002F0CCFA08E001207073FFF738
S315080008D0EAFC17E001207073FFF7E5FC3079012880
S315080008E002D1287A012803E0E06890F8F01002297E
S315080008F004BF002000F0E4F9607A40F0200060723E
S31508000900FFF7C6FCC8F3800098B101F0CFFE01D00E
S3150800091000F074F9FFF7BCFC0220687102F0BEFA19
S315080009203079012804BF0121F170607A40F0200077
S315080009306072C8F3400018B106210520FFF7CCFC09
S315080009405FEAC87003D504210320FFF7C5FC02F04F
S3150800095021FA607AC0F34010002800F0DB800020FE
S31508000960A0723868010644BF20F082003860607AB9
S3150800097010F0050F0ED00B2002F0A3FA012802BFD3
S31508000980607A00F00500042804D1386820F00200D7
S31508000990386080E0607AC0F38000B8B100F0C0FE2D
S315080009A0012805D1002002F06BFA58B9307009E029
S315080009B0042002F086FA012804D0052002F081FA04
S315080009C0012803D1386820F002003860627AD0071F
S315080009D061D528790021002818BF032809F55A7817
S315080009E000F0DE80012835D1F078012853D196F839
S315080009F001C0B378634505D2C2F3400018B1287A1E
S31508000A00012800D10121E26892F8D201002840F0BD
S31508000A10D980002940F0B08063451BD25B1CB370B7
S31508000A20DBB203EBD3704008A3EB4003012B11D1D3
S31508000A3022208DF8000002F58C71087D8DF80200E1
S31508000A4002F1F001487A8DF8010001F0C0FAE16878
S31508000A5081F8F9000021607A00F0DF006072F17019
S31508000A60404602F062F8386820F02000386001201D
S31508000A7000F050FD002818BF0B280CD0E06890F84D
S31508000A80F910A9710921B07868726971092002F014
S31508000A9005FA01F0CEF899F88154386840BBE907A1
S31508000AA044BF05F0FE006072607AC0F3800111B1A0
S31508000AB000F0FB0060720120E907A07204D579688E
S31508000AC00A6809F23C409047C5F3800050B109F521
S31508000AD08A6002F0FFF902F028FA18B1607A40F04D
S31508000AE00400607202F045F9607A00F0DF00607277
S31508000AF0386868B900218DF80010684603F08BF84D
S31508000B009DF80000012803D1607A40F01000607259
S31508000B100120A072607AC0F3C00139B100F0F70075
S31508000B20607209F264407968CA689047607AC0F3CF
S31508000B30001068B106218DF80010002279688DF83A
S31508000B4001206846CA689047607A00F0EF00607234
S31508000B50607AC0F3400139B100F0FD00607209F215
S31508000B601C4079684A689047207A022808BF00F036
S31508000B7066FE1FB0BDE8F08F287A08B16B7224E0D4
S31508000B8001208DF80400AD49C869009069461078BF
S31508000B9002F0F1F9002030712872B078687214E01A
S31508000BA0E068317890F8183199420ED2C2F34001C4
S31508000BB0002908D090F8F00038B1707F00287FF43B
S31508000BC049AF02E000293FF445AF404601F0ADFFCA
S31508000BD0386820F0200038605BE7707F9DF82C208D
S31508000BE09DF90430009002F00F0200210CA82DE1B7
S31508000BF0E1689DF8600000F00F0070479248416B6D
S31508000C00084710B58E4C04F55A7001F08EFFD4F8DB
S31508000C10400320F02000C4F84003012000F07AFCCD
S31508000C20002818BF0B2812D0D4F8841491F8F9209C
S31508000C3094F8121404F23D404270092201710270C0
S31508000C40092002F02BF9BDE8104000F0F2BF10BDF4
S31508000C507B4890F81524D0F8843400F56E7100F5B9
S31508000C6060700A7093F91921CA7093F82D210A74D5
S31508000C7093F83F214A7400234B8200F0C3BD704AA3
S31508000C8002F590631878002800D1704710B502F570
S31508000C90737192F815045C6808700023D4F81C0177
S31508000CA0486094F82D01087494F83F0148748B74D1
S31508000CB00120C87402F56670BDE8104000F0A2BDB8
S31508000CC010B55F4C04F57E7001F02FFF04F2134057
S31508000CD04178012904BF01220270D4F8840401F086
S31508000CE0E6FC05D194F8810440F0200084F88104DC
S31508000CF0D4F8480300281CBFC068002802D0BDE805
S31508000D001040004710BD7CB54D494F4D01F21444C3
S31508000D100646226F92F8F03003201BB1022B62D0F0
S31508000D2058D376BD330008D102F58E7102F592725A
S31508000D30D1E90045C2E9004576BD012E09D1012059
S31508000D4002F018F8010055D1226F012182F8F0103F
S31508000D5076BD022E4ED1022082F8F00001F5787693
S31508000D60304601F57371142203F032F90220F0744B
S31508000D700020216F282242430A4492F85130012B61
S31508000D8003D0401C0428F5DB17E002F1640001F5E6
S31508000D90927102680A60007908716178206F317073
S31508000DA0D0F82411716090F82D11317490F83F1124
S31508000DB0717403200121F074B17400202070696BEE
S31508000DC08847206F009600F1FC0101F058FC00F0FE
S31508000DD036FD0EE0304601F0CDFF01000AD1216F45
S31508000DE081F8F06076BD2EB9002082F8F000696BB4
S31508000DF08847002076BD1CB51149D1F8842402F530
S31508000E0096731C788DF802408DF801000D248DF834
S31508000E100040D97C012904BF0E208DF80000107807
S31508000E20694602F099F8C0B216BD054890F88114D3
S31508000E3041F0100180F8811470470000DC1204208C
S31508000E400803042088070420600C01082DE9FC4FDC
S31508000E508DB0044600208DF808000F468046022211
S31508000E6000210DF10A0003F0BFF8DFF868BC0BF5A6
S31508000E708B6008900BF590654FF0640A15E0696879
S31508000E8014F8090001F5967200F00F00107401229B
S31508000E90696891F93C018240A1F8C22137460022CF
S31508000EA00DF10A01042002F0FFFD9DF83410F8B296
S31508000EB0884280F03D823846471CC0B27E1C205CC2
S31508000EC0801E11285FFA87F9F3D8DFE810F01300BF
S31508000ED0260012008700C100D80005011B01670122
S31508000EE031023102780131023102E001E8010402DF
S31508000EF01402C4E7032001F0E4FF0128D5D1032139
S31508000F00002001F0ADFF089914F809000870F1B245
S31508000F100898625C4270771CC7E700215FEA0803FD
S31508000F208DF80E10ADF80C108DF80910BDD104EB34
S31508000F300900411E9DF834000591C01B401C8DF820
S31508000F4018000DF10D036E6806F1F2004FF0010866
S31508000F5001788DF81A1096F82C118DF81910C179A8
S31508000F608DF81B1006F5847180798DF81C000DF13B
S31508000F7009000A7C8DF81D2006F5E8710A680190BB
S31508000F8003A9049200910DF10E02307804A902F02B
S31508000F9034F800F0EEF90ED169689DF80E0081F874
S31508000FA0F90069689DF80D0081F8F80069689DF8F0
S31508000FB00C0081F81801002605E0012202A9032089
S31508000FC002F072FD761C9DF80900052190FBF1F1EF
S31508000FD0F2B28A42F1DBC7197F1E66E707218DF850
S31508000FE00810771C14F80900C0F302108DF80100E8
S31508000FF0F0B214F8091001F00F018DF8001000F096
S31508001000A3F902F00CF800F0B4F914D169689DF858
S31508001010000081F8200169689DF8000081F8280120
S315080010206868019A00F58E710A60019B8B609DF8CD
S31508001030011080F8191101229DF808008DF80A00A0
S315080010400DF10A01052002F02FFDFFF7EEFE2CE751
S31508001050DBF84803FF2100281CBF0068002801D0E0
S31508001060804701469DF938008DF80A1000F03F00C8
S315080010708DF80B0002220DF10A01062013E7032062
S315080010808DF8080003AB14F909208DF80420F0B296
S315080010900093771C225C0392F9B21046625C7F1CAF
S315080010A040EA0220F9B203907F1C625C40EA0240E3
S315080010B0039000210AFB00F003900491F8B26946F8
S315080010C0225668688DF814207F1C007801F0AEFF60
S315080010D000F055F90720E6E614F809106A6811F0D9
S315080010E00F0108BF012102F584724FF47A7041435B
S315080010F01160374601F57A71516000220DF10A0137
S315080011000820A0E714F809100022ADF80020880688
S3150800111044BF01228DF80120C80644BF01228DF87C
S315080011200020686801F00F018DF802106946007802
S3150800113001F083FF10F1010F374688D069689DF8E2
S31508001140000081F82C0169689DF8010081F82D01DD
S315080011509DF8023078A06A6810F803C002F5967107
S3150800116000EE10CAB8EE400A81ED010A02208DF899
S31508001170040009788DF8061001A9107801F0ECFE34
S31508001180696891F9F92040B28242B8BF024681F8EF
S31508001190F9200DF10A010022092084E603218DF8C1
S315080011A00810F0B214F809208DF80020771C00F01A
S315080011B0CBF801F049FF00F0E2F80A2043E70822DD
S315080011C0002103A802F010FF0822002105A802F05A
S315080011D00BFF0822002109A802F006FF14F80900EF
S315080011E00390F2B20146A05C41EA00210391771C04
S315080011F00846F9B27F1C625C40EA0240F9B20390E5
S315080012007F1C625C40EA026003904FF47A71F8B280
S315080012107F1C205CADF8100010FB01F00012ADF841
S315080012201000DDE90301CDE905010246DFF8600A91
S3150800123082180592684601F049FDDDE90023CDE9EB
S3150800124009230BF54E7EDEE900010346DDE905605C
S315080012500091024631460BA801F0FAFCDDE90B01C4
S315080012600346DDE909600091024631460BA801F004
S31508001270CFFCDDE90B23CDE90523DDE9050101F006
S315080012800BFD01F081FD01208BF838040DE6287866
S31508001290042818BF052801D001F072FD05E6F0B252
S315080012A0771CFBB214F80910225CE05C7F1C41EA4B
S315080012B00221FAB241EA0041A05C00F00F000AFBE5
S315080012C001F101F05EFD8DF80A007F1C01220DF187
S315080012D00A011120E7E5F1B214F80900625C40EA58
S315080012E00220771CFBB2DFF8182DE15C526801F08A
S315080012F04AFD7F1CD9E5F1B2771CFBB214F8090048
S31508001300625CE15C40EA022040EA01400AFB00F028
S3150800131001F03BFD7F1C012807BF01218DF80A104B
S3150800132000228DF80A2001220DF10A011320BAE5E0
S315080013300FB0BDE8F08F0000080A0C0D0E1012144D
S3150800134015181A1B1D1E2124215C0191F8B27F1C59
S31508001350225C41EA0221F8B201917F1C225C68688E
S3150800136041EA024101910AFB01F1019169460078BF
S3150800137070478DF8080000F00700072870478DF8B9
S3150800138008008DF80A0001220DF10A0170472DE9BF
S31508001390F84FDFF85098D9F884C40CF1F00E88B0ED
S315080013A09EF909A09EF90880DEF8044002940CF51F
S315080013B0E0752C7D0CB9072075E00CF5967B9BF83B
S315080013C010400CB90026AE6000278DF804709EF810
S315080013D00260F6018DF804609EF800709DF80460BE
S315080013E0012F08BF46F010068DF804602D78012DF0
S315080013F005D19DF8045045F020058DF804500E4699
S3150800140007460CF5E8709DF8041015461C46026858
S315080014100392C90901238DF811108DF8103002AB1B
S31508001420DEF80410059109F57D710A884988ADF83A
S315080014301A10ADF818209EF809108DF81C109EF8A1
S3150800144008108DF81D100CF1F9019BF800208DF895
S315080014501E200CF1F8029CF800008DF81F0003A866
S3150800146002F0CCFD9DF80410009401F0BF0141EA9A
S3150800147080118DF804102B46324601A9384600F033
S31508001480FAF9040018BF0A2804D1002000F042F82F
S3150800149004000BD0D9F8840480F8F9A0D9F884148C
S315080014A081F8F880204609B0BDE8F08FD9F88404A1
S315080014B0002180F8C011029AC0F8F42002F05DFB02
S315080014C00028EFD01320EEE710B50121FF281ED122
S315080014D00020FFF718FCDFF80C4704F5827000219E
S315080014E0A21CFF23017042600372417202F061FD83
S315080014F00146082204F5877001F003FE02F048FD54
S315080015000146082204F58B7001F0FBFD0021BDE8B9
S31508001510104008462DE9F04389B0DFF8C89607461B
S31508001520002101910591D9F8840400F23D1100F5D6
S31508001530E6704A78057A05B101258DF8085009F54F
S3150800154082650B788DF80A308DF80B20006801F05B
S315080015502FFB03900022A96899F8810404918DF85D
S315080015600920C0F3800028B100F0DAF8012808BF86
S315080015708DF80900D9F88404007802A901F074FDF1
S31508001580D9F88464A868B6F8C2114143081A06F562
S31508001590E2714860069096F8F9008DF8200096F8F2
S315080015A03D018DF822000A7C02B101228DF8212026
S315080015B006F5E47009680090079101AB307809F2E6
S315080015C0154206A901F056FD0199DFF8802C0300A3
S315080015D0116009F5507614D00B2808BF012F0FD1DA
S315080015E0019860B1316841F02001316009F55A74FB
S315080015F00199204601F0C4FA204601F028FA002095
S315080016008BE0D9F8840490F9F92000F2191191F9C0
S315080016100030097D007801F03FFDD9F8847407F1A0
S31508001620FC0109F56E7200920B680A7941B23878A6
S3150800163001F0C4FCD9F8840400F1FC0109F57372C1
S31508001640009209F571770B680A7990F920110078EC
S3150800165001F0B4FCD9F8841491F8D401F8B901F56D
S3150800166088710A6838688218326709F58274496889
S3150800167078694118D9F884047167002190F8F970DF
S315080016806E79009109F584782078002837D00428E7
S3150800169042D1684601F057FF10B312203DE005A875
S315080016A002F08EFA08B1132037E0D9F88404DDF881
S315080016B0148099F8374290F9F900FFF79CFB5FFA16
S315080016C088F211198AB2904208D389B2B1F5807F9F
S315080016D004DAD9F8841401F58471C2E708201CE0FD
S315080016E0287810B9A878012802DD0098401E0090D5
S315080016F0434600983246394602F068F802E040460A
S3150800170001F08DFF30B9207AA9F80000687900F059
S3150800171052F902E0112000E0032009B0BDE8F08389
S31508001720002001F0CEBB3EB5DFF8B84404F582656B
S315080017300021686F80F8D411C0F8F41000202870D2
S31508001740E870012169700122686FAA70002180F88B
S315080017503C11686FA0F8C221027980F8F820686FFA
S31508001760417980F8F910686F90F8251080F81911FA
S31508001770686F00F1280100F58E7000F03DF800F161
S31508001780300100F5927000F037F890F8381080F8BC
S315080017902C11686F90F8391080F82D11686FC26B9C
S315080017A000F598710A60006C486000216A6F29711B
S315080017B0002082F8C001012100908DF804106946C6
S315080017C0107801F0D8FB002169710020696F81F853
S315080017D03E0104F5737069796A6F0170D2F81C11BD
S315080017E0416092F82D11017492F83F11417400225C
S315080017F001218274C17437BDD1E90023C0E90023F1
S31508001800686F704770B50C4601F08FF9DFF8405ADB
S31508001810A86B8047DFF8CC0300F5906600F5846274
S3150800182070680078214601F0D4FB012806D170685B
S31508001830E96BD0F804018847E07C307070BD38B594
S31508001840A448012300F2F23400F5906523700221C2
S31508001850617000F584626B6800F57871187801F09C
S31508001860B8FB012806D1DFF8E819CA6B00209047B3
S315080018706078287031BD2DE9FC470F460A9EDFF8CF
S315080018806483002192461C46A8F8001088F81414B0
S315080018900191009104B90026054608F59C7932465F
S315080018A02146484601F02DFC88F83762287888F8E2
S315080018B0020029784909022907D0042902D00729F4
S315080018C060D070E0012088F814043C4608F5827759
S315080018D00420387008F10201FF2279603A7208F58F
S315080018E088662878787208F5947585F800A0706C73
S315080018F0C16CF960207898F8371238742972C5F8DF
S31508001900049001A801F01FFE08B1122026E00198F4
S3150800191078820021318068460199B16002F050F959
S3150800192098B90098C8B1706C90F9F900FFF763FA96
S3150800193098F83712D1B100990F2911D808F58C7289
S3150800194069460F2002F045F908B1132006E0009910
S31508001950207861F30300207038740020BDE8F6870C
S3150800196000F023F80028F0D10A20F7E700F01DF868
S315080019700028EAD12870716C0098287201F5A072C7
S315080019806A60EAE7002C1CBF98F83722002AE4D0E0
S31508001990214608F1030001F0B4FB98F83702401C11
S315080019A0A8F80000D9E70220D8E7716C01F5A07203
S315080019B0694602F00EB978B58A4D85B005F24446F7
S315080019C000218DF800100446306C8DF8044000F1B3
S315080019D0F8014A788DF805200B782A888DF80630A4
S315080019E0886B0290C96B0391ADF8102001F0B7F926
S315080019F0012808BF0E2048D0306C90F8F010012955
S31508001A000BD101F0AEF9012803D001F0ACF9012899
S31508001A1001D10F2039E001F0BCF9306C007805F5EA
S31508001A2083636A4601A901F0DDFA05F23D4001210A
S31508001A30326C017092F8F9109DF80020B46041707C
S31508001A4005F582648270A0683060306101F08DF916
S31508001A50012805D1A06801F09AF908B1102014E010
S31508001A6001F086F9D5F8400340F00200C5F84003B6
S31508001A70207910B92178491C2170A81CDFF8D027D5
S31508001A802988136BC9B29847002006B070BD7FB588
S31508001A90544CD4F8842494F815148DF8001002F1E7
S31508001AA0F8035D788DF801501E788DF80260996B01
S31508001AB001916946DB6BADF80C000293107801F0D2
S31508001AC0E5FAD4F8400340F00200C4F8400304B035
S31508001AD0002070BD080304200B461146024610B5C7
S31508001AE01846DFF86C375C6C49B2A0473D48D0F819
S31508001AF0401341F00201C0F84013002010BD38B56C
S31508001B00DFF8FC44374D05F5916060614FF4EE71DE
S31508001B10A16104F1280001F011FD60620422002190
S31508001B20684602F061FAD5F884040078694601F03F
S31508001B3028FAE0610098206204F1300002F04BF9BF
S31508001B40E06204F1380001F0ABFF606304F1400085
S31508001B5001F0F7F8E06304F1480001F056F9606413
S31508001B6004F1140032BD3EB5040001D103203EBD88
S31508001B701C4DD5F84003012801D001203EBD21683F
S31508001B8029B1626892B205F5916001F0BAFA0221AC
S31508001B908DF80410D5F88404A16800916946007888
S31508001BA001F0E9F9A06902F00AF918B9206901F00B
S31508001BB0B9FC08B111203EBD206A01F066FF08B1E4
S31508001BC013203EBDA06A01F0BAF8012801D01420FE
S31508001BD03EBD206B01F00EF9012801D015203EBD4F
S31508001BE000203EBD08030420002818BF002901D1A3
S31508001BF003207047037B13F00F0F1CBF90F82020BB
S31508001C00002A03D0002008700020704790F828208A
S31508001C100AB90120F7E713F00F0F08D190F8200052
S31508001C20002808BF0220EED018BF0320EBD11720EA
S31508001C307047DFF8841A91F8810401F58262C0F3CF
S31508001C40400020B1507F002818BF01280AD0D1F8DB
S31508001C50840490F8F230012B04D1D0F8F4305B1CE0
S31508001C60C0F8F430002010701071D070D1F840031D
S31508001C7020F00200C1F8400301207047DFF83C1A43
S31508001C80D1F8481319B18968002918BF0847704761
S31508001C90803DD5120020F1E70120EFE70220EDE7AD
S31508001CA00320EBE70420E9E70520E7E70620E5E758
S31508001CB02DE9F04105008EB016460CD00C001CBF6D
S31508001CC02868002807D0686800281CBFA86800286C
S31508001CD001D0E86808B9032074E1304601F036F906
S31508001CE008B909206EE1DFF8D819DFF8CC8928464B
S31508001CF001F06EF808F591674FF4EE720021384648
S31508001D0001F017FA4FF491620021404601F011FAEA
S31508001D10C8F88474012008F57D770123B8777877A9
S31508001D200020D8F884140E7081F8F00081F83F017D
S31508001D308DF807308DF8060003238DF804008DF81A
S31508001D40053001F5E871019808600F22D8F8840477
S31508001D5000F041F900B10120D8F8842482F83D0149
S31508001D600A2000F032F9D8F884140871062000F029
S31508001D7038F9D8F884144871102000F032F9D8F8E8
S31508001D8084241061112000F020F9D8F884245061C9
S31508001D90122000F01AF9D8F884249061132000F074
S31508001DA014F9D8F88424D061142000F00EF9D8F874
S31508001DB084241062172000F008F9D8F8841481F8F2
S31508001DC02500182000F00DF9D8F8842490621063D5
S31508001DD0694619208DF80000107801F0BDF8D8F88A
S31508001DE0841481F82C006946D8F8842482F83400D3
S31508001DF01E2000F0DFFDD8F8841481F838001F2073
S31508001E0000F0EFF8D8F8841481F83900202000F0A3
S31508001E10E8F801902122D8F884040199C16300F0FA
S31508001E20DAF801900B22D8F884040199016400F0CD
S31508001E30D2F8388069460C2000F0BCFD7880012075
S31508001E40D8F8841481F824001421D8F884040622CA
S31508001E508160027308F55076D8F88404826800F128
S31508001E60FC010A60007B0871D8F88404026900F551
S31508001E7082710A6043694B6082698A60C369CB6074
S31508001E80026A0A6190F824000875FFF74CFCD8F836
S31508001E908414012081F8F1007560002008F281455C
S31508001EA0012128703160B4600021D8F8842402F535
S31508001EB0E2700160416008F55A70DFF87C1900F09D
S31508001EC0BDFDDFF8781908F5607000F0B7FDDFF89A
S31508001ED0701908F5667000F0B1FDDFF8681908F5A5
S31508001EE07E7000F0ABFD00F05CFED8F88414C1F8F3
S31508001EF0CC01DFF85409DFF85419F0607161DFF896
S31508001F005009DFF85019F0613161DFF84C09B0610A
S31508001F1008F55370DFF83863B1688847D8F8840441
S31508001F2000228DF81420049204A9007801F023F801
S31508001F30DFF8280901F0DCFE88B9DFF8240901F08A
S31508001F40C3FA60B9DFF81C0901F090FD08B1132047
S31508001F5038E0D8F88404503001F038FB08B1112075
S31508001F6030E0F069804701F0B7F8D8F88404316E9C
S31508001F7090F8F1008847706B804700210291039121
S31508001F8008F21C426168029108F26441E068069111
S31508001F90079208F58A6108910390099506A8D8F86A
S31508001FA084140B9101F14C020A9201F1F8025031A6
S31508001FB00C920D9102A9DFF8EC2900F0BFFE012072
S31508001FC0687000200EB0BDE8F0818DF80000694603
S31508001FD0107800F0C1BF8DF800206946007800F03F
S31508001FE0BBBF8DF800006946D8F88404007800F075
S31508001FF0B3BFDFF8C8160020C1F8400370470000D9
S31508002000DC120420F8B5DFF8B4360C46D3F884148D
S3150800201001F1F40288B016680296054691F9057032
S315080020208DF80070002791F904608DF8016001971A
S315080020300CB9032045E001F5E876002037680397D8
S315080020408DF8100003F57D7091F8F26003884088DA
S315080020508DF811601768ADF81A000597ADF81830B5
S3150800206002AB50798DF81C0010798DF81D000DF122
S31508002070010291F82C018DF81E0003A809788DF845
S315080020801F10694601F0BAFF9DF90000FEF7B3FE7E
S31508002090607001A801F094FD08B1132011E00198C1
S315080020A010280BD261780A46824207D3091A217092
S315080020B0019949198A4203D3002002E000202070C2
S315080020C0082009B0F0BD000038B5044600250CB953
S315080020D0032032BD2178DFF8E405342900F2AF8009
S315080020E0DFE801F01B2025282B2F33ADADADADADB4
S315080020F0ADADADADADADADADADADADADADADADAD02
S31508002100AD373B40464B5055625E6B7074787B7FAB
S315080021108387908B94989DA8A400D0F8840490F89F
S31508002120F0106DE0D0F8840490F8D41168E001F05E
S315080021302FFF7DE001F03DFF7AE000F08BF88A780A
S315080021406BE0D0F88404816C77E0D0F88404C16C25
S3150800215073E000F07FF84A785FE0D0F8840490F8DE
S315080021603F114DE0D0F884041D228DF8002020E0B0
S31508002170D0F8840400F58E710DE0D0F8840400F1DF
S31508002180280108E0D0F8840400F5927103E0D0F83D
S31508002190840400F13001D1E90023C4E9012352E0A7
S315080021A0D0F884041B2102E0D0F884041A218DF8A3
S315080021B00010694600F002FC3AE0D0F8840490F872
S315080021C018111DE000F046F84A692DE000F042F8C3
S315080021D08A6929E000F03EF825E000F03BF80A6A33
S315080021E022E000F037F84A6A1EE0D0F88404417904
S315080021F006E000F02FF84A7A0FE0D0F88404017957
S31508002200217120E000F026F80A7A06E000F022F8AC
S31508002210CA6809E000F01EF80A7C227113E0D0F8BB
S31508002220840400F58C71CA6962600CE0FFF767FCEC
S31508002230606008E0D0F88404016C616003E0204621
S3150800224000F09AFD0546284632BD000058150420C0
S31508002250600C0108D0F8840400F1F0017047000012
S31508002260F8B584B0044600250CB90320ECE1DFF884
S31508002270486496F84003810748BF0120F6D42078C1
S31508002280DFF8A877352800F2D681DFE810F03600A7
S315080022903A00420046004C00520057005C006200BB
S315080022A068006E0074007A00800086008C00920038
S315080022B098009E00A400AA00B000B600BC00C200A8
S315080022C0C800CE00D500DB00E600ED00D401F3001F
S315080022D0FC00050128013B01330148015301570160
S315080022E05B015F0163016701740195018801A30120
S315080022F0AA01B201B901BE01C3012079FEF703FDA7
S315080023009CE1207902280DD0D6F8841481F8D401EE
S3150800231095E1606801F033FE02E0606801F03BFE7B
S31508002320002805D085E100F09BF901F1F102507013
S3150800233085E1D6F884146068886480E1D6F8841448
S315080023406068C8647BE160680028EBD0014601201C
S315080023507DE060680028E5D00146002077E06068E7
S315080023600028DFD00146022071E060680028D9D035
S31508002370014603206BE060680028D3D0014604209C
S3150800238065E060680028CDD0014605205FE06068FA
S315080023900028C7D00146062059E060680028C1D049
S315080023A00146072053E060680028BBD00146082094
S315080023B04DE060680028B5D001467F2047E0606898
S315080023C00028AFD00146802041E060680028A9D0E7
S315080023D0014681203BE060680028A3D001468220A0
S315080023E035E0606800289DD0014683202FE06068AC
S315080023F0002897D00146842029E06068002891D0FB
S315080024000146852023E06068002810D00146862012
S315080024101DE0606800280AD00146872017E060683A
S31508002420002804D00146882011E06068002800F0E2
S315080024300081014689200AE0606800286ED00146BE
S315080024408A2004E06068002868D001468B2001F0E5
S31508002450D1F8002840F0EB80F1E000F001F981F8AE
S31508002460F1003A6E9047EAE000F0FAF801F5967244
S31508002470D074E4E000F00AF901284FD100F0E6F83C
S3150800248002F58E7333E000F001F9012846D100F019
S31508002490DDF802F128032AE000F0F8F801283DD11A
S315080024A0D6F88424D4E9010102F59273C3E9000140
S315080024B0D6F8840400F0FBF810D190F8D40100286F
S315080024C00CD0786B8047D6F8840400F1FC0106F539
S315080024D07872009200F0D3F8FFF7B1F9AFE000F098
S315080024E0D5F801281AD100F0B1F802F13003C3E992
S315080024F00001A4E06168D6F88404029101228DF8EF
S315080025000C2005E06168D6F8840402918DF80C5019
S3150800251002A9007800F04BFD00280AD189E020794D
S315080025200028FBD01028F9DAD6F8841401F1FC0249
S31508002530107784E000F09DF8906080E000F099F84C
S31508002540D0607CE000F095F8106178E000F091F832
S31508002550506174E000F08DF8906170E000F07BF84F
S315080025600622D6F8840400F09DF8012861D100F00F
S315080025707BF8487163E000F06EF80522D6F884040B
S3150800258090F82C118DF8061001A9007800F000FDCE
S3150800259001284ED100F068F881F8F9004FE000F004
S315080025A05AF80A22D6F8840400F07CF8012840D1AB
S315080025B000F05AF8087142E000F04DF80922D6F802
S315080025C0840400F06FF8012833D100F04DF881F843
S315080025D0F80034E0D6F8840461688160C0F8FC101D
S315080025E02DE000F03DF80873D6F8842482F800013F
S315080025F025E0D6F8840400F59671606888601EE0C8
S31508002600D6F8841462680A6419E0606888B1FFF72E
S31508002610AAFA13E0A07901280BDCD6F884146068BE
S3150800262001F5E8721060606800F076FF38B1112095
S315080026300AE0032503E0204600F0A0FB0546FFF765
S315080026402BFBFFF727FB284605B0F0BDD4E90101AF
S31508002650D6F88424704794F904008DF8040070476E
S31508002660D6F8841420797047D6F884149DF80400A7
S315080026707047D6F88414606801F1FC0270470B684D
S315080026800A7990F92811007800F098BC94F90800A6
S315080026908DF80400D6F8840400F596714A788DF80A
S315080026A005200722007801A900F072BCE06890F8BE
S315080026B0F0100229704700000803042008030420CC
S315080026C0AD1C00087CB5044602220021684601F0CC
S315080026D08BFC02260CB9032076BDFDF752FE0128B5
S315080026E034D000F026FC012830D000F01EFCD04D76
S315080026F028B91422002105F58A6000F01AFD95F81C
S315080027008114012085F8510441F0040185F88114EB
S31508002710012120788DF8040000228DF805108DF827
S315080027200720207870B103282FD004283BD005282D
S315080027304CD0092850D00B2870D00C2853D00D281F
S3150800274063D034E095F84013880601D5012076BD9C
S31508002750FEF7E9FF00F088F8002200F07CFCD5F8C7
S31508002760841481F8F90007208DF80500FF20FEF78C
S31508002770ABFE060010D000F077F8012200F06BFCE3
S31508002780D5F8841481F8F90013E06946022001F0AF
S315080027908BF9002600283FD101A800F03AFBFFF785
S315080027A079FA304676BDA088FFF771F906463000FB
S315080027B0F2D000F0BAFB0028F3D195F8811485F819
S315080027C0140401F0FB0185F88114EAE7227BA1686D
S315080027D0A088FFF781F9E9E7002669460D2001F090
S315080027E063F9C8B9D8E7D5F8841491F8F000002839
S315080027F0DFD1247904F0070000F0B9FA8DF800401B
S315080028000026012269461020E9E76946122001F0F0
S315080028104BF900260028BFD01326CAE78DF8071003
S3150800282000F096FA30B900F090FA002000F092FA1B
S315080028300026B1E70126BCE7030C0008510C000886
S315080028407F0C0008C10C0008AD010008ED01000866
S31508002850510200083102000871020008A11C000894
S315080028609D1C0008A51C0008D5F8843494F90410AA
S31508002870187870472DE9F84F04460025002C84B0D7
S315080028804FF00209AB46AA4600F08180FDF779FDB4
S31508002890012800F08480674F8DF80050142200212B
S315080028A0384600F046FCDFF88881012008F2114618
S315080028B0787001217170207820B1012808D003288A
S315080028C01AD028E0317000F06FF840F0400008E0B8
S315080028D0E07B0828A8BF0820307000F065F840F0B3
S315080028E080008DF800002579A1680191A189ADF8CD
S315080028F0021094F90EB00EE031708A469DF8001069
S3150800290041F0E0018DF80010616801912189ADF868
S31508002910021094F90AB0D8F884048DF80C9090F84F
S315080029202C118DF80E1003A900F048F840B2834523
S31508002930B8BF8346BAF1000F2DD0D8F8843493F87F
S31508002940F20090B98DF808B0052293F82C018DF89D
S315080029500A0002A9187800F01BFB012817D1D8F83D
S3150800296084149DF8080081F8F900BDF80230019A30
S3150800297029466846FEF70BFD814650B998F881143A
S315080029802078387041F0010188F8811403E00320AB
S3150800299005E00020F0700020FFF770F9484605B002
S315080029A0BDE8F08FA91C00088A469DF8000000F0D3
S315080029B01F0070478DF80000D8F88404007800F0EE
S315080029C0CBBA38B51A4DD5F8843404468DF800408C
S315080029D00F221878694600F0DBFA012804BFD5F8FB
S315080029E0840480F83D4131BD134800687047124998
S315080029F00020086070470E4890F81414012905D184
S31508002A0090F84004012802D0002070470120704742
S31508002A10074890F8411490F8110481428041C04358
S31508002A20C00F7047024890F83D047047600C0108D3
S31508002A3008030420440704205815042000220260D5
S31508002A40426002724272C16002614261704770B5AB
S31508002A500400EFF3108572B62BD06C4E3168084629
S31508002A6002E0A04225D040690028FAD160682060BB
S31508002A70012200232272637211B901F06FFB08E08C
S31508002A8001F02DFB216841182160326810688142E7
S31508002A9003D2204600F0B2F80BE0536901E01A466B
S31508002AA05B69506940B11E688E42F8D32046506172
S31508002AB0636185F3108870BD20460023F7E738B5B3
S31508002AC001F051FB0546514C01F048FB2268451BB5
S31508002AD022B3104605E001688D422CBF0021491B30
S31508002AE0016040690028F6D100F019F801B9FEE73F
S31508002AF010698847206888B101F0F1FA22681168E0
S31508002B00814204D200F00BF80029F1D1FEE72AB180
S31508002B10507A18B9BDE83240104659E031BD5069BF
S31508002B20206000211172D168704770B5EFF31084E8
S31508002B3072B6364D2A68110018BF0028134612D0FF
S31508002B4000268242067211D1517A5069012909D1AB
S31508002B50567218B1286000F03BF804E001F0D2FA8A
S31508002B602E6000E0286084F3108870BD814204D08E
S31508002B700B4649690029F9D1F5E748695861F2E732
S31508002B8038B50446084601F0F3FA05462046FFF72D
S31508002B90CCFF01F099FAA84238BF28462060606049
S31508002BA031BD80B501F0A9FABDE8024001F0E8BAE6
S31508002BB038B5040001D1002032BD01F09EFA054661
S31508002BC0204601F0D5FA281ABDE8324001F0D8BAF5
S31508002BD038B5044601F078FA05460120607201F01E
S31508002BE07EFA21682818814203D201F078FA2D1856
S31508002BF025602068BDE8324001F06BBA034A1168C7
S31508002C0009B100234B7241611060E1E768150420A1
S31508002C100EB41CB40FF20411039CD1E90023CDE9CC
S31508002C2000230599BDF810200C19BDF8181000945A
S31508002C308A1813B2B3F57A7FADF8042006DB009B39
S31508002C405B1CA2F57A720093ADF804201CE0000024
S31508002C500EB41CB433A1039CD1E90023CDE90023AB
S31508002C600599BDF81820641ABDF8101000948A1A40
S31508002C7011B20029ADF8042006D5009B5B1E02F5AB
S31508002C807A720093ADF80420DDE90023C0E9002339
S31508002C9013BC03B07047000030B5044623A085B0C6
S31508002CA0D0E90023CDE901230D4602A801F076FA02
S31508002CB001902A4600F01EF803A8FFF7C9FFBDF9E0
S31508002CC01010039801F077FA05B030BDD8B5044660
S31508002CD018A085B0D0E90023CDE9032304A801F0A4
S31508002CE05DFA039000F00CF8DDE90301DDE9016700
S31508002CF00AE00000DDE9010100910346214670471C
S31508002D0002A901A801F050BA0091034631463A4695
S31508002D102046FFF77DFF06B0D0BD0000000000008A
S31508002D200000000000000000000000000000000095
S31508002D3000000000000000000000000070470120AD
S31508002D407047002101600020704770477047704740
S31508002D500020704770477047704700207047002072
S31508002D607047002070470020704700207047704762
S31508002D70704770470220704702207047022070474C
S31508002D807047002070477047704700207047002042
S31508002D9070477047704710B10168CA681047704796
S31508002DA001466948806A00F11002914218BF081D61
S31508002DB0704738B504460846154601E0FFF7F0FFA8
S31508002DC0A84203D00178A142F8D132BD002032BD15
S31508002DD038B55D4DA861002028750C46AD62ED61D9
S31508002DE02D621422FF21284600F0A3F901226C6205
S31508002DF06A7531BD80B5010005D01622524800F02B
S31508002E0080F9012002BD002002BD162101604E484E
S31508002E10704738B54C4CA26A117D052901DB0020A4
S31508002E2032BD216A03780B70002345784D70C0784F
S31508002E30C8708B70107D401C10750846FFF7B0FFF0
S31508002E402062012032BD10B53F4CA16A087D30B121
S31508002E50401E0875E069FFF7A3FFE061012010BD79
S31508002E6010B5394B9A6A04460846117D39B11A6A73
S31508002E70D969FFF79EFF10B101214470817010BD1A
S31508002E8080B5314B9A6A117D31B11A6AD969FFF753
S31508002E9090FF08B1407802BD012002BD38B52A4D21
S31508002EA0A96A0446E8694C75097D49B1C178447038
S31508002EB009B901228270FFF773FF296A8842F5D1A2
S31508002EC031BD80B520490A6AC969FFF772FF00B1AA
S31508002ED0012002BD2DE9FC411B4D0646A86A90F863
S31508002EE0148000271CE001788DF8001042788DF8D0
S31508002EF00120C0788DF803000BE0E869017831708D
S31508002F00427872708478012CEDD1A9698A683046B6
S31508002F109047FFF798FF14B96846FFF77AFF7F1CBA
S31508002F20F8B24045E9DBBDE8F3810748816A087DC8
S31508002F3070470548816A087D052801DB012070472E
S31508002F400020704700000000F0130420052801D176
S31508002F500120704700207047C0B2052804BF084604
S31508002F6001F07EB952A000687047052804BF0846DC
S31508002F7001F0F7B97047052804BF084601F003BAFF
S31508002F807047052804BF084601F05BBA0020704761
S31508002F900B461146052804BF184601F058BA00200A
S31508002FA07047052804BF084601F07CBA7047052813
S31508002FB004BF084601F0B5BA0020704710B500F006
S31508002FC029F805D1029B2046BDE8104001F0C0BA99
S31508002FD010BD0B461146052804BF184601F0FFBA76
S31508002FE00020704710B500F015F804D12046BDE85A
S31508002FF0104001F05BBB002010BD1CB500F00AF8BC
S3150800300006D10598049B0090204601F0D0FB16BD1A
S31508003010002016BD0C46114605281A467047052895
S3150800302004BF084601F063BC00207047052804BFAA
S31508003030084601F07BBC00207047052804BF0846F7
S3150800304001F096BC00207047052804BF084601F029
S3150800305092BC002070470B461146052804BF184647
S3150800306001F0A4BC00207047052804BF084601F0FB
S315080030709EBC704710B5FFF7CDFF05D1029B2046D1
S31508003080BDE8104001F0AEBC092010BD052804BFFC
S31508003090084601F099BD704710B5FFF7BBFF04D18C
S315080030A02046BDE8104001F0D9BDC8B210BD0000E9
S315080030B00000000010B50A490A4B086843F23902B5
S315080030C003FB002008606FF00044B0FBF4F46FF0D7
S315080030D0004101FB140010BD01490860704700005B
S315080030E0040304206D4EC64138B504460D46FFF765
S315080030F0E1FF2D1B6D1C90FBF5F105FB1105601911
S3150800310032BD03E011F8013B00F8013B13465A1E95
S315080031109BB2002BF6D170471044401E03E011F80D
S31508003120013B00F8013913465A1E9BB2002BF6D113
S315080031307047130003D00A46194601F0D9BD7047F7
S3150800314038B504001CBF2068002801D1022032BD12
S315080031500078607103222368591CA01DFFF7D1FF70
S315080031602068011D032204F10900FFF7CAFF206841
S31508003170C179E160027A41EA0221E160427A41EAD4
S315080031800241E160827A41EA0261E160C07A207414
S315080031902168087B217960740D2021291FD12068B8
S315080031A000F10D01102204F11200FFF7AAFF1D20FD
S315080031B021680A5C6262401C83B2401CCD5C42EA0C
S315080031C0052283B26262401CCD5C42EA054280B2A7
S315080031D06262085C42EA00626262002032BD11390E
S315080031E00129E5DB012032BD38B504001CBF206883
S315080031F0002801D1022032BD00786071206841782C
S31508003200A160827841EA0221A160C27841EA0241BE
S31508003210A160027941EA0261A160407920732068C1
S315080032208179E181C27941EA0221227BE18102F0BA
S315080032300F02102A37DA00F1080104F11000FFF72F
S3150800324060FF002104F12805207B84F820102970EE
S3150800325000F00F000830217982B28B1A1B1F012B50
S315080032600DDB23689A5C84F82020401C091A0A1F83
S3150800327080B22A701918606AD2B2FFF742FF206836
S3150800328021790144081F01786960427841EA0221E0
S315080032906960827841EA02416960C07841EA006162
S315080032A06960002032BD012032BD10B10168CA68CC
S315080032B0104770472DE9F84F050088B088469146B3
S315080032C008BF0A204ED0139EDDF848B01F461022CC
S315080032D0002104A800F088FE00F0A4FB390A380C87
S315080032E08DF806708DF807108DF808008DF80A60BD
S315080032F04FF0010A3F0E300A310C360E00248DF8C5
S3150800330000A08DF805B08DF809708DF80B008DF8C2
S315080033100C108DF80D6003E01034A8F11008E4B223
S315080033200FFA88F6002E1CDD8DF80FA004AB4A466E
S315080033301021684600F0B2FD0AF1010A08B904AB8B
S3150800334001E00F200EE0102ED4BF3146102188422E
S31508003350E2DA01191F5C6A5C7A406A54401CC0B202
S31508003360F1E7002009B0BDE8F08F70B5069909B9F4
S315080033700A2070BD4924012A08BF012B0C7007D109
S31508003380DFF8D026946BE2684A701204120E01E048
S3150800339000224A708A700025059C049A4B718A712E
S315080033A0CD70130A8C72CB710026150C120E4A7258
S315080033B0C8730E710D72220A230C240E4C738E7379
S315080033C0CA720B73002070BD30B50022DFF888364C
S315080033D0D4B213F82450854204D0521CD4B2052C1A
S315080033E0F6DB04E003EB84000860002030BD0C2007
S315080033F030BDF8B50C00154618BF002D84B0074639
S315080034001E4600D00EB90A202AE000F00BFB781FF2
S31508003410022802D9C01E20D021E001208DF8000024
S31508003420032221460DF10100FFF76BFE0322294610
S3150800343001A8FFF766FE022231460DF10700FFF7E5
S3150800344060FEDFF81006846B20683B460222694658
S3150800345000F05DFD20B10F2002E00220DEE70B2020
S3150800346005B0F0BD09B90A207047401E0628DFF8E6
S31508003470E42526D8DFE800F0040C12181C1F2200E9
S31508003480906B02690A6000F1100101630020704721
S31508003490906B42690A6000F11401F6E7906B826945
S315080034A00A6000F11801F0E7906BC2690A60EDE75F
S315080034B0906B026AFAE7906B426AF7E7906B826A4A
S315080034C0F4E705207047704770B5040008BFDFF8B9
S315080034D08C45DFF88055342200212846FFF729FE5F
S315080034E001220020EA70AA706A7028704FF0FF3631
S315080034F001F00CFCE8602E616E6101F017FCA86112
S31508003500EE6105F1180028632E626E62AE62EC6306
S31508003510AD63A047002070BDDFF838158A6B1060D0
S315080035200020704780B5010006D03422DFF8240554
S31508003530FFF7E7FD002002BD0A2002BD3421016025
S31508003540DFF81005704708B90A207047DFF8041538
S315080035508A6BD168491C0160002070477CB50E460D
S31508003560002115461C4600910CB90A2076BD69460D
S31508003570FFF778FF010028D1009810F1010F10D04D
S3150800358080B2281A002802DD009D451909E0009836
S3150800359002D12060072076BD000C05EB004505F535
S315080035A08035DFF8B0042560816B887860B90098AB
S315080035B000230021281A63EB0101994204DB01DC90
S315080035C0B04201D3082076BD002076BD08B90A208E
S315080035D07047DFF88014896B01F11C02C26101F1A2
S315080035E0200301F1240228314364C266C0F894100E
S315080035F00020704710B5044600F0F1FB58B9204684
S31508003600012801D0200008D100F0E9F918B90920ED
S3150800361000F00DFA08B10F2010BD002010BD3EB510
S31508003620040001D10A203EBD0020019001A8DFF860
S31508003630245400F099FCA96B01988880E86B8047B0
S31508003640A96B8888E082204601F088FB78B904F1E6
S3150800365018000090022321681322002000F0FFFBC7
S3150800366008B10F203EBD204601F078FB00B11120BD
S315080036703EBD2DE9F04381468846140014BFB8F1D3
S31508003680000F0A20C3B025D00026FF28207904BFE2
S3150800369002250C26321892B200216846FFF749FD2A
S315080036A0217920680DEB0607491E3B46EAB289B226
S315080036B0401C00F0F3FB00284DD120792368421EF8
S315080036C092B23946581CFFF71CFD2046FFF738FD15
S315080036D008B1102071E0DFF87C53207CAF6BC0097D
S315080036E0B8702ED08DF80090082241460DF10100E1
S315080036F0FFF712FDB9888DF809100323BA88120A54
S315080037008DF80A2060798DF80B002079626A3018E6
S31508003710411F89B2684600F0ACFBE0B9A079E179AF
S31508003720227A40EA0120B96840EA0240814214D26E
S31508003730B860E86B8047012000F051F901000ED00F
S315080037403BE02079626A011F2068022389B200F0F3
S3150800375090FB0028EFD00F202FE003202DE0092052
S3150800376000F065F9010028D100F02AF80820FFF7D3
S3150800377040FE010021D100F023F80720FFF739FEAB
S3150800378001001AD100F01CF80520FFF732FE0100EF
S3150800379013D100F015F80620FFF72BFE01000CD117
S315080037A00020A8860021A86BC1604FF0FF31816117
S315080037B001614161E86B8047002043B0BDE8F083B2
S315080037C0A86B031D04F10902A11D7047F0B51C463C
S315080037D00822002C87B006464ED09E4DA86BC168BD
S315080037E08E4238BF062045D394F8200000B9072238
S315080037F0B1420AD2002001960090A36894F82810D6
S31508003800606AFFF757FD010034D1A86BC6603046E1
S3150800381001F081FAE86B8047204601F0D5FA68BBCB
S3150800382020792568A168071F002D18BF14F12C0000
S3150800383022D0B8B240F201129042A8BF0E2019DA7F
S3150800384003A8029000910196002300220721B8B22E
S31508003850FFF78BFD04F12C0000900723BAB2294626
S3150800386003A800F0FCFA08B10F2003E0204601F097
S31508003870ABFA18B907B0F0BD0A20FBE71120F9E743
S31508003880000000002DE9F04FCBB00746549C002CF1
S315080038900D461E463ED08DF80C2000220092694641
S315080038A09DF80C00FFF7DEFDC0B90098B04202D3C0
S315080038B010F1010F12D12046FFF796FC80B904A932
S315080038C03846FFF781FD010007D105950498A168E0
S315080038D090F801808D4205D002207DE006207BE02D
S315080038E0102079E05B4F207BB96B400900F0010995
S315080038F0887808B94FF0000904F12800416804984F
S31508003900069190F802A02079D4F800B0051FBBF103
S31508003910000F01D10A205FE0A8B240F201118842E7
S31508003920A8BF0E2058DA4FF48872002107A8FFF7BF
S3150800393000FC0599009107A80290019601234A46C2
S315080039405146A8B2FFF711FDAAB259460BA8FFF7D0
S31508003950D8FB069A10355346A9B207A800F089FA8B
S3150800396088B994F8200008B94FF007080120019695
S315080039700090059B94F82810606A4246FFF79AFC67
S31508003980010004D028E0012826D00F2024E09DF865
S315080039900C00401E06281CD8DFE800F01913100D8D
S315080039A00A070400B96B8E6213E0B86B466210E032
S315080039B0B86B06620DE0B86BC6610AE0B86B866143
S315080039C007E0B86B4661304601F0B8F901E0B86B1C
S315080039D00661F86B804700204BB0BDE8F08F38B51C
S315080039E0040084B01B4D14D1A96B8878B8B100F0D7
S315080039F019F8A86B8178012904BF20228DF80020C8
S31508003A00006809232246694600F081FA40B10F2072
S31508003A1006E0012802BFA86B81780129E7D10B20AF
S31508003A2005B030BD10220021684600F0DDBA1FB58A
S31508003A30092818BF0B200BD1FFF7F4FF0548846B44
S31508003A4020687F230922694600F061FA00B10F2039
S31508003A5004B010BD74130420BC020420C734000847
S31508003A6076480068002818BF0047704738B50446EE
S31508003A70734DFC2200212846FFF75BFB002200203D
S31508003A806E492A6068600C6032BD80B5010005D0B9
S31508003A90FC226B48FFF735FB002002BD012002BD62
S31508003AA0FC210160664870472DE9F04105465FEA4A
S31508003AB00108174608BF012036D00021604E06F1DE
S31508003AC008000A0600EB1254002398B2205CD0B90D
S31508003AD05B1C98B21028F8D3306800B93460706857
S31508003AE000B104600020206074602571A760BAB236
S31508003AF04146601DFFF705FB052D1CBF082D0A2D45
S31508003B0007D1012006E0491CC8B20F28D7D10220E8
S31508003B100AE000202073D6F8F8003818401CC6F8CA
S31508003B20F800FFF79DFF0020BDE8F08110B508B941
S31508003B30012010BD424A1168884206D041B10B687F
S31508003B40834218BF1946F9D102E0036813600021C1
S31508003B505468844208BF516009B103680B600021AC
S31508003B600160D2F8F83081685B1A5B1EC2F8F8303B
S31508003B7010220021FFF7DDFA0CE010B53048006886
S31508003B8000E0204630B1017B0468002908BFFFF732
S31508003B90CDFFF6E7FFF764FF002010BD10B52848F3
S31508003BA0006800280AE0FFF7C1FF06E0017904680B
S31508003BB005291CBF08290A29F5D02000F6D1E9E70E
S31508003BC008B9012070471E49D1F8F8200260002084
S31508003BD07047F8B5150018BF0029064601D101201F
S31508003BE0F2BD1748046800270DE02079E8557F1CC8
S31508003BF0A268FFB292B2611DE819FFF782FAA068BF
S31508003C002468C719FFB224B1A168F01B491C884271
S31508003C10EBD20020F2BD08B90120704708490968AF
S31508003C200022027000E0096821B10A7B012AFAD154
S31508003C300121017000207047000000005C15042077
S31508003C402811042030B50022D4B2DFF86C3304EB17
S31508003C500414234493F82C52854204D0521CD3B240
S31508003C60182BF1DB04E003F50B700860002030BD6B
S31508003C70032030BD70472DE9F04385B006460D0098
S31508003C801ABF0C9C002C022090461F462DD0DFF848
S31508003C902C93484601F004F969463846FFF7D2FFE7
S31508003CA0070021D10098411C484601F00AF926B1BF
S31508003CB010223146484601F009F942462946484647
S31508003CC001F004F9494601A801F056F901A88278DD
S31508003CD09DF80710120442EA016241789DF8040033
S31508003CE042EA012202432260384605B0BDE8F08365
S31508003CF038B584B0044600F0ADF8AF4D05F50B7045
S31508003D00002101220170427405F24E20022103228D
S31508003D100170427405F51C70042105220170427475
S31508003D2005F29220062107220170427405F52D70CE
S31508003D30082109220170427405F2D6207F218022CB
S31508003D400170427405F53E70812182220170427429
S31508003D5005F21A30832184220170427405F54F70EA
S31508003D60852186220170427405F25E3087218822F9
S31508003D700170427405F5607089218A2201704274C7
S31508003D8005F2A2308B218C220170427469461022FA
S31508003D9005F56D70FFF7B5F9102200212846FFF7E3
S31508003DA0C8F91022002105F11000FFF7C2F920001A
S31508003DB0834808BF834C0460002005B030BD80B539
S31508003DC0010006D04FF471727B48FFF79AF900207C
S31508003DD002BD022002BD4FF471710160D9E07FB5C2
S31508003DE00C0008BF022033D00021734A01EB0113EF
S31508003DF01A4492F82C52854203D0491C1829F4DB40
S31508003E0025E0802818BF832802F22D256C4E03D0A2
S31508003E10862818BF892811D100F01CF86B467F2226
S31508003E201021204600F03AF8044610226946284632
S31508003E30FFF767F930688047204609E010222146D7
S31508003E402846FFF75EF930688047002000E0032027
S31508003E5004B070BD10220021684600F0C5B81CB534
S31508003E607F2B01DB032016BD049C0094FFF703FF9C
S31508003E7016BD3EB5144608B902203EBD01AA0092F9
S31508003E8000250A46014601950020FFF7F4FE0100C9
S31508003E9003D101998C4218BF01203EBD2DE9F84394
S31508003EA004001D4614BF002D02200E4617462CD0CE
S31508003EB0C90806EB11721209B6EB021018BF0520E5
S31508003EC023D1DFF8F490F022002109F12000FFF752
S31508003ED030F969463846FFF7B5FE8046A0B900981E
S31508003EE009F120021021401C01F077F9002708E0AB
S31508003EF009F12002E919E01901F0E4F91037FFB2D7
S31508003F00103EB0B20028F3D14046BDE8F283F0B5C2
S31508003F1007460C0085B016461D4608BF022021D06C
S31508003F201022002101A800F05FF8E8B27F2805D129
S31508003F30F0B260B900979DF8020050B101ABF2B239
S31508003F4010212046FFF7AAFF010004D00AE0022844
S31508003F50F4D1032006E001A9E8B2FFF740FF01000B
S31508003F6008BF002005B0F0BD10B5040001D102203D
S31508003F7010BD1548C16988472060002010BD80B56E
S31508003F8008B9022002BD014610220B480AE00000CB
S31508003F9000BF0948704780B508B9022002BD01462E
S31508003FA010220A48FFF7ADF805480168884700203F
S31508003FB002BD0648704700006C090420800A0420E8
S31508003FC060150420753C0008600C01087C09042073
S31508003FD04AB1000011F8013B521E00F8013B1CBF14
S31508003FE011F8013BF8E7704710B5044610460A4633
S31508003FF00146204600F07CFE204610BD2DE9FE4F06
S3150800400004468846A078002893461F4655D194F959
S3150800401010A094F91190A0683860002561790129EB
S3150800402045D102208DF800006946A27C8DF8022051
S31508004030E07CFEF791FF46B25645A8BFB246B245A8
S3150800404008BF3D6033D0A089A168E289814228BFB4
S315080040500125101881422AD308218DF800106946D7
S31508004060E07CFEF779FF8146A068E189B0FBF1F2B2
S3150800407001FB120001281AD122218DF800108DF8B3
S3150800408001A06946A07C8DF80200E07CFEF764FF7B
S31508004090824640B2B04202BF00252079012806D1E7
S315080040A001218DF8081001A9E07CFEF764FF88F865
S315080040B000A08BF80090284600E00020BDE8FE8F9F
S315080040C0444A106051607047424908680268116C9A
S315080040D00847404A014610680368DA6C104710B56D
S315080040E03C4C206801688A6A904722681168044631
S315080040F010464A6B9047201A10BD36490868026870
S31508004100916A0847334908680268116D084738B547
S31508004110304D68680168CA6A9047040003D1686828
S3150800412001684A6A904728680168CA6D904774B959
S315080041302948C1688847022803D1BDE8314001F003
S31508004140BBBB686801688A6ABDE83240104731BD62
S31508004150204A0146106803685A6D10471D490868C9
S315080041600268116B08471B4908680268516B0847C3
S3150800417010B500F00DF8A16BBDE810400023084704
S3150800418010B500F005F8E16BBDE8104000230847BC
S31508004190104909680C680246084670470D4A0146E8
S315080041A010680368DA6A104710B500F00BF8A36CBC
S315080041B0BDE81040184710B500F004F8636CBDE878
S315080041C010401847034B1B681C680A4601461846E8
S315080041D07047000020150420600C010838B50C460D
S315080041E0DFF8241A8A6A05469047B8B3DFF81C0A2E
S315080041F0DFF81C1A4019884203D2022020700120D9
S3150800420032BDDFF8100ADFF8101A4019884238BFA5
S315080042100020F3D3DFF8040ADFF8041A40198842AD
S3150800422038BF0120EAD3DFF8FC09DFF8FC1940198A
S31508004230884238BF0520E1D3DFF8F009DFF8F01926
S315080042404019884238BF0320D8D3DFF8E809DFF8D9
S31508004250E81945198D4238BF0420CFD3002032BD56
S3150800426080B50FF64022DFF8D41913680093027858
S31508004270521E342A34D8DFE802F05A5A7272725A39
S31508004280725A725A2325272D3436393C3F424548FF
S315080042905A635A525558715A5A5C5F1B7272727237
S315080042A07272727272727272726366707272700071
S315080042B090F9010001000CBF0020401E40B22CE01E
S315080042C040214BE0202239E090F901000FF6C41195
S315080042D00A5C33E090F901200FF6C0118B5C00935D
S315080042E03DE001213AE040F6B83227E04FF47A7112
S315080042F034E04FF4FA6221E041F288312EE041F2CF
S3150800430070721BE04FF4804128E04FF47A71DFF8B1
S315080043103009FEF7E9FE00F5FA6000901FE001F5A6
S3150800432090711BE001F5917208E0102116E000215A
S3150800433014E04FF0834111E0DFF8082900920EE0FF
S31508004340DFF804190AE011228DF800200221002264
S315080043508DF801108DF8022001E0032100910098E4
S3150800436002BD38B50478DFF8D438426840780C21A5
S315080043704C4319194D7A03EB051303F1C001BDE847
S31508004380384001F0B8BB2DE9F84398B006466846B0
S31508004390DFF8B818DFF8A4486022FFF719FE30796D
S315080043A004F5907518B1022826D02DD346E0602270
S315080043B0694604F1C000FEF7A4FE0FF6EC000FF6FE
S315080043C0F40790E80E0084E80E0097E8005104F11F
S315080043D00C060FF6EC0086E8005190E80E0004F192
S315080043E01809072689E80E006E80012204F59171E6
S315080043F0284601F071FB21E03168F9B14FF4927259
S315080044002046FEF77EFE19E0298868880FF6BC026A
S315080044100FF6C4070143298004F10C0192E86800ED
S3150800442084E8680097E8005181E8005104F1180013
S315080044300FF6B00292E8380080E8380019B0BDE8F7
S31508004440F0834FF492710160DFF8F007704780B58A
S3150800445061B1052915D0062910D0072911D00929D7
S3150800446018BF0A2914D00F2918D019E000228DF890
S31508004470002069460068FFF7B1FE02BD002105224B
S3150800448001E000210722405601F0E8FA48B105E0AC
S3150800449000210722405601F0E1FA10B1012002BDC1
S315080044A0002002BD70B586B0044650208DF80C0079
S315080044B02079102802BF2168C87B00282FD1002543
S315080044C0032620682844017801910A46417842EA81
S315080044D0012201926421837842EA03424A43019207
S315080044E00022029206E00828EBDB002001908DF8F6
S315080044F00C000290019838B101A904918DF8146056
S3150800450004A800F0F7FA04E08DF80060684600F0A9
S3150800451044FB761CF0B2ED1C0F28EDB2E3DD06B0C5
S3150800452070BD10B50479DFF8143714B1012C08D022
S315080045300CE00168012203F5907001F0CDFA012024
S3150800454010BD0168012203F59170F6E7002010BD41
S3150800455070B52DED028B1E46072882B0A8BF07202E
S3150800456070700C460FF20C7096F90110DFF8E03601
S31508004570154650F821209A4206D0DFF8D8369A42D6
S315080045800CBF0221002100E0012196F90120B1703B
S31508004590072A03D1322001F072FB06E050F82210F8
S315080045A00FF2C860805C01F051FBDFF85C06416ED3
S315080045B0B0EE408AF0EE608A884706F10C02009257
S315080045C006F10803024629462046B0EE480AF0EEF0
S315080045D0680A01F060FB02B0BDEC028B70BD2DE9E4
S315080045E0F8430746DFF82066F0688AB097F9015065
S315080045F07C688846804708B1002054E0F87C48B9B2
S3150800460039780C204143DFF834064458021D5058C7
S3150800461000B104460FF2546010F9059071692046FE
S315080046208847B868D6F820C0B97C072D17D100246A
S31508004630099108940794069401210591049403941A
S3150800464080B20290052301930023DFF80C06009040
S315080046504CF250314FF47A7010FB09F90FE001243F
S31508004660099180B208940022079206920592029058
S31508004670049208200392019000920123B9784A46D1
S315080046801846E047787CF26D012807BF0FF20C61E7
S31508004690495D0FF20060415D0D31C9B22046904771
S315080046A088F8005001200BB0BDE8F0832DE9F84FDB
S315080046B004468AB0884694F901100FF2B05047565E
S315080046C02378DFF8786594F902A00C204343F018A4
S315080046D09146427A06EB0213DFF8742593F9C20075
S315080046E08245B8BF82460FF28C5050F8211091428D
S315080046F008D0DFF8602591420CBF4FF0020B4FF04F
S31508004700000B01E04FF0010BD4ED020A94ED010A0B
S31508004710DFF8F454504601F027FB8DF824000C20EE
S315080047202178414370586969884794F90100D5F89A
S3150800473024C0072815D14FF47A60002608900796FA
S3150800474006960596012004900396052202924FF4D8
S315080047507A70019610FB07F700975B4646F2A81297
S315080047600FE04FF47A610020012608910790069021
S3150800477005900496082203900292019600975B46DC
S3150800478000229DF924103046E047A189EA6DC9B296
S3150800479030469047A189EA6AC9B230469047C9F8B7
S315080047A0000088F800A001200BB0BDE8F08F2DE9C5
S315080047B0FC478CB000260446884691469A46072749
S315080047C0ADF80060DFF8745401E0B8B90627207A1E
S315080047D086422FDA606801A9801901F0D9F948B331
S315080047E09DF807308619BDF80800ADF80000002BC3
S315080047F0F6B24FF0070EE8D0981FE7D1002701223E
S315080048000C20BA407843062B07D1285868B1BDF862
S3150800481000000243ADF8002007E0BDF80010114281
S3150800482003D0285808B90EF0FE0E7F1C102FE6DBC1
S315080048307746CCE702208DF80C0003A8617A8DF83C
S315080048400E10FFF70DFD8DF814701023A17A8DF860
S3150800485015109DF805108DF816109DF806108DF8A0
S3150800486017109DF804108DF81810E17A8DF81910B4
S31508004870217B8DF81A1094F90D208DF81B208DF8E0
S315080048801C300722CDF820D08DF824008DF825207D
S315080048900A958DF82C2001AB00228DF82D200DF1FC
S315080048A006022168049104A80DF1050101F091F9A9
S315080048B00446072C09D10222002105F59070FEF75F
S315080048C038FCBDF80000A5F8200116989DF80510DB
S315080048D088F800109DF8062089F800209DF8041035
S315080048E08AF80010067020460EB0BDE8F08738B585
S315080048F0044600208DF8000069466068FFF76EFCE4
S31508004900072500B9062500210722605601F0A6F8FA
S3150800491008B905F0FD0594F901000522002101F00A
S315080049209DF808B905F0FB05284632BD1FB5026893
S315080049301168032439B901798DF80010684600F02A
S315080049402CF990B910E0019200798DF8080001A8B9
S3150800495000F0D0F848B1042802D0052802D003E0B8
S31508004960022402E0012400E00024204604B010BD21
S315080049704FF0FF30704738B5054600208DF8000027
S3150800498069466868FFF72AFC032400B902242A78D6
S315080049900C214A43A949885808B904F0FD04032C98
S315080049A002D16868091D8850204632BD704700B597
S315080049B085B0A24A0092C032019242788DF808204A
S315080049C003788DF8093081788DF80A10C1788DF84A
S315080049D00B104168039181680491684601F0DCF97F
S315080049E005B000BD2DE9F24F86B0064617461D46AE
S315080049F01022002102A8FFF7F7FADFF840920122F9
S31508004A00002109F5907001F04BF808B900F06BF831
S31508004A107068FEF7CDF801460097706810B13068E7
S31508004A20814248D3002028600623B17A707A09F1BA
S31508004A30C00201F065F801900027357A767AB84603
S31508004A4000240DF1080AB9F820010122A2401042FB
S31508004A5024D00C23634309EB030BDBF80000E8B111
S31508004A60300003D10720E040C10717D59BF808009E
S31508004A7040F3031240F3030168B200F0EFFF68B198
S31508004A809BF8091009EB0112D2F8CC00002811BFD7
S31508004A9008F10108F8B20AF800407F1C641C102CC3
S31508004AA0D1DBF9B251B95FFA88F0A0B10099019843
S31508004AB008600B2014E0411A0191F7E7069C491E8D
S31508004AC00020FEF711FB00211AF8000020700020D4
S31508004AD0009A116004E000F006F8009801600C20C6
S31508004AE007B0BDE8F08FB9F8200140F00700A9F833
S31508004AF020017047F8B5054600208DF8000000270C
S31508004B002E790024032E29DB102E01DB0320F2BDAB
S31508004B10286890F908300722002143F3030000F0C3
S31508004B209DFF00B901272868037A0722002143F36D
S31508004B30031000F093FF00B901272868017A00687E
S31508004B4041F3031241F303018A42B8BF01276946BC
S31508004B50FFF744FB00B90124274201D00620F2BD25
S31508004B600FB10520F2BD0CB10420F2BD0C20334C68
S31508004B70296810FB06F027180C223846FEF7C1FAFA
S31508004B809DF8000078720120B4F8201100FA06F6A4
S31508004B900E43A4F820610020F2BD70B501780A46DC
S31508004BA0032A01DA002070BD0C20244B42439818D2
S31508004BB000240025002680E87000BDE87040102219
S31508004BC003F5907000F052BF38B504460C202178E2
S31508004BD01A4AD4ED020A94ED010A414353185D7A44
S31508004BE002EB051090F9C23094F902005558984224
S31508004BF0B8BF184601F0B8F8A289034B5C6C0146A9
S31508004C002846A04731BD0000600C010840AA8FCC99
S31508004C1080841E00C02571CCC1C62D00FF5E43CC22
S31508004C20C0270900A0B038CC21A1070040022ECC2D
S31508004C3091D00300606E29CCE1930400080F04208C
S31508004C4018FCFFFF9A99094008E6D333E89401084F
S31508004C5090D0030020A1070085450100891A48B2B3
S31508004C60002848BF0021C8B2704700000C0B0A098B
S31508004C700807073248E8010048E8010048E801004B
S31508004C8048E8010048E8010048E8010090D0030020
S31508004C900000000033333373F2F2F2F23333337326
S31508004CA0DEDEDEDE00000000A027BE3300000000C6
S31508004CB050010000E034C13300000000500100003C
S31508004CC02042C4330000000050010000A027BE3374
S31508004CD00000000050010000E034C133000000006D
S31508004CE0500100002042C4330000000050010000BB
S31508004CF04018491C1CBFB1F1010100F8012DF9D17A
S31508004D00704710B10168CA681047704712490868A9
S31508004D1002689168084710B50F4909680C68024689
S31508004D200846E168BDE810400023084780B50A49EF
S31508004D304868026891688847401E02BD10B5064952
S31508004D404968421C08460968CC680023A04710BD7C
S31508004D50014A1060516070471815042010B5040008
S31508004D601CBF2068002801D1012010BD2179162911
S31508004D7001DC022010BD6379037008222068A11D9A
S31508004D80401CFEF7C9F92068082204F10E01093013
S31508004D90FEF7C2F92168E08A48742168E08A000AA9
S31508004DA088742168A069C8742168A069000A087512
S31508004DB02168A069000C48752168A069000E8875ED
S31508004DC017202071002010BD70B504001CBF216893
S31508004DD0002901D1012070BD227B04F1280502F0CB
S31508004DE00F022878083200B1521C10182379001DCA
S31508004DF080B2834201D2022070BD607908702268B1
S31508004E00A1685170A0682168000A88702168A068A6
S31508004E10000CC8702168A068000E08712168207B04
S31508004E2048712168E08988712168E089000AC8719B
S31508004E3004F11001227B206802F00F020830FEF709
S31508004E4060F9267B287806F00F06083628B121680F
S31508004E5094F82000B2B2761C8854B3B220682A7837
S31508004E60616A1844FEF74DF9297823686A6870184C
S31508004E7086B2401C9A5583B269682268090A00F00E
S31508004E8009F8090C00F006F8090ED154401C2071E7
S31508004E90002070BDD154401C6968226883B27047EF
S31508004EA010B504461022002104F1F100FEF741F97D
S31508004EB00021C4F814112046BDE81040F022FEF780
S31508004EC038B902460846102100F087B92DE9F8439B
S31508004ED0814684B0D9F8140100280F46144609F211
S31508004EE0011809F1F1053BD00646C6F11006A6429F
S31508004EF088BF2646B2B24044FEF703F9D9F8140132
S31508004F0030181028C9F8140133D3B44231D0002020
S31508004F1009EB000100F088F810280A70F8DB4A4609
S31508004F202946284600F0CEF9BF19A41B18E0002030
S31508004F30295C3A5C51402954401C1028F8DB1022A1
S31508004F4029466846FEF7DDF84A466946684600F08F
S31508004F50B9F9102269462846FEF7D3F81037103CEF
S31508004F60102CE4D8A2B239464046FEF7CAF8C9F86A
S31508004F70144105B0BDE8F083F8B588B004460D467F
S31508004F8000F058F82A466946684600F09BF99DF8ED
S31508004F90002013060DF1010104D500F069F882F02E
S31508004FA0870201E000F064F88DF80F2005F201127F
S31508004FB0D5F81431102B17D100F041F80020291824
S31508004FC000F032F80F280A70F9DD102205F1F10118
S31508004FD004A8FEF796F82A46214604A800F072F9B6
S31508004FE000F028F809B0F0BD9DF800301E0605D57A
S31508004FF0002300F02EF881F0870102E0002300F07C
S3150800500028F88DF80F108021D5F81431D1540026D0
S3150800501000E05654D5F81411491C1029C5F8141186
S31508005020F7D300F00CF8C9E7401C11F8F12F0B7CF8
S315080050305A407047102200216846FEF77AB80021C8
S31508005040535C1DF8016073405354491C0F29F7DD62
S315080050507047CF5C1DF80360FF0947EA46070DF85D
S3150800506003705B1C0F2BF4DB9DF80F10490070478B
S3150800507000228E5C1DF80230F60946EA43060DF852
S315080050800260521C0F2AF4DB9DF80F20520070476D
S315080050900A7802704B7843708A788270CB78C3702E
S315080050A00A7902714B7943718A798271CB79C37116
S315080050B00A7A02724B7A43728A7A8272CB7AC372FE
S315080050C00A7B02734B7B43738A7B8273C97BC173EA
S315080050D0704710B503780A785340037044784A78C5
S315080050E08378544044708A7853408370CA78C3786A
S315080050F05340C3700A790379534003714A79437957
S31508005100534043718A79837953408371CA79C37945
S315080051105340C3710A7A037A534003724A7A437A30
S31508005120534043728A7A837A53408372CA7AC37A1F
S315080051305340C3720A7B037B534003734A7B437B0A
S31508005140534043738A7B837B53408373C97BC37BFA
S315080051504B40C37310BD30B50C7813785C400470AF
S315080051604D7853785D4045708C7893785C408470B0
S31508005170D378CC785C40C47013790C795C400471A0
S3150800518053794C795C40447193798C795C4084718D
S31508005190D379CC795C40C471137A0C7A5C4004727A
S315080051A0537A4C7A5C404472937A8C7A5C40847267
S315080051B0D37ACC7A5C40C472137B0C7B5C40047354
S315080051C0537B4C7B5C404473937B8C7B5C40847341
S315080051D0CC7BD17B4C40C47330BD2DE9FC4A1029E9
S315080051E018BF18290B46174606D0202918D103E000
S315080051F010F8014B02F8014B0C46611EE4B2002C74
S31508005200F6D103F11C06B606360E3009411E87F89C
S31508005210F01001241946D24A8DF8003001964BE069
S31508005220002187F8F010FF204AE0192929DB102809
S3150800523027D1955D12F80BB012F80EE012F8099016
S315080052401FE0F81810F8045D90F801B090F802E035
S3150800525090F8039093FBF1F001FB103000282E46DE
S31508005260E3D112F80B5012F80EB012F809E012F852
S3150800527006902006C00F40F21B166540704380EA70
S3150800528044049DF80000181AC0B23E5C7540FD54EF
S31508005290FE183D186D788BEA050575703E183818A6
S315080052A0B5788EEA0506FD18AE70C67889EA060056
S315080052B0FE181B1DF070DBB201988342C1DB00208B
S315080052C0BDE8F68A2DE9F34F15468BB095F8F01030
S315080052D0002900F04081014602A8FFF73CFF4FF085
S315080052E001089F4CDFF87C9206950DF11C0A02AF67
S315080052F0EAE002A907A8FFF7CBFE9AF80F109AF87A
S3150800530005E09DF81C50605C9AF80A208DF80000AC
S3150800531009F5807019F8056010F80EB0A35C9DF8C1
S3150800532000C08BEA06065E408CEA06068DF8086021
S3150800533008F1010814F805C019F80E6010F802B053
S3150800534086EA0C068BEA06069DF800B08BEA060686
S315080053507E7014F80EE019F802208EEA0C067240E8
S31508005360465C7240BA70425D19F801109AF804C09A
S315080053708EEA020253404B409AF803109AF809E065
S31508005380FB70625C8DF800209AF80E2019F80C5014
S3150800539010F80E60A35C75409DF800605D4075408E
S315080053A03D7119F80E6014F80C5010F802B06E40F2
S315080053B08BEA06069DF800B08BEA06067E7114F89D
S315080053C00EE019F80220465C8EEA05055540754040
S315080053D0BD7110F80C2019F801109AF808C08EEA69
S315080053E0020253404B409AF807109AF80DE0FB71F9
S315080053F0625C8DF800209AF8022019F80C5010F813
S315080054000E60A35C75409DF800605D4075403D7276
S3150800541019F80E6014F80C5010F802B06E408BEABA
S3150800542006069DF800B08BEA06067E7214F80EE0B2
S3150800543019F80220465C8EEA050555407540BD728E
S3150800544010F80C2019F801109AF80CC08EEA02021E
S3150800545053404B409AF80B109AF801E0FB72625CD5
S315080054608DF800209AF8062019F80C5010F80E60EE
S31508005470A35C75409DF800605D4075403D7319F862
S315080054800E6014F80C5010F802B06E408BEA06064F
S315080054909DF800B08BEA06067E7314F80EE019F83C
S315080054A00220465C8EEA050555407540BD7310F826
S315080054B00C0019F801108EEA000043404B40FB73BC
S315080054C002A80199FFF705FE06984FEA086100EB66
S315080054D01152069801925FFA88F390F8F0108B4201
S315080054E0FFF407AF9DF80810625C39790C988DF8BF
S315080054F00820625C397A3A71625C397B3A72625C7E
