:020000040800F2
:1000000000000520DD4E010835F5000877F50008F1
:1000100079F500087BF500087DF500080000000078
:100020000000000000000000000000007FF5000854
:1000300081F500080000000083F5000885F5000840
:10004000854F0108894F01088D4F0108914F010824
:10005000954F0108994F0108A3F50008ADF5000878
:10006000B7F50008C1F50008CBF500089D4F010861
:10007000A14F0108A54F0108A94F0108AD4F010884
:10008000B14F0108B54F0108B94F0108BD4F010834
:10009000C14F0108C54F0108C94F0108D5F5000837
:1000A000CD4F0108D14F0108D54F0108D94F0108A4
:1000B000DD4F0108E14F0108E54F0108E94F010854
:1000C000ED4F0108F14F0108F54F0108F94F010804
:1000D000FD4F01080150010899F50008055001087D
:1000E000FBF500089BF50008095001080D500108B8
:1000F0001150010815500108195001081D50010840
:100100002150010825500108295001082D500108EF
:100110003150010835500108395001083D5001089F
:1001200041F60008415001084550010849500108B6
:100130004D5001085150010855500108595001080F
:100140005D5001088DF500086150010865500108F7
:10015000695001086D50010871500108755001087F
:10016000795001087D50010881500108855001082F
:10017000895001088D5001089150010800000000CD
:1001800095500108995001089D500108A15001089F
:10019000A55001082FF60008A9500108AD5001082C
:1001A000B1500108B5500108B9500108FEB503F07F
:1001B0006AF80500DFF81C6A3078022804D0DFF8FE
:1001C000180A406B804701E000F0A2FFDFF80C0A3C
:1001D0000078012837D1DFF8087ADFF8080A0168CB
:1001E000380003F03DF8380002F018FF307802289C
:1001F0000AD0DFF8F479DFF8F4090168380003F079
:100200002FF8380002F00AFF3078022804D0DFF817
:10021000E009007801282BD112208DF800006946F2
:10022000DFF8D009007803F07EF80400DFF8C86931
:10023000DFF8B80901686118300003F011F83000E8
:1002400002F0ECFE14E00020DFF8B0194870042042
:10025000DFF8AC194870DFF8AC190878002803D132
:10026000087850F001000870087850F0100008700D
:10027000DFF890090078C0F3C000C0B2002809D0B0
:10028000DFF87C090078002804D10120DFF8781914
:10029000087003E00020DFF870190870DFF86C09BF
:1002A0000178DFF86C29117000788DF80400DFF810
:1002B000640900788DF80500029501A9DFF834097A
:1002C000007803F041F8DFF850090560DFF82009F5
:1002D0000078002808D10020DFF820194870DFF8E6
:1002E000FC0C0178491C0170F7BD10B5DFF82C0932
:1002F000016851F040010160DFF8F408007800283F
:1003000001D000F03DFFDFF8FC08017851F0020158
:100310000170017851F010010170DFF8C44C012127
:10032000200002F09DFF200002F078FE10BD2DE9B4
:10033000FE4F90B005000E0000208DF81000002048
:100340008DF80C00002007900027FF208DF8120088
:1003500000208DF80F00002006905FF0000B0020B9
:10036000ADF828000020ADF816000020ADF814000C
:100370005FF000080024DFF8A8080990DFF8A4085F
:100380000C9000208DF80E0000208DF81100DFF891
:100390006C98002089F80400DFF88CA8BDF84400B0
:1003A000AAF80E009DF848008AF81000DFF87C08D3
:1003B00000788AF8110000208AF8030000208AF8EB
:1003C000020000208AF805000020CAF8080000207A
:1003D0008AF80C0000208AF80D0000208AF812002C
:1003E0000020CAF8140000208AF80000DFF8E807AF
:1003F000406B8047DFF8F00702F0C7FE9DF80C0065
:10040000285C8DF813009DF80C00401C8DF80C0042
:100410009DF81300C0B24009C0B2012809D00328DA
:1004200000F0C880052800F0C580072800F0108380
:100430002CE3DFF8E0070078012805D101208AF8D5
:100440000100FFF752FF34E3DFF8349CDFF894AB90
:1004500019F10103DAF80020711E89B2681C03F05B
:10046000CEF99DF8130089F8000006ABDAF80020F9
:10047000311F89B2484603F094F9300080B24844F5
:1004800010F8040C50EA0B0B300080B2484410F80E
:10049000030C5BEA002B300080B2484410F8020CD9
:1004A0005BEA004B300080B2484410F8010C5BEA74
:1004B000006B0698834578D1DFF868070090DFF875
:1004C0006037DFF8C00B028819F10101DAF800008B
:1004D00003F0B9F9DFF8B00B99F804100160016876
:1004E00099F8052051EA02210160016899F8062077
:1004F00051EA02410160DFF8940B99F8071001609E
:10050000016899F8082051EA02210160016899F810
:10051000092051EA02410160016899F80A2051EA74
:1005200002610160DFF868AB99F80B00C0F30210BC
:100530008AF8210099F80B0010F00F008AF82800C3
:1005400099F80C0010F00F00CAF81000DAF810004B
:10055000002802D10120CAF81000DAF810104FF478
:100560007A704143CAF81010DAF8100010F57A706A
:10057000CAF8140019F10D000E90300011388DF8F2
:100580003C000EA9DFF86C06007802F006FF0020A0
:10059000DFF86C1648700120DFF878160870DFF875
:1005A000680B40788AF8010003E00720DFF8501656
:1005B000487070E2DFF8D80A90F82D008DF822001C
:1005C0009AF904008DF8210009208DF82000DFF849
:1005D0003C0B0078012802D10A208DF8200008A9E0
:1005E000DFF81006007802F09EFE0B90B6F10D00C9
:1005F00000B2002801D5002002E0B6F10D0000B2E3
:100600000B99814205D201208AF80100FFF76DFEA7
:100610004FE29DF80C00295C9DF80C00401C020084
:10062000D2B2AA5C51EA0221401C0200D2B2AA5CFA
:1006300051EA0241401C0200D2B2AA5C51EA0261B6
:100640000791401C8DF80C000798DFF8401A0968E4
:10065000884220D0DFF8240B00680400002C10D062
:100660000798216888420AD101208DF80E00201DCC
:10067000099014F114000C90606A804601E0A46AAD
:10068000ECE79DF80E00002812D10B208AF801003B
:10069000FFF72BFE0DE200208DF80E00DFF880053D
:1006A0000990DFF880050C90DFF8340B0068804675
:1006B0009DF80C00285C8DF80D009DF80C00401C86
:1006C0000100C9B2695C401C0200D2B2AA5C51EAC6
:1006D0000221ADF82810401C8DF80C009DF80D008B
:1006E00010F00F0008300700300080B2284410F8E6
:1006F000040C50EA0B0B5846310089B2294411F81A
:10070000031C50EA0120310089B2294411F8021C6F
:1007100050EA01408346300080B2284410F8010CB2
:100720005BEA006B4046ADF81600BDF82810BDF836
:100730001600091AADF81410BDF81400B0F5004FFA
:1007400017DABDF8140018FA80F806A80290CDF860
:10075000048001200090079B099A311F89B228006C
:1007600002F020FF069883451FD101208DF811006B
:100770001BE0BDF9140008FA80F010F580300D90F0
:1007800006A802900D98019001200090079B099AFD
:10079000311F89B2280002F005FF0698834504D175
:1007A00001208DF811000D98804611208DF8200051
:1007B00008A9DFF84004007802F0B5FD0B90BDF801
:1007C00014000B99884207D30A208AF80100CAF85E
:1007D0001480FFF78AFD6CE19DF81100002800F0FD
:1007E000318100208AF801009DF80E008AF802008D
:1007F0009DF80D00C0F300108AF805000020CAF82B
:10080000080000208AF80C00CAF81480002089F83B
:1008100001000020DFF83C1A08600020DFF80C1C03
:1008200008709DF80E00012813D102208AF80000FC
:10083000606A40450AD1606A002807D008208AF81B
:100840000100CAF81480FFF750FD32E1C4F824809B
:1008500033E09DF81300C0B24009052812D10120F1
:10086000DFF8F419087001208AF80000DFF8700939
:10087000016841451DD1006800281AD001208DF87B
:10088000100016E00020DFF8D019087000208AF868
:100890000000DFF84C09016841450AD100680028D2
:1008A00007D008208AF80100CAF81480FFF71DFD60
:1008B000FFE0DFF82C09C0F8008099F8000001285B
:1008C0000BD19DF80D00C0F34010C0B2002808D035
:1008D0000020DFF88819087003E00020DFF87C1999
:1008E0000870310089B2091F3800C0B2091A012905
:1008F00069DB3800C0B2285C8DF812007F1C300024
:10090000001FC01B8DF80F009DF812008AF803002D
:100910009DF81200002825D19DF80D0010F00F0F52
:100920001CD1DFF85C070290CDF804800120009014
:10093000079B099A9DF80F1089B23800C0B228446D
:1009400002F014FF9DF848000300DBB29DF80F2071
:100950000021DFF82C0700F0BCFD44E001208DF8F9
:10096000100040E09DF80D0010F00F00002809D0A5
:100970009DF848000300DBB27A1ED2B2082128009D
:1009800000F0A7FDDFF8F8060290CDF80480012002
:100990000090079B0C9A9DF80F1089B23800C0B2E6
:1009A000284402F0E3FE9DF8100000281BD1DFF878
:1009B000D006CAF808009DF80F008AF80C00012044
:1009C0008AF80D000FE09DF80D0010F00F000028D0
:1009D00009D09DF848000300DBB23A00D2B20821EA
:1009E000280000F076FD9DF8100000281ED19DF82B
:1009F0000D00C0F34010C0B2002809D0012089F8D2
:100A0000040001208AF812007B4802F0BEFB0DE0D2
:100A1000002089F80400DFF8180A0078DFF8141ABB
:100A20000978884202D2744802F0AFFB7548017819
:100A300051F0020101709DF81010027861F38202FA
:100A4000027028E00C208AF80100FFF74EFC30E02D
:100A5000DFF82C96320092B29DF80C0005EB0001F5
:100A6000484602F06BFF03208AF8000000208AF855
:100A70000100CAF808909DF80C00301A8AF80C00A2
:100A80006048017851F00201017004E001208AF809
:100A90000100FFF72AFC5B48017851F0100101705A
:100AA000DFF83C950121484602F0DAFB484602F0A7
:100AB000B5FA13B0BDE8F08F80B54648007802283B
:100AC00003D04548406B804701E000F021FB022045
:100AD0004A49487002204A494870DFF85C090178A9
:100AE00051F01001017001BD80B53A48007802282C
:100AF00003D03948406B804701E000F009FB4B48C8
:100B00000078002818D13A480078012802D1052041
:100B10003A49487005203A4948703F48006802F059
:100B2000BAFB32490968884216D3DFF80C0901780C
:100B300051F0100101700FE02D480078012802D11A
:100B400006202E49487006202D494870DFF8E80835
:100B5000017851F01001017001BD10B51D4C2078D5
:100B6000022803D01C48406B804701E000F0D0FA17
:100B70002E480078002818D11D480078012802D19D
:100B800003201E49487003201D4948702248006810
:100B900002F081FB15490968884219D3DFF89808EB
:100BA000017851F01001017012E01148007801281D
:100BB00002D104201149487004201149487020785E
:100BC000022805D0DFF87008017851F0100101709B
:100BD00010BD00007C100320A04B0108CC010320B5
:100BE000B00E032020100320C40E03202410032085
:100BF000831003207B100320000F0320140F032019
:100C0000CC0F0320921003208D1003208B100320A3
:100C10008C100320811003200810032014100320DF
:100C2000740F0320840F0320440E0320911003202F
:100C30002DE9F84F0025DFF8A863300002F0A5FA8F
:100C4000DFF8F4773878C0F30010C0B2002800F065
:100C50006781DFF8E88798F8000040060BD5D8F8E0
:100C6000000030F04000C8F80000D8F8000040084C
:100C70004000C8F80000387810F0090F1DD0DFF8E8
:100C80001C0C4178022904D0DFF8141C4978022991
:100C900013D1D8F8001049084900C8F80010002105
:100CA000DFF8B8251170DFF88C1709784171002141
:100CB00001710021816001200500DFF8849799F817
:100CC0000000002870D12800C0B200286CD138780C
:100CD00010F0090F68D03878C0F3C000C0B2002807
:100CE0002DD0DFF8BC1B0878002828D1DFF8B42B02
:100CF00010788872487800280DD10020DFF8A81BF2
:100D000008600020B5490870D8F80000400840008D
:100D1000C8F8000048E01078DFF8901B0978884296
:100D200006D3D8F8000040084000C8F800003BE0B7
:100D3000387810F0EF00387000F056F934E0A74929
:100D40000878D34A92F82020904205D23878C0F330
:100D50004000C0B2002821D03878C0F34000C0B2B3
:100D6000002808D10020DFF8F4241070DFF8E40434
:100D70000268521C026000200870DFF8D00B007877
:100D8000002804D1DFF8200B0168491C0160D8F865
:100D9000000040084000C8F8000005E0387810F076
:100DA000EF00387000F020F93878C0F34000C0B28E
:100DB000002827D0DFF8E41A0879012807D0DFF8E7
:100DC00070060078DFF86C26127890421AD2002064
:100DD000DFF87C2B1070002089F80000DFF86C0B26
:100DE0000078002804D1DFF8C00A0268521C0260B3
:100DF000DFF8400600784871D8F80000400840004D
:100E0000C8F80000DFF8480B0178012940F088801D
:100E100098F80010C90600F1838000210170DFF806
:100E200014A69AF80000DFF808160978884254D210
:100E30009AF80000092850DA9AF80000401C8AF855
:100E400000009AF80000022190FBF1F201FB120071
:100E5000012815D120208DF80000DFF834B29BF86E
:100E60002C008DF802009BF801008DF80100694606
:100E7000DFF8940C007802F056FA04008BF8014079
:100E800000F068FD002804D1387810F0EF003870C9
:100E900046E0DFF8080A092141700021DFF8BC2391
:100EA0001170D8F8001049084900C8F80010002156
:100EB00089F80010002101719AF8001041717449FD
:100EC00049788170DFF8840A0078002828D1DFF89B
:100ED000D8090168491C016022E00121DFF8280CD3
:100EE000007802F03DFAD8F8000040084000C8F849
:100EF00000000020D9490870002089F80000DFF8C0
:100F00009C09002101719AF800104171DFF83C0A38
:100F10000078002804D1DFF890090168491C0160BD
:100F2000DFF818050178890703D5016831F002015F
:100F300001600068002825D1387810F001000028F1
:100F40000AD0DFF85809DFF8B01C0968096888473B
:100F5000387810F0FE0038703878C0F3C000C0B2A6
:100F600000280AD0DFF83809DFF88C1C0968896886
:100F70008847387810F0F7003870387810F0EF00B4
:100F8000387007E04FF47A71300002F069F93000F0
:100F900002F044F83878C0F34000C0B200281BD0FB
:100FA000DFF8680B0078022801D100F0B1F838783A
:100FB000C0F38000C0B2002806D1DFF8540BDFF880
:100FC000381C096849688847387810F0FB00387089
:100FD000387810F0FD003870BDE8F18F88100320DC
:100FE000880E0320EC0F0320E0B5DFF8100C02F0B0
:100FF000CCF8DFF84804016831F010010160DFF837
:1010000038040078C0F3C000C0B2002835D0DFF843
:1010100090080078002830D100F07CFDDFF88408CB
:101020000078401CADF806000DF10601DFF8D80A83
:10103000007802F066FA1649487000208DF8050025
:101040009DF8050010F01F008DF8050000208DF8B8
:1010500004009DF8040010F07F00DFF8A41B09785D
:1010600050EAC1108DF804000020009000230022F7
:1010700001A90DF1050000F0E3FD00F06BFC07BDD8
:10108000C00503206E100320F00F0320F40F03208F
:10109000B00C032038B5DFF86C0B02F076F8DFF8FF
:1010A000680B00210170DFF8644BDFF8641B0978DE
:1010B0002170DFF8605B95F92110E17095F82D1033
:1010C00021741249097861740021A1740078002804
:1010D00001D0012000E00020E074DFF8300A007841
:1010E000022803D1DFF8300B806B8047DFF82C2B10
:1010F0002100DFF8140A007802F095F9E968A07C75
:1011000000F05BF831BD0000E80C03207E100320E6
:1011100038B5DFF80C0B02F038F8DFF8084BDFF8D1
:10112000F00A00782070DFF8EC5A686A606095F881
:101130002D002074DFF8F00A007860740120E0745C
:10114000DFF8C8090078022802D00020A07401E06E
:101150000120A074DFF8C42A2100DFF8AC09007870
:1011600002F061F9012807D1E968A07C00F025F8B8
:10117000E07CDFF8941A087031BD0000F80F0320FE
:1011800080B5DFF8A80A02F000F8AD480078012821
:1011900008D10120DFF8B8170870A848016831F0BD
:1011A00004010160DFF8880A0078022804D1A2480F
:1011B000017851F01001017001BD38B504000D0037
:1011C0002000C0B2002805D12800DFF84C1AC96BF6
:1011D000884704E00020DFF8401AC96B884731BD1A
:1011E000001003202DE9FC4104000D00160000272B
:1011F0005FF00008DFF81C0A90F82C008DF8020060
:101200008DF8015009208DF80000DFF81C0A0078E5
:10121000012802D10A208DF800006946DFF8E808AD
:10122000007802F080F801000A003000C0B250FAE5
:1012300084F310009C4680B21FFA8CFC604506D3F4
:10124000180080B2B0F5807F01DA012000E00020B4
:10125000BDE8F681041003208410032086100320CB
:10126000F0B40300012471480578D5F18005180019
:10127000C0B2022811D0C0F0CB80042835D01DD3D5
:1012800006285AD042D3082800F08A8071D30A2851
:1012900000F0A880C0F09580BAE0DFF898090678E1
:1012A0002F00FFB2BE4208D2DFF88C690778F355F1
:1012B0000678761C067000200400ABE0DFF87409A5
:1012C00006782F00FFB27F1EBE420DDADFF8686994
:1012D0000778F35507787F1C07700778F155067873
:1012E000761C06700020040094E0DFF848090678B8
:1012F0002F00FFB2BE4208D2DFF83C690778F355F1
:101300000678761C06700020040083E0DFF82409CC
:1013100006782F00FFB27F1EBE420DDADFF8186993
:101320000778F35507787F1C07700778F155067822
:10133000761C0670002004006CE0DFF8F8080678E0
:101340002F00FFB2BF1EBE4212DADFF8EC6807784A
:10135000F35507787F1C07700778F15507787F1CD5
:1013600007700778F2550678761C06700020040096
:1013700050E0DFF8C00806782F00FFB27F1EBE42A3
:101380000DDADFF8B4680778F35507787F1C07702B
:101390000778F1550678761C06700020040039E0C5
:1013A000DFF8900806782F00FFB2BE4208D2DFF8BF
:1013B00088680778F3550678761C067000200400CC
:1013C00028E0DFF8700806782F00FFB2BE4208D28E
:1013D000DFF864680778F3550678761C06700020FD
:1013E000040017E0DFF84C0806782F00FFB2BE4279
:1013F0000DD2DFF844680778F35507787F1C077033
:101400000778F1550678761C06700020040001E08C
:10141000022009E02000C0B2002803D10120DFF83B
:101420007C6D30702000C0B2F0BC70478710032084
:10143000CD010320CE0103209210032014100320BD
:101440008310032070B4030000260025002B01D078
:10145000002A01D100203AE0002420000E00C0B292
:10146000F6B2B04231D22000C0B2185C022829D0B6
:1014700029D3042826D023D306281FD006D3082832
:1014800014D01DD30A2801D01CD31CE02000C0B208
:10149000185C2E00F6B29055641C6D1C2000C0B282
:1014A000185C2E00F6B290556D1C0CE02000C0B206
:1014B000185C2E00F6B290556D1C04E0A41C02E0EE
:1014C000641C00E0FFE7641CC7E72800C0B270BCE2
:1014D00070472DE9F0438FB005000C0016001F0087
:1014E0005FF0000820003100C0B2C9B2884280F02D
:1014F000D1812000441CC0B2285C022815D0C0F065
:10150000C881042800F086801DD3062800F0E28000
:10151000C0F09480082800F02D81C0F0F2800A28E5
:1015200000F08881C0F04581B3E1DD4800214170C1
:101530002100C9B2695C0172641C2100C9B2695CF6
:101540004172641CCEE700208DF80B0000208DF85E
:101550000A0000208DF8090000208DF80800200006
:10156000C0B22844401E0A90301BFF388DF82C0072
:10157000DFF88C0600788DF82E00DFF8989699F841
:101580002C008DF82D0099F801008DF82F0099F8A6
:1015900000008DF8300099F820008DF8310002A885
:1015A00001900DF1090000900DF10A030DF10B02FD
:1015B0000AA9DFF88806007801F055FF804640460A
:1015C000C0B210F0070007280BD19DF80B0089F876
:1015D00001009DF80A0089F800009DF8090089F8CB
:1015E00020005FF000099DF80800052190FBF1F054
:1015F0004946C9B2814208DA00224146C9B20320F5
:10160000FFF72EFE19F10109EDE79DF80800401ED5
:10161000041967E7DFF8880B2100C9B2695C017023
:10162000641C012190F900008140DFF8780B0180F3
:10163000002200210420FFF713FE53E75FF00709A3
:101640002000C0B2285CC0F302108DF80D0020000D
:10165000C0B2285C10F00F008DF80C00641C200054
:101660000100C9B2695C0491401C04990200D2B225
:10167000AA5C51EA02210491401C04990200D2B2F2
:10168000AA5C51EA024104910400641C049964209C
:101690004143049103A9DFF8A405007801F0FDFEA1
:1016A00080464046C0B210F0070007280BD1DFF893
:1016B00064059DF80C1080F82810049941629DF88B
:1016C0000D1080F8211000224146C9B20520FFF715
:1016D000C7FD07E74FF0FF09DFF8CC1A08680028BC
:1016E00007D008680068002803D0086800688047B1
:1016F00081463A00D2B24946C9B20620FFF7B0FD92
:10170000F0E65FF003092000C0B228568DF83800DB
:10171000641C07A80D902000C0B2285C0790641CD0
:1017200007982100C9B2695C50EA01200790641C47
:1017300007982100C9B2695C50EA01400790641C17
:101740000799642041430791002008902000C0B20F
:1017500028568DF82400641C0DA9DFF8E0040078F9
:1017600001F0A8FE804600224146C9B20720FFF7DB
:1017700077FDB7E62000C0B215F8009019F00F0908
:10178000641C4846C0B2002801D119F10109DFF8F4
:1017900084144A46D2B24FF47A7042430A6108690F
:1017A00010F57A704861002200210820FFF758FDEB
:1017B00098E62000C0B215F80090641C00208DF857
:1017C000000000208DF801004846C0B2800602D516
:1017D00001208DF801004846C0B2C00602D50120A4
:1017E0008DF8000019F00F008DF802006946DFF84F
:1017F0004C04007801F06BFE10F1010F19D0DFF8F6
:1018000014049DF8001080F82C109DF8011080F849
:101810002D10DFF898199DF80220895C00EE101A4F
:10182000B8EE400A80ED0C0A002200210920FFF7E3
:1018300017FD57E65FF003092000C0B2285C8DF861
:101840001400641C2000C0B2285C0690641C06983A
:101850002100C9B2695C50EA01200690641C069818
:101860002100C9B2695C50EA01400690641C0699E7
:1018700064204143069105A9DFF8C003007801F018
:1018800033FE804600224146C9B20A20FFF7E8FC39
:1018900028E6FFE70FB0BDE8F0830000140F032037
:1018A000CC0F03208F100320FC0F03209010032087
:1018B0002DE9FE4304000D0016001F005FF0030831
:1018C00000208DF804009DF8040010F0F0008DF861
:1018D00004009DF8040010F0EF008DF804009DF85E
:1018E000040010F0DF008DF804009DF8040010F0F3
:1018F000BF008DF804009DF8040010F07F00C0497F
:10190000097850EAC1108DF80400380080B20090C8
:1019100033002A00D2B201A9200000F091F98146DB
:101920004846C0B2002802D04846C0B20CE0DFF8FA
:10193000640B0021417100210171DFF8641C09680A
:10194000C16000F007F8C0B2BDE8FE83801003203C
:101950008E1003202DE9F04385B000200190DFF8C0
:1019600040080178FF2901D109209BE00078002878
:1019700003D10020DFF838180860DFF83808007855
:1019800000F093F8DFF8285828680290A14C60789E
:101990008DF81000DFF8200800788DF81200DFF8CD
:1019A000047C38788DF81100DFF810080068039087
:1019B000DFF85481964E009501AB320002A998F8E9
:1019C000000001F0B7FD002807D1DFF8CC0A40780D
:1019D000607060788DF81000EAE794F92100030048
:1019E0005BB294F9012094F82D1098F8000001F0F2
:1019F000C3FDDFF81892CDF800906368227A0100E9
:101A000049B298F8000001F0F7FC864D0095636834
:101A1000227A94F92800010049B298F8000001F0F8
:101A2000EBFC387800280DD1A169D9F80C004118D9
:101A3000DFF8680A0160E169E8684118DFF8600AC8
:101A4000016019E07B48027894F90110DFF8540A2C
:101A50000078FFF7C7FB002801D1082022E02169A8
:101A6000D9F80C004118DFF8340A01606169E868B0
:101A70004118DFF82C0A01600198002803D1307862
:101A800000F0E5FA0EE0DFF8540D016851F01001A6
:101A900001605A4C0199200001F0E2FB200001F0A6
:101AA000BDFA002005B0BDE8F0833EB50400DFF8C4
:101AB000F40A00788DF80000DFF8FC0600788DF855
:101AC00002008DF80340DFF8E00A006801F0E3FB54
:101AD0000190DFF8D85A28680290DFF8D40A00781D
:101AE0008DF8010069460848007801F017FDDFF81D
:101AF000C0160A682B68DFF8AC06008800FB0322DA
:101B00002868121A0A6037BD7B1003207C1003205E
:101B1000440E032030B40020DFF8881A087000203B
:101B2000DFF87C1A08600020DFF8881A08600020BF
:101B3000DFF8841A08600020DFF8801A087001209E
:101B4000DFF87C1A08700120DFF8781A087000208E
:101B5000DFF8741A08700020DFF8441608700120BE
:101B6000DFF8401608800020324908700020DFF8B6
:101B70005C1A08700120DFF8581A08702548DFF851
:101B800018190A7802704A78427091F8212080F87A
:101B9000212011F12402D2E9004510F12402C2E90A
:101BA000004591F82C2080F82C2091F82D2080F809
:101BB0002D200A6B0263496B41630020DFF8141A81
:101BC00008700020DFF8101A08700020DFF8CC152C
:101BD0000870DFF8080A0068002803D0002141627D
:101BE000806AF9E70A4900220A700978DFF8C425FB
:101BF000117030BC70470000181003209C0E0320A9
:101C000082100320B00E032091100320D80E032071
:101C10008B100320B00C0320A04B0108480E0320BA
:101C2000C40E0320EC0E03207E100320000F0320BF
:101C30007C10032086100320740903207B100320EE
:101C40002DE9FD4F8AB00D000024002004900C986F
:101C500005909DF82C008DF80C00DFF884790020A9
:101C60003880DFF87019002008700C98002802D125
:101C70000020ADF85800DFF82C88BDF8580088F82F
:101C80000000DFF860990A9800782200D2B209F8C3
:101C90000200641C0A980078C0B24009C0B2002853
:101CA00007D0022864D0042860D0072800F0B38150
:101CB000C7E12000C0B238800822DFF82C09016893
:101CC0003888484401F045FE3888083038800822BA
:101CD000DFF8180901683888484401F03AFE38886E
:101CE00008303880DFF8F88ADFF8F80AC0698047E2
:101CF000A8F80000B8F80000398809F80100388811
:101D0000401C3880B8F8000080B2000A398809F811
:101D100001003888401C388004ABDFF8CC0A026828
:101D2000397801F0FF01484601F03BFD04983988FD
:101D300009F801003888401C38800498000A398866
:101D400009F801003888401C38800498000C398854
:101D500009F801003888401C38800498000E398842
:101D600009F801003888401C38806CE101200870B7
:101D7000DFF830080078002801D1072064E1012055
:101D80008DF818002878C0B2C0098DF81900DFF866
:101D9000280801680791DFF8543A59788DF8201027
:101DA00019788DF8211093F82C108DF822100090DE
:101DB0005A1C06A9DFF8380A007801F007FB2978D9
:101DC00060F386112970DFF810080178012905D128
:101DD00000210170287850F020002870DFF814AA44
:101DE000DAF800002100C9B209F80100641CDAF831
:101DF0000000000A2100C9B209F80100641CDAF8E9
:101E00000000000C2100C9B209F80100641CDAF8D6
:101E10000000000E2100C9B209F80100641C2878F6
:101E20002100C9B209F80100641CDFF874070068DA
:101E30002100C9B209F80100641CDFF864070068DA
:101E4000000A2100C9B209F80100641CDFF8A8B932
:101E5000DFF87807027892B2DFF8A019DFF8A0095E
:101E60009BF80030184401F069FD9BF80010DFF882
:101E70005C07007841188BF800100598002838D0CE
:101E800098F80000002834D0C4480078012842D1D6
:101E90009BF80000102821DA297811F0F0029BF855
:101EA0000000411811F00F0111432970287889F8BA
:101EB00005000020060030009BF8001080B289B2B7
:101EC000884228D2DFF83809310089B2405C21000D
:101ED000C9B209F80100641C761CECE79BF800000D
:101EE00088F80000DFF81809059000208DF80C0034
:101EF00011E09BF8000000280DD0A84800780128C8
:101F000009D19BF8000088F80000DFF8F40805907C
:101F100000208DF80C000020A0490870DFF8DC28B4
:101F20009BF80010DFF8D808FFF78CFADFF89C1652
:101F30000870DFF898060078002802D00120974941
:101F40000870059800283AD098F80000002836D08C
:101F50009DF80C002100C9B209F80100641C9DF82D
:101F60000C00002817D100208BF800002000C0B220
:101F700048440290DFF82806006801900020009095
:101F8000DAF80030DFF8782C98F8001089B205985C
:101F900001F062FB13E02000C0B248440290DFF879
:101FA00000060068019000200090DAF80030DFF8A9
:101FB000542898F8001089B2059801F04DFB98F864
:101FC000000050FA84F0388004A80290DFF8D005B1
:101FD0000068019000200090DAF80030DFF8202C33
:101FE0003988484601F0DEFA0498398809F801007A
:101FF0000498000A3988494448700498000C3988CC
:10200000494488700498000E39884944C87038885B
:10201000001D388017E00C98002811D098F80000B7
:1020200000280DD098F8002092B20C992000C0B280
:10203000484401F083FC98F8000050FA84F038809E
:1020400001E0022000E000200DB0BDE8F08FF0B507
:1020500085B0040000208DF800008DF80440DFF802
:102060008C5768788DF8050028788DF80600286B65
:102070000290686B0390DFF868653088ADF8100057
:10208000DFF828753B006A4601A9DFF8640700788D
:1020900001F0D8F9DFF8700701214170DFF8F4137F
:1020A00001224A706A788A709DF80020CA703A68E6
:1020B0008A6039684160DFF854574FF47A7128001C
:1020C00001F0CEF8280000F0A9FFDFF8D80400786E
:1020D000002804D1DFF838070178491C01703188E5
:1020E000C9B2DFF80005DFF8FC26126B9047DFF875
:1020F000EC06016851F001010160002005B0F0BD5F
:1021000038B584B00400DFF80C0700788DF80000C3
:10211000DFF8D80641788DF8011001788DF80210AB
:10212000016B0191406B0290ADF80C406946DFF8FD
:10213000C006007801F014FADFF8D0564FF47A7137
:10214000280001F08DF8280000F068FFDFF8B40ADD
:10215000016851F001010160002005B030BDF8B503
:1021600004000D001600220092B2310049B228008E
:10217000DFF870365B6C9847DFF890764FF47A7131
:10218000380001F06DF8380000F048FFDFF8740AFD
:10219000016851F0010101600020F2BD85100320AB
:1021A00089100320721003201C100320BC4E01086C
:1021B0000C1003208C1003208A1003200810032029
:1021C0002DE9F24F82B004001500002C01D103204C
:1021D0005DE12068002805D06068002802D0A06872
:1021E000002801D1032052E12800C0B201F092F88A
:1021F000002801D10A204AE1DFF80C0A04600298A5
:10220000DFF8081A0860DFF8E86535700020DFF8AD
:10221000001A08700020DFF8FC1908700020DFF8B1
:10222000BC1508600020DFF8E81508700120DFF811
:10223000E81908700020DFF8E41908700020DFF8C2
:10224000E01908600020DFF8DC1908600B208DF829
:1022500000006946307801F066F801900198002886
:1022600004D00120DFF8C019087003E00020DFF877
:10227000B819087008208DF800006946307801F020
:1022800052F80190DFF810B201988BF80000052099
:102290008DF800006946307801F045F8019001980A
:1022A0008BF801000C208DF800006946307801F0B1
:1022B0003AF801900198CBF80C000D208DF8000041
:1022C0006946307801F02FF801900198CBF81000A2
:1022D0000E208DF800006946307801F024F8019056
:1022E0000198CBF814000F208DF800006946307873
:1022F00001F019F801900198CBF8180010208DF822
:1023000000006946307801F00EF801900198CBF892
:102310001C0013208DF800006946307801F003F8A6
:10232000019001988BF8210014208DF80000694677
:10233000307800F0F8FF0700CBF8247015208DF8F6
:1023400000006946307800F0EEFF80468BF8288068
:102350001A208DF800006946307800F0E4FF8146CD
:102360008BF82C901B208DF800006946307800F027
:10237000DAFF82468BF82DA01C208DF800006946FC
:10238000307800F0D0FF01900198CBF830001D208C
:102390008DF800006946307800F0C5FF0190019883
:1023A000CBF834000021307800F0DAFF01208BF800
:1023B00020000A20CBF8040006208BF80800DFF884
:1023C0002C04DBF8041041609BF808100172DBF864
:1023D0000C10C160DBF810100161DBF814104161D2
:1023E000DBF818108161DBF81C10C1619BF820102C
:1023F00080F82010FFF78EFBDFF81064DFF82C1850
:10240000300000F001FE4FF47A71300000F028FF38
:10241000DFF89419DFF8940900F0F6FDDFF8901961
:10242000DFF8900900F0F0FDDFF88C19DFF88C0977
:1024300000F0EAFDDFF88819DFF8880900F0E4FD14
:1024400000F021FF58490860DFF87C09DFF87C19AB
:102450000160DFF87C198160DFF878190161DFF82D
:1024600078194160DFF87419C160DFF87863B168EA
:102470008847F069804701F04CFADFF8100B012122
:1024800001700078316E8847706B80470020BDE88E
:10249000FE8F0000140F0320E80C032020100320FF
:1024A000241003207F1003202DE9F04786B005009B
:1024B0000C00DFF82C0990F901108DF8041090F948
:1024C00000008DF80500414FDFF82C8398F800607C
:1024D00038788619002C01D103205DE000208DF8AA
:1024E0000C00DFF8000900788DF80D003248016813
:1024F0000491DFF8F8A29AF801108DF814109AF8F8
:1025000000108DF815109AF82C108DF81610DFF8C1
:10251000E09200900DF1050301AA03A999F80000CB
:1025200000F054FF9AF82C008DF80A009DF8040082
:102530008DF8090009208DF80800DFF8E006007822
:10254000012802D10A208DF8080002A999F800009C
:1025500000F0E9FE814684F8019060783100C9B24C
:10256000884203D36078801B207008E06078207078
:1025700000200600002088F800000020387032009B
:10258000D2B29DF904102800C0B2FEF72BFE00283D
:1025900001D1082000E0002006B0BDE8F08700006F
:1025A000FC0F0320811003201010032028100320AB
:1025B0008D10032000100320041003208810032036
:1025C000CD010320CE0103208E10032087100320AD
:1025D000CC0103208310032084100320F80F032074
:1025E00070100320C0040320E80F0320E40F032031
:1025F0007CB504000026002C01D10320ECE02078FB
:1026000000283CD0022844D03ED304284BD045D3E8
:10261000062850D04BD3082855D04FD30A2862D073
:1026200056D30C2878D065D30E2800F0808068D36C
:10263000102800F08780C0F08080122800F08C8085
:10264000C0F08580142800F09180C0F08A801628A0
:1026500000F09B80C0F08F80182800F09B80C0F0B5
:102660008F801A2800F0A080C0F099801C2800F00C
:10267000A580C0F09E801D2800F0A580A8E0DFF8AE
:10268000940500782071A5E0DFF804090078207136
:10269000A0E0DFF85007007820719BE0DFF8F40835
:1026A0000068606096E053480068606092E0DFF880
:1026B000500560608EE0534860608BE0DFF8CC0826
:1026C0000078207186E0DFF854050078207181E001
:1026D00019208DF8000069464548007800F023FE77
:1026E0000500656076E0DFF8B008D0E90023C4E9B2
:1026F00001236FE0DFF8A408D0E90023C4E9012337
:1027000068E017208DF8000069463948007800F02D
:102710000AFE050065605DE016208DF80000694640
:102720003348007800F0FFFD0500656052E0DFF8F7
:10273000700890F8200020714CE0DFF86408C06851
:10274000606047E0DFF858080069606042E0DFF849
:102750005008406960603DE0DFF8440880696060CF
:1027600038E0DFF83C08C069606033E0DFF87006ED
:10277000407820712EE0DFF828084078207129E0A9
:10278000DFF85C060078207124E0DFF81408007898
:1027900020711FE0DFF80C08006860601AE0DFF8C5
:1027A00008080068606015E0DFF8000800686060F5
:1027B00010E0DFF8EC07406860600BE0DFF8E0074E
:1027C000007A207106E0DFF8D807406B606001E016
:1027D000022006003000C0B276BD000014100320B5
:1027E0006E100320A04B0108EC0F0320B00C032057
:1027F0007B100320F40F032086100320F40903202C
:1028000074090320840F0320CC0F0320880E0320BB
:102810008F1003208B1003202DE9FF4104000025B9
:10282000002C01D10320E7E1DFF8D8030078C007CE
:1028300001D50120E0E1207800284BD0012861D0AB
:10284000022864D0032867D004286AD005286DD0F8
:10285000062877D0072800F08280082800F08980B9
:102860000A2800F08B800B2800F0E6800C2800F08E
:1028700010810D2800F0FD800E2800F01A810F282D
:1028800000F02681102800F02881112800F02A810C
:10289000122800F02C81132800F02E81142800F05B
:1028A0003081152800F04381162800F06C8117282C
:1028B00000F05381182800F07C81192800F07E81F7
:1028C0001B2800F080811C2800F085811D2800F065
:1028D0008A818DE1DFF83C032179017000780028BE
:1028E00003D0022807D005D30BE0DFF8C406406B05
:1028F000804706E005E00020DFF8B8160870FEF714
:1029000007FC77E12079DFF88816087072E12079FA
:10291000DFF8D01408706DE16068DFF878160860A1
:1029200068E16068DFF89016086063E1606800287D
:1029300005D010226168B24801F000F801E00320E0
:10294000050057E16068002806D010226168DFF8B2
:102950006C0600F0F3FF01E0032005004AE1DFF818
:102960002C06217901700078DFF84416096E88473B
:1029700040E12079DFF8A41208703BE194F90800E7
:102980008DF80400DFF8186696F82D008DF8050024
:10299000DFF82C76062201A9387800F0EEFC012839
:1029A00047D1D4E9010116F12402C2E90001994896
:1029B000007802283FD1DFF8D805007801283AD105
:1029C000DFF80086CDF800807368327A96F9280027
:1029D000010049B2387800F00FFDDFF8EC0500780F
:1029E00088F80000706AC8F8040096F82D0088F88E
:1029F00010008A48007888F81100012088F8130038
:102A0000012088F81200DFF8C4254146387800F02C
:102A10000AFD01280AD1F16898F81200FEF7CDFBF3
:102A200098F81300DFF8A815087004E003200500EB
:102A300001E003200500DDE094F908008DF80400B2
:102A4000DFF85C0590F82D008DF80500062201A93D
:102A5000DFF86C05007800F090FC012806D1D4E97D
:102A60000101DFF83825C2E9000101E0032005007B
:102A7000C0E06068029001208DF80C0002A9DFF828
:102A80004005007800F095FC002801D103200500E6
:102A9000B0E06068029000208DF80C0002A9DFF819
:102AA0002005007800F085FC002801D103200500F6
:102AB000A0E02079002808D02079102805DA2079B4
:102AC000DFF8DC1481F8200001E00320050091E02C
:102AD0006068DFF8CC14C8608CE06068DFF8C01470
:102AE000086187E06068DFF8B814486182E06068D8
:102AF000DFF8AC1488617DE06068DFF8A414C86179
:102B000078E094F904008DF80400052201A9DFF8AB
:102B1000B004007800F031FC012805D19DF80400D4
:102B2000DFF8BC12487001E00320050062E094F970
:102B300004008DF80400042201A9DFF88404007861
:102B400000F01BFC012805D19DF80400DFF85014AB
:102B5000487001E0032005004CE094F904008DF872
:102B60000400082201A9DFF85804007800F005FCF1
:102B7000012805D19DF80400DFF86412087001E017
:102B80000320050036E094F904008DF804000722C4
:102B900001A9DFF82C04007800F0EFFB012805D133
:102BA0009DF80400DFF8F813087001E00320050029
:102BB00020E06068DFF8EC1308601BE06068DFF875
:102BC000E813086016E08648616841604068DFF8F5
:102BD000D01348600EE0824821790172007ADFF854
:102BE000C013087206E0DFF8B8036168416301E0D2
:102BF000022005002800C0B204B0BDE8F08100004A
:102C0000740F032014100320181003201C1003203D
:102C1000921003207C100320901003207E100320CC
:102C2000081003200C1003208A100320310C000828
:102C30002DE9FF4104000226002C01D10320AFE062
:102C4000DFF8908398F80000C00701D50120A7E0C5
:102C5000DFF884730C220021380000F089FE012087
:102C600078702078002805D0022871D062D303281C
:102C70007AD087E098F80000C00601D501208FE0E7
:102C80006068002808D0A068002805D0E068002807
:102C900002D0207C002801D1032081E0207C8DF827
:102CA0000800DFF81C831E2202A998F8000000F03B
:102CB00064FB002809D11F208DF8040001A998F8B1
:102CC000000000F030FB05002574C448017851F085
:102CD00008010170207838706068C1490860A068F8
:102CE000C0490860E068C0490860207CBF4908709E
:102CF000BF4F0020387000208DF800009DF80000C4
:102D000010F01F008DF80000FEF704FF3878401C1B
:102D1000ADF802000DF1020198F8000000F0F1FB9F
:102D20009F4948700023002200216846FEF7C0FD3D
:102D3000060027E0A948017851F0080101702078C9
:102D40003870002200210220FEF78AFA060019E0FE
:102D500020783870A148017851F008010170A088EE
:102D6000FFF7CEF906000DE0207838709B48017817
:102D700051F008010170227BA168A088FFF7EFF9EC
:102D80000600FFE73000C0B2002807D000208949C4
:102D900008709248017811F0F70101703000C0B25C
:102DA00004B0BDE8F0810000E90F00089C0E03208C
:102DB00095100008B00E032011110008C40E032066
:102DC00081110008000F0320100E0320AD01000840
:102DD0002F030008E90A0008B90A00085B0B000885
:102DE000E80C0320821003202DE9F04F85B0040089
:102DF000022500260027002C01D10320B2E07548EF
:102E0000007810F0110F01D00120ABE000208DF808
:102E10000000DFF8E08114220021404600F0A8FD08
:102E2000012088F8010001207349087020780028EB
:102E300004D001281AD0032830D043E00120070035
:102E400001206E4908709DF8000010F01F0050F03E
:102E500040008DF8000020790600A0680190A0894C
:102E6000ADF8020094F90E0083462BE00120070024
:102E7000E07B624908709DF8000010F01F0050F0E0
:102E800080008DF8000020790600A0680190A089DC
:102E9000ADF8020094F90E00834613E0012007000C
:102EA0000120564908709DF8000050F0E0008DF8B0
:102EB0000000606801902089ADF8020094F90A00D2
:102EC0008346FFE701208DF80C00DFF8D49099F8D5
:102ED0002C008DF80E00DFF8E8A003A99AF8000096
:102EE00000F021FA04900498594649B2884201D36F
:102EF000DDF810B03800C0B2002831D0404800786A
:102F0000002814D18DF808B099F82C008DF80A002B
:102F1000042202A99AF8000000F02FFA012804D137
:102F20009DF8080089F8010001E003201AE0BDF8CF
:102F30000230019A3100C9B26846FEF7B9FC0500BB
:102F40002800C0B2002808D1207888F80000234863
:102F5000017851F00101017002E00020154908706C
:102F60002800C0B205B0BDE8F08F1CB504008DF894
:102F700000400B2269461248007800F0FEF9012853
:102F800001D12048047013BD000000007D10032013
:102F900081100320F00F0320D40C03200C0D03201C
:102FA000B00C0320FC0F032000100320F80F0320B7
:102FB000A04B010883100320F40F0320840F03208B
:102FC0007B100320EC0E03208B100320480E0320FF
:102FD0009110032014100320CC0F03209210032023
:102FE000E40F0320E80F0320EC0F032090100320D0
:102FF0008F100320140F0320CE010320CD010320E6
:10300000821003208A100320002202600022426006
:1030100000220272C160002202617047F8B504000C
:103020000025EFF3108672B6002C04D0200000F0CB
:1030300007F9012802D186F3108821E0606820603A
:1030400000202072854F3868002805D100F07BFDF4
:10305000200000F02DF811E000F01BFD05002068B5
:1030600028182060206839680968884203D2200047
:1030700000F01EF802E0200000F003F886F310884C
:10308000F1BD10B475490A6809680B691169002916
:1030900009D019680468A14202D21A001B69F5E739
:1030A0001061036102E010610021016110BC7047F2
:1030B00038B5050069480468002C01D00021217250
:1030C0002C610560006800F0F3F831BD2DE9F8438C
:1030D00000F044FD060000F036FD0700B7EB0608DF
:1030E000DFF87891D9F80000002813D0D9F8000053
:1030F0000400206900280DD020690500286880455B
:1031000004D22868B0EB0800286001E000202860A5
:103110002469EEE7D9F8000000280DD0D9F80000A6
:103120000400D9F800000069C9F80000E068002830
:1031300000D1FEE7E0688047D9F80000002815D0EC
:1031400000F0A7FCD9F80010096881420ED2D9F826
:1031500000000400D9F800000069C9F80000E06828
:10316000002800D1FEE7E0688047E5E7D9F80000D5
:10317000002808D0D9F80000007A002803D1D9F837
:10318000000000F095F8BDE8F1832DE9F04105005D
:10319000EFF3108672B6DFF8C480D8F80070D8F864
:1031A0000040D8F80000002801D0002D02D186F39D
:1031B000108843E0D8F80000A8422CD1D8F80000CD
:1031C000007A012818D1D8F80000006900280DD035
:1031D0000020D8F800100872D8F800000069C8F87C
:1031E0000000D8F8000000F063F825E000F065FC6E
:1031F0000020C8F800001FE0D8F80000006900288F
:1032000005D0D8F800000069C8F8000014E00020DC
:10321000C8F8000010E0002C0ED0AC4209D12069A3
:10322000002802D024693C6102E0002004003C61D7
:1032300002E027002469EEE786F31088BDE8F081FC
:10324000020006480168002905D0914201D1012001
:1032500002E00969F7E700207047000060100320D2
:10326000F8B504000D000026280000F0E0FB070080
:103270002000FFF78AFF00F0D8FB874200D207004A
:1032800027606760F1BD10B500F00FFC040020005E
:1032900000F0D7FB10BD70B5040000F006FC05007F
:1032A000200000F0C4FB0600A81B00F0CAFB70BDA4
:1032B00038B5040000F0B9FB05000120207200F0D1
:1032C000E8FB21682818814203D200F0E2FB2818AD
:1032D0002060206800F0BDFB31BD30B4002513E054
:1032E00050F8042BD30744BFA9F101039A18091F12
:1032F000042942F8045BFAD213468C0744BF1580B8
:103300009B1CC90748BF1D7050F8041B0029E7D15A
:1033100030BC704701000800C0B2052801D101206F
:1033200000E00020704770B504000D0005480668F5
:103330002000C0B2052803D1280000F03FFE00E0C5
:10334000300070BD7C4F010838B504000D0020002E
:10335000C0B2052803D1280000F0DFFEFFE731BD31
:1033600038B504000D002000C0B2052804D12800A3
:10337000C0B200F0E5FEFFE731BD70B504000D00FE
:1033800016002000C0B2052805D13100C9B22800BE
:1033900000F00AFF00E0002070BD38B504000D0009
:1033A0002000C0B2052803D1280000F050FFFFE73D
:1033B00031BD38B504000D002000C0B2052803D18E
:1033C000280000F091FF00E0002032BD2DE9F0411F
:1033D00004000D0016001F00DDF818802000C0B2A8
:1033E000052806D143463A003100280000F096FF38
:1033F00000E00020BDE8F0812DE9F04104000D005F
:1034000016001F00DDF818802000C0B2052808D182
:1034100043463A003100C9B2280040B200F0D2FF62
:10342000FFE7BDE8F08170B504000D001600200034
:10343000C0B2052804D13100280001F015F800E0E1
:10344000002070BDF8B504000D0016001F0020001C
:10345000C0B2052805D13A003100280001F0A3F8D8
:1034600000E00020F2BD2DE9F84304000D00160035
:103470001F00DDF82080DDF824902000C0B2052870
:1034800008D1CDF8009043463A003100280001F001
:1034900027F900E00020BDE8F28338B504000D00F4
:1034A0002000C0B2052803D1280001F0EAF900E0AD
:1034B000002032BD38B504000D002000C0B2052840
:1034C00003D1280001F004FA00E0002032BD38B535
:1034D00004000D002000C0B2052803D1280001F02F
:1034E00029FA00E0002032BD38B504000D002000AC
:1034F000C0B2052803D1280001F020FA00E0002026
:1035000032BD38B504000D002000C0B2052803D13B
:10351000280001F043FA00E0002032BD38B5040075
:103520000D002000C0B2052803D1280001F06FFA79
:10353000FFE731BD2DE9F04104000D0016001F002A
:10354000DDF818802000C0B2052806D143463A00B5
:103550003100280001F084FA00E00020BDE8F0818D
:1035600038B504000D002000C0B2052803D12800A2
:1035700001F0C0FBFFE731BDF8B504000D001600F7
:103580001F002000C0B2052808D13A0052B2310015
:1035900049B22800C0B201F0EFFB01E03000C0B238
:1035A000F2BD00002DE9F14F0D0016001F000A9C2E
:1035B000DDF82C80DDF83090DFF820B38BF8054083
:1035C0008BF806703800000A8BF807003800000CF2
:1035D0008BF808003800000E8BF809008BF80A8081
:1035E0004046000A8BF80B004046000C8BF80C009C
:1035F0004046000E8BF80D008BF80F50DFF8E0A26C
:10360000504601F0C5FB3100504601F0D2FB1022BC
:103610005946504601F0D6FB2A0092B202F0FF0252
:103620000099504601F0CEFBDFF8B8B2514658463B
:1036300001F03EFC9BF803009BF80210090451EADC
:1036400000619BF8010051EA00219BF80000014352
:10365000C9F80010BDE8F18F2DE9FD4F0C000E9D5B
:1036600000275FF0010ADFF88082F0220021404647
:1036700000F07EF942461021019801F0A8FEDFF823
:103680006C929DF8300089F80500029889F80600D0
:103690000298000A89F807000298000C89F80800CF
:1036A0000298000E89F809000D9889F80A000D9813
:1036B000000A89F80B000D98000C89F80C000D9891
:1036C000000E89F80D00200080B2102825DB89F853
:1036D0000FA01AF1010ADFF818B2424659464846CF
:1036E00001F044FF00200600300080B2102811DAFB
:1036F0000098310089B251FA87F1415C300080B204
:103700001BF800004140300080B250FA87F0295485
:10371000761CE9E7103C1037D5E7200080B200287E
:1037200022D089F80FA0DFF8C8B142465946484672
:1037300001F01CFF002006003000210080B289B299
:10374000884211D20098310089B251FA87F1415C68
:10375000300080B21BF800004140300080B250FAC7
:1037600087F02954761CE7E7BDE8F78F2DE9FF477E
:1037700005000E00170098460C9CDDF83490DDF82B
:1037800038A0CDF808A0CDF804902000C0B2009079
:1037900043463A00310089B22800FFF75DFFBDE8DB
:1037A000FF872DE9F84304000D0016001F00DFF825
:1037B0003091484601F0ECFA3100484601F0F9FA40
:1037C0002A0092B202F0FF022100484601F0FAFA04
:1037D000DFF810814946404601F06AFB98F8030083
:1037E00098F80210090451EA006198F8010051EAC2
:1037F000002198F8000001433960BDE8F1832DE90C
:10380000F04104000D0016001F00DFF8DC80F022FC
:103810000021404600F0ACF842461021300001F093
:10382000D6FD42463900200001F0A0FE280080B2FB
:10383000102806DB424617F1100114F1100001F0C8
:1038400095FEBDE8F0812DE9F44384B004000D003D
:103850001E000C9F0DF11008DFF88C90F022002163
:10386000484600F085F84A461021200001F0AFFDDF
:1038700010220021684600F07BF801208DF800003E
:10388000062229000DF1010000F058F802224146FD
:103890000DF1070000F052F84A463100684601F089
:1038A00065FE10220021684600F062F802208DF8C3
:1038B0000000062229000DF1010000F03FF802226D
:1038C00041460DF1070000F039F84A4639006846D4
:1038D00001F04CFE05B0BDE8F0830000E0000320DD
:1038E000A8030320940F0320C0070320F000032047
:1038F000A40F0320084A1068084B43F2390103FB68
:10390000001010607FF00041B0FBF1F201FB1200EB
:103910007047014908607047A80103206D4EC641F9
:1039200038B504000D00FFF7E5FF2D1B6D1C90FB63
:10393000F5F105FB11056419200032BD13005A1E74
:103940009BB2002B04D00B780370491C401CF5E798
:10395000704713009BB21844431E1000421E80B2F1
:10396000002804D008781870491C5B1EF5E77047E2
:1039700013005A1E9BB2002B02D00170401CF7E7C7
:103980007047000010B5DFF80C442078002807D1FC
:1039900000F007F800F0E6F800F0D5F801202070FC
:1039A00010BD10B586B0DFF8F043DFF8F0032060FB
:1039B000002060607920A06041F6FF70E060002088
:1039C00020610020A0610020E061200001F002FEE3
:1039D00000208DF8030001208DF8010001208DF8F2
:1039E000020001208DF8000000226946200001F04D
:1039F00029FF00208DF8040000208DF8050000202C
:103A00008DF8060000208DF80700002002900020AD
:103A1000059000200490002201A9200001F048FE3A
:103A2000200002F09FF906B010BD0320704700B5DA
:103A30004FF48061A1FB00017D22002302F0B6F962
:103A400000BD7D21A1FB0001800A40EA8150890A66
:103A5000704738B5040000F01CF8DFF84853B5F99A
:103A60000010C91C201A814204D20021042002F057
:103A7000B5FA03E00121042002F0B0FA02F0CAFA1C
:103A8000012802D1B5F90000241A200000F071F8D5
:103A900031BD80B586B001A9684600F026F9DFF88F
:103AA00008130968401A07B000BD80B586B001A9A7
:103AB000684600F01AF907B000BD80B5DFF8D802FB
:103AC0000168C96811F0800171F4C0710268D160A9
:103AD0004FF4807102F07CF801BD10B5DFF8B842F8
:103AE0000021042002F07AFA20688068C00413D50F
:103AF0002068C068C0050FD52068C06810F080003D
:103B000070F4C0702168C8605FF48020DFF89C12F8
:103B10000860200002F02AFB10BD2DE9F0410400EE
:103B2000002500272000FFF782FF0600FFF7BDFFFA
:103B30008046FFF7BAFFB0EB0800B04201D200BFE9
:103B4000F7E7BDE8F08110B5DFF85C42211D14F104
:103B5000180000F0CAF82060206810BDDFF84802A5
:103B60000068704780B54FF480718B4802F030F8E0
:103B700001BD2DE9F84F86B0050000275FF0000A6F
:103B80005FF000095FF000085FF0000B864C01A8B1
:103B9000211D142202F02EFBA0690090FFF78DFF7B
:103BA00041F6FF71029C0C1B2800C004C00C0419D4
:103BB0006D0B9DF802607F48854203D37E4845190E
:103BC000761CF8E79DF80470B5F5616F03D3B5F581
:103BD00061657F1CF8E79DF805803C2D03D33C3DD3
:103BE00018F10108F9E79DF806002A0052FA80F959
:103BF000200080B2B0F5005F04DBB4F5005419F189
:103C00000109F5E7484680B23C2804D3B9F13C09E4
:103C100018F10108F6E7404680B23C2803D3B8F11A
:103C20003C087F1CF7E7380080B2182802D3183F01
:103C3000761CF8E79DF80300042290FBF2F302FBE8
:103C40001300002816D15D4A9DF80100104410F8B9
:103C5000010C330080B29BB2984221D2B6B2300040
:103C60009DF801301A4412F8012C90FBF2F602FB89
:103C7000160615E04E4A9DF80100104410F8010C9C
:103C8000330080B29BB298420AD2B6B230009DF89F
:103C900001301A4412F8012C90FBF2F602FB1606D2
:103CA0003F48220092B2891A41605FF05061816101
:103CB00080F8029080F80180077080F820609DF8FD
:103CC0000710C1700021C161002141614FF4807172
:103CD00041620021C16000210161002201002E48E3
:103CE00001F068FE07B0BDE8F08F2DE9F041050056
:103CF0000E000027DFF8A08000223100404601F0CE
:103D00006DFD7068040000222900404601F028FE85
:103D100000223100404601F061FD70688442F0D11C
:103D2000E97840F2B5504143C91C8908E87804227B
:103D300090FBF2F302FB1300002801D1204A00E0BF
:103D4000204A6B783D2043433C3B022093FBF0F03C
:103D500041186878401EC0B240001300C34013F001
:103D60000303C91AA878401E411812484143B3788A
:103D700077783C204743FB1837784FF4616000FBAD
:103D80000733591841F6FF7313EB41337068181A63
:103D9000BDE8F08178100320B00D0320002800401A
:103DA000880D03206C100320F40D0320140401403F
:103DB000044F01088051010080AEFEFF104F010842
:103DC00050554400A0AA990010B40200002310002E
:103DD0000C0040B264B2A04202D10800C0B200E0C0
:103DE000501E40B210BC70470100DFF8DC0A50F8EA
:103DF0002100DFF8D82A904205D0DFF84C2C904201
:103E000003D0002002E0012000E00220704770B4DF
:103E1000040020000D0026006DB276B2B54201DA32
:103E2000200000E0080040B270BC704738B50400C4
:103E30000D002000DFF8501B896A8847002801D157
:103E4000002044E0DFF8440B844206D3DFF8400B47
:103E5000844202D20220287038E0DFF8340B84421A
:103E600006D3DFF8300B844202D2002028702DE008
:103E7000DFF8200B844206D3DFF81C0B844202D209
:103E80000120287022E0DFF8C40B844206D3DFF85B
:103E9000C00B844202D20220287017E0DFF8B40B76
:103EA000844206D3DFF8B00B844202D2032028708C
:103EB0000CE0DFF8A80B844206D3DFF88C0C8442B8
:103EC00002D20420287001E0002000E0012032BD71
:103ED0002DE9F74F1C000D9D002600275FF000081C
:103EE0005FF000094046C0B2102861DA5FF0000AB6
:103EF0005046C0B2102856DA02984946C9B230F886
:103F00001100012111FA0AF1084249D05FF00C0BAF
:103F10005046C0B250FA88F00BFB00F02058002841
:103F20003ED09DF80000002804D1072050FA0AF086
:103F3000C00735D55046C0B250FA88F00BFB00F0F0
:103F4000204490F9080040F3031252B25046C0B228
:103F500050FA88F00BFB00F0204490F9080040F381
:103F6000030149B29DF9040040B202F00AFA0028A8
:103F700016D00C985146C9B251FA88F10BFB01FBDF
:103F800004EB0B01497A09010844C068002801D0FC
:103F90007F1C05E01AEB08003100C9B26854761C9A
:103FA0001AF1010AA4E718F1100819F1010999E7BB
:103FB0000E9807703000C0B2BDE8FE8F1CB504003B
:103FC000DFF8880B006800902078002836D00128A0
:103FD00037D0052838D0082840D0092841D00A28F1
:103FE00046D00B284BD00C284CD00D284ED00E2894
:103FF00050D00F2852D0102854D0112856D0122853
:1040000058D0132860D0142861D0152863D0162802
:1040100064D0172866D0182868D0192869D01A28C3
:104020006BD01B2869D01C286AD01D286CD01E2894
:104030006ED01F286CD0202809D06CE000200090A2
:1040400069E00020009066E00020009063E000211D
:1040500094F90100FFF7B8FE00905CE000200090AA
:1040600059E0DFF83C0C94F90110405C009052E0FC
:10407000DFF8300C94F90110405C00904BE0012017
:10408000009048E040F6B830009044E04FF47A7079
:10409000009040E04FF4FA6000903CE041F288303C
:1040A000009038E041F27070009034E04FF48040AE
:1040B000009030E04FF47A71DFF8240CFFF730FC09
:1040C00010F5FA60009026E00020009023E0DFF871
:1040D000140C00901FE0002000901CE0DFF8080C9A
:1040E000009018E0DFF8040C009014E0102000901D
:1040F00011E0DFF8FC0B00900DE0002000900AE0DA
:104100005FF08340009006E0DFF8440C009002E08E
:1041100030200090FFE7009816BD38B504006268B3
:10412000DFF8301CDFF8303C25780C20454303EBEA
:104130000500407A00010144607802F09DF931BD2C
:1041400070B504002000C0B2002802D0012821D0A0
:1041500029E0DFF89C0BDFF8041C91E82C0080E8D4
:104160002C0010F10C01DFF8F82B92E8680081E8D0
:1041700068001830DFF8EC1B91E82C0080E82C0078
:10418000DFF8681B072008800122DFF85C0B02F0D3
:104190005BF908E0DFF8501B0A88DFF8500B008855
:1041A00002430A80FFE770BD38B504000D00280007
:1041B000C0B204280CD0052817D0062822D0072822
:1041C0002DD008282BD00B2836D01E2836D03CE026
:1041D0000722002194F9000002F0D3F8002801D052
:1041E000012000E00020C0B230E00522002194F957
:1041F000000002F0C6F8002801D0012000E00020F5
:10420000C0B223E00722002194F9000002F0B9F8BF
:10421000002801D0012000E00020C0B216E00722F3
:10422000002194F9000002F0ACF8002801D0012030
:1042300000E00020C0B209E0012007E0207830282B
:1042400001DA002002E0012000E0002032BD70B55C
:1042500086B0040050208DF80C002079102841D140
:10426000002503263000C0B210283BDA3000C0B26F
:1042700008281DDA20682900C9B2405C0190019825
:1042800021682A00D2B21144497850EA01200190F5
:10429000019821682A00D2B21144897850EA01407D
:1042A000019001996420414301910020029006E0B1
:1042B0000020019000208DF80C0000200290019851
:1042C000002807D001A804908DF8146004A800F01D
:1042D0003FFC04E08DF80060684600F0E5FCED1C52
:1042E000761CBFE706B070BD10B504002079002829
:1042F00002D0012807D00DE001222168DFF8E8098B
:1043000002F0A2F808E001222168DFF8E00902F0DB
:104310009BF801E0002000E0012010BD2DE9F84FDE
:1043200005000E00170098465FF0000995F908A0F7
:1043300095F909B06868C8F800006878012838D194
:10434000504640B2002805D10020C8F800000020E7
:1043500081462EE06868402804D301208146002071
:10436000834601E0002081466868602821D32879CF
:1043700010F01F0001281CD120208DF800008DF8BE
:1043800001A0A87A8DF802006846FFF717FE040026
:1043900020008246504640B200280AD100208146C3
:1043A0002878012805D1DFF8C009018851F00701FC
:1043B000018086F800A087F800B04846C0B2BDE88A
:1043C000F28F00002DE9F0412DED048B82B0040046
:1043D0000D0016001F009FEDC08B200040B2072883
:1043E00001DA200000E00720787097F90100FFF75C
:1043F000FBFCB87097F9010007280BD1DFF86C09B6
:1044000097F90110405C02F098F9B0EE409AF0EE96
:10441000609A10E0DFF8B00497F9011050F821100D
:10442000DFF8480997F90120805C02F06DF9B0EEE1
:10443000409AF0EE609ADFF85005406E8047804663
:1044400017F10C00009017F10803424631002800D4
:10445000C0B2B0EE490AF0EE690A02F07BF902B090
:10446000BDEC048BBDE8F0812DE9F04F8BB004006A
:104470000D0094F9016000275FF0000AD4F8048071
:10448000DFF80495D9F80C008047002801D00020FF
:1044900086E0E07C002813D1DFF854280C21207836
:1044A000484310588046207848431044406800280C
:1044B00006D0207801FB00F102EB01004068804645
:1044C000DFF8A808310049B240568DF82800404670
:1044D000D9F814108847300040B2072826D15FF081
:1044E000000AA07C0990002008900020079000207E
:1044F0000690012005900020049000200390A06801
:1045000080B2029005200190DFF86408009000233B
:104510009DF928004FF47A7110FB01F24CF25031F2
:104520005046C0B2D9F820C0E0471FE05FF0010A52
:10453000A07C0990012008900020079000200690A0
:10454000002005900020049000200390A06880B215
:104550000290082001900020009001239DF928205E
:10456000A1785046C0B2D9F820C0E047607C01284D
:1045700006D1DFF83007310049B210F801B005E08C
:10458000DFF81C07310049B210F801B01BF10D0132
:10459000C9B25046C0B2D9F85C2090472E700120B5
:1045A0000BB0BDE8F08F2DE9F24F8AB00400150082
:1045B000DFF8B80794F9011040568DF824000C2656
:1045C000DFF82C77DFF8203794F90120DFF8840733
:1045D000217871433944497A0901084490F902105D
:1045E00094F90200FFF713FC804694F90100FFF7ED
:1045F000FBFB814600208DF80000D4ED020A94ED0B
:10460000010A404640B202F035F98246DFF878B33D
:10461000207806FB00F6B859DBF81410884794F9A7
:104620000100072823D1002640F6B830089000206A
:1046300007900020069000200590012004900020A3
:10464000039005200290002001909DF924004FF472
:104650007A7110FB01F000904B4646F2A8125146C9
:1046600049B23000C0B2DBF82470B8471DE0012623
:1046700040F6B830089000200790002006900020F7
:104680000590012004900020039008200290012052
:1046900001909DF9240000904B460022514649B2FA
:1046A0003000C0B2DBF82470B847A189C9B230002D
:1046B000C0B2DBF85C209047A189C9B23000C0B21B
:1046C000DBF82C20904728600A9880F800800120B1
:1046D0000BB0BDE8F08F00000000000000000000FB
:1046E0002DE9FE4F8CB0040007250026002700208E
:1046F000ADF8000038002179C0B2884259D201A932
:1047000020683A00D2B2104401F073FF0600300076
:10471000C0B200284DD0F71907200500BDF80800E9
:10472000ADF800009DF80700002806D1BDF8000094
:10473000002802D115F0FE05DCE79DF807000028EF
:1047400003D09DF80700062803DB9DF80700072823
:1047500002DB15F0FE05CDE700210800C0B21028ED
:10476000C8DA9DF80700062810D1DFF884250B0071
:10477000DBB20C204343D058002818D0BDF800000D
:1047800001228A401043ADF8000010E0BDF800009F
:1047900001228A4010420AD0DFF854250B00DBB218
:1047A0000C204343D058002801D115F0FE05491CC8
:1047B000D3E701208DF80C0060798DF80E0003A876
:1047C000FFF7FCFB0B908DF81050A0798DF81100CD
:1047D0009DF805008DF812009DF806008DF8130075
:1047E0009DF804008DF81400E0798DF81500207A0A
:1047F0008DF8160094F909008DF8170010208DF837
:104800001800684607900B988DF8200007208DF857
:104810002100DFF8DC04099007208DF82800002033
:104820008DF8290001AB0DF106020DF1050104A878
:1048300001F006FF80464046C0B207280ED102258F
:104840005FF00009DFF820A5D3464A462900584604
:1048500002F08CF8BDF80000AAF800009DF80500F1
:104860000C9908709DF806000D9908709DF80400D9
:104870000E990870189807704046C0B20FB0BDE896
:10488000F08F38B50400072560683F49896A88477A
:10489000002801D115F0FE050722002194F900003F
:1048A00001F06FFD002801D115F0FD050522002162
:1048B00094F9010001F065FD002801D115F0FB0518
:1048C0002800C0B232BD0000104E010890D0030095
:1048D0003EB5040003252068006800280AD120792D
:1048E0008DF80000684600F0DFF900281FD115F0B0
:1048F000FC051CE02068019020798DF8080001A8D3
:1049000000F026F9002806D0042805D0052806D096
:10491000062807D009E00AE015F0FE0507E015F0CB
:10492000FD0504E015F0FC0501E015F0FC0528008C
:10493000C0B23EBD01005FF0FF30704738B50400E3
:10494000032500208DF8000069466068FFF76EFAC5
:10495000002801D115F0FE050C21DFF8FC2320789A
:1049600048431058002801D115F0FD052800C0B2B9
:10497000032806D1207801FB00F102EB01006168F9
:1049800041602800C0B232BDA04B0108C055703351
:1049900040DA8E3301A1BC33C1C8C53310B4010065
:1049A00000220888302390FBF3F403FB1400002856
:1049B00001D1002028E00888202390FBF3F403FBBA
:1049C0001400002801D101201EE00888182390FB64
:1049D000F3F403FB1400002801D1022014E008883E
:1049E000102390FBF3F403FB1400002801D10320F3
:1049F0000AE00888082390FBF3F403FB1400002866
:104A000001D1042000E0052040B210BC704718B569
:104A100085B00400B6480090CE48019060788DF8CB
:104A2000080020788DF80900A0788DF80A00E07859
:104A30008DF80B0060680390A0680490684601F050
:104A40003DFF06B010BD000020A10700604FC73336
:104A500081F0CE33C0FDD13351CED533A091D633C2
:104A60002DE9F84F88B004000D0016001F005FF01C
:104A7000000800208DF80C0004A8102101F0AAFF06
:104A800000200090DFF860A201220021504601F0D2
:104A9000BAFC002805D1BAF8000050F00700AAF8C7
:104AA00000006068FEF7F7FB216888421AD30020F7
:104AB0003860DFF8A0B205235A46A17A607A01F087
:104AC000E4FC814603A8029004A80190CDF800B050
:104AD000A14B5246207A0100C9B2607AFFF7F8F97B
:104AE00080460BE09DF80C00401C8DF80C006068BF
:104AF000FEF7D1FB21688146B1EB09094046C0B2FF
:104B000000280CD04146C9B2491E0020FEF708FF1C
:104B100004A9085C287000203060012010E09DF896
:104B20000C00002803D0C6F80090012008E0BAF875
:104B3000000050F00700AAF80000002030600020BC
:104B400009B0BDE8F08F00008125DB33804F0108FC
:104B50002DE9FE4F040000208DF8000000250026FE
:104B600027793800C0B2102801DB032095E0072226
:104B70000021206890F9080040F3030040B201F0E2
:104B800000FC002801D10120050007220021206837
:104B900090F9080040F3031040B201F0F2FB002846
:104BA00001D101200500206890F9080040F30310AE
:104BB000216891F9081041F3030140B249B28842DB
:104BC00001DA012005003800C0B2032823DA20688A
:104BD00090F9080040F3030040B2012801DB0120F6
:104BE000050007220521206890F9080040F3031012
:104BF00040B201F0C6FB002801D101200500206869
:104C000001683B4A3B00DBB20C204343D058814251
:104C100001D0012006003000C0B2002808D169464A
:104C200020680068FFF702F9002801D10120060082
:104C30002800C0B2304201D006202EE02800C0B2C9
:104C4000002801D0052028E03000C0B2002801D0A3
:104C5000042022E00C200190D4F800805FF00C09C1
:104C6000DFF88CA03800C0B209FB00F00AEB000BA3
:104C7000019A4146584601F0ADFA3800C0B209FB2E
:104C800000F90AEB09009DF80010417236480188CE
:104C90000122BA40114301800020BDE8FE8F0000D0
:104CA0005C4F0108644F010838B5040025782800DE
:104CB000C0B2032801DA002011E00D492A00D2B267
:104CC0000C20424301EB020000210022002380E877
:104CD0000E0010222900C9B2234801F065FB32BD45
:104CE00018FCFFFF08E6D33374100320761003206E
:104CF000B40803202DE9F04104000C25164E1A4B90
:104D000094F901201348217869433144497A090113
:104D1000084490F9021094F90200FFF778F80700B0
:104D20005FF00008207805FB00F57659D4ED020A03
:104D300094ED010A380040B201F09CFD0500A28903
:104D4000290049B230000B4B5B6C9847BDE8F081FD
:104D50009A99094000000320B40803201C4F010861
:104D6000284F0108344F010874100320544F0108E4
:104D700085450100A04B010810B40300881A040007
:104D800064B2002C01D500242000C0B210BC7047D2
:104D900010B504001022002114F1F100FEF7E8FD27
:104DA0000020C4F81401F02200212000FEF7E0FDED
:104DB00010BD38B504000D0022001021280000F0BD
:104DC00006FB31BDF8B584B004000E001700D4F81E
:104DD000140100283CD0D4F81401D0F11000B842DE
:104DE00004D2D4F81451D5F1100500E03D002A009A
:104DF00092B23100D4F81401204400F20110FEF701
:104E00009DFDD4F814012818C4F81401D4F8140135
:104E1000102801D3AF4200D148E0002110290EDA5A
:104E200004EB010090F8F12004EB010090F801017F
:104E3000424004EB010080F8F120491CEEE722001B
:104E400014F1F10114F1F10000F090FB2E447F1BEE
:104E5000112F22D3002110290BDA04EB010090F866
:104E6000F120705C424004EB010080F8F120491C05
:104E7000F1E7102214F1F1016846FEF75FFD220010
:104E80006946684600F072FB1022694614F1F10091
:104E9000FEF754FD1036103FDAE73A0092B23100C7
:104EA00004F20110FEF74AFDC4F8147105B0F0BD1C
:104EB00038B588B004000D00102200216846FEF7C6
:104EC00057FD2A006946684600F050FB9DF8000037
:104ED000000617D500200F280BDA69460A5C6B46DE
:104EE00003445B78DBB2DB0953EA42030B54401CFA
:104EF000F1E76946CA7B5200CA73CA7B92F0870207
:104F0000CA7312E000210F290BDA6846425C6B4637
:104F10000B445B78DBB2DB0953EA42034354491C80
:104F2000F1E76846C27B5200C273D5F8140110281D
:104F300010D1002110290CDA05EB010090F80121B5
:104F40006846405C424005EB010080F80121491CA5
:104F5000F0E754E09DF80000000617D500210F2966
:104F60000BDA6846425C6B460B445B78DBB2DB09CC
:104F700053EA42034354491CF1E76846C27B52009E
:104F8000C273C27B92F08702C27312E000210F2924
:104F90000BDA6846425C6B460B445B78DBB2DB099C
:104FA00053EA42034354491CF1E76846C27B52006E
:104FB000C2738020D5F81411294481F80101D5F875
:104FC0001401401CC5F81401D5F81401102806D2AC
:104FD0000020D5F81411294481F80101EFE70021E0
:104FE00010290CDA05EB010090F801216846405CBD
:104FF000424005EB010080F80121491CF0E7002147
:1050000010290EDA05EB010090F8F12005EB010004
:1050100090F80101424005EB010080F8F120491CA5
:10502000EEE7102215F1F10104A8FEF787FC2A0033
:10503000210004A800F09AFA102200216846FEF729
:1050400097FC09B030BD00000A7802704A784270BF
:105050008A788270CA78C2700A7902714A7942717C
:105060008A798271CA79C2710A7A02724A7A427264
:105070008A7A8272CA7AC2720A7B02734A7B42734C
:105080008A7B8273CA7BC273704713005A1EDBB2DD
:10509000002B04D00B780370491C401CF5E77047C7
:1050A00003780A785340037043784A78534043703A
:1050B00083788A7853408370C378CA785340C3702A
:1050C00003790A795340037143794A795340437114
:1050D00083798A7953408371C379CA795340C37104
:1050E000037A0A7A53400372437A4A7A53404372EE
:1050F000837A8A7A53408372C37ACA7A5340C372DE
:10510000037B0A7B53400373437B4A7B53404373C7
:10511000837B8A7B53408373C37BCA7B5340C373B7
:10512000704710B40C7813785C4004704C78537856
:105130005C4044708C7893785C408470CC78D378F1
:105140005C40C4700C7913795C4004714C795379DC
:105150005C4044718C7993795C408471CC79D379CB
:105160005C40C4710C7A137A5C4004724C7A537AB6
:105170005C4044728C7A937A5C408472CC7AD37AA5
:105180005C40C4720C7B137B5C4004734C7B537B90
:105190005C4044738C7B937B5C408473CC7BD37B7F
:1051A0005C40C47310BC704738B504000D00290082
:1051B0002000FFF775FF31BD70B4E94902788A5CC1
:1051C000027002798A5C0271027A8A5C0272027B46
:1051D0008A5C027342784379CB5C4370437ACB5C40
:1051E0004371437BCB5C43721300DBB2CB5C4373F4
:1051F0008378847A0C5D84701C00E4B20C5D847248
:105200008479857B4D5D85712500EDB24D5D85739B
:10521000C57BC67A8E5DC673C6798E5DC672C6784A
:105220008E5DC6712E00F6B2895DC17070BC70478C
:105230007FB5040021006846FFF706FFC849C94A48
:10524000C94B6D469DF800001E5C6879105C4640B5
:10525000A87A085C4640E87B085C464026709DF8CA
:1052600000000E5C6879185C4640A87A105C4640E5
:10527000E87B085C464066709DF800000E5C68792B
:10528000085C4640A87A185C4640E87B105C4640C3
:10529000A6709DF80000165C6879085C4640A87A04
:1052A000085C4640E87B185C4640E67028791E5C46
:1052B000687A105C4640A87B085C4640E878085C49
:1052C0004640267128790E5C687A185C4640A87BB7
:1052D000105C4640E878085C4640667128790E5CB0
:1052E000687A085C4640A87B185C4640E878105C09
:1052F0004640A6712879165C687A085C4640A87B0F
:10530000085C4640E878185C4640E671287A1E5CE6
:10531000687B105C4640A878085C4640E879085CE9
:1053200046402672287A0E5C687B185C4640A87856
:10533000105C4640E879085C46406672287A0E5C4C
:10534000687B085C4640A878185C4640E879105CA9
:105350004640A672287A165C687B085C4640A878AE
:10536000085C4640E879185C4640E672287B1E5C83
:105370006878105C4640A879085C4640E87A085C8A
:1053800046402673287B0E5C6878185C4640A879F6
:10539000105C4640E87A085C46406673287B0E5CE9
:1053A0006878085C4640A879185C4640E87A105C4A
:1053B0004640A673287B125C6878085C4240A87956
:1053C000085C4240E87A185C4240E2737FBD2DE9F8
:1053D000F84F04000D0016002800C0B2102803D0BA
:1053E000182801D0202811D12A00D2B22100300083
:1053F000FFF74BFE15F11C039B001800C0B200091B
:10540000401E86F8F0002900012204E0002086F802
:10541000F000FF20A1E008001F00C0B2FFB2B842B8
:1054200080F09A800800C0B2304410F804CC080024
:10543000C0B2304410F803EC0800C0B2304410F899
:10544000028C0800C0B2304410F8019C0800C0B2C1
:10545000AA465FFA8AFA90FBFAFB0AFB1B000028B7
:1054600025D167463E48F2465FFA8AFA10F80AA04C
:1054700092EA0A0AD446C2465FFA8AFA10F80AA0EB
:10548000D646CA465FFA8AFA10F80AA0D046BA464B
:105490005FFA8AFA10F80A0081461000C0B2C0090B
:1054A0005FF01B0A10FB0AF090EA42021FE028009E
:1054B000C0B219281BDB0800C0B2AA465FFA8AFAFC
:1054C00090FBFAFB0AFB1B00102810D124485FFA5E
:1054D0008CFC10F80CC05FFA8EFE10F80EE05FFA3C
:1054E00088F810F808805FFA89F910F80990481BCD
:1054F00082465FFA8AFA16F80AA09CEA0A0A8B46E4
:105500005FFA8BFB06F80BA082465FFA8AFAB24478
:105510009AF801A09EEA0A0A8B465FFA8BFBB34415
:105520008BF801A082465FFA8AFAB2449AF802A088
:1055300098EA0A0A8B465FFA8BFBB3448BF802A009
:10554000C0B23044C07899EA00090800C0B23044C3
:1055500080F80390091D5EE70020BDE8F28F00008F
:10556000B0440108B0460108B0450108F8B584B060
:1055700004000D00160096F8F000002826D0320036
:1055800021006846FFF7CDFD0127380096F8F0109E
:10559000C0B288420CD26846FFF74AFE3800C0B25B
:1055A000000106EB00016846FFF7FEFD7F1CECE7FB
:1055B0006846FFF701FE3800C0B2000106EB0002AA
:1055C00069462800FFF7ADFD002000E0FF2005B090
:1055D000F0BD000010B50400002C01D1012066E0F0
:1055E00094F82100002805D1002084F82000200034
:1055F00000F08FFD022084F82100CA202168486253
:10560000532021684862200000F075FB002807D075
:10561000FF2021684862042084F82100012046E030
:1056200020688168DFF88406014020688160206876
:105630008168626820690243A069024311432068BF
:105640008160E0682168086120680069A16850EA0B
:105650000140216808612068C06830F0800021683E
:10566000C8602068806880060CD4200000F028FB09
:10567000002807D0FF2021684862042084F8210018
:10568000012014E02068C06C800880002168C86494
:105690002068C16CE2696069024311432068C164FB
:1056A000FF2021684862012084F82100002010BDFD
:1056B0002DE9F84305000E0014005FF0000895F88E
:1056C0002000012801D1022086E0012085F8200079
:1056D000022085F82100002C1CD128688068400633
:1056E00001D40020F070307800F022FB8146707801
:1056F00000F01EFB0700B07800F01AFB5FFA89F992
:10570000FFB23F0257EA0947C0B20743F07857EAB1
:10571000004714E028688068400604D5307800F01F
:1057200013FB804601E00020F070307877783F026C
:1057300057EA0047B0780743F07857EA0047CA2095
:1057400029684862532029684862280000F0D3FA8B
:1057500000280AD0FF2029684862042085F821002B
:10576000002085F82000012036E0DFF844053840AD
:10577000296808602868806830F48020296888607B
:1057800028688168F26830690243114328688160A3
:105790002868C06830F080002968C8602868806880
:1057A00080060FD4280000F08BFA00280AD0FF20D2
:1057B00029684862042085F82100002085F820002F
:1057C000012009E0FF2029684862012085F82100B6
:1057D000002085F820000020BDE8F283F8B5050020
:1057E0000E00140000212868806A70602868006933
:1057F0004004400CB06028680768DFF8B404074034
:105800003800000C10F03F0030703800000A10F033
:105810007F00707017F07F00B0703800000C10F03F
:105820004000F070002C0BD1307800F08DFA307011
:10583000707800F089FA7070B07800F085FAB07076
:105840000020F2BD2DE9F84305000E0014000027EA
:1058500095F82000012801D102207FE0012085F881
:105860002000022085F82100002C07D17078C006A6
:1058700004D5707810F0EF000A307070002C19D148
:10588000F07800F055FA8146707800F051FA8046C1
:10589000B07800F04DFA5FFA89F95FFA88F85FEAAC
:1058A000082858EA0948C0B250EA0808307858EA8F
:1058B000403813E0707800F047FA8146B07800F085
:1058C00043FAF17896F801805FEA082858EA01481F
:1058D000B17851EA0808317858EA4138CA20296875
:1058E0004862532029684862280000F004FA002822
:1058F0000AD0FF2029684862042085F82100002092
:1059000085F82000012029E0DFF8A80310EA08004C
:10591000296848602868C06830F080002968C8603D
:105920002868806880060FD4280000F0C9F9002894
:105930000AD0FF2029684862042085F82100002051
:1059400085F82000012009E0FF2029684862012035
:1059500085F82100002085F820000020BDE8F283B2
:10596000F8B505000E001400002128684768DFF82C
:10597000440307403800000CF0703800000A10F0B3
:105980001F00707017F03F00B0703800400B10F02F
:1059900007003070002C0BD1F07800F0D5F9F070D2
:1059A000707800F0D1F97070B07800F0CDF9B07077
:1059B0000020F2BD2DE9F84F05000E001400002074
:1059C000009000275FF0000895F82000012801D121
:1059D0000220FBE0012085F82000022085F821004C
:1059E000002C31D128688068400601D40020F07076
:1059F000F0690028FFD0307800F09AF9814670787D
:105A000000F096F98246B07800F092F9834696F855
:105A1000200000F08DF95FFA89F95FFA8AFA5FEAEF
:105A20000A2A5AEA094A5FFA8BFB5BEA0A0AF1780A
:105A30005AEA014AC0B25AEA006AF06950EA0A0A10
:105A4000706950EA0A0A2DE028688068400604D58B
:105A5000307800F079F9070001E00020F070F0697B
:105A6000002804D196F8200000F06EF903E096F8C3
:105A7000200000F069F9317896F801A05FEA0A2A5F
:105A80005AEA014AB17851EA0A0AF1785AEA014A17
:105A900096F820105AEA016AF16951EA0A0A716916
:105AA00051EA0A0A7768B0690743CA202968486240
:105AB000532029684862706AB0F5807F39D1286820
:105AC000806830F48070296888602868C06810F0A9
:105AD000800070F4C0702968C86000F07FFF8046C5
