S0190000666F72657374706F6476352D666F6375732E737265633D
S31508000000A8F7042051D90208F1A6020805A7020894
S3150800001011A702081DA7020829A702080000000068
S3150800002000000000000000000000000039A70208D8
S315080000303BA70208000000003DA702083FA70208E8
S3150800004089DA02088DDA020891DA020895DA0208D6
S3150800005099DA02089DDA02084FA7020859A702088A
S3150800006063A702086DA7020877A70208A1DA0208A3
S31508000070A5DA0208A9DA0208ADDA0208B1DA020836
S31508000080B5DA0208B9DA0208BDDA0208C1DA0208E6
S31508000090C5DA0208C9DA0208CDDA020881A7020819
S315080000A0D1DA0208D5DA0208D9DA0208DDDA020856
S315080000B0E1DA0208E5DA0208E9DA0208EDDA020806
S315080000C0F1DA0208F5DA0208F9DA0208FDDA0208B6
S315080000D001DB020805DB020809DB02080DDB020862
S315080000E0A7A7020847A7020811DB020815DB0208C2
S315080000F019DB02081DDB020821DB020825DB0208E2
S3150800010029DB02082DDB020831DB020835DB020891
S3150800011039DB02083DDB020841DB020845DB020841
S3150800012003A8020849DB02084DDB020851DB020876
S3150800013055DB020859DB02085DDB020861DB0208B1
S3150800014065DB0208DBA7020869DB02086DDB02082B
S3150800015071DB020875DB020879DB02087DDB020821
S3150800016081DB020885DB020889DB02088DDB0208D1
S3150800017091DB020895DB020899DB02080000000003
S315080001809DDB0208A1DB0208A5DB0208A9DB020841
S31508000190ADDB0208EBA70208B1DB0208B5DB0208F3
S315080001A0B9DB0208BDDB0208C1DB0208E0B504F0D2
S315080001B0FDFBDFF89C1C0860684604F0C6FCDDE918
S315080001C00001DFF8902CC2E90001DFF8F80C00689E
S315080001D050F01000DFF8EC1C0860DFF8100DD0F8BE
S315080001E0480300280CD0DFF8040DD0F84803C0688F
S315080001F0002805D0DFF8F40CD0F84803C06880471B
S3150800020007BDF8B504000D0016001F0004F0CEFB6C
S31508000210DFF8DC1C0860DFF8D80C4460DFF8D00C87
S315080002200581DFF8CC0C4681DFF8C40C0773DFF8CC
S31508000230940C006850F00800DFF8881C0860DFF8A6
S31508000240AC0CD0F8480300280CD0DFF8A00CD0F886
S315080002504803C068002805D0DFF8900CD0F848039A
S31508000260C0688047F1BD80B5DFF8580C006850F0CB
S315080002700400DFF8501C0860DFF8700CD0F848035B
S3150800028000280CD0DFF8640CD0F84803C0680028B2
S3150800029005D0DFF8580CD0F84803C068804701BD80
S315080002A080B5DFF8200C006850F00200DFF8141C57
S315080002B00860DFF8380CD0F8480300280CD0DFF8BF
S315080002C02C0CD0F84803C068002805D0DFF81C0CB1
S315080002D0D0F84803C068804701BD80B5DFF8E40B55
S315080002E0006850F00100DFF8DC1B0860DFF8FC0B43
S315080002F0D0F8480300280CD0DFF8F00BD0F84803F4
S31508000300C068002805D0DFF8E40BD0F84803C068B9
S31508000310804701BDDFF8D40BD0F8840490F8F000CC
S31508000320022805D00620DFF8C41B81F8800404E003
S315080003300220DFF8B81B81F8800470471FB5DFF884
S31508000340AC0BD0F8840490F8F000022803D0DFF84C
S315080003504C0D406B8047DFF8940BD0F8B013DFF8EC
S31508000360840C04F010FBDFF87C0C04F011FADFF8BB
S315080003707C0BD0F8B413DFF8280D04F004FBDFF883
S31508000380200D04F005FADFF8640BD0F8840490F821
S31508000390F000022805D0DFF8540B90F81404012861
S315080003A018D116208DF8080002A9DFF8400BD0F8FE
S315080003B08404007804F003FC0400DFF8300BD0F85E
S315080003C0B4136118DFF8DC0C04F0DDFADFF8D40C9E
S315080003D004F0DEF9DFF8140B90F81504DFF80C1BAF
S315080003E0D1F8841481F83E01DFF8000B90F8150463
S315080003F08DF80000DFF8F40AD0F8840490F8D401E8
S31508000400002803D100208DF8010002E001208DF8B4
S315080004100100DFF83C0A006801906946DFF8CC0A5B
S31508000420D0F88404007804F0DBFBDFF8240A0068BF
S31508000430DFF8B81AD1F88414C1F8C401DFF8AC0A99
S3150800044090F81404002804D10020DFF8A01A81F8D7
S315080004503D041FBD80B5DFF8940AD0F8400350F07C
S315080004608000DFF8881AC1F84003DFF8800A90F8A0
S315080004701404012802D1002000F0DCFFDFF86C0A22
S3150800048090F8810450F00200DFF8601A81F88104C0
S31508000490DFF8580A90F8810450F02000DFF84C1A6B
S315080004A081F88104FFF736FF01BD2DE9F04FA1B0B1
S315080004B01324DFF83C0A4568DFF8340A0689DFF8B2
S315080004C0300AB0F90A00ADF81800DFF8240A90F9E6
S315080004D00C705FF0000A00200490DFF8100AD0F8CC
S315080004E08404C06C07905FF000085FF004090020E0
S315080004F0DFF8F81981F84004BDF81800DFF8EC19A0
S31508000500A1F82A04DFF8E40980F82C74DFF8DC097E
S3150800051090F88004DFF8D41981F82D040020DFF85C
S31508000520CC1981F81F040020DFF8C01981F81E04D1
S315080005300020DFF8B81981F821040020DFF8AC198B
S31508000540C1F824040020DFF8A41981F82804002043
S31508000550DFF8981981F829040020DFF8901981F846
S315080005602E040020DFF88419C1F830040020DFF8D3
S315080005707C1981F81C040020DFF87019C1F83404CE
S315080005800020DFF8681981F83804DFF8100B406B93
S315080005908047DFF80C0B04F09DF9310089B228007A
S315080005A004F054FC01280AD1BDF81800DFF83C19FC
S315080005B0A1F87604DFF8340980F87874B0E3DFF838
S315080005C02C09D0F8840490F8F00001281ED104F014
S315080005D042FC01280BD1002004F031FC002004F075
S315080005E033FC0420DFF8041981F82D040EE004F02A
S315080005F034FC01280AD1002004F022FC002004F073
S3150800060024FC0520DFF8E41881F82D045046C0B212
S31508000610285C8DF80E001AF1010A8DF80DA09DF8D8
S315080006200E00C0B24009C0B2012809D0032800F064
S31508000630D980052800F0D180072800F0218347E3F8
S31508000640179530008DF86000DFF8A008D0F884040C
S3150800065090F8D401002807D00120DFF8901881F817
S315080006601D04FFF7F7FE5BE304F04EFF17AA01002F
S31508000670FF2005F016FB04002000C0B2002840F059
S31508000680A2809DF86500DFF86418D1F884148864A0
S31508000690DFF85808D0F88404806C9DF8661050EA94
S315080006A00120DFF84818D1F884148864DFF83C087C
S315080006B0D0F88404806C9DF8671050EA0140DFF892
S315080006C02C18D1F8841488641A98DFF82018D1F801
S315080006D08414C8649DF86C00C0F30210DFF80C1887
S315080006E0D1F8841481F819019DF86C0010F00F00F8
S315080006F0DFF8F817D1F8841481F820019DF86C000A
S3150800070010F00F00DFF8E417D1F8841481F82801F7
S315080007109DF86D00DFF8D417D1F88414C1F80801E4
S31508000720DFF8C807D0F88404D0F80801002806D1F5
S315080007300120DFF8B817D1F88414C1F80801DFF8EA
S31508000740AC07D0F88404D0F808114FF47A70414306
S31508000750DFF89807D0F88404C0F80811DFF88C078A
S31508000760D0F88404D0F8080110F57A70DFF87C1701
S31508000770D1F88414C1F80C010020DFF87017D1F8FD
S31508000780841481F8D2010DF16E00159016F1EF0070
S315080007908DF8580015A9DFF85407D0F884040078B6
S315080007A004F053FA0220DFF84417D1F8841481F8CC
S315080007B0D401002005F0D6FD01280DD10021002026
S315080007C005F086FD08E0002005F0CCFD012803D1E0
S315080007D00021072005F07CFD80E20120DFF80C17D8
S315080007E081F81C04DFF80407D0F8840490F82D017A
S315080007F08DF81600DFF8F40690F920048DF8150038
S315080008000D208DF81400DFF8E406D0F8840490F87B
S315080008103F01012802D10E208DF8140005A9DFF842
S31508000820CC06D0F88404007804F0C9F98346B6F1FA
S315080008300D0000B2002801D5002002E0B6F10D0037
S3150800084000B2594609B2814207DA0120DFF89C1640
S3150800085081F81D04FFF7FEFD62E2099530008DF868
S315080008602800DFF83C0C1290FF208DF84C0009A8F0
S3150800087005F066FE002807D00120DFF8701681F81B
S315080008801D04FFF7E7FD4BE20B98DFF86016C1F889
S31508000890340403A909A802F08DFA002807D001201C
S315080008A0DFF8481681F81D04FFF7D4FD38E200206A
S315080008B080460020049000210800C0B2042853DABC
S315080008C0DFF82806D0F884240B00DBB2282043433F
S315080008D002EB0300406D0B9A904243D1DFF80C06F9
S315080008E0D0F884240B00DBB22820434302EB030034
S315080008F090F85100012835D101208046DFF8EC0533
S31508000900D0F884240B00DBB22820434302EB030013
S3150800091090F852008146DFF8D405D0F884240B00FD
S31508000920DBB22820434302EB0300C06E0068049044
S31508000930DFF8B805D0F884240B00DBB2282043433F
S3150800094002EB0300406D0790DFF8A005D0F8840499
S3150800095090F8F000022804D10320DFF8902582F8E9
S315080009602D0401E0491CA7E715208DF8140005A9F8
S31508000970DFF87805D0F88404007804F020F90890A8
S3150800098004A802900DF10F000190089880B200901B
S31508000990DFF85805D0F8840410F5E870036809AA4A
S315080009A09DF80C104846C0B200F07CFD82465046C1
S315080009B0C0B200283ED05046C0B2072823D108202E
S315080009C0DFF8281581F81D04DFF82005D0F884041F
S315080009D090F8D201002825D19DF80E00C0B2400932
S315080009E005281FD1DFF80405D0F88404D0F8D8010B
S315080009F01499884216D10120DFF8F014D1F884142E
S31508000A0081F8C0010EE05046C0B2082805D10A2078
S31508000A10DFF8D81481F81D0404E00120DFF8CC14AF
S31508000A2081F81D040498DFF8C414C1F83004FFF7F0
S31508000A3011FD75E109A80090049B9DF80F20079900
S31508000A404846C0B205F0D0FA04002000C0B200281B
S31508000A5011D02000C0B2022805D10B20DFF88C1473
S31508000A6081F81D0404E00C20DFF8801481F81D04C9
S31508000A70FFF7F0FC54E10020DFF8701481F81D043C
S31508000A80DFF8680480F81E849DF83000C0F3001073
S31508000A90DFF8581481F821040020DFF85014C1F853
S31508000AA024040020DFF8441481F828040498DFF8A9
S31508000AB03C14C1F830049DF83000C0B2400910F06B
S31508000AC00100DFF8281481F82E040020DFF81C1432
S31508000AD081F83D049DF83000C0B2400910F00100CD
S31508000AE0DFF8081481F84004DFF8000490F82D04B4
S31508000AF0002805D0DFF8F40390F82D04012806D164
S31508000B000020DFF8E813D1F88414C1F8F400404651
S31508000B10C0B2012805D10220DFF8D01381F81C04E1
S31508000B202DE09DF80E00C0B2400905281BD1012012
S31508000B30DFF8B813D1F8841481F8C001DFF8AC03E4
S31508000B40D0F8840490F8D201002806D11498DFF86A
S31508000B509C13D1F88414C1F8D8010120DFF88C134E
S31508000B6081F81C040BE00020DFF88013D1F8841408
S31508000B7081F8C0010020DFF8741381F81C04DFF83F
S31508000B806C0390F83C249DF83010DFF8600390F869
S31508000B902D0401F017FD9DF80C00002805D0022849
S31508000BA03AD025D3032849D05BE0DFF8400390F814
S31508000BB02D0400903B005BB29DF8302012F00F0226
S31508000BC000210DA800F0F8FD9DF84400DFF81C137D
S31508000BD081F81F041298C549C1F824049DF84C00F1
S31508000BE0C24981F828040120C04981F829043EE059
S31508000BF0BE4890F82D0400903B005BB29DF830206B
S31508000C0012F00F0200210DA800F0D6FD9DF8440051
S31508000C10B64981F81F042AE0B44890F82D040090DC
S31508000C203B005BB29DF84C200021129800F0C4FDF1
S31508000C309DF84400AD4981F81F0418E09DF844006A
S31508000C40AA4981F81F041298A849C1F824049DF8F6
S31508000C504C00A64981F828040120A44981F82904F2
S31508000C6005E00120A14981F81D04FFF7F3FB9F4821
S31508000C7090F8810450F002009C4981F881042DE027
S31508000C809DF80D20B21A92B29DF80D0005EB0001F1
S31508000C90DFF80C0805F022FD0320944981F81C04AE
S31508000CA00020924981F81D04DFF8F4078F49C1F83E
S31508000CB024049DF80D00301A8C4981F828048B48C5
S31508000CC090F8810450F00200884981F8810405E013
S31508000CD00120864981F81D04FFF7BCFB834890F87C
S31508000CE01404012808D1814890F8400401280DD140
S31508000CF0002000F09FFB09E07C48D0F8840490F8B7
S31508000D00F000022802D1002000F094FB774890F802
S31508000D10810450F02000754981F88104FFF7FAFA3A
S31508000D2021B0BDE8F08F80B57048D0F8840490F8FB
S31508000D30F000022803D0DFF86403406B8047FFF712
S31508000D40E9FA0220694981F83D04022005F0EFFA24
S31508000D50664890F81404012803D10120634981F8F4
S31508000D601304624890F8810450F020005F4981F826
S31508000D70810401BD70B504000D0000265B48D0F85B
S31508000D80840490F8F000022802D0C448406B8047DB
S31508000D9004F05FF8012807D1022004F04FF800207C
S31508000DA004F051F8012006005048D0F8840490F861
S31508000DB0F000012817D104F04EF8012807D10020C9
S31508000DC004F03DF8002004F03FF80120060004F086
S31508000DD044F8012807D1002004F032F8002004F076
S31508000DE034F8012006003000C0B200282CD13F4854
S31508000DF090F8800400280CD13C4890F81404012887
S31508000E0002D13A4880F83D442000C0B205F08FFA76
S31508000E101AE0364890F81404012802D1334880F8BD
S31508000E203D542800C0B205F082FA3048D0F8840450
S31508000E3090F8F000022807D02C4890F8810450F06A
S31508000E4020002A4981F88104FFF764FA70BD000082
S31508000E501C150420FC03042080B506210520FFF795
S31508000E6089FF01BD80B504210320FFF783FF01BD7B
S31508000E7038B5EFF3108572B6124804680020114998
S31508000E80086085F31088002C1BD0C4F300100028D6
S31508000E9001D0FFF753FAC4F3C000002801D0FFF7CA
S31508000EA004FBC4F38000002801D0FFF73CFFC4F31D
S31508000EB04000002801D0FFF7CFFFE00701D5FFF774
S31508000EC0D1FF31BD181504200848D0F84003002882
S31508000ED006D1064890F88204012801D1002000E0D6
S31508000EE001207047014981F882047047C400042034
S31508000EF0BC13042010B5DFF8A80890F88144DFF881
S31508000F00A008D0F84003002856D1DFF8940890F8D6
S31508000F10810410F00100002809D0DFF8840890F851
S31508000F20810410F0FE00DFF8781881F88104DFF8F4
S31508000F30700890F88104C0F38000C0B2002809D078
S31508000F40DFF85C0890F8810410F0FB00DFF8501811
S31508000F5081F881040120FFF7C5FF14F0010000287D
S31508000F6007D0DFF84008DFF83818D1F844130968C5
S31508000F708847C4F38000C0B2002811D0DFF82808DB
S31508000F8005F000FA05F03CFA002809D0DFF8100849
S31508000F9090F8810450F00400DFF8041881F8810401
S31508000FA003F061FFDFF8F80790F8810410F0DF001E
S31508000FB0DFF8EC1781F8810410BD80B5DFF8E0078B
S31508000FC0D0F8400300280BD100208DF800006846B1
S31508000FD005F02CFD9DF80000012801D100F0D6FB94
S31508000FE001BD00004404042000B587B0DFF8B0074F
S31508000FF090F88104C0F3C000C0B2002811D0DFF811
S31508001000A00790F8810410F0F700DFF8941781F82C
S315080010108104DFF89807DFF88817D1F84413C96800
S315080010208847DFF87C0790F88104C0F30010C0B247
S31508001030002816D006208DF8000000208DF8010043
S315080010406846DFF85C17D1F84413C9688847DFF8A3
S31508001050500790F8810410F0EF00DFF8441781F884
S315080010608104DFF83C0790F88104C0F34000C0B261
S31508001070002811D0DFF8280790F8810410F0FD0049
S31508001080DFF81C1781F88104DFF82407DFF810174A
S31508001090D1F844134968884707B000BD5CB5020813
S315080010A05C040420BC04042038B5DFF8F40690F884
S315080010B0810410F0010000285FD000240025DFF825
S315080010C0E00690F83C04002805D0DFF8D40690F82E
S315080010D03C04032803D101F0A0FE040022E0DFF857
S315080010E0C00690F83C0401281CD1DFF8B40690F835
S315080010F01304012814D101F0BDFE0400DFF8A00690
S31508001100D0F8840490F8D20100280BD12000C0B290
S31508001110002802D101F020FF04E001F05EFF01E0A3
S31508001120012005002000C0B2012810D1DFF884068E
S3150800113003F0D0FBDFF86806D0F8400330F0200053
S31508001140DFF85C16C1F8400301F0BCFE15E0280084
S31508001150C0B2002811D1DFF8480690F8810410F0D3
S31508001160DF00DFF83C1681F881040020DFF830162E
S3150800117081F81304002000F0B0F831BD80B5DFF81F
S31508001180200690F88104C0F38000C0B200282DD054
S31508001190002005F0E7F8012814D1002005F0B0F882
S315080011A0002804D10020DFF8F81581F81004DFF8CC
S315080011B0F005D0F8400330F00200DFF8E415C1F876
S315080011C0400313E0042005F0CDF8012804D00520DB
S315080011D005F0C8F8012809D1DFF8C405D0F840039E
S315080011E030F00200DFF8B815C1F8400301BD80B53C
S315080011F00B2005F0B7F801281CD1DFF8A40590F8F4
S31508001200810410F00100002814D1DFF8940590F845
S315080012108104C0F38000C0B200280BD0DFF8800537
S31508001220D0F8400330F00200DFF87415C1F8400327
S31508001230012000E0002002BDDFF8640590F84003B5
S31508001240000613D5DFF85805D0F8400330F08000C3
S31508001250DFF84C15C1F84003DFF84405D0F8400321
S3150800126030F00200DFF83815C1F84003704710B5B2
S315080012700024FFF7FDFD03F00DFEDFF8240590F8C6
S315080012808104C0F34010C0B200281BD00020FFF72D
S3150800129029FEFFF7D1FF01F004FF002803D0FFF76E
S315080012A0A6FF204304002000C0B2002803D1FFF7A0
S315080012B065FFFFF7F9FEFFF71DFEFFF77EFE01202B
S315080012C0FFF710FEFFF790FEDFF8D40490F88004CD
S315080012D0022801D101F0B0FA10BD10B50400DFF8FC
S315080012E0D40403F0F7FADFF8B804D0F8400330F076
S315080012F02000DFF8AC14C1F84003012000F068FFB5
S31508001300002801D00B2800D11BE0DFF89404D0F8A0
S31508001310840490F8F900DFF8881481F83E04DFF8B1
S31508001320800490F81204DFF8781481F84104092043
S31508001330DFF86C1481F83D04092004F0F8FF01F089
S31508001340C1FD10BD10B50400DFF8540490F815046B
S31508001350DFF84C1481F8B803DFF84404D0F88404A5
S3150800136090F91901DFF8381481F8BB03DFF8300467
S31508001370D0F8840490F82D01DFF8241481F8C80306
S31508001380DFF81C04D0F8840490F83F01DFF8101445
S3150800139081F8C9030020DFF8081481F8CA03002081
S315080013A0DFF8FC1381F8CB03DFF8741BDFF8900D28
S315080013B001F01CFA10BD10B50400DFF8E40390F83C
S315080013C08004002835D0DFF8D80390F81504DFF834
S315080013D0D01381F8CC03DFF8C803D0F88404D0F81A
S315080013E01C01DFF8BC13C1F8D003DFF8B403D0F84A
S315080013F0840490F82D01DFF8A81381F8DC03DFF8E0
S31508001400A003D0F8840490F83F01DFF8941381F81C
S31508001410DD030020DFF8881381F8DE030120DFF8FA
S31508001420801381F8DF03DFF81C1DDFF89C0D01F03F
S31508001430DDF910BD10B50400DFF80C0D03F04AFA0B
S31508001440DFF85C0390F81404012804D10120DFF8C2
S31508001450501381F81304DFF84803D0F8840490F891
S31508001460F000022809D1DFF8380390F8810450F01B
S315080014702000DFF82C1381F88104DFF82403D0F864
S31508001480480300280AD0C648D0F84803C068002890
S3150800149004D0C348D0F84803C068804710BD000090
S315080014A0FC0204202DE9F843804689461400089F6B
S315080014B0099D0A9E002C03D0002D01D0002E01D1D3
S315080014C00A2034E04046C0B200281BD002281FD0AC
S315080014D01BD3042801D01ED320E09DF80200012862
S315080014E00DD14846C0B2002803D04846C0B20328EA
S315080014F002D10220287004E00120287001E00320B0
S3150800150028700DE0042028700AE00520287007E0FE
S315080015100620287004E00720287001E0052006E070
S315080015203300E289390089B2287804F0EFFABDE879
S31508001530F28338B5050003249948D0F8840490F856
S31508001540F000002805D0022800F0CC80C0F0BB804F
S31508001550D7E02800C0B200280DD19148D0F88404FD
S3150800156010F58E72D2E900018D4AD2F8842412F55C
S315080015709272C2E900012800C0B201280DD12800E4
S31508001580C0B203F071FC04002000C0B2002804D1E8
S315080015908348D0F8840480F8F0502800C0B20228A6
S315080015A040F090807E48D0F8840480F8F050DFF848
S315080015B01C0CDFF8901B142205F064FA0220784907
S315080015C081F8F3030020010049B2042954DA74496A
S315080015D0D1F88414020052B2282312FB03F21144F4
S315080015E091F85110012945D16D49D1F884140200AA
S315080015F052B2282312FB03F21144496E684AD2F804
S315080016008424C2F824116649D1F88414020052B21F
S31508001610282312FB03F2114491F86810604AD2F8A5
S31508001620842482F828115E4991F815145C4A82F8D8
S31508001630E0135B49D1F88414D1F82411584AC2F84A
S31508001640E4135749D1F8841491F82D11544A82F8B5
S31508001650F0135349D1F8841491F83F11504A82F88F
S31508001660F11303214E4A82F8F31301214C4A82F8FA
S31508001670F21301E0401CA6E70020494981F814044A
S31508001680DFF8DC0D406B8047DFF8400B00904448DC
S31508001690D0F88404D0F8FC304148D0F8840490F897
S315080016A000213F48D0F8840490F92801010049B286
S315080016B03B48D0F88404007803F0E0FA01F0BCF85F
S315080016C0002004001DE02800C0B203F0CDFB040092
S315080016D02000C0B2002804D13148D0F8840480F82C
S315080016E0F0500EE02800C0B200280AD12C48D0F8E5
S315080016F0840480F8F050DFF8680D406B80470020BE
S3150800170004002000C0B232BD1CB504002448D0F83D
S31508001710840490F82C018DF802008DF801400D2004
S315080017208DF800001E48D0F8840490F83F0101287F
S3150800173002D10E208DF8000069461948D0F88404B5
S31508001740007803F03CFAC0B216BD2DE9F04104005A
S315080017500D00160000275FF00008280040B2FFF7CA
S31508001760D3FF02003000C0B250FA84F110000B001B
S3150800177080B29BB2984206D3080080B2B0F5807F4B
S3150800178001DA012000E00020BDE8F081044890F865
S31508001790810450F01000024981F881047047000066
S315080017A0C40004200005042014050420280504208C
S315080017B0E00404202C0404202DE9F84F9AB0040014
S315080017C00F001500984600208DF808000026022212
S315080017D000210DF10A0005F098F938002900C0B279
S315080017E0C9B2884280F098833800471CC0B2205C92
S315080017F0022826D003283ED0042800F0D1800528E8
S3150800180000F0EF80062800F05A81072800F07A8158
S31508001810082800F0B881092800F0E1810A2800F0BC
S315080018204D820D2800F08282102800F0F1821128DE
S3150800183000F0FB82122800F02683132800F042836A
S3150800184069E3032004F08EFD012813D1032100204B
S3150800185004F03EFD3800C0B2205CDFF8C81681F8F7
S3150800186058047F1C3800C0B2205CDFF8B81681F82F
S3150800187059047F1CB1E700208DF80E0000208DF872
S315080018800D0000208DF80C0000208DF809003000AE
S31508001890C0B2002840F08380012006003800C0B29C
S315080018A02044401E1190E81B401C8DF84800DFF8C4
S315080018B07406D0F8840490F8F2008DF84A00DFF830
S315080018C06406D0F8840490F82C018DF84900DFF8F6
S315080018D05406D0F8840490F8F9008DF84B00DFF828
S315080018E04406D0F8840490F8F8008DF84C00DFF828
S315080018F03406D0F8840490F818018DF84D00DFF806
S315080019002406D0F8840410F5E870006810900DF1EC
S315080019100900019003A800900DF10D030DF10E02C8
S3150800192010A9DFF80006D0F88404007803F0DDF982
S315080019308DF808009DF8080010F00700072817D151
S315080019409DF80E00DFF8DC15D1F8841481F8F9004B
S315080019509DF80D00DFF8CC15D1F8841481F8F8004D
S315080019609DF80C00DFF8BC15D1F8841481F818012D
S315080019705FF000099DF80900052190FBF1F0494642
S31508001980C9B2814207DA012202A9032004F099FFAD
S3150800199019F10109EEE79DF80900C7197F1E1CE732
S315080019A03800C0B2205C10F00F00DFF87815D1F8C7
S315080019B0841481F83C017F1C0121DFF86805D0F802
S315080019C0840490F93C018140DFF85805D0F8840476
S315080019D0A0F8C21100220DF10A01042004F071FFDB
S315080019E0FBE607208DF808003800C0B2205CC0F37B
S315080019F002108DF811003800C0B2205C10F00F00FC
S31508001A008DF810007F1C3800C0B2205C05907F1C42
S31508001A1005983900C9B2615C50EA012005907F1C1F
S31508001A2005983900C9B2615C50EA014005907F1CEF
S31508001A30059964204143059104A9DFF8E804D0F824
S31508001A408404007803F069F98DF808009DF8080009
S31508001A5010F00700072825D19DF81000DFF8C414F8
S31508001A60D1F8841481F820019DF81000DFF8B41429
S31508001A70D1F8841481F828010598DFF8A814D1F85C
S31508001A808414C1F81C010598DFF89814D1F8841459
S31508001A90C1F824019DF81100DFF88814D1F88414E0
S31508001AA081F819019DF808008DF80A0001220DF148
S31508001AB00A01052004F005FFFFF768FE8DE64FF0E2
S31508001AC0FF09DFF86004D0F8480300280DD0DFF8D6
S31508001AD05404D0F848030068002806D0DFF8440408
S31508001AE0D0F848030068804781468DF80A9018F0B8
S31508001AF03F008DF80B0002220DF10A01062004F0C2
S31508001B00E0FE6AE603208DF808003800C0B22056C9
S31508001B108DF85C007F1C0DA816903800C0B2205CBA
S31508001B200D907F1C0D983900C9B2615C50EA0120FE
S31508001B300D907F1C0D983900C9B2615C50EA0140CE
S31508001B400D907F1C0D99642041430D9100200E9045
S31508001B503800C0B220568DF83C007F1C16A9DFF865
S31508001B60C403D0F88404007803F0E4F88DF808007C
S31508001B709DF808008DF80A0001220DF10A010720D8
S31508001B8004F09FFE29E63800C0B214F8009019F058
S31508001B900F097F1C4846C0B2002801D119F1010976
S31508001BA04946C9B24FF47A704143DE48D0F88404F6
S31508001BB0C0F80811DB48D0F88404D0F8080110F5FD
S31508001BC07A70D849D1F88414C1F80C0100220DF1B5
S31508001BD00A01082004F075FEFFF7D8FDFDE5380078
S31508001BE0C0B214F800A07F1C00208DF80000002069
S31508001BF08DF801005FEA8A6002D501208DF80100A0
S31508001C005FEACA6002D501208DF800001AF00F00BD
S31508001C108DF802006946C348D0F88404007803F0BA
S31508001C2096F810F1010F48D09DF80000BD49D1F88B
S31508001C30841481F82C019DF80100BA49D1F884145E
S31508001C4081F82D01DFF83C0C9DF80210405C00EE8F
S31508001C50100AB8EE400AB348D0F8840480ED4C0A5E
S31508001C6002208DF83000AF48D0F8840490F82C0193
S31508001C708DF832000CA9AB48D0F88404007802F03D
S31508001C809EFF81464846A749D1F8841491F9F91070
S31508001C9040B2884205DAA348D0F8840490F9F900DE
S31508001CA000E048469F49D1F8841481F8F9000022DB
S31508001CB00DF10A01092004F004FE8EE503208DF8D3
S31508001CC008003800C0B2205C8DF820007F1C380060
S31508001CD0C0B2205C09907F1C09983900C9B2615CC2
S31508001CE050EA012009907F1C09983900C9B2615C45
S31508001CF050EA014009907F1C0999642041430991E3
S31508001D0008A98848D0F88404007803F02DF88DF8DF
S31508001D1008009DF808008DF80A0001220DF10A0155
S31508001D200A2004F0CEFDFFF731FD56E50822002112
S31508001D3006A804F0EAFE082200210AA804F0E5FE37
S31508001D400822002114A804F0E0FE3800C0B2205C86
S31508001D5006907F1C06983900C9B2615C50EA0120DA
S31508001D6006907F1C06983900C9B2615C50EA0140AA
S31508001D7006907F1C06983900C9B2615C50EA01607A
S31508001D8006907F1C3800C0B2205CADF81C007F1C92
S31508001D90BDF91C004FF47A7110FB01F00012ADF882
S31508001DA01C00DDE90601CDE90A010A99DFF8E80C0D
S31508001DB041180A9118A802F0C8FEDDE91801CDE914
S31508001DC01401DFF8D82CD2E9000100910300DDE9FF
S31508001DD00A010A00010018A802F075FEDDE91801DB
S31508001DE000910300DDE914010A00010018A802F0B9
S31508001DF043FEDDE91801CDE90A01DDE90A0102F031
S31508001E0087FE03F03FF80120464981F83804E4E4E8
S31508001E10444890F88004042806D0424890F8800484
S31508001E20052801D003F029F8D7E45FF003095FF02D
S31508001E30000A3800C0B2215C7F1C3800C0B2205CA2
S31508001E4051EA00217F1C3800C0B2205C51EA0041EB
S31508001E507F1C6420414301913800C0B2205C10F019
S31508001E600F008DF80F007F1C01999DF80F0003F0F5
S31508001E7005F883468DF80AB001220DF10A011120F2
S31508001E8004F01FFDA9E45FF000095FF0000A3800BE
S31508001E90C0B2205C7F1C3900C9B2615C50EA0120DF
S31508001EA0ADF804007F1C3800C0B214F800B07F1CDF
S31508001EB0DFF8A00D02685946C9B2BDF8040002F061
S31508001EC0E0FF8AE45FF0000A3800C0B214F8009018
S31508001ED07F1C3800C0B2205C59EA00297F1C3800F4
S31508001EE0C0B2205C59EA00497F1C642000FB09F94E
S31508001EF0484602F0C8FF012803D101208DF80A00E0
S31508001F0002E000208DF80A0001220DF10A011320D3
S31508001F1004F0D7FC61E4FFE71BB0BDE8F08F0000D2
S31508001F207C040420C40004202DE9F84F88B004007E
S31508001F300D0016001F005FF00308DFF8500DD0F8FB
S31508001F40840490F9F990DFF8440DD0F8840490F9E8
S31508001F50F8A0DFF8380DD0F88404D0F8F400029021
S31508001F60DFF8280DD0F8840490F8D401002801D1B0
S31508001F700720E1E0DFF8140DD0F8840490F83C015E
S31508001F80002806D10020DFF8041DD1F88414C1F812
S31508001F90C80100208DF804009DF8040010F0F00038
S31508001FA08DF804009DF8040010F07F00DFF8DC1CB3
S31508001FB0D1F8841491F8F21050EAC1108DF8040093
S31508001FC0DFF8C80CD0F8840490F8F000012806D190
S31508001FD09DF8040050F010008DF8040005E09DF807
S31508001FE0040010F0EF008DF80400DFF8A00CD0F81C
S31508001FF0840490F8C001012805D19DF8040050F02A
S3150800200020008DF80400DFF8840CD0F8840410F55D
S31508002010E8700068039001208DF810009DF8040010
S31508002020C0B2C0098DF81100DFF8600CD0F884043E
S31508002030D0F8F4000590DFF8540CB0F8F403ADF8C6
S315080020401800DFF8480CB0F8F603ADF81A00DFF808
S315080020503C0CD0F8840490F8F9008DF81C00DFF8E1
S315080020602C0CD0F8840490F8F8008DF81D00DFF8E1
S315080020701C0CD0F8840490F82C018DF81E00DFF8AB
S315080020800C0CD0F8840400788DF81F0002ABDFF83A
S31508002090FC0BD0F8840410F1F802DFF8F00BD0F846
S315080020A0840410F1F90103A804F0BCFD9DF804109E
S315080020B011F0BF0151EA80118DF80410380080B282
S315080020C0009033002A00D2B201A9200000F0DCFB00
S315080020D083465846C0B2002803D05846C0B20A28DC
S315080020E003D1002000F074F883465846C0B2002891
S315080020F00CD0DFF8980BD0F8840480F8F990DFF854
S315080021008C0BD0F8840480F8F8A013E00020DFF8E0
S315080021107C1BD1F8841481F8C0010298DFF86C1B87
S31508002120D1F88414C1F8F40004F01DFC002801D08D
S31508002130132001E05846C0B209B0BDE8F08F000090
S315080021404404042090040420BC040420F8B50400C8
S315080021500025002601272000C0B2FF282BD1002029
S31508002160FFF7E7F90020DFF8241B81F80401DFF800
S31508002170000DDFF8181BC1F80801FF20DFF80C1B5B
S3150800218081F80C0116F01F06DFF8000B80F80D61C8
S3150800219003F0BAF901000822DFF8140C04F09EFADD
S315080021A003F0A0F908220100DFF8080D04F096FAFA
S315080021B00020070001E0022005003800C0B200F048
S315080021C007F8C0B2F2BD00005C040420A404042091
S315080021D070B586B004000325002001900020029007
S315080021E0DFF8A80AD0F8840490F83E0100F08EF9CA
S315080021F0DFF8980AD0F88404D0F8C8010390DFF80D
S315080022008C0AD0F8840490F8F9008DF81400DFF8E9
S315080022107C0AD0F8840490F83D018DF81600DFF8A2
S315080022206C0AD0F8840490F8D401002803D1002061
S315080022308DF8150002E001208DF81500DFF84C0A2C
S31508002240D0F88404D0F8C4010490DFF8400AD0F826
S31508002250840410F5E470009001ABDFF85C2C03A948
S31508002260DFF8280AD0F88404007802F0A7FD0600F3
S315080022700198DFF8481C08603000C0B2002822D058
S315080022803000C0B20B281BD12000C0B2012817D1DC
S315080022900198002812D0DFF8F409D0F8400350F06E
S315080022A02000DFF8E819C1F840030199DFF8100C9F
S315080022B002F069FBDFF8080C02F06AFA0020CCE0AD
S315080022C03000C0B2C9E0DFF8C409D0F8840490F938
S315080022D0190103005BB2DFF8B409D0F8840490F959
S315080022E0F920DFF8A809D0F8840490F82D11DFF852
S315080022F09C09D0F88404007802F082FDDFF8501CAF
S315080023000091DFF88819D1F88414D1F8FC30DFF889
S315080023107C19D1F8841491F80021010049B2DFF83C
S315080023206C09D0F88404007802F0A8FCDFF8240CC5
S315080023300090DFF85809D0F88404D0F8FC30DFF8AC
S315080023404C09D0F8840490F80021DFF84009D0F849
S31508002350840490F92001010049B2DFF83009D0F869
S315080023608404007802F08AFCDFF82009D0F8840497
S3150800237090F8D40100281ED1DFF81009D0F884049B
S31508002380D0F81011DFF80409D0F8C4034118DFF8B3
S31508002390FC08C0F8B013DFF8F408D0F88404D0F8C5
S315080023A01411DFF8E808D0F8D8034118DFF8DC087C
S315080023B0C0F8B41336E002A804F0FFFA002801D0EA
S315080023C013204AE0029AD2B2DFF8C008D0F8840493
S315080023D090F9F910DFF8B40890F83702FFF7B5F965
S315080023E0002801D1082038E0DFF8A008D0F88404D6
S315080023F0D0F80811DFF89408D0F8C4034118DFF8BC
S315080024008C08C0F8B013DFF88408D0F88404D0F834
S315080024100C11DFF87808D0F8D8034118DFF86C08F3
S31508002420C0F8B413DFF8640890F81514DFF85C08F0
S31508002430D0F8840490F8F900C0B200F013F805004B
S315080024402800C0B2002802D02800C0B205E0DFF894
S315080024503C0890F8150400F023FB06B070BD000098
S315080024605CB502087CB504000D0013260020009018
S31508002470DFF8180890F80401002802D0042813D0C1
S3150800248040E0DFF8340C03F0D4FB01000800C0B2CA
S31508002490002801D0112038E0DFF8F00790F80C0189
S315080024A0DFF8E82710802FE0684603F022FB0028B3
S315080024B001D0122029E0DFF8D40790F8100400288C
S315080024C005D1DFF8C80790F81204022802DB009845
S315080024D0401E0090DFF8E03B2A00D2B22100C9B2C4
S315080024E0009803F01CFD01000800C0B2002801D0C6
S315080024F011200AE0DFF8940790F80C01DFF88C2722
S31508002500108001E0032000E0002076BD1FB504001E
S31508002510DFF87807D0F8840490F8D401002803D1AE
S3150800252000208DF8000002E001208DF80000DFF899
S315080025305C07D0F8840490F83D018DF802008DF808
S315080025400340DFF84807D0F88404D0F8CC0102F03D
S3150800255035FA0190DFF83407D0F818040290002005
S315080025608DF80100DFF8240790F88104C0F3800095
S31508002570C0B2002807D0002003F0F4FE012802D1DB
S3150800258001208DF801006946DFF80007D0F88404B9
S31508002590007802F007FCDFF8F406D0F81814DFF824
S315080025A0EC06D0F88404B0F8C2014143DFF8DC0633
S315080025B0D0F81804091ADFF8D406D0F88404C0F84D
S315080025C0C8111FBD32B5040015002000C0B200288E
S315080025D003D02000C0B201280FD12800C0B20128BC
S315080025E009D19DF80000C0F34010C0B2002804D0FD
S315080025F004F0CEF901E004F0CBF931BDE0B50020D6
S31508002600DFF88816D1F8841481F8D4010020DFF8A1
S315080026107C16D1F88414C1F8F4000020DFF86C1693
S3150800262081F810040120DFF8641681F811040120EE
S31508002630DFF8581681F812040020DFF8501681F8E2
S3150800264013040020DFF84416D1F8841481F83C01FD
S315080026500120DFF83816D1F88414A1F8C201DFF892
S315080026602C06D0F884040079DFF82016D1F88414F3
S3150800267081F8F800DFF81406D0F884044079DFF80A
S315080026800C16D1F8841481F8F900DFF80006D0F8A2
S31508002690840490F82500DFF8F415D1F8841481F83D
S315080026A01901DFF8E805D0F884042830D0E90023BA
S315080026B0DFF8D805D0F8840410F58E70C0E9002339
S315080026C0DFF8C805D0F884043030D0E90023DFF8F5
S315080026D0BC05D0F8840410F59270C0E90023DFF831
S315080026E0AC05D0F8840490F83800DFF8A015D1F8C6
S315080026F0841481F82C01DFF89405D0F8840490F846
S315080027003900DFF88815D1F8841481F82D01DFF82F
S315080027107C05D0F88404DFF87415D1F88414C96BE5
S31508002720C0F83011DFF86405D0F88404DFF85C15CA
S31508002730D1F88414096CC0F834110020DFF84C1560
S3150800274081F814040020DFF84415D1F8841481F8C0
S31508002750C00101208DF80400002000906946DFF8CA
S315080027602C05D0F88404007802F046FA0020DFF839
S315080027701C1581F81504DFF8140590F81504DFF820
S315080027800C15D1F8841481F83E01DFF8000590F89D
S315080027901504DFF8F81481F8CC03DFF8F004D0F854
S315080027A08404D0F81C01DFF8E414C1F8D003DFF87C
S315080027B0DC04D0F8840490F82D01DFF8D01481F8F1
S315080027C0DC03DFF8C804D0F8840490F83F01DFF88A
S315080027D0BC1481F8DD030020DFF8B01481F8DE03AD
S315080027E00120DFF8A81481F8DF0307BD38B5040017
S315080027F00D00200002F06EF8DFF8C008806B8047F5
S31508002800DFF8BC282900DFF88404D0F884040078AF
S3150800281002F04BFA01280ED1DFF87004D0F88404D0
S31508002820D0F80401DFF89418C96B8847E87CDFF80C
S315080028305C1481F8800431BD80B50220DFF84C14A1
S3150800284081F8F3030120DFF8441481F8F203DFF876
S315080028507028DFF87018DFF83404D0F8840400789C
S3150800286002F023FA01280CD10020DFF85018C96BB2
S315080028708847DFF8180490F8F303DFF8101481F896
S31508002880800401BD20D902082DE9FE4306000F0089
S3150800289090461C000A9D0020DFF8F01308800020EF
S315080028A0DFF8E81381F81404002001900020009056
S315080028B05FF00009002C01D1002005002A0092B221
S315080028C02100DFF8040803F009FFDFF8C00380F8E9
S315080028D037523078DFF8B41388703078C0B24009C0
S315080028E0C0B202280AD0042803D0072800F0B7800F
S315080028F0CCE00120DFF8941381F814040420DFF8F3
S315080029008C1381F80401DFF86805DFF88013C1F835
S315080029100801FF20DFF8741381F80C013078DFF81E
S315080029206C1381F80D01DFF8640380F82881DFF85D
S315080029305C03D0F88404C06CDFF85013C1F81001AA
S315080029403878DFF8481381F81401DFF8400390F867
S315080029503702DFF8381381F83001DFF86C07CB4906
S31508002960C1F82C0101A803F0C4F8002801D01220F0
S315080029708FE00198C549A1F816010020C34981F8DE
S3150800298041040020C14981F840040198BF49C1F8B3
S315080029904804684604F011F8002801D0132078E0AE
S315080029A0009800285AD0B948D0F8840490F9F9005C
S315080029B0FEF7AAFE8146B54890F83702002817D0D8
S315080029C00098102814D2DFF8042769460F2003F070
S315080029D0FFFF002801D013205BE038000099027839
S315080029E061F3030202703878A84981F8140135E0CA
S315080029F0A64890F83702002812D0009810280FD35E
S31508002A00A248D0F8840410F5A07269464846C0B2B8
S31508002A1003F0DEFF002801D013203AE00A2038E050
S31508002A209A48D0F8840410F5A07269464846C0B2A0
S31508002A3003F0CEFF002801D013202AE00020934996
S31508002A4081F828019148D0F8840410F5A0708F49C0
S31508002A50C1F82C0100988D4981F8300118E0002C46
S31508002A6013D08A4890F8370200280ED0874890F885
S31508002A70372292B22100DFF8080C03F02FFE8348B4
S31508002A8090F83702401C8149088001E0022000E0E6
S31508002A900020BDE8FE830000803DD512FC0304201B
S31508002AA018B585B0040000208DF800008DF80440A4
S31508002AB07648D0F8840490F8F9008DF80500734834
S31508002AC0D0F8840490F8F8008DF806006F48D0F81E
S31508002AD08404D0F8300102906C48D0F88404D0F809
S31508002AE03401039069480088ADF8100002F0B1F986
S31508002AF0012801D10E206DE06448D0F8840490F8CE
S31508002B00F00001280DD102F0A6F9012801D10F2005
S31508002B1060E002F0A2F9012801D10F205AE002F084
S31508002B20B8F9DFF8603B6A4601A95848D0F884042A
S31508002B30007802F0C9F80120544981F83D04534849
S31508002B40D0F8840490F8F900504981F83E049DF8BD
S31508002B5000004E4981F83F042000C0B24B49C1F835
S31508002B604C044A48D0F818044849C1F84404474870
S31508002B70D0F818044549C1F8540402F070F9012840
S31508002B8009D14248D0F8180402F080F9010000295A
S31508002B9001D010201EE002F065F93C48D0F8400349
S31508002BA050F002003949C1F84003384890F8140437
S31508002BB0002806D1354890F81004401C334981F89E
S31508002BC0100432480188C9B2A948DFF8F024126B0C
S31508002BD09047002006B010BD1FB50400DFF8A80A0C
S31508002BE090F815048DF80000DFF89C0AD0F88404E4
S31508002BF090F8F9008DF80100DFF88C0AD0F8840403
S31508002C0090F8F8008DF80200DFF87C0AD0F8840402
S31508002C10D0F830010190DFF8700AD0F88404D0F8B3
S31508002C2034010290ADF80C406946DFF85C0AD0F82A
S31508002C308404007802F0D8F8DFF84C0AD0F840038C
S31508002C4050F00200DFF8401AC1F84003002004B033
S31508002C5010BD0000BC13042070B504000D0016005A
S31508002C60220092B2310049B22800DFF850345B6C7A
S31508002C709847DFF8140AD0F8400350F00200DFF84E
S31508002C80081AC1F84003002070BD0000C4000420E3
S31508002C9080B5DFF8200BDFF8201B08604FF4EE70D4
S31508002CA0DFF8141B4860DFF8140B02F01CFFDFF88E
S31508002CB0081B086104220021684603F026FF6946BE
S31508002CC0DFF8C409D0F88404007801F0A1FFDFF822
S31508002CD0E81A88600098DFF8E01AC860DFF8E00AAA
S31508002CE002F0B8FADFF8D01A8861DFF8D80A03F0DC
S31508002CF0E3FDDFF8C41A0862DFF8CC0A02F099F897
S31508002D00DFF8B41A8862DFF8C40A03F09DFADFF820
S31508002D10A81A0863DFF8A00A02BD1CB50400002C37
S31508002D2001D1032042E0DFF86009D0F8400301280A
S31508002D3001D001203AE02068002806D0626892B2E5
S31508002D402168DFF8700A03F0C9FC02208DF8040038
S31508002D50A06800906946DFF83009D0F88404007846
S31508002D6001F04AFFA06902F067FA002801D0112095
S31508002D701CE0206902F0A9FE002801D0112015E008
S31508002D80206A03F08CFD002801D013200EE0A06A0B
S31508002D9002F04CF8012801D0142007E0206B03F05C
S31508002DA046FA012801D0152000E0002016BD0000D3
S31508002DB0D20104200200002A01D0002901D10320F3
S31508002DC02AE0107B10F00F0F06D092F8200000289A
S31508002DD002D0002008701EE092F82800002802D1D0
S31508002DE00120087017E0107B10F00F0F06D192F83B
S31508002DF02000002802D1022008700CE0107B10F099
S31508002E000F0F06D192F82000002802D00320087080
S31508002E1001E0172000E000207047DFF86C0890F802
S31508002E201004DFF86418D1F8841491F81811884250
S31508002E3001D301201BE0DFF8500890F88104C0F3A5
S31508002E404000C0B2002811D0DFF83C08D0F884044E
S31508002E5090F8F000002801D1012008E0DFF82808E2
S31508002E6090F82D04002801D1012000E000207047C9
S31508002E70C6000420DFF8100890F81204DFF80818D6
S31508002E8091F81114884201D3012011E0DFF8F80700
S31508002E9090F88104C0F34000C0B2002807D0DFF8DC
S31508002EA0E80790F84004012801D1012000E000203D
S31508002EB070470000DA010420D90404201415042000
S31508002EC02C040420DFF8C00790F88104C0F3400002
S31508002ED0C0B200280BD0DFF8B00790F82D04002800
S31508002EE01AD0DFF8A40790F82D04012814D0DFF8CB
S31508002EF09807D0F8840490F8F20001280CD1DFF87E
S31508002F008807D0F88404D0F8F400401CDFF8781756
S31508002F10D1F88414C1F8F4000020DFF86C1781F8A2
S31508002F2010040020DFF8601781F814040020DFF889
S31508002F30581781F81304DFF85007D0F8400330F02B
S31508002F400200DFF84417C1F840030120704700006B
S31508002F507C0404209004042080B5DFF82C0790F840
S31508002F601204DFF8241791F81114884234D2DFF8D6
S31508002F70180790F81204401CDFF80C1781F81204A1
S31508002F80DFF8040790F81204022190FBF1F201FB26
S31508002F901200012820D122208DF80000DFF8E8066B
S31508002FA0D0F8840490F82C018DF80200DFF8D806D2
S31508002FB0D0F8840490F8F9008DF801006946DFF826
S31508002FC0C806D0F88404007801F0F9FDDFF8B816D1
S31508002FD0D1F8841481F8F90001BDE0B5DFF8A80638
S31508002FE090F84004002818D101208DF80400DFF875
S31508002FF0C807806800906946DFF88C06D0F8840414
S31508003000007801F0F9FD0020DFF87C1681F8140439
S315080030100020DFF8741681F84004DFF86C0690F893
S315080030201204DFF8641681F8410407BD10B50400E0
S31508003030DFF85406D0F8480300280ED0DFF8480613
S31508003040D0F848038068002807D02000C0B2DFF80F
S315080030503816D1F848138968884710BD80B500200E
S31508003060FFF7E4FF01BD80B50120FFF7DFFF01BDD3
S3150800307080B50220FFF7DAFF01BD80B50320FFF710
S31508003080D5FF01BD80B50420FFF7D0FF01BD80B58F
S315080030900520FFF7CBFF01BD80B50620FFF7C6FF69
S315080030A001BDDFF8E40590F8810410F0050F01D0A2
S315080030B0012000E000207047CC0104205CB502081E
S315080030C0E4040420A4040420FC010420DC010420F8
S315080030D02DE9F04F8FB005000C001600002D01D029
S315080030E0002C01D10320C2E22868002808D06868AD
S315080030F0002805D0A868002802D0E868002801D171
S315080031000320B4E23000C0B201F050FD002801D11E
S315080031100920ACE2DFF84C19280003F067F84FF4F1
S31508003120EE720021DFF88C0603F0F2FA4FF4916292
S315080031300021DFF8540503F0EBFADFF87806DFF82C
S315080031404815C1F884040120DFF83C1581F81204FB
S315080031500120DFF8341581F81104DFF82C05D0F8C2
S31508003160840406700020DFF82015D1F8841481F84D
S31508003170F0000020DFF81015D1F8841481F83F011B
S3150800318001208DF80B0000208DF80A0003208DF829
S31508003190090000208DF808000298DFF8EC14D1F831
S315080031A0841411F5E87108600F208DF8000069464F
S315080031B0DFF8D404D0F88404007801F000FD01900B
S315080031C00198002801D0012000E00020DFF8B8149B
S315080031D0D1F8841481F83D010A208DF8000069466B
S315080031E0DFF8A404D0F88404007801F0E8FC019024
S315080031F00198DFF89414D1F88414087106208DF824
S3150800320000006946DFF88004D0F88404007801F0ED
S31508003210D6FC01900198DFF87014D1F8841448712F
S3150800322010208DF800006946DFF85C04D0F88404A5
S31508003230007801F0C4FC01900198DFF84C14D1F82D
S315080032408414086111208DF800006946DFF83804F7
S31508003250D0F88404007801F0B2FC01900198DFF8F8
S315080032602814D1F88414486112208DF800006946A4
S31508003270DFF81404D0F88404007801F0A0FC01906B
S315080032800198DFF80414D1F88414886113208DF8A6
S3150800329000006946DFF8F003D0F88404007801F0EE
S315080032A08EFC01900198DFF8E013D1F88414C86108
S315080032B014208DF800006946DFF8CC03D0F88404A2
S315080032C0007801F07CFC01900198DFF8BC13D1F876
S315080032D08414086217208DF800006946DFF8A803F1
S315080032E0D0F88404007801F06AFC01900198DFF8B0
S315080032F09813D1F8841481F8250018208DF8000059
S315080033006946DFF88403D0F88404007801F057FC96
S315080033108046DFF87403D0F88404C0F82880DFF804
S315080033206803D0F88404C0F8308019208DF80000AE
S315080033306946DFF85403D0F88404007801F03FFCAE
S315080033408146DFF84403D0F8840480F82C90DFF82F
S315080033503803D0F8840480F834901E208DF80000D5
S315080033606946C948D0F88404007801F028FC019021
S315080033700198C549D1F8841481F838001F208DF8C2
S3150800338000006946C048D0F88404007801F017FCAC
S315080033908246BD48D0F8840480F839A020208DF8EC
S315080033A000006946B848D0F88404007801F007FCA4
S315080033B00190B548D0F884040199C16321208DF89D
S315080033C000006946B048D0F88404007801F0F7FB9D
S315080033D00190AD48D0F88404019901640B208DF85A
S315080033E000006946A848D0F88404007801F0E7FB95
S315080033F08346A548A0F8F4B30C208DF8000069466A
S31508003400A148D0F88404007801F0D9FB07009E484B
S31508003410A0F8F67301209C49D1F8841481F8240099
S3150800342014209949D1F88414886006209649D1F861
S31508003430841408739448D0F8840480689249D1F8B3
S315080034408414C1F8FC009048D0F88404007B8E49A7
S31508003450D1F8841481F800018B48D0F884040069F7
S315080034608949D1F88414C1F804018748D0F884043E
S3150800347040698549D1F88414C1F808018248D0F812
S31508003480840480698049D1F88414C1F80C017E4807
S31508003490D0F88404C0697C49D1F88414C1F81001B5
S315080034A07948D0F88404006A7749D1F88414C1F8B9
S315080034B014017548D0F8840490F824007249D1F8AC
S315080034C0841481F81801FFF799F801206E49D1F89C
S315080034D0841481F8F1006C48C0F844536A48C0F86F
S315080034E048430020684981F8810401206649C1F8EB
S315080034F0400300206449D1F88414C1F8C4010020AF
S315080035006149D1F88414C1F8C801DFF85C15DFF801
S315080035105C0501F02FF9DFF85815DFF8580501F0BA
S3150800352029F9DFF85415DFF8540501F023F9DFF817
S315080035305015DFF8500501F01DF901F037FA524928
S31508003540D1F88414C1F8CC01DFF83C054E49C1F81E
S315080035504C03DFF838054C49C1F85403DFF8300549
S315080035604949C1F85C03DFF82C054749C1F85003FF
S31508003570DFF824054449C1F85803DFF82005DFF8C9
S3150800358020158968884700208DF8180000200590C6
S3150800359005A93D48D0F88404007801F02DFBDFF832
S315080035A0040501F0FFFC002801D011205FE0DFF8D8
S315080035B0F80402F051FA002801D0112057E0DFF88C
S315080035C0EC0403F05EF9002801D013204FE02E48E2
S315080035D0D0F88404503002F0EBFA002801D011200C
S315080035E045E0DFF8BC04C069804703F061F8264867
S315080035F0D0F8840490F8F100DFF8A414096E88471F
S31508003600DFF89C04406B804700200390002004905C
S31508003610002C03D060680390E0680490DFF89004FB
S315080036200790DFF890040890DFF88C040990DFF81B
S315080036308C040A901448D0F884044C300B90124835
S31508003640D0F884040C901048D0F88404F8300D9013
S315080036500D48D0F8840450300E90DFF8642403A98E
S3150800366007A801F0E2FB0120FDF73CFC00200FB0A3
S31508003670BDE8F08F00200449C1F8400300207047D8
S31508003680C7000420DC040420C400042038B588B030
S3150800369005000C00DFF82C04D0F88404D0F8F400F8
S315080036A00290DFF82004D0F8840490F905008DF81C
S315080036B00000DFF81004D0F8840490F904008DF8AF
S315080036C0010000200190002C01D103206FE0DFF8F3
S315080036D0F403D0F8840410F5E8700068039000201D
S315080036E08DF81000DFF8DC03D0F8840490F8F200B7
S315080036F08DF81100DFF8CC03D0F88404D0F8F40074
S315080037000590DFF8C003B0F8F403ADF81800DFF849
S31508003710B403B0F8F603ADF81A00DFF8A803D0F83A
S31508003720840490F8F9008DF81C00DFF89803D0F8A7
S31508003730840490F8F8008DF81D00DFF88803D0F8A7
S31508003740840490F82C018DF81E00DFF87803D0F871
S31508003750840400788DF81F0002AB0DF1010269465A
S3150800376003A803F05FFA9DF90000FDF7CDFF60702E
S3150800377001A803F022F9002801D0132017E00198C8
S31508003780102811D26078019988420DD36178019882
S31508003790091A21706078019951FA85F1884201D396
S315080037A0002004E0082002E000202070082009B06C
S315080037B030BD000010090420281204203C12042001
S315080037C0441204204C120420541204205C120420D3
S315080037D07CB504000026002C01D1032041E12078A5
S315080037E0002851D0012856D002285BD003285DD086
S315080037F004285FD0052864D0062868D01D286CD018
S315080038001E2871D01F2876D0202800F08180212814
S3150800381000F08880222800F08E80232800F095800A
S31508003820242800F0A880252800F09880262800F093
S31508003830AF80272800F0B380282800F0B780292811
S3150800384000F0BB802A2800F0BF802B2800F0C38038
S315080038502C2800F0C7802D2800F0CA802E2800F0FA
S31508003860D4802F2800F0CB80302800F0D58031286E
S3150800387000F0D980322800F0DD80332800F0E5809A
S31508003880342800F0DE80E6E08E48D0F8840490F80C
S31508003890F0002071E3E08B48D0F8840490F8D40156
S315080038A02071DCE001F01EFE6060D8E001F02CFE1D
S315080038B06060D4E08348D0F8840490F8F200207160
S315080038C0CDE08048D0F88404806C6060C7E07D480D
S315080038D0D0F88404C06C6060C1E07A48D0F88404EB
S315080038E090F8F1002071BAE07648D0F8840490F890
S315080038F03F012071B3E01D208DF80000694671482C
S31508003900D0F88404007801F05AF905006560A6E04D
S315080039106C48D0F8840410F58E70D0E90023C4E909
S3150800392001239CE06748D0F884042830D0E90023B6
S31508003930C4E9012393E06348D0F8840410F5927033
S31508003940D0E90023C4E9012389E05E48D0F884045D
S315080039503030D0E90023C4E9012380E01B208DF82C
S31508003960000069465748D0F88404007801F027F922
S315080039700500656073E01A208DF800006946514815
S31508003980D0F88404007801F01AF90500656066E04D
S315080039904C48D0F8840490F8180120715FE0494833
S315080039A0D0F88404D0F80401606058E04548D0F89F
S315080039B08404D0F80801606051E04248D0F88404D5
S315080039C0D0F80C0160604AE03E48D0F88404D0F88C
S315080039D01001606043E03B48D0F88404D0F8140135
S315080039E060603CE03748D0F884044079207136E0BE
S315080039F03448D0F8840490F8F90020712FE0314853
S31508003A00D0F884040079207129E02E48D0F884047F
S31508003A1090F8F800207122E02A48D0F88404D0F8FB
S31508003A20FC0060601BE02748D0F8840490F8000189
S31508003A30207114E02348D0F88404D0F8340160607B
S31508003A400DE0FFF725F9606009E01E48D0F8840408
S31508003A50006C606003E0200001F009FA06003000FF
S31508003A60C0B276BD99300008DB1200082C04042089
S31508003A704513000844040420B71300085C04042016
S31508003A8035140008BC040420AD0100080302000830
S31508003A90A102000867020008DB02000810040420DF
S31508003AA05CB502087B3000087130000885300008D4
S31508003AB028050420E00404201405042045050420F4
S31508003AC08F300008C400042038B584B004000025EF
S31508003AD0002C02D1032000F022BCDFF8480890F839
S31508003AE04003800702D5012000F019BC2078002881
S31508003AF000F09D80012800F09F80022800F0AA802F
S31508003B00032800F0AF80042800F0B480052800F0F0
S31508003B10B980062800F0BD80072800F0C180082873
S31508003B2000F0CC80092800F0D7800A2800F0E2804F
S31508003B300B2800F0ED800C2800F0F8800D2800F026
S31508003B4003810E2800F00E810F2800F01981102835
S31508003B5000F02481112800F02F81122800F03A8104
S31508003B60132800F04581142800F05081152800F02C
S31508003B705B81162800F06681172800F071811828E5
S31508003B8000F07C81192800F087811A2800F09281BC
S31508003B901B2800F09D811C2800F0A8811D2800F034
S31508003BA0B3811E2800F0C281202800F0C781212891
S31508003BB000F0E981222800F00A82232800F06082BA
S31508003BC0242800F09382252800F07E82262800F01B
S31508003BD09F82272800F0AD82282800F0B282292883
S31508003BE000F0B7822A2800F0BC822B2800F0C18298
S31508003BF02C2800F0C6822D2800F0DD822E2800F041
S31508003C0017832F2800F0FA82302800F02C833128F9
S31508003C1000F03B83322800F04A83332800F04F83B4
S31508003C20342800F05383352800F05B836DE3207950
S31508003C30FDF77FFC05006CE32079022807D0207980
S31508003C40DFF8E016D1F8841481F8D40101E00320E6
S31508003C5005005EE3606801F035FC002801D003200A
S31508003C60050056E3606801F03FFC002801D00320F8
S31508003C7005004EE32079DFF8AC16D1F8841481F8F4
S31508003C80F20046E36068DFF89C16D1F8841488646D
S31508003C903FE36068DFF88C16D1F88414C86438E30B
S31508003CA06068002807D06168012001F09DFF0028A0
S31508003CB003D0112033E3032005002AE360680028B7
S31508003CC007D06168002001F08FFF002803D011207B
S31508003CD025E3032005001CE36068002807D0616817
S31508003CE0022001F081FF002803D0112017E30320EA
S31508003CF005000EE36068002807D06168032001F01C
S31508003D0073FF002803D0112009E30320050000E310
S31508003D106068002807D06168042001F065FF002864
S31508003D2003D01120FBE203200500F2E260680028B8
S31508003D3007D06168052001F057FF002803D011203D
S31508003D40EDE203200500E4E26068002807D0616818
S31508003D50062001F049FF002803D01120DFE20320E6
S31508003D600500D6E26068002807D06168072001F0E0
S31508003D703BFF002803D01120D1E203200500C8E24A
S31508003D806068002807D06168082001F02DFF002828
S31508003D9003D01120C3E203200500BAE260680028B8
S31508003DA007D061687F2001F01FFF002803D011208B
S31508003DB0B5E203200500ACE26068002807D0616818
S31508003DC0802001F011FF002803D01120A7E203206C
S31508003DD005009EE26068002807D06168812001F02E
S31508003DE003FF002803D0112099E20320050090E282
S31508003DF06068002807D06168822001F0F5FE002877
S31508003E0003D011208BE20320050082E260680028B7
S31508003E1007D06168832001F0E7FE002803D011204F
S31508003E207DE20320050074E26068002807D0616817
S31508003E30842001F0D9FE002803D011206FE2032068
S31508003E40050066E26068002807D06168852001F0F1
S31508003E50CBFE002803D0112061E20320050058E2BA
S31508003E606068002807D06168862001F0BDFE00283A
S31508003E7003D0112053E2032005004AE260680028B7
S31508003E8007D06168872001F0AFFE002803D0112013
S31508003E9045E2032005003CE26068002807D0616817
S31508003EA0882001F0A1FE002803D0112037E2032064
S31508003EB005002EE26068002807D06168892001F0B5
S31508003EC093FE002803D0112029E20320050020E2F2
S31508003ED06068002807D061688A2001F085FE0028FE
S31508003EE003D011201BE20320050012E260680028B7
S31508003EF007D061688B2001F077FE002803D01120D7
S31508003F000DE20320050004E22079DFF81814D1F841
S31508003F10841481F8F100DFF80C04D0F8840490F8D2
S31508003F20F100DFF83818096E8847F2E12079DFF8E2
S31508003F30F413D1F8841481F83F01EAE194F90800F2
S31508003F408DF80400DFF8DC03D0F8840490F82D011E
S31508003F508DF80500072201A9DFF8C803D0F8840404
S31508003F60007800F062FE01280AD1D4E90101DFF8E1
S31508003F70B423D2F8842412F58E72C2E9000101E056
S31508003F8003200500C5E194F908008DF80400DFF860
S31508003F909403D0F8840490F82D018DF805000722C3
S31508003FA001A9DFF88003D0F88404007800F03DFE0C
S31508003FB0012809D1D4E90101DFF86823D2F884245D
S31508003FC02832C2E9000101E003200500A1E194F9C5
S31508003FD008008DF80400DFF84C03D0F8840490F844
S31508003FE02D018DF80500072201A9DFF83803D0F85E
S31508003FF08404007800F019FE01283ED1D4E90101B5
S31508004000DFF82023D2F8842412F59272C2E900015F
S31508004010DFF81003D0F8840490F8F00002282ED1B7
S31508004020DFF80003D0F8840490F8D401002826D0DD
S31508004030DFF82807406B8047DFF824070090DFF891
S31508004040E402D0F88404D0F8FC30DFF8D802D0F8BF
S31508004050840490F80021DFF8CC02D0F8840490F9A3
S315080040602801010049B2DFF8BC02D0F884040078C0
S3150800407000F004FEFEF7E0FB01E00320050048E13E
S3150800408094F908008DF80400DFF89802D0F8840443
S3150800409090F82D018DF80500072201A9DFF88402A2
S315080040A0D0F88404007800F0C0FD012809D1D4E9CD
S315080040B00101DFF87022D2F884243032C2E9000107
S315080040C001E00320050024E16068029001208DF8D4
S315080040D00C0002A9DFF84C02D0F88404007800F03E
S315080040E0C0FD002801D10320050012E16068029096
S315080040F000208DF80C0002A9DFF82802D0F8840405
S31508004100007800F0AEFD002801D10320050000E18B
S31508004110207900280AD02079102807DA2079DFF8D4
S315080041200412D1F8841481F8180101E0032005006F
S31508004130EFE06068DFF8EC11D1F88414C1F80401E7
S31508004140E7E06068DFF8DC11D1F88414C1F80801EB
S31508004150DFE06068DFF8CC11D1F88414C1F80C01EF
S31508004160D7E06068DFF8BC11D1F88414C1F81001F3
S31508004170CFE06068DFF8AC11D1F88414C1F81401F7
S31508004180C7E094F904008DF80400062201A9DFF8B7
S315080041909401D0F88404007800F047FD012807D17F
S315080041A09DF80400DFF87C11D1F88414487101E009
S315080041B003200500ADE094F904008DF80400DFF84B
S315080041C06401D0F8840490F82C018DF806000522C5
S315080041D001A9DFF85001D0F88404007800F025FD25
S315080041E0012808D19DF80400DFF83811D1F88414A5
S315080041F081F8F90001E0032005008AE094F904003B
S315080042008DF804000A2201A9DFF81801D0F8840401
S31508004210007800F00AFD012807D19DF80400DFF8B0
S315080042200411D1F88414087101E00320050070E038
S3150800423094F904008DF80400092201A9DFF8E400C6
S31508004240D0F88404007800F0F0FC012808D19DF825
S315080042500400DFF8D010D1F8841481F8F80001E0E2
S315080042600320050055E06068DFF8B810D1F884141B
S315080042708860DFF8B000D0F884048068DFF8A410FE
S31508004280D1F88414C1F8FC0043E02079DFF89410D3
S31508004290D1F884140873DFF88C00D0F88404007B06
S315080042A0DFF88010D1F8841481F8000131E0DFF8D6
S315080042B07400D0F884046168C0F8341129E0DFF886
S315080042C06400D0F884046168016422E0606800280C
S315080042D004D06068FEF721FD050001E00320050013
S315080042E017E0A07902280DDA60680E49D1F884141F
S315080042F011F5E8710860606801F0E0FB002803D05A
S3150800430011200CE00320050003E0200000F0B2FDB8
S315080043100500FEF7A8FEFEF7A1FE2800C0B205B00C
S3150800432030BD0000C40004207CB50400022502222A
S315080043300021684602F0E9FB002C01D10320F4E0D5
S31508004340FCF7C2FD012801D10120EEE002F05CF87D
S31508004350012801D10120E8E002F052F8002805D131
S3150800436014220021DFF8FC0302F0D2F90120DFF85D
S31508004370F81381F85104DFF8F00390F8810450F03F
S315080043800400DFF8E41381F8810420788DF804002E
S3150800439001208DF8050000208DF8070020780028F8
S315080043A00FD0032847D0042851D0052854D009280F
S315080043B059D00B2800F08A800C2860D00D2879D0B7
S315080043C097E0DFF8A40390F84003800601D50120A2
S315080043D0ABE0FEF713F9002294F90400010049B294
S315080043E0DFF88403D0F88404007800F0CAFCDFF80C
S315080043F07813D1F8841481F8F90007208DF80500A0
S31508004400FF20FDF7A3FE05002800C0B2002811D042
S31508004410012294F90400010049B2DFF84C03D0F8F0
S315080044208404007800F0ADFCDFF83C13D1F884145E
S3150800443081F8F9005DE000200500002269460220A7
S3150800444002F03FFA002801D01320050051E0A088A9
S31508004450FEF7C2FB05004CE0227BA168A088FEF7A8
S31508004460FBFB050045E000200500002269460D20FB
S3150800447002F027FA002801D01320050039E0BA48CF
S31508004480D0F8840490F8F000002812D12679207913
S3150800449010F0070000F0E5FC8DF80060002005002C
S315080044A001226946102002F00CFA002801D01320D8
S315080044B005001EE00020050000226946122002F0D1
S315080044C000FA002801D01320050012E001208DF81B
S315080044D0070000F0B6FC002808D1002000F0AEFC6A
S315080044E0002000F0B0FC0020050001E001200500D6
S315080044F0FFE72800C0B2002810D001F081FF00288D
S3150800450011D10020984981F81404974890F881043D
S3150800451010F0FB00944981F8810404E001A801F039
S3150800452098FEFEF79BFD2800C0B276BD2DE9FE4F2A
S31508004530040002275FF000085FF0000B5FF0000937
S31508004540002C01D10320C9E0FCF7BEFC012801D1EB
S315080045500120C3E000208DF80000142200218348C2
S3150800456002F0D6F80120804981F83D0401207E49F1
S3150800457081F812042078002804D001281AD00328CC
S3150800458035D048E0012081460120774981F8110499
S315080045909DF8000010F01F0050F040008DF8000054
S315080045A020798046A0680500A089060094F90E00C7
S315080045B0834630E001208146E07B082801DAE07B6B
S315080045C000E00820684981F811049DF8000010F001
S315080045D01F0050F080008DF8000020798046A06802
S315080045E00500A089060094F90E00834613E0012011
S315080045F0814601205C4981F811049DF8000050F0BD
S31508004600E0008DF80000606805002089060094F92E
S315080046100A008346FFE702208DF808005248D0F8C2
S31508004620840490F82C018DF80A0002A94E48D0F8A7
S315080046308404007800F0C3FA82465046594640B2D0
S3150800464049B2884200DBD3464846C0B2002841D06A
S315080046504548D0F8840490F8F20000281CD18DF85B
S3150800466004B04148D0F8840490F82C018DF806006F
S31508004670052201A93C48D0F88404007800F0D5FA50
S31508004680012807D19DF804003749D1F8841481F828
S31508004690F90001E0032021E033009BB22A004146DD
S315080046A0C9B26846FDF740FC07003800C0B20028CA
S315080046B00CD120782C4981F83C042B4890F88104C9
S315080046C050F00100284981F8810403E000202649BA
S315080046D081F81404FEF7C2FC3800C0B2BDE8FE8FAC
S315080046E01CB504008DF800400F2269461E48D0F814
S315080046F08404007800F099FA012804D11A48D0F801
S31508004700840480F83D4113BD1948006870470020AD
S31508004710174908607047144890F81404012808D10E
S31508004720114890F84004012801D1012002E0002038
S3150800473000E00120C0B270470B4890F841040A49CE
S3150800474091F81114884201D3012000E00020C0B27C
S315080047507047054890F83D04704700005CB50208AC
S31508004760A404042014050420C40004200005042021
S315080047701415042000220260002242600022027200
S3150800478000224272C1600022026100224261704723
S3150800479070B504000025EFF3108672B6002C04D01D
S315080047A0200000F01CF9012802D186F3108824E0C5
S315080047B0606820600120207200206072AD480068A1
S315080047C0002805D102F0C9FA200000F042F912E0EB
S315080047D002F064FA05002068281820602068A549B8
S315080047E009680968884203D2200000F032F902E01D
S315080047F0200000F016F986F3108870BD2DE9F04107
S3150800480002F0B4FA050002F0A8FA0600771B9948E8
S315080048100068002815D0974800688046D8F8140024
S3150800482000280ED0D8F8140004002068874203D266
S315080048302068C01B206001E000202060D8F81480A2
S31508004840ECE78C480068002814D08A48006880463F
S3150800485088480068406987490860002088F8080089
S31508004860D8F80C00002800D1FEE7D8F81000D8F8D0
S315080048700C1088477F48006800281CD002F00EFA02
S315080048807C4909680968814215D27A4800688046D9
S3150800489078480068406977490860002088F8080069
S315080048A0D8F80C00002800D1FEE7D8F81000D8F890
S315080048B00C108847DEE76F480068002808D06D4866
S315080048C00068407A002803D16A48006800F094F826
S315080048D0BDE8F081F8B50500EFF3108672B66548B5
S315080048E007686448046863480068002801D0002DFA
S315080048F002D186F3108845E0002028725D480068DA
S31508004900A8422CD15B480068407A012818D10020BB
S31508004910584909684872574800684069002809D00C
S31508004920544800684069534908605248006800F0D6
S3150800493063F825E002F0CEF900204E4908601FE032
S315080049404C4800684069002805D04A480068406914
S315080049504849086014E000204649086010E0002C29
S315080049600ED0AC4209D16069002802D064697C6126
S3150800497002E0002004007C6102E027006469EEE79B
S3150800498086F31088F1BDF8B504000D00002628004E
S3150800499002F0F5F907002000FFF79CFF02F061F925
S315080049A0874200D2070027606760F1BD10B502F0A4
S315080049B088F90400200002F0EEF910BD70B5040075
S315080049C0002C01D1002009E002F07BF90500200047
S315080049D002F0D5F90600A81B02F0DDF970BD020049
S315080049E024480168002905D0914201D1012002E03E
S315080049F04969F7E70020704738B5040002F031F935
S31508004A0005000120607202F049F9216828188142E0
S31508004A1003D202F043F928182060206802F02AF928
S31508004A2031BD10B413490A68124909684B695169BE
S31508004A30002909D019680468A14202D21A005B69E4
S31508004A40F5E75061436102E050610021416110BC05
S31508004A50704738B5050007480468002C01D00020C7
S31508004A6060726C610348056002480068FFF7C4FF7E
S31508004A7031BD0000441504200EB482B0DFF81811C9
S31508004A80D1E90023CDE90023029A04998A180092F5
S31508004A90BDF80C20BDF814108A18ADF80420BDF92D
S31508004AA00410B1F57A7F08DB0099491C0091BDF81E
S31508004AB00410B1F57A71ADF80410DDE90023C0E9F8
S31508004AC0002305B070470EB482B03449D1E90023FB
S31508004AD0CDE90023029A0499521A0092BDF80C20D7
S31508004AE0BDF81410521AADF80420BDF904100029B7
S31508004AF008D50099491E0091BDF8041011F57A7180
S31508004B00ADF80410DDE90023C0E9002305B07047BD
S31508004B1030B585B004000D002148D0E90023CDE961
S31508004B20012302A802F043F90190DDE90101009191
S31508004B30030021002A0003A8FFF7C5FFBDF91010DE
S31508004B40039802F04CF905B030BD18B587B00400DB
S31508004B501448D0E90023CDE901231348D0E90023FE
S31508004B60CDE9052302A802F022F9019004A903A8B9
S31508004B7002F028F9DDE9010100910300DDE90301EE
S31508004B800A00010005A8FFF777FFDDE90501C4E97A
S31508004B90000108B010BD000048DA020850DA020821
S31508004BA058DA020860DA020868DA02080100080022
S31508004BB0C0B2052801D1012000E00020704770B579
S31508004BC004000D00054806682000C0B2052803D178
S31508004BD0280002F011FA00E0300070BD7CDA020805
S31508004BE038B504000D002000C0B2052803D12800FE
S31508004BF002F0D7FAFFE731BD38B504000D002000F2
S31508004C00C0B2052803D1280002F0E0FAFFE731BD5B
S31508004C1038B504000D002000C0B2052803D12800CD
S31508004C2002F042FB00E0002032BD70B504000D0022
S31508004C3016002000C0B2052805D13100C9B22800E7
S31508004C4002F039FB00E0002070BD38B504000D0005
S31508004C502000C0B2052803D1280002F080FBFFE738
S31508004C6031BD38B504000D002000C0B2052803D1B7
S31508004C70280002F0C5FB00E0002032BD2DE9F04116
S31508004C8004000D0016001F00DDF818802000C0B2D1
S31508004C90052808D143463A003100C9B2280040B277
S31508004CA002F0C8FBFFE7BDE8F08170B504000D000F
S31508004CB016002000C0B2052804D13100280002F0F1
S31508004CC008FC00E0002070BDF8B504000D001600D1
S31508004CD01F002000C0B2052805D13A00310028007F
S31508004CE002F09FFC00E00020F2BD2DE9FC41040023
S31508004CF00D0016001F00DDF820802000C0B2052830
S31508004D0008D10998009043463A003100280002F07D
S31508004D102BFD00E00020BDE8F68138B504000D0043
S31508004D202000C0B2052803D1280002F0FBFD00E0F0
S31508004D30002032BD38B504000D002000C0B2052899
S31508004D4003D1280002F013FE00E0002032BD38B57A
S31508004D5004000D002000C0B2052803D1280002F087
S31508004D6038FE00E0002032BD38B504000D002000F2
S31508004D70C0B2052803D1280002F02FFE00E000206B
S31508004D8032BD70B504000D0016002000C0B205281B
S31508004D9006D13100C9B2280040B202F04BFE00E04D
S31508004DA0002070BD38B504000D002000C0B20528EB
S31508004DB003D1280002F040FEFFE731BD2DE9F0419E
S31508004DC004000D0016001F00DDF818802000C0B290
S31508004DD0052806D143463A003100280002F054FE61
S31508004DE000E00920BDE8F08138B504000D00200078
S31508004DF0C0B2052803D1280002F060FFFFE731BDE5
S31508004E00F8B504000D0016001F002000C0B20528E2
S31508004E1008D13A0052B2310049B22800C0B202F0B5
S31508004E207FFF01E03000C0B2F2BD704701000120EB
S31508004E3070470100002008600020704770477047DF
S31508004E40704700207047704770477047020000207F
S31508004E5070470020704700207047002070470020E8
S31508004E60704770477047704701000220704701007D
S31508004E700220704701000220704770470200002098
S31508004E8070477047704701000020704701000020F6
S31508004E907047704770470EE002684368024408305E
S31508004EA05FEAC37C44BF4B445B1E52F804CB43F80D
S31508004EB004CB091FF9D150F8041B0029ECD170471F
S31508004EC030B4020000231800C0B218281CDADFF834
S31508004ED03C461D00EDB21120454304EB050090F851
S31508004EE02C021400E4B2A0420CD1DFF820461D00C3
S31508004EF0EDB21120454304EB050010F50B70086070
S31508004F00002002E05B1CDEE7032030BC70477047D8
S31508004F102DE9F04385B004000D00170098460C9E55
S31508004F20002D01D0002E01D1022038E0DFF8E0057F
S31508004F3002F026FF69464046C0B2FFF7C1FF814628
S31508004F404846C0B2002828D10098411CDFF8C005A1
S31508004F5002F027FF002C05D010222100DFF8B0054B
S31508004F6002F028FF3A0092B22900DFF8A40502F001
S31508004F7021FFDFF89C1501A802F092FF9DF80700B3
S31508004F809DF80610090451EA00619DF8050051EAEA
S31508004F9000219DF80400014331604846C0B205B0BF
S31508004FA0BDE8F0837FB5040000251022002168467D
S31508004FB001F0ABFD0021DFF854252B00DBB21120F0
S31508004FC0434302EB030080F82C126D1C0121DFF825
S31508004FD03C252B00DBB21120434302EB030080F88B
S31508004FE02C126D1C0221DFF824252B00DBB21120C0
S31508004FF0434302EB030080F82C126D1C0321DFF8F3
S315080050000C252B00DBB21120434302EB030080F88A
S315080050102C126D1C0421DFF8F4242B00DBB21120BE
S31508005020434302EB030080F82C126D1C0521DFF8C0
S31508005030DC242B00DBB21120434302EB030080F88B
S315080050402C126D1C0621DFF8C4242B00DBB21120BC
S31508005050434302EB030080F82C126D1C0721DFF88E
S31508005060AC242B00DBB21120434302EB030080F88B
S315080050702C126D1C0821DFF894242B00DBB21120BA
S31508005080434302EB030080F82C126D1C0921DFF85C
S315080050907C242B00DBB21120434302EB030080F88B
S315080050A02C126D1C7F21DFF864242B00DBB2112043
S315080050B0434302EB030080F82C126D1C8021DFF8B5
S315080050C04C242B00DBB21120434302EB030080F88B
S315080050D02C126D1C8121DFF834242B00DBB2112041
S315080050E0434302EB030080F82C126D1C8221DFF883
S315080050F01C242B00DBB21120434302EB030080F88B
S315080051002C126D1C8321DFF804242B00DBB211203E
S31508005110434302EB030080F82C126D1C8421DFF850
S31508005120EC232B00DBB21120434302EB030080F88B
S315080051302C126D1C8521DFF8D4232B00DBB211203D
S31508005140434302EB030080F82C126D1C8621DFF81E
S31508005150BC232B00DBB21120434302EB030080F88B
S315080051602C126D1C8721DFF8A4232B00DBB211203B
S31508005170434302EB030080F82C126D1C8821DFF8EC
S315080051808C232B00DBB21120434302EB030080F88B
S315080051902C126D1C8921DFF874232B00DBB2112039
S315080051A0434302EB030080F82C126D1C8A21DFF8BA
S315080051B05C232B00DBB21120434302EB030080F88B
S315080051C02C126D1C8B21DFF844232B00DBB2112037
S315080051D0434302EB030080F82C126D1C8C21DFF888
S315080051E02C232B00DBB21120434302EB030080F88B
S315080051F02C1210226946C54B2E00F6B211204643E2
S3150800520003EB060000F22D2001F068FA10220021B7
S31508005210BE4801F07DFA10220021BE4801F078FA56
S315080052202000002802D0BC48046002E0BB48BA4906
S315080052300860002004B070BD10B50400002C07D02B
S315080052404FF471722100B14801F048FA002000E0DD
S31508005250022010BD01004FF471700860AB4870471A
S315080052602DE9FF4105000C00002C01D1022058E071
S3150800527000263000C0B2182852DAA4493200D2B249
S315080052801120424301EB020090F82C022900C9B212
S31508005290884243D12800C0B280280BD02800C0B26B
S315080052A0832807D02800C0B2862803D02800C0B2B9
S315080052B0892821D1062710220021684601F025FCFD
S315080052C06B467F221021200000F06AF880461022E3
S315080052D069468E4BB4465FFA8CFC112000FB0CFC29
S315080052E003EB0C0000F22D2001F0F8F98A4800685B
S315080052F080474046C0B214E010222100834B370095
S31508005300FFB21120474303EB070000F22D2001F0FE
S31508005310E5F9814800688047002002E0761CA8E786
S31508005320032004B0BDE8F081F8B504000D001600AE
S315080053301F003800C0B27F2801DB032009E0069869
S3150800534000903B00DBB2320092B229002000FFF742
S31508005350DFFDF2BD2DE9FC4104000D0016001F001B
S31508005360002C01D1022019E05FF006080020019008
S3150800537001A800903B00DBB22A0092B2210000206F
S31508005380FFF7C6FD0100C9B2002901D0C0B205E089
S3150800539001998E4201D001210800C0B2BDE8F6810C
S315080053A02DE9F84304000E0017001D00002C01D05B
S315080053B0002D01D1022035E0300080B2102190FB8B
S315080053C0F1F201FB1200002801D005202AE0F022A4
S315080053D00021534801F09CF969463800C0B2FFF72E
S315080053E06FFD80464046C0B2002819D14C4A1021AC
S315080053F00098401C03F0A2F85FF00009300080B264
S3150800540000280DD0464A4846C0B205EB000148467A
S31508005410C0B2204403F066F919F11009103EEDE711
S315080054204046C0B2BDE8F2832DE9F14185B00C00D3
S3150800543016001D00002C01D1022034E00627102298
S315080054400021684601F061FB2800C0B27F280DD113
S315080054503000C0B2002803D19DF81600002803D0FA
S315080054603000C0B2022801D103201CE06B4632008E
S31508005470D2B210212000FFF793FF80464046C0B203
S31508005480002802D04046C0B20DE069462800C0B2E6
S31508005490FFF7E6FE01000800C0B2002802D00800A7
S315080054A0C0B200E0002006B0BDE8F08110B50400E7
S315080054B0002C01D1022004E01A48C0698047206008
S315080054C0002010BD10B50400002C01D1022008E010
S315080054D0102221000D4801F001F90F4800688047A5
S315080054E0002010BD0948704710B50400002C01D1F2
S315080054F0022008E010222100064801F0EFF80648CD
